{
  "abi": [
    {
      "inputs": [
        {
          "internalType": "contract IJBDirectory",
          "name": "_directory",
          "type": "address"
        },
        {
          "internalType": "contract IJBFundingCycleStore",
          "name": "_fundingCycleStore",
          "type": "address"
        },
        {
          "internalType": "contract IJBPrices",
          "name": "_prices",
          "type": "address"
        }
      ],
      "stateMutability": "nonpayable",
      "type": "constructor"
    },
    {
      "inputs": [],
      "name": "CURRENCY_MISMATCH",
      "type": "error"
    },
    {
      "inputs": [],
      "name": "DISTRIBUTION_AMOUNT_LIMIT_REACHED",
      "type": "error"
    },
    {
      "inputs": [],
      "name": "FUNDING_CYCLE_DISTRIBUTION_PAUSED",
      "type": "error"
    },
    {
      "inputs": [],
      "name": "FUNDING_CYCLE_PAYMENT_PAUSED",
      "type": "error"
    },
    {
      "inputs": [],
      "name": "FUNDING_CYCLE_REDEEM_PAUSED",
      "type": "error"
    },
    {
      "inputs": [],
      "name": "INADEQUATE_CONTROLLER_ALLOWANCE",
      "type": "error"
    },
    {
      "inputs": [],
      "name": "INADEQUATE_PAYMENT_TERMINAL_STORE_BALANCE",
      "type": "error"
    },
    {
      "inputs": [],
      "name": "INSUFFICIENT_TOKENS",
      "type": "error"
    },
    {
      "inputs": [],
      "name": "INVALID_FUNDING_CYCLE",
      "type": "error"
    },
    {
      "inputs": [],
      "name": "PAYMENT_TERMINAL_MIGRATION_NOT_ALLOWED",
      "type": "error"
    },
    {
      "inputs": [
        {
          "internalType": "uint256",
          "name": "prod1",
          "type": "uint256"
        },
        {
          "internalType": "uint256",
          "name": "denominator",
          "type": "uint256"
        }
      ],
      "name": "PRBMath__MulDivOverflow",
      "type": "error"
    },
    {
      "inputs": [
        {
          "internalType": "contract IJBSingleTokenPaymentTerminal",
          "name": "",
          "type": "address"
        },
        {
          "internalType": "uint256",
          "name": "",
          "type": "uint256"
        }
      ],
      "name": "balanceOf",
      "outputs": [
        {
          "internalType": "uint256",
          "name": "",
          "type": "uint256"
        }
      ],
      "stateMutability": "view",
      "type": "function"
    },
    {
      "inputs": [
        {
          "internalType": "contract IJBSingleTokenPaymentTerminal",
          "name": "_terminal",
          "type": "address"
        },
        {
          "internalType": "uint256",
          "name": "_projectId",
          "type": "uint256"
        }
      ],
      "name": "currentOverflowOf",
      "outputs": [
        {
          "internalType": "uint256",
          "name": "",
          "type": "uint256"
        }
      ],
      "stateMutability": "view",
      "type": "function"
    },
    {
      "inputs": [
        {
          "internalType": "uint256",
          "name": "_projectId",
          "type": "uint256"
        },
        {
          "internalType": "uint256",
          "name": "_tokenCount",
          "type": "uint256"
        },
        {
          "internalType": "uint256",
          "name": "_totalSupply",
          "type": "uint256"
        },
        {
          "internalType": "uint256",
          "name": "_overflow",
          "type": "uint256"
        }
      ],
      "name": "currentReclaimableOverflowOf",
      "outputs": [
        {
          "internalType": "uint256",
          "name": "",
          "type": "uint256"
        }
      ],
      "stateMutability": "view",
      "type": "function"
    },
    {
      "inputs": [
        {
          "internalType": "contract IJBSingleTokenPaymentTerminal",
          "name": "_terminal",
          "type": "address"
        },
        {
          "internalType": "uint256",
          "name": "_projectId",
          "type": "uint256"
        },
        {
          "internalType": "uint256",
          "name": "_tokenCount",
          "type": "uint256"
        },
        {
          "internalType": "bool",
          "name": "_useTotalOverflow",
          "type": "bool"
        }
      ],
      "name": "currentReclaimableOverflowOf",
      "outputs": [
        {
          "internalType": "uint256",
          "name": "",
          "type": "uint256"
        }
      ],
      "stateMutability": "view",
      "type": "function"
    },
    {
      "inputs": [
        {
          "internalType": "uint256",
          "name": "_projectId",
          "type": "uint256"
        },
        {
          "internalType": "uint256",
          "name": "_decimals",
          "type": "uint256"
        },
        {
          "internalType": "uint256",
          "name": "_currency",
          "type": "uint256"
        }
      ],
      "name": "currentTotalOverflowOf",
      "outputs": [
        {
          "internalType": "uint256",
          "name": "",
          "type": "uint256"
        }
      ],
      "stateMutability": "view",
      "type": "function"
    },
    {
      "inputs": [],
      "name": "directory",
      "outputs": [
        {
          "internalType": "contract IJBDirectory",
          "name": "",
          "type": "address"
        }
      ],
      "stateMutability": "view",
      "type": "function"
    },
    {
      "inputs": [],
      "name": "fundingCycleStore",
      "outputs": [
        {
          "internalType": "contract IJBFundingCycleStore",
          "name": "",
          "type": "address"
        }
      ],
      "stateMutability": "view",
      "type": "function"
    },
    {
      "inputs": [],
      "name": "prices",
      "outputs": [
        {
          "internalType": "contract IJBPrices",
          "name": "",
          "type": "address"
        }
      ],
      "stateMutability": "view",
      "type": "function"
    },
    {
      "inputs": [
        {
          "internalType": "uint256",
          "name": "_projectId",
          "type": "uint256"
        },
        {
          "internalType": "uint256",
          "name": "_amount",
          "type": "uint256"
        }
      ],
      "name": "recordAddedBalanceFor",
      "outputs": [],
      "stateMutability": "nonpayable",
      "type": "function"
    },
    {
      "inputs": [
        {
          "internalType": "uint256",
          "name": "_projectId",
          "type": "uint256"
        },
        {
          "internalType": "uint256",
          "name": "_amount",
          "type": "uint256"
        },
        {
          "internalType": "uint256",
          "name": "_currency",
          "type": "uint256"
        }
      ],
      "name": "recordDistributionFor",
      "outputs": [
        {
          "components": [
            {
              "internalType": "uint256",
              "name": "number",
              "type": "uint256"
            },
            {
              "internalType": "uint256",
              "name": "configuration",
              "type": "uint256"
            },
            {
              "internalType": "uint256",
              "name": "basedOn",
              "type": "uint256"
            },
            {
              "internalType": "uint256",
              "name": "start",
              "type": "uint256"
            },
            {
              "internalType": "uint256",
              "name": "duration",
              "type": "uint256"
            },
            {
              "internalType": "uint256",
              "name": "weight",
              "type": "uint256"
            },
            {
              "internalType": "uint256",
              "name": "discountRate",
              "type": "uint256"
            },
            {
              "internalType": "contract IJBFundingCycleBallot",
              "name": "ballot",
              "type": "address"
            },
            {
              "internalType": "uint256",
              "name": "metadata",
              "type": "uint256"
            }
          ],
          "internalType": "struct JBFundingCycle",
          "name": "fundingCycle",
          "type": "tuple"
        },
        {
          "internalType": "uint256",
          "name": "distributedAmount",
          "type": "uint256"
        }
      ],
      "stateMutability": "nonpayable",
      "type": "function"
    },
    {
      "inputs": [
        {
          "internalType": "uint256",
          "name": "_projectId",
          "type": "uint256"
        }
      ],
      "name": "recordMigration",
      "outputs": [
        {
          "internalType": "uint256",
          "name": "balance",
          "type": "uint256"
        }
      ],
      "stateMutability": "nonpayable",
      "type": "function"
    },
    {
      "inputs": [
        {
          "internalType": "address",
          "name": "_payer",
          "type": "address"
        },
        {
          "components": [
            {
              "internalType": "address",
              "name": "token",
              "type": "address"
            },
            {
              "internalType": "uint256",
              "name": "value",
              "type": "uint256"
            },
            {
              "internalType": "uint256",
              "name": "decimals",
              "type": "uint256"
            },
            {
              "internalType": "uint256",
              "name": "currency",
              "type": "uint256"
            }
          ],
          "internalType": "struct JBTokenAmount",
          "name": "_amount",
          "type": "tuple"
        },
        {
          "internalType": "uint256",
          "name": "_projectId",
          "type": "uint256"
        },
        {
          "internalType": "uint256",
          "name": "_baseWeightCurrency",
          "type": "uint256"
        },
        {
          "internalType": "address",
          "name": "_beneficiary",
          "type": "address"
        },
        {
          "internalType": "string",
          "name": "_memo",
          "type": "string"
        },
        {
          "internalType": "bytes",
          "name": "_metadata",
          "type": "bytes"
        }
      ],
      "name": "recordPaymentFrom",
      "outputs": [
        {
          "components": [
            {
              "internalType": "uint256",
              "name": "number",
              "type": "uint256"
            },
            {
              "internalType": "uint256",
              "name": "configuration",
              "type": "uint256"
            },
            {
              "internalType": "uint256",
              "name": "basedOn",
              "type": "uint256"
            },
            {
              "internalType": "uint256",
              "name": "start",
              "type": "uint256"
            },
            {
              "internalType": "uint256",
              "name": "duration",
              "type": "uint256"
            },
            {
              "internalType": "uint256",
              "name": "weight",
              "type": "uint256"
            },
            {
              "internalType": "uint256",
              "name": "discountRate",
              "type": "uint256"
            },
            {
              "internalType": "contract IJBFundingCycleBallot",
              "name": "ballot",
              "type": "address"
            },
            {
              "internalType": "uint256",
              "name": "metadata",
              "type": "uint256"
            }
          ],
          "internalType": "struct JBFundingCycle",
          "name": "fundingCycle",
          "type": "tuple"
        },
        {
          "internalType": "uint256",
          "name": "tokenCount",
          "type": "uint256"
        },
        {
          "internalType": "contract IJBPayDelegate",
          "name": "delegate",
          "type": "address"
        },
        {
          "internalType": "string",
          "name": "memo",
          "type": "string"
        }
      ],
      "stateMutability": "nonpayable",
      "type": "function"
    },
    {
      "inputs": [
        {
          "internalType": "address",
          "name": "_holder",
          "type": "address"
        },
        {
          "internalType": "uint256",
          "name": "_projectId",
          "type": "uint256"
        },
        {
          "internalType": "uint256",
          "name": "_tokenCount",
          "type": "uint256"
        },
        {
          "internalType": "string",
          "name": "_memo",
          "type": "string"
        },
        {
          "internalType": "bytes",
          "name": "_metadata",
          "type": "bytes"
        }
      ],
      "name": "recordRedemptionFor",
      "outputs": [
        {
          "components": [
            {
              "internalType": "uint256",
              "name": "number",
              "type": "uint256"
            },
            {
              "internalType": "uint256",
              "name": "configuration",
              "type": "uint256"
            },
            {
              "internalType": "uint256",
              "name": "basedOn",
              "type": "uint256"
            },
            {
              "internalType": "uint256",
              "name": "start",
              "type": "uint256"
            },
            {
              "internalType": "uint256",
              "name": "duration",
              "type": "uint256"
            },
            {
              "internalType": "uint256",
              "name": "weight",
              "type": "uint256"
            },
            {
              "internalType": "uint256",
              "name": "discountRate",
              "type": "uint256"
            },
            {
              "internalType": "contract IJBFundingCycleBallot",
              "name": "ballot",
              "type": "address"
            },
            {
              "internalType": "uint256",
              "name": "metadata",
              "type": "uint256"
            }
          ],
          "internalType": "struct JBFundingCycle",
          "name": "fundingCycle",
          "type": "tuple"
        },
        {
          "internalType": "uint256",
          "name": "reclaimAmount",
          "type": "uint256"
        },
        {
          "internalType": "contract IJBRedemptionDelegate",
          "name": "delegate",
          "type": "address"
        },
        {
          "internalType": "string",
          "name": "memo",
          "type": "string"
        }
      ],
      "stateMutability": "nonpayable",
      "type": "function"
    },
    {
      "inputs": [
        {
          "internalType": "uint256",
          "name": "_projectId",
          "type": "uint256"
        },
        {
          "internalType": "uint256",
          "name": "_amount",
          "type": "uint256"
        },
        {
          "internalType": "uint256",
          "name": "_currency",
          "type": "uint256"
        }
      ],
      "name": "recordUsedAllowanceOf",
      "outputs": [
        {
          "components": [
            {
              "internalType": "uint256",
              "name": "number",
              "type": "uint256"
            },
            {
              "internalType": "uint256",
              "name": "configuration",
              "type": "uint256"
            },
            {
              "internalType": "uint256",
              "name": "basedOn",
              "type": "uint256"
            },
            {
              "internalType": "uint256",
              "name": "start",
              "type": "uint256"
            },
            {
              "internalType": "uint256",
              "name": "duration",
              "type": "uint256"
            },
            {
              "internalType": "uint256",
              "name": "weight",
              "type": "uint256"
            },
            {
              "internalType": "uint256",
              "name": "discountRate",
              "type": "uint256"
            },
            {
              "internalType": "contract IJBFundingCycleBallot",
              "name": "ballot",
              "type": "address"
            },
            {
              "internalType": "uint256",
              "name": "metadata",
              "type": "uint256"
            }
          ],
          "internalType": "struct JBFundingCycle",
          "name": "fundingCycle",
          "type": "tuple"
        },
        {
          "internalType": "uint256",
          "name": "usedAmount",
          "type": "uint256"
        }
      ],
      "stateMutability": "nonpayable",
      "type": "function"
    },
    {
      "inputs": [
        {
          "internalType": "contract IJBSingleTokenPaymentTerminal",
          "name": "",
          "type": "address"
        },
        {
          "internalType": "uint256",
          "name": "",
          "type": "uint256"
        },
        {
          "internalType": "uint256",
          "name": "",
          "type": "uint256"
        }
      ],
      "name": "usedDistributionLimitOf",
      "outputs": [
        {
          "internalType": "uint256",
          "name": "",
          "type": "uint256"
        }
      ],
      "stateMutability": "view",
      "type": "function"
    },
    {
      "inputs": [
        {
          "internalType": "contract IJBSingleTokenPaymentTerminal",
          "name": "",
          "type": "address"
        },
        {
          "internalType": "uint256",
          "name": "",
          "type": "uint256"
        },
        {
          "internalType": "uint256",
          "name": "",
          "type": "uint256"
        }
      ],
      "name": "usedOverflowAllowanceOf",
      "outputs": [
        {
          "internalType": "uint256",
          "name": "",
          "type": "uint256"
        }
      ],
      "stateMutability": "view",
      "type": "function"
    }
  ],
  "bytecode": {
    "object": "0x60e06040523480156200001157600080fd5b5060405162003e8438038062003e84833981016040819052620000349162000061565b60016000556001600160601b0319606093841b811660805291831b821660a05290911b1660c052620000ce565b6000806000606084860312156200007757600080fd5b83516200008481620000b5565b60208501519093506200009781620000b5565b6040850151909250620000aa81620000b5565b809150509250925092565b6001600160a01b0381168114620000cb57600080fd5b50565b60805160601c60a05160601c60c05160601c613cf86200018c600039600081816102700152818161084501528181610e8b015281816129570152612be601526000818161018b0152818161042901528181610aa801528181610fe8015281816111f40152818161195901528181611a6401528181611f430152818161240e0152612c87015260008181610236015281816104f5015281816114cb01528181611cbf01528181612052015281816126de0152612a0c0152613cf86000f3fe608060405234801561001057600080fd5b50600436106100ff5760003560e01c8063c294b2f411610097578063d49031c011610066578063d49031c014610292578063d4c3a8d2146102a5578063e7c8e3e3146102d6578063e8ba563a146102eb57600080fd5b8063c294b2f41461021e578063c41c2f2414610231578063c664459714610258578063d3419bf31461026b57600080fd5b80636bb6a5ad116100d35780636bb6a5ad146101d2578063a2df1f95146101e5578063a57c7f59146101f8578063b753d7e91461020b57600080fd5b8062fdd58e1461010457806325386715146101425780632fa1b39114610163578063557e715514610186575b600080fd5b61012f61011236600461319a565b600160209081526000928352604080842090915290825290205481565b6040519081526020015b60405180910390f35b61015561015036600461342d565b61031c565b6040516101399291906134d5565b610176610171366004612f61565b61099d565b604051610139949392919061355d565b6101ad7f000000000000000000000000000000000000000000000000000000000000000081565b60405173ffffffffffffffffffffffffffffffffffffffff9091168152602001610139565b61012f6101e036600461335a565b610f43565b6101766101f3366004613040565b6110e9565b61012f610206366004613459565b611908565b61012f61021936600461342d565b611a04565b61012f61022c3660046131fb565b611a1b565b6101ad7f000000000000000000000000000000000000000000000000000000000000000081565b61015561026636600461342d565b611e3b565b6101ad7f000000000000000000000000000000000000000000000000000000000000000081565b61012f6102a036600461319a565b612405565b61012f6102b33660046131c6565b600360209081526000938452604080852082529284528284209052825290205481565b6102e96102e43660046133e7565b612507565b005b61012f6102f93660046131c6565b600260209081526000938452604080852082529284528284209052825290205481565b61038160405180610120016040528060008152602001600081526020016000815260200160008152602001600081526020016000815260200160008152602001600073ffffffffffffffffffffffffffffffffffffffff168152602001600081525090565b6000600260005414156103f5576040517f08c379a000000000000000000000000000000000000000000000000000000000815260206004820152601f60248201527f5265656e7472616e637947756172643a207265656e7472616e742063616c6c0060448201526064015b60405180910390fd5b60026000556040517f43a266c2000000000000000000000000000000000000000000000000000000008152600481018690527f000000000000000000000000000000000000000000000000000000000000000073ffffffffffffffffffffffffffffffffffffffff16906343a266c2906024016101206040518083038186803b15801561048157600080fd5b505afa158015610495573d6000803e3d6000fd5b505050506040513d601f19601f820116820180604052508101906104b9919061326b565b3360009081526003602090815260408083208984528252808320828501518452909152812054919350906104ee90869061397b565b90506000807f000000000000000000000000000000000000000000000000000000000000000073ffffffffffffffffffffffffffffffffffffffff16635dd8f6aa896040518263ffffffff1660e01b815260040161054e91815260200190565b60206040518083038186803b15801561056657600080fd5b505afa15801561057a573d6000803e3d6000fd5b505050506040513d601f19601f8201168201806040525081019061059e9190612f44565b73ffffffffffffffffffffffffffffffffffffffff16637a81b562898760200151333373ffffffffffffffffffffffffffffffffffffffff1663fc0c546a6040518163ffffffff1660e01b815260040160206040518083038186803b15801561060657600080fd5b505afa15801561061a573d6000803e3d6000fd5b505050506040513d601f19601f8201168201806040525081019061063e9190612f44565b6040517fffffffff0000000000000000000000000000000000000000000000000000000060e087901b1681526004810194909452602484019290925273ffffffffffffffffffffffffffffffffffffffff9081166044840152166064820152608401604080518083038186803b1580156106b757600080fd5b505afa1580156106cb573d6000803e3d6000fd5b505050506040513d601f19601f820116820180604052508101906106ef9190613409565b91509150818311806106ff575081155b15610736576040517fb6ecab1200000000000000000000000000000000000000000000000000000000815260040160405180910390fd5b80861461076f576040517fe56ea4e700000000000000000000000000000000000000000000000000000000815260040160405180910390fd5b60003373ffffffffffffffffffffffffffffffffffffffff1663e5a6b10f6040518163ffffffff1660e01b815260040160206040518083038186803b1580156107b757600080fd5b505afa1580156107cb573d6000803e3d6000fd5b505050506040513d601f19601f820116820180604052508101906107ef9190613373565b90508087146108df576108da886108086012600a613a2f565b6040517fa4d0caf2000000000000000000000000000000000000000000000000000000008152600481018b905260248101859052601260448201527f000000000000000000000000000000000000000000000000000000000000000073ffffffffffffffffffffffffffffffffffffffff169063a4d0caf2906064015b60206040518083038186803b15801561089d57600080fd5b505afa1580156108b1573d6000803e3d6000fd5b505050506040513d601f19601f820116820180604052508101906108d59190613373565b612550565b6108e1565b875b94506108ef338a8884612655565b851115610928576040517f2fca7ece00000000000000000000000000000000000000000000000000000000815260040160405180910390fd5b3360008181526003602090815260408083208d845282528083208a83015184528252808320889055928252600181528282208c83529052205461096c908690613b32565b3360009081526001602081815260408084209d84529c90529a81209190915598909855509296919550909350505050565b610a0260405180610120016040528060008152602001600081526020016000815260200160008152602001600081526020016000815260200160008152602001600073ffffffffffffffffffffffffffffffffffffffff168152602001600081525090565b600080606060026000541415610a74576040517f08c379a000000000000000000000000000000000000000000000000000000000815260206004820152601f60248201527f5265656e7472616e637947756172643a207265656e7472616e742063616c6c0060448201526064016103ec565b60026000556040517f43a266c2000000000000000000000000000000000000000000000000000000008152600481018b90527f000000000000000000000000000000000000000000000000000000000000000073ffffffffffffffffffffffffffffffffffffffff16906343a266c2906024016101206040518083038186803b158015610b0057600080fd5b505afa158015610b14573d6000803e3d6000fd5b505050506040513d601f19601f82011682018060405250810190610b38919061326b565b8051909450610b73576040517f2e96671a00000000000000000000000000000000000000000000000000000000815260040160405180910390fd5b61010084015160481c60019081161415610bb9576040517fa3bb913300000000000000000000000000000000000000000000000000000000815260040160405180910390fd5b61010084015160009060521c60019081161415610d7e5760006040518061014001604052803373ffffffffffffffffffffffffffffffffffffffff1681526020018f73ffffffffffffffffffffffffffffffffffffffff1681526020018e803603810190610c2791906132eb565b815260208082018f9052880151604082015273ffffffffffffffffffffffffffffffffffffffff8c16606082015260a080890151608083015261010089015191019060181c61ffff1681526020018a8a8080601f0160208091040260200160405190810160405280939291908181526020018383808284376000920191909152505050908252506020018890529050610cc586610100015160541c90565b73ffffffffffffffffffffffffffffffffffffffff1663d46cf171826040518263ffffffff1660e01b8152600401610cfd919061360e565b600060405180830381600087803b158015610d1757600080fd5b505af1158015610d2b573d6000803e3d6000fd5b505050506040513d6000823e601f3d9081017fffffffffffffffffffffffffffffffffffffffffffffffffffffffffffffffe0168201604052610d71919081019061338c565b955093509150610dbf9050565b8460a00151905087878080601f0160208091040260200160405190810160405280939291908181526020018383808284376000920191909152509294505050505b60208c0135610dd2575060009250610f2c565b3360009081526001602090815260408083208e8452825290912054610dfa918e01359061397b565b3360009081526001602090815260408083208f845290915290205580610e24575060009250610f2c565b60408c0135600060608e01358c14610f0a576040517fa4d0caf200000000000000000000000000000000000000000000000000000000815260608f01356004820152602481018d90526044810183905273ffffffffffffffffffffffffffffffffffffffff7f0000000000000000000000000000000000000000000000000000000000000000169063a4d0caf29060640160206040518083038186803b158015610ecd57600080fd5b505afa158015610ee1573d6000803e3d6000fd5b505050506040513d601f19601f82011682018060405250810190610f059190613373565b610f15565b610f1582600a613a2f565b9050610f268e602001358483612550565b95505050505b600160008190555098509850985098945050505050565b600060026000541415610fb2576040517f08c379a000000000000000000000000000000000000000000000000000000000815260206004820152601f60248201527f5265656e7472616e637947756172643a207265656e7472616e742063616c6c0060448201526064016103ec565b600260009081556040517f43a266c2000000000000000000000000000000000000000000000000000000008152600481018490527f000000000000000000000000000000000000000000000000000000000000000073ffffffffffffffffffffffffffffffffffffffff16906343a266c2906024016101206040518083038186803b15801561104057600080fd5b505afa158015611054573d6000803e3d6000fd5b505050506040513d601f19601f82011682018060405250810190611078919061326b565b610100810151909150604e1c6001908116146110c0576040517fe7c9e0be00000000000000000000000000000000000000000000000000000000815260040160405180910390fd5b505033600090815260016020818152604080842094845293905291812080549082905591905590565b61114e60405180610120016040528060008152602001600081526020016000815260200160008152602001600081526020016000815260200160008152602001600073ffffffffffffffffffffffffffffffffffffffff168152602001600081525090565b6000806060600260005414156111c0576040517f08c379a000000000000000000000000000000000000000000000000000000000815260206004820152601f60248201527f5265656e7472616e637947756172643a207265656e7472616e742063616c6c0060448201526064016103ec565b60026000556040517f43a266c2000000000000000000000000000000000000000000000000000000008152600481018990527f000000000000000000000000000000000000000000000000000000000000000073ffffffffffffffffffffffffffffffffffffffff16906343a266c2906024016101206040518083038186803b15801561124c57600080fd5b505afa158015611260573d6000803e3d6000fd5b505050506040513d601f19601f82011682018060405250810190611284919061326b565b610100810151909450604a1c600190811614156112cd576040517fa97cf58f00000000000000000000000000000000000000000000000000000000815260040160405180910390fd5b61130e6040518060800160405280600073ffffffffffffffffffffffffffffffffffffffff1681526020016000815260200160008152602001600081525090565b60008060003373ffffffffffffffffffffffffffffffffffffffff1663fc0c546a6040518163ffffffff1660e01b815260040160206040518083038186803b15801561135957600080fd5b505afa15801561136d573d6000803e3d6000fd5b505050506040513d601f19601f820116820180604052508101906113919190612f44565b905060003373ffffffffffffffffffffffffffffffffffffffff1663313ce5676040518163ffffffff1660e01b815260040160206040518083038186803b1580156113db57600080fd5b505afa1580156113ef573d6000803e3d6000fd5b505050506040513d601f19601f820116820180604052508101906114139190613373565b905060003373ffffffffffffffffffffffffffffffffffffffff1663e5a6b10f6040518163ffffffff1660e01b815260040160206040518083038186803b15801561145d57600080fd5b505afa158015611471573d6000803e3d6000fd5b505050506040513d601f19601f820116820180604052508101906114959190613373565b6101008b015190915060511c6001908116146114bc576114b7338f8c84612655565b6114c7565b6114c78e83836129c3565b94507f000000000000000000000000000000000000000000000000000000000000000073ffffffffffffffffffffffffffffffffffffffff16635dd8f6aa8f6040518263ffffffff1660e01b815260040161152491815260200190565b60206040518083038186803b15801561153c57600080fd5b505afa158015611550573d6000803e3d6000fd5b505050506040513d601f19601f820116820180604052508101906115749190612f44565b73ffffffffffffffffffffffffffffffffffffffff1663b5f1e34d8f6115a68d610100015161ffff60189190911c1690565b6040517fffffffff0000000000000000000000000000000000000000000000000000000060e085901b1681526004810192909252602482015260440160206040518083038186803b1580156115fa57600080fd5b505afa15801561160e573d6000803e3d6000fd5b505050506040513d601f19601f820116820180604052508101906116329190613373565b9350838d111561166e576040517fb8af220000000000000000000000000000000000000000000000000000000000815260040160405180910390fd5b8415611684576116818e8b8f8789612c44565b98505b6040805160808101825273ffffffffffffffffffffffffffffffffffffffff949094168452602084018a9052830191909152606082015261010088015190935060531c60019081161415611850576000604051806101a001604052803373ffffffffffffffffffffffffffffffffffffffff1681526020018e73ffffffffffffffffffffffffffffffffffffffff1681526020018d8152602001896020015181526020018c81526020018381526020018481526020018581526020016117578a6101000151600160519190911c81161490565b151581526020016117678a612db0565b81526020016117758a612dcd565b81526020018b81526020018a815250905061179588610100015160541c90565b73ffffffffffffffffffffffffffffffffffffffff16638dfc9598826040518263ffffffff1660e01b81526004016117cd9190613765565b600060405180830381600087803b1580156117e757600080fd5b505af11580156117fb573d6000803e3d6000fd5b505050506040513d6000823e601f3d9081017fffffffffffffffffffffffffffffffffffffffffffffffffffffffffffffffe0168201604052611841919081019061338c565b91985090965094506118549050565b8893505b50503360009081526001602090815260408083208c845290915290205484111590506118ac576040517f2fca7ece00000000000000000000000000000000000000000000000000000000815260040160405180910390fd5b82156118f4573360009081526001602090815260408083208b84529091529020546118d8908490613b32565b3360009081526001602090815260408083208c84529091529020555b600160008190555095509550955095915050565b600081611917575060006119fc565b82841115611927575060006119fc565b6040517f43a266c2000000000000000000000000000000000000000000000000000000008152600481018690526000907f000000000000000000000000000000000000000000000000000000000000000073ffffffffffffffffffffffffffffffffffffffff16906343a266c2906024016101206040518083038186803b1580156119b157600080fd5b505afa1580156119c5573d6000803e3d6000fd5b505050506040513d601f19601f820116820180604052508101906119e9919061326b565b90506119f88682878787612c44565b9150505b949350505050565b6000611a118484846129c3565b90505b9392505050565b6040517f43a266c200000000000000000000000000000000000000000000000000000000815260048101849052600090819073ffffffffffffffffffffffffffffffffffffffff7f000000000000000000000000000000000000000000000000000000000000000016906343a266c2906024016101206040518083038186803b158015611aa757600080fd5b505afa158015611abb573d6000803e3d6000fd5b505050506040513d601f19601f82011682018060405250810190611adf919061326b565b9050600083611b7657611b718787848a73ffffffffffffffffffffffffffffffffffffffff1663e5a6b10f6040518163ffffffff1660e01b815260040160206040518083038186803b158015611b3457600080fd5b505afa158015611b48573d6000803e3d6000fd5b505050506040513d601f19601f82011682018060405250810190611b6c9190613373565b612655565b611c7b565b611c7b868873ffffffffffffffffffffffffffffffffffffffff1663313ce5676040518163ffffffff1660e01b815260040160206040518083038186803b158015611bc057600080fd5b505afa158015611bd4573d6000803e3d6000fd5b505050506040513d601f19601f82011682018060405250810190611bf89190613373565b8973ffffffffffffffffffffffffffffffffffffffff1663e5a6b10f6040518163ffffffff1660e01b815260040160206040518083038186803b158015611c3e57600080fd5b505afa158015611c52573d6000803e3d6000fd5b505050506040513d601f19601f82011682018060405250810190611c769190613373565b6129c3565b905080611c8d576000925050506119fc565b6040517f5dd8f6aa000000000000000000000000000000000000000000000000000000008152600481018790526000907f000000000000000000000000000000000000000000000000000000000000000073ffffffffffffffffffffffffffffffffffffffff1690635dd8f6aa9060240160206040518083038186803b158015611d1657600080fd5b505afa158015611d2a573d6000803e3d6000fd5b505050506040513d601f19601f82011682018060405250810190611d4e9190612f44565b73ffffffffffffffffffffffffffffffffffffffff1663b5f1e34d88611d8086610100015161ffff60189190911c1690565b6040517fffffffff0000000000000000000000000000000000000000000000000000000060e085901b1681526004810192909252602482015260440160206040518083038186803b158015611dd457600080fd5b505afa158015611de8573d6000803e3d6000fd5b505050506040513d601f19601f82011682018060405250810190611e0c9190613373565b905080861115611e2257600093505050506119fc565b611e2f8784888486612c44565b98975050505050505050565b611ea060405180610120016040528060008152602001600081526020016000815260200160008152602001600081526020016000815260200160008152602001600073ffffffffffffffffffffffffffffffffffffffff168152602001600081525090565b600060026000541415611f0f576040517f08c379a000000000000000000000000000000000000000000000000000000000815260206004820152601f60248201527f5265656e7472616e637947756172643a207265656e7472616e742063616c6c0060448201526064016103ec565b60026000556040517f43a266c2000000000000000000000000000000000000000000000000000000008152600481018690527f000000000000000000000000000000000000000000000000000000000000000073ffffffffffffffffffffffffffffffffffffffff16906343a266c2906024016101206040518083038186803b158015611f9b57600080fd5b505afa158015611faf573d6000803e3d6000fd5b505050506040513d601f19601f82011682018060405250810190611fd3919061326b565b61010081015190925060491c6001908116141561201c576040517f861e9dcd00000000000000000000000000000000000000000000000000000000815260040160405180910390fd5b33600090815260026020908152604080832088845282528083208551845290915281205461204b90869061397b565b90506000807f000000000000000000000000000000000000000000000000000000000000000073ffffffffffffffffffffffffffffffffffffffff16635dd8f6aa896040518263ffffffff1660e01b81526004016120ab91815260200190565b60206040518083038186803b1580156120c357600080fd5b505afa1580156120d7573d6000803e3d6000fd5b505050506040513d601f19601f820116820180604052508101906120fb9190612f44565b73ffffffffffffffffffffffffffffffffffffffff1663e8db2130898760200151333373ffffffffffffffffffffffffffffffffffffffff1663fc0c546a6040518163ffffffff1660e01b815260040160206040518083038186803b15801561216357600080fd5b505afa158015612177573d6000803e3d6000fd5b505050506040513d601f19601f8201168201806040525081019061219b9190612f44565b6040517fffffffff0000000000000000000000000000000000000000000000000000000060e087901b1681526004810194909452602484019290925273ffffffffffffffffffffffffffffffffffffffff9081166044840152166064820152608401604080518083038186803b15801561221457600080fd5b505afa158015612228573d6000803e3d6000fd5b505050506040513d601f19601f8201168201806040525081019061224c9190613409565b915091508183118061225c575081155b15612293576040517f08dae4ac00000000000000000000000000000000000000000000000000000000815260040160405180910390fd5b8086146122cc576040517fe56ea4e700000000000000000000000000000000000000000000000000000000815260040160405180910390fd5b60003373ffffffffffffffffffffffffffffffffffffffff1663e5a6b10f6040518163ffffffff1660e01b815260040160206040518083038186803b15801561231457600080fd5b505afa158015612328573d6000803e3d6000fd5b505050506040513d601f19601f8201168201806040525081019061234c9190613373565b905080871461236a57612365886108086012600a613a2f565b61236c565b875b3360009081526001602090815260408083208d84529091529020549095508511156123c3576040517f2fca7ece00000000000000000000000000000000000000000000000000000000815260040160405180910390fd5b3360008181526002602090815260408083208d845282528083208a5184528252808320889055928252600181528282208c83529052205461096c908690613b32565b60006124fe83837f000000000000000000000000000000000000000000000000000000000000000073ffffffffffffffffffffffffffffffffffffffff166343a266c2866040518263ffffffff1660e01b815260040161246791815260200190565b6101206040518083038186803b15801561248057600080fd5b505afa158015612494573d6000803e3d6000fd5b505050506040513d601f19601f820116820180604052508101906124b8919061326b565b8673ffffffffffffffffffffffffffffffffffffffff1663e5a6b10f6040518163ffffffff1660e01b815260040160206040518083038186803b158015611b3457600080fd5b90505b92915050565b33600090815260016020908152604080832085845290915290205461252d90829061397b565b336000908152600160209081526040808320958352949052929092209190915550565b600080807fffffffffffffffffffffffffffffffffffffffffffffffffffffffffffffffff85870985870292508281108382030391505080600014156125a95783828161259f5761259f613be1565b0492505050611a14565b8381106125ec576040517f773cc18c00000000000000000000000000000000000000000000000000000000815260048101829052602481018590526044016103ec565b60008486880960026001871981018816978890046003810283188082028403028082028403028082028403028082028403028082028403029081029092039091026000889003889004909101858311909403939093029303949094049190911702949350505050565b73ffffffffffffffffffffffffffffffffffffffff84166000908152600160209081526040808320868452909152812054806126955760009150506119fc565b6040517f5dd8f6aa00000000000000000000000000000000000000000000000000000000815260048101869052600090819073ffffffffffffffffffffffffffffffffffffffff7f00000000000000000000000000000000000000000000000000000000000000001690635dd8f6aa9060240160206040518083038186803b15801561272057600080fd5b505afa158015612734573d6000803e3d6000fd5b505050506040513d601f19601f820116820180604052508101906127589190612f44565b73ffffffffffffffffffffffffffffffffffffffff1663e8db21308888602001518b8c73ffffffffffffffffffffffffffffffffffffffff1663fc0c546a6040518163ffffffff1660e01b815260040160206040518083038186803b1580156127c057600080fd5b505afa1580156127d4573d6000803e3d6000fd5b505050506040513d601f19601f820116820180604052508101906127f89190612f44565b6040517fffffffff0000000000000000000000000000000000000000000000000000000060e087901b1681526004810194909452602484019290925273ffffffffffffffffffffffffffffffffffffffff9081166044840152166064820152608401604080518083038186803b15801561287157600080fd5b505afa158015612885573d6000803e3d6000fd5b505050506040513d601f19601f820116820180604052508101906128a99190613409565b73ffffffffffffffffffffffffffffffffffffffff8a1660009081526002602090815260408083208c845282528083208b518452909152812054929450909250906128f49084613b32565b905080158015906129055750858214155b1561299e5761299b8161291a6012600a613a2f565b6040517fa4d0caf200000000000000000000000000000000000000000000000000000000815260048101869052602481018a9052601260448201527f000000000000000000000000000000000000000000000000000000000000000073ffffffffffffffffffffffffffffffffffffffff169063a4d0caf290606401610885565b90505b8084116129ac5760006129b6565b6129b68185613b32565b9998505050505050505050565b6040517fd175415300000000000000000000000000000000000000000000000000000000815260048101849052600090819073ffffffffffffffffffffffffffffffffffffffff7f0000000000000000000000000000000000000000000000000000000000000000169063d17541539060240160006040518083038186803b158015612a4e57600080fd5b505afa158015612a62573d6000803e3d6000fd5b505050506040513d6000823e601f3d9081017fffffffffffffffffffffffffffffffffffffffffffffffffffffffffffffffe0168201604052612aa891908101906130e1565b90506000805b8251811015612b7957828181518110612ac957612ac9613c3f565b602002602001015173ffffffffffffffffffffffffffffffffffffffff1663a32e1e96886040518263ffffffff1660e01b8152600401612b0b91815260200190565b60206040518083038186803b158015612b2357600080fd5b505afa158015612b37573d6000803e3d6000fd5b505050506040513d601f19601f82011682018060405250810190612b5b9190613373565b612b65908361397b565b915080612b7181613b79565b915050612aae565b50600060018514612c1a576040517fa4d0caf2000000000000000000000000000000000000000000000000000000008152600160048201526024810186905260126044820152612c15908390670de0b6b3a76400009073ffffffffffffffffffffffffffffffffffffffff7f0000000000000000000000000000000000000000000000000000000000000000169063a4d0caf290606401610885565b612c1c565b815b905085601214612c3757612c3281601288612dea565b612c39565b805b979650505050505050565b600082841415612c55575080612da7565b6000806040517fc55f571c000000000000000000000000000000000000000000000000000000008152600481018990527f000000000000000000000000000000000000000000000000000000000000000073ffffffffffffffffffffffffffffffffffffffff169063c55f571c9060240160206040518083038186803b158015612cde57600080fd5b505afa158015612cf2573d6000803e3d6000fd5b505050506040513d601f19601f82011682018060405250810190612d16919061324a565b6002811115612d2757612d27613c10565b14612d3a57612d3586612db0565b612d43565b612d4386612dcd565b905080612d54576000915050612da7565b6000612d61848787612550565b9050612710821415612d76579150612da79050565b612da281612d9088612d8a86612710613b32565b89612550565b612d9a908561397b565b612710612550565b925050505b95945050505050565b60006028826101000151901c61ffff166127106125019190613b32565b60006038826101000151901c61ffff166127106125019190613b32565b600082821415612dfb575082611a14565b82821115612e2957612e0d8383613b32565b612e1890600a613a2f565b612e229085613af5565b9050611a14565b612e338284613b32565b612e3e90600a613a2f565b612e229085613993565b6000612e5b612e5684613935565b6138e6565b9050828152838383011115612e6f57600080fd5b828260208301376000602084830101529392505050565b600082601f830112612e9757600080fd5b6124fe83833560208501612e48565b8051612eb181613c9d565b919050565b60008083601f840112612ec857600080fd5b50813567ffffffffffffffff811115612ee057600080fd5b602083019150836020828501011115612ef857600080fd5b9250929050565b600082601f830112612f1057600080fd5b8151612f1e612e5682613935565b818152846020838601011115612f3357600080fd5b6119fc826020830160208701613b49565b600060208284031215612f5657600080fd5b8151611a1481613c9d565b600080600080600080600080888a03610140811215612f7f57600080fd5b8935612f8a81613c9d565b985060807fffffffffffffffffffffffffffffffffffffffffffffffffffffffffffffffe082011215612fbc57600080fd5b5060208901965060a0890135955060c0890135945060e0890135612fdf81613c9d565b935061010089013567ffffffffffffffff80821115612ffd57600080fd5b6130098c838d01612eb6565b90955093506101208b013591508082111561302357600080fd5b506130308b828c01612e86565b9150509295985092959890939650565b600080600080600060a0868803121561305857600080fd5b853561306381613c9d565b94506020860135935060408601359250606086013567ffffffffffffffff8082111561308e57600080fd5b818801915088601f8301126130a257600080fd5b6130b189833560208501612e48565b935060808801359150808211156130c757600080fd5b506130d488828901612e86565b9150509295509295909350565b600060208083850312156130f457600080fd5b825167ffffffffffffffff8082111561310c57600080fd5b818501915085601f83011261312057600080fd5b81518181111561313257613132613c6e565b8060051b91506131438483016138e6565b8181528481019084860184860187018a101561315e57600080fd5b600095505b8386101561318d578051945061317885613c9d565b84835260019590950194918601918601613163565b5098975050505050505050565b600080604083850312156131ad57600080fd5b82356131b881613c9d565b946020939093013593505050565b6000806000606084860312156131db57600080fd5b83356131e681613c9d565b95602085013595506040909401359392505050565b6000806000806080858703121561321157600080fd5b843561321c81613c9d565b935060208501359250604085013591506060850135801515811461323f57600080fd5b939692955090935050565b60006020828403121561325c57600080fd5b815160038110611a1457600080fd5b6000610120828403121561327e57600080fd5b6132866138bc565b825181526020830151602082015260408301516040820152606083015160608201526080830151608082015260a083015160a082015260c083015160c08201526132d260e08401612ea6565b60e0820152610100928301519281019290925250919050565b6000608082840312156132fd57600080fd5b6040516080810181811067ffffffffffffffff8211171561332057613320613c6e565b604052823561332e81613c9d565b808252506020830135602082015260408301356040820152606083013560608201528091505092915050565b60006020828403121561336c57600080fd5b5035919050565b60006020828403121561338557600080fd5b5051919050565b6000806000606084860312156133a157600080fd5b83519250602084015167ffffffffffffffff8111156133bf57600080fd5b6133cb86828701612eff565b92505060408401516133dc81613c9d565b809150509250925092565b600080604083850312156133fa57600080fd5b50508035926020909101359150565b6000806040838503121561341c57600080fd5b505080516020909101519092909150565b60008060006060848603121561344257600080fd5b505081359360208301359350604090920135919050565b6000806000806080858703121561346f57600080fd5b5050823594602084013594506040840135936060013592509050565b600081518084526134a3816020860160208601613b49565b601f017fffffffffffffffffffffffffffffffffffffffffffffffffffffffffffffffe0169290920160200192915050565b610140810161354f8285805182526020810151602083015260408101516040830152606081015160608301526080810151608083015260a081015160a083015260c081015160c083015273ffffffffffffffffffffffffffffffffffffffff60e08201511660e08301526101008082015181840152505050565b826101208301529392505050565b60006101806135d78388805182526020810151602083015260408101516040830152606081015160608301526080810151608083015260a081015160a083015260c081015160c083015273ffffffffffffffffffffffffffffffffffffffff60e08201511660e08301526101008082015181840152505050565b8561012084015273ffffffffffffffffffffffffffffffffffffffff851661014084015280610160840152612c398184018561348b565b6020815261363560208201835173ffffffffffffffffffffffffffffffffffffffff169052565b6000602083015161365e604084018273ffffffffffffffffffffffffffffffffffffffff169052565b5060408301516136a8606084018273ffffffffffffffffffffffffffffffffffffffff81511682526020810151602083015260408101516040830152606081015160608301525050565b50606083015160e08301526080830151610100818185015260a085015191506101206136eb8186018473ffffffffffffffffffffffffffffffffffffffff169052565b60c086015161014086015260e08601516101608601528186015192506101a09150816101808601526137216101c086018461348b565b908601518582037fffffffffffffffffffffffffffffffffffffffffffffffffffffffffffffffe0018387015290925061375b838261348b565b9695505050505050565b6020815261378c60208201835173ffffffffffffffffffffffffffffffffffffffff169052565b600060208301516137b5604084018273ffffffffffffffffffffffffffffffffffffffff169052565b506040830151606083015260608301516080830152608083015160a083015260a083015160c083015260c083015160e083015260e08301516101006138338185018373ffffffffffffffffffffffffffffffffffffffff81511682526020810151602083015260408101516040830152606081015160608301525050565b84015190506101806138488482018315159052565b6101208501516101a08501526101408501516101c08501526101608501519150610200806101e086015261388061022086018461348b565b92508186015191507fffffffffffffffffffffffffffffffffffffffffffffffffffffffffffffffe0858403018186015250612da7828261348b565b604051610120810167ffffffffffffffff811182821017156138e0576138e0613c6e565b60405290565b604051601f82017fffffffffffffffffffffffffffffffffffffffffffffffffffffffffffffffe016810167ffffffffffffffff8111828210171561392d5761392d613c6e565b604052919050565b600067ffffffffffffffff82111561394f5761394f613c6e565b50601f017fffffffffffffffffffffffffffffffffffffffffffffffffffffffffffffffe01660200190565b6000821982111561398e5761398e613bb2565b500190565b6000826139c9577f4e487b7100000000000000000000000000000000000000000000000000000000600052601260045260246000fd5b500490565b600181815b80851115613a2757817fffffffffffffffffffffffffffffffffffffffffffffffffffffffffffffffff04821115613a0d57613a0d613bb2565b80851615613a1a57918102915b93841c93908002906139d3565b509250929050565b60006124fe8383600082613a4557506001612501565b81613a5257506000612501565b8160018114613a685760028114613a7257613a8e565b6001915050612501565b60ff841115613a8357613a83613bb2565b50506001821b612501565b5060208310610133831016604e8410600b8410161715613ab1575081810a612501565b613abb83836139ce565b807fffffffffffffffffffffffffffffffffffffffffffffffffffffffffffffffff04821115613aed57613aed613bb2565b029392505050565b6000817fffffffffffffffffffffffffffffffffffffffffffffffffffffffffffffffff0483118215151615613b2d57613b2d613bb2565b500290565b600082821015613b4457613b44613bb2565b500390565b60005b83811015613b64578181015183820152602001613b4c565b83811115613b73576000848401525b50505050565b60007fffffffffffffffffffffffffffffffffffffffffffffffffffffffffffffffff821415613bab57613bab613bb2565b5060010190565b7f4e487b7100000000000000000000000000000000000000000000000000000000600052601160045260246000fd5b7f4e487b7100000000000000000000000000000000000000000000000000000000600052601260045260246000fd5b7f4e487b7100000000000000000000000000000000000000000000000000000000600052602160045260246000fd5b7f4e487b7100000000000000000000000000000000000000000000000000000000600052603260045260246000fd5b7f4e487b7100000000000000000000000000000000000000000000000000000000600052604160045260246000fd5b73ffffffffffffffffffffffffffffffffffffffff81168114613cbf57600080fd5b5056fea26469706673582212208c69e2c84990a7c9f6ec4130a6c24d955e16bb8263b48cfa93d6c2492f27fb9564736f6c63430008060033",
    "linkReferences": {}
  },
  "methodIdentifiers": {
    "balanceOf(address,uint256)": "00fdd58e",
    "currentOverflowOf(address,uint256)": "d49031c0",
    "currentReclaimableOverflowOf(address,uint256,uint256,bool)": "c294b2f4",
    "currentReclaimableOverflowOf(uint256,uint256,uint256,uint256)": "a57c7f59",
    "currentTotalOverflowOf(uint256,uint256,uint256)": "b753d7e9",
    "directory()": "c41c2f24",
    "fundingCycleStore()": "557e7155",
    "prices()": "d3419bf3",
    "recordAddedBalanceFor(uint256,uint256)": "e7c8e3e3",
    "recordDistributionFor(uint256,uint256,uint256)": "c6644597",
    "recordMigration(uint256)": "6bb6a5ad",
    "recordPaymentFrom(address,(address,uint256,uint256,uint256),uint256,uint256,address,string,bytes)": "2fa1b391",
    "recordRedemptionFor(address,uint256,uint256,string,bytes)": "a2df1f95",
    "recordUsedAllowanceOf(uint256,uint256,uint256)": "25386715",
    "usedDistributionLimitOf(address,uint256,uint256)": "e8ba563a",
    "usedOverflowAllowanceOf(address,uint256,uint256)": "d4c3a8d2"
  },
  "id": 51
}