{
  "abi": [
    {
      "inputs": [
        {
          "internalType": "contract IJBOperatorStore",
          "name": "_operatorStore",
          "type": "address"
        },
        {
          "internalType": "contract IJBProjects",
          "name": "_projects",
          "type": "address"
        },
        {
          "internalType": "contract IJBFundingCycleStore",
          "name": "_fundingCycleStore",
          "type": "address"
        },
        {
          "internalType": "address",
          "name": "_owner",
          "type": "address"
        }
      ],
      "stateMutability": "nonpayable",
      "type": "constructor"
    },
    {
      "inputs": [],
      "name": "DUPLICATE_TERMINALS",
      "type": "error"
    },
    {
      "inputs": [],
      "name": "INVALID_PROJECT_ID_IN_DIRECTORY",
      "type": "error"
    },
    {
      "inputs": [],
      "name": "SET_CONTROLLER_NOT_ALLOWED",
      "type": "error"
    },
    {
      "inputs": [],
      "name": "SET_TERMINALS_NOT_ALLOWED",
      "type": "error"
    },
    {
      "inputs": [],
      "name": "TOKEN_NOT_ACCEPTED",
      "type": "error"
    },
    {
      "inputs": [],
      "name": "UNAUTHORIZED",
      "type": "error"
    },
    {
      "anonymous": false,
      "inputs": [
        {
          "indexed": true,
          "internalType": "uint256",
          "name": "projectId",
          "type": "uint256"
        },
        {
          "indexed": true,
          "internalType": "contract IJBPaymentTerminal",
          "name": "terminal",
          "type": "address"
        },
        {
          "indexed": false,
          "internalType": "address",
          "name": "caller",
          "type": "address"
        }
      ],
      "name": "AddTerminal",
      "type": "event"
    },
    {
      "anonymous": false,
      "inputs": [
        {
          "indexed": true,
          "internalType": "address",
          "name": "previousOwner",
          "type": "address"
        },
        {
          "indexed": true,
          "internalType": "address",
          "name": "newOwner",
          "type": "address"
        }
      ],
      "name": "OwnershipTransferred",
      "type": "event"
    },
    {
      "anonymous": false,
      "inputs": [
        {
          "indexed": true,
          "internalType": "uint256",
          "name": "projectId",
          "type": "uint256"
        },
        {
          "indexed": true,
          "internalType": "address",
          "name": "controller",
          "type": "address"
        },
        {
          "indexed": false,
          "internalType": "address",
          "name": "caller",
          "type": "address"
        }
      ],
      "name": "SetController",
      "type": "event"
    },
    {
      "anonymous": false,
      "inputs": [
        {
          "indexed": true,
          "internalType": "address",
          "name": "addr",
          "type": "address"
        },
        {
          "indexed": true,
          "internalType": "bool",
          "name": "flag",
          "type": "bool"
        },
        {
          "indexed": false,
          "internalType": "address",
          "name": "caller",
          "type": "address"
        }
      ],
      "name": "SetIsAllowedToSetFirstController",
      "type": "event"
    },
    {
      "anonymous": false,
      "inputs": [
        {
          "indexed": true,
          "internalType": "uint256",
          "name": "projectId",
          "type": "uint256"
        },
        {
          "indexed": true,
          "internalType": "address",
          "name": "token",
          "type": "address"
        },
        {
          "indexed": true,
          "internalType": "contract IJBPaymentTerminal",
          "name": "terminal",
          "type": "address"
        },
        {
          "indexed": false,
          "internalType": "address",
          "name": "caller",
          "type": "address"
        }
      ],
      "name": "SetPrimaryTerminal",
      "type": "event"
    },
    {
      "anonymous": false,
      "inputs": [
        {
          "indexed": true,
          "internalType": "uint256",
          "name": "projectId",
          "type": "uint256"
        },
        {
          "indexed": false,
          "internalType": "contract IJBPaymentTerminal[]",
          "name": "terminals",
          "type": "address[]"
        },
        {
          "indexed": false,
          "internalType": "address",
          "name": "caller",
          "type": "address"
        }
      ],
      "name": "SetTerminals",
      "type": "event"
    },
    {
      "inputs": [
        {
          "internalType": "uint256",
          "name": "",
          "type": "uint256"
        }
      ],
      "name": "controllerOf",
      "outputs": [
        {
          "internalType": "address",
          "name": "",
          "type": "address"
        }
      ],
      "stateMutability": "view",
      "type": "function"
    },
    {
      "inputs": [],
      "name": "fundingCycleStore",
      "outputs": [
        {
          "internalType": "contract IJBFundingCycleStore",
          "name": "",
          "type": "address"
        }
      ],
      "stateMutability": "view",
      "type": "function"
    },
    {
      "inputs": [
        {
          "internalType": "address",
          "name": "",
          "type": "address"
        }
      ],
      "name": "isAllowedToSetFirstController",
      "outputs": [
        {
          "internalType": "bool",
          "name": "",
          "type": "bool"
        }
      ],
      "stateMutability": "view",
      "type": "function"
    },
    {
      "inputs": [
        {
          "internalType": "uint256",
          "name": "_projectId",
          "type": "uint256"
        },
        {
          "internalType": "contract IJBPaymentTerminal",
          "name": "_terminal",
          "type": "address"
        }
      ],
      "name": "isTerminalOf",
      "outputs": [
        {
          "internalType": "bool",
          "name": "",
          "type": "bool"
        }
      ],
      "stateMutability": "view",
      "type": "function"
    },
    {
      "inputs": [],
      "name": "operatorStore",
      "outputs": [
        {
          "internalType": "contract IJBOperatorStore",
          "name": "",
          "type": "address"
        }
      ],
      "stateMutability": "view",
      "type": "function"
    },
    {
      "inputs": [],
      "name": "owner",
      "outputs": [
        {
          "internalType": "address",
          "name": "",
          "type": "address"
        }
      ],
      "stateMutability": "view",
      "type": "function"
    },
    {
      "inputs": [
        {
          "internalType": "uint256",
          "name": "_projectId",
          "type": "uint256"
        },
        {
          "internalType": "address",
          "name": "_token",
          "type": "address"
        }
      ],
      "name": "primaryTerminalOf",
      "outputs": [
        {
          "internalType": "contract IJBPaymentTerminal",
          "name": "",
          "type": "address"
        }
      ],
      "stateMutability": "view",
      "type": "function"
    },
    {
      "inputs": [],
      "name": "projects",
      "outputs": [
        {
          "internalType": "contract IJBProjects",
          "name": "",
          "type": "address"
        }
      ],
      "stateMutability": "view",
      "type": "function"
    },
    {
      "inputs": [],
      "name": "renounceOwnership",
      "outputs": [],
      "stateMutability": "nonpayable",
      "type": "function"
    },
    {
      "inputs": [
        {
          "internalType": "uint256",
          "name": "_projectId",
          "type": "uint256"
        },
        {
          "internalType": "address",
          "name": "_controller",
          "type": "address"
        }
      ],
      "name": "setControllerOf",
      "outputs": [],
      "stateMutability": "nonpayable",
      "type": "function"
    },
    {
      "inputs": [
        {
          "internalType": "address",
          "name": "_address",
          "type": "address"
        },
        {
          "internalType": "bool",
          "name": "_flag",
          "type": "bool"
        }
      ],
      "name": "setIsAllowedToSetFirstController",
      "outputs": [],
      "stateMutability": "nonpayable",
      "type": "function"
    },
    {
      "inputs": [
        {
          "internalType": "uint256",
          "name": "_projectId",
          "type": "uint256"
        },
        {
          "internalType": "address",
          "name": "_token",
          "type": "address"
        },
        {
          "internalType": "contract IJBPaymentTerminal",
          "name": "_terminal",
          "type": "address"
        }
      ],
      "name": "setPrimaryTerminalOf",
      "outputs": [],
      "stateMutability": "nonpayable",
      "type": "function"
    },
    {
      "inputs": [
        {
          "internalType": "uint256",
          "name": "_projectId",
          "type": "uint256"
        },
        {
          "internalType": "contract IJBPaymentTerminal[]",
          "name": "_terminals",
          "type": "address[]"
        }
      ],
      "name": "setTerminalsOf",
      "outputs": [],
      "stateMutability": "nonpayable",
      "type": "function"
    },
    {
      "inputs": [
        {
          "internalType": "uint256",
          "name": "_projectId",
          "type": "uint256"
        }
      ],
      "name": "terminalsOf",
      "outputs": [
        {
          "internalType": "contract IJBPaymentTerminal[]",
          "name": "",
          "type": "address[]"
        }
      ],
      "stateMutability": "view",
      "type": "function"
    },
    {
      "inputs": [
        {
          "internalType": "address",
          "name": "newOwner",
          "type": "address"
        }
      ],
      "name": "transferOwnership",
      "outputs": [],
      "stateMutability": "nonpayable",
      "type": "function"
    }
  ],
  "bytecode": {
    "object": "0x60e06040523480156200001157600080fd5b5060405162001ef638038062001ef68339810160408190526200003491620000d0565b606084901b6001600160601b031916608052620000513362000080565b6001600160601b0319606084811b821660a05283901b1660c052620000768162000080565b5050505062000151565b600080546001600160a01b038381166001600160a01b0319831681178455604051919092169283917f8be0079c531659141344cd1fd0a4f28419497f9722a3daafe3b4186f6b6457e09190a35050565b60008060008060808587031215620000e757600080fd5b8451620000f48162000138565b6020860151909450620001078162000138565b60408601519093506200011a8162000138565b60608601519092506200012d8162000138565b939692955090935050565b6001600160a01b03811681146200014e57600080fd5b50565b60805160601c60a05160601c60c05160601c611d20620001d66000396000818160ff0152818161080501528181610b0801526113580152600081816101ff015281816102fe015281816105ee015281816106ff0152610a0f0152600081816102570152818161117f0152818161125b0152818161157f015261165b0152611d206000f3fe608060405234801561001057600080fd5b50600436106100f55760003560e01c80638620265011610097578063ad007d6311610066578063ad007d6314610252578063c5664e2114610279578063d17541531461029c578063f2fde38b146102bc57600080fd5b806386202650146101e75780638b79543c146101fa5780638da5cb5b14610221578063a1ed31751461023f57600080fd5b80636e49181f116100d35780636e49181f14610196578063714e7f32146101b9578063715018a6146101cc578063821b9fd8146101d457600080fd5b8063557e7155146100fa5780635dd8f6aa1461014b57806363d0850a14610181575b600080fd5b6101217f000000000000000000000000000000000000000000000000000000000000000081565b60405173ffffffffffffffffffffffffffffffffffffffff90911681526020015b60405180910390f35b6101216101593660046119ce565b60036020526000908152604090205473ffffffffffffffffffffffffffffffffffffffff1681565b61019461018f366004611a25565b6102cf565b005b6101a96101a4366004611a00565b61051c565b6040519015158152602001610142565b6101946101c7366004611a00565b6105bf565b6101946109cc565b6101946101e2366004611a67565b6109e0565b6101216101f5366004611a00565b610d77565b6101217f000000000000000000000000000000000000000000000000000000000000000081565b60005473ffffffffffffffffffffffffffffffffffffffff16610121565b61019461024d3660046118f8565b610f3b565b6101217f000000000000000000000000000000000000000000000000000000000000000081565b6101a96102873660046118b7565b60046020526000908152604090205460ff1681565b6102af6102aa3660046119ce565b610fd0565b6040516101429190611b60565b6101946102ca3660046118b7565b611049565b6040517f6352211e000000000000000000000000000000000000000000000000000000008152600481018490527f000000000000000000000000000000000000000000000000000000000000000073ffffffffffffffffffffffffffffffffffffffff1690636352211e9060240160206040518083038186803b15801561035557600080fd5b505afa158015610369573d6000803e3d6000fd5b505050506040513d601f19601f8201168201806040525081019061038d91906118db565b83601061039b838383611105565b6040517fdf21a7dd00000000000000000000000000000000000000000000000000000000815273ffffffffffffffffffffffffffffffffffffffff86811660048301526024820188905285169063df21a7dd9060440160206040518083038186803b15801561040957600080fd5b505afa15801561041d573d6000803e3d6000fd5b505050506040513d601f19601f820116820180604052508101906104419190611931565b610477576040517f1f5522f600000000000000000000000000000000000000000000000000000000815260040160405180910390fd5b6104818685611313565b600086815260026020908152604080832073ffffffffffffffffffffffffffffffffffffffff8981168086529184529382902080547fffffffffffffffffffffffff00000000000000000000000000000000000000001694891694851790559051338152909189917fc670a502bbb9f8a4315f95eca901a9f99b65f89a2eb5705a58050e5c00f9d672910160405180910390a4505050505050565b6000805b6000848152600160205260409020548110156105b3576000848152600160205260409020805473ffffffffffffffffffffffffffffffffffffffff851691908390811061056f5761056f611c8b565b60009182526020909120015473ffffffffffffffffffffffffffffffffffffffff1614156105a15760019150506105b9565b806105ab81611c23565b915050610520565b50600090505b92915050565b6040517f6352211e000000000000000000000000000000000000000000000000000000008152600481018390527f000000000000000000000000000000000000000000000000000000000000000073ffffffffffffffffffffffffffffffffffffffff1690636352211e9060240160206040518083038186803b15801561064557600080fd5b505afa158015610659573d6000803e3d6000fd5b505050506040513d601f19601f8201168201806040525081019061067d91906118db565b6000838152600360205260409020548390600e9073ffffffffffffffffffffffffffffffffffffffff163314806106f057503360009081526004602052604090205460ff1680156106f0575060008581526003602052604090205473ffffffffffffffffffffffffffffffffffffffff16155b6106fc848484846114fb565b857f000000000000000000000000000000000000000000000000000000000000000073ffffffffffffffffffffffffffffffffffffffff166306661abd6040518163ffffffff1660e01b815260040160206040518083038186803b15801561076357600080fd5b505afa158015610777573d6000803e3d6000fd5b505050506040513d601f19601f8201168201806040525081019061079b91906119e7565b10156107d3576040517f945074a600000000000000000000000000000000000000000000000000000000815260040160405180910390fd5b6040517f43a266c2000000000000000000000000000000000000000000000000000000008152600481018790526000907f000000000000000000000000000000000000000000000000000000000000000073ffffffffffffffffffffffffffffffffffffffff16906343a266c2906024016101206040518083038186803b15801561085d57600080fd5b505afa158015610871573d6000803e3d6000fd5b505050506040513d601f19601f82011682018060405250810190610895919061194e565b60008881526003602052604090205490915073ffffffffffffffffffffffffffffffffffffffff1633148015906108ef575060008781526003602052604090205473ffffffffffffffffffffffffffffffffffffffff1615155b8015610907575061010081015160091c600190811614155b1561093e576040517fa33db4cb00000000000000000000000000000000000000000000000000000000815260040160405180910390fd5b60008781526003602090815260409182902080547fffffffffffffffffffffffff00000000000000000000000000000000000000001673ffffffffffffffffffffffffffffffffffffffff8a16908117909155915133815289917f7f9a7dcb234c909a09de2f344661ad9e5b24067adb97c908647c2edcbb121c30910160405180910390a350505050505050565b6109d4611714565b6109de6000611795565b565b6040517f6352211e000000000000000000000000000000000000000000000000000000008152600481018490527f000000000000000000000000000000000000000000000000000000000000000073ffffffffffffffffffffffffffffffffffffffff1690636352211e9060240160206040518083038186803b158015610a6657600080fd5b505afa158015610a7a573d6000803e3d6000fd5b505050506040513d601f19601f82011682018060405250810190610a9e91906118db565b6000848152600360205260409020548490600f9073ffffffffffffffffffffffffffffffffffffffff163314610ad6848484846114fb565b6040517f43a266c2000000000000000000000000000000000000000000000000000000008152600481018890526000907f000000000000000000000000000000000000000000000000000000000000000073ffffffffffffffffffffffffffffffffffffffff16906343a266c2906024016101206040518083038186803b158015610b6057600080fd5b505afa158015610b74573d6000803e3d6000fd5b505050506040513d601f19601f82011682018060405250810190610b98919061194e565b60008981526003602052604090205490915073ffffffffffffffffffffffffffffffffffffffff163314801590610bdb575061010081015160081c600190811614155b15610c12576040517febfde6be00000000000000000000000000000000000000000000000000000000815260040160405180910390fd5b6000888152600160205260409020610c2b90888861180a565b506001861115610d315760005b86811015610d2f576000610c4d826001611c0b565b90505b87811015610d1c57888882818110610c6a57610c6a611c8b565b9050602002016020810190610c7f91906118b7565b73ffffffffffffffffffffffffffffffffffffffff16898984818110610ca757610ca7611c8b565b9050602002016020810190610cbc91906118b7565b73ffffffffffffffffffffffffffffffffffffffff161415610d0a576040517f7c70615600000000000000000000000000000000000000000000000000000000815260040160405180910390fd5b80610d1481611c23565b915050610c50565b5080610d2781611c23565b915050610c38565b505b877fb648241d83df6540fc10f2acc641e4bf80a1e84e7ae2f1f6b0ad204b8fee635b888833604051610d6593929190611ae6565b60405180910390a25050505050505050565b600082815260026020908152604080832073ffffffffffffffffffffffffffffffffffffffff858116855292528220541615801590610dee5750600083815260026020908152604080832073ffffffffffffffffffffffffffffffffffffffff8087168552925290912054610dee9185911661051c565b15610e2b5750600082815260026020908152604080832073ffffffffffffffffffffffffffffffffffffffff8086168552925290912054166105b9565b60005b6000848152600160205260409020548110156105b3576000848152600160205260408120805483908110610e6457610e64611c8b565b6000918252602090912001546040517fdf21a7dd00000000000000000000000000000000000000000000000000000000815273ffffffffffffffffffffffffffffffffffffffff8681166004830152602482018890529091169150819063df21a7dd9060440160206040518083038186803b158015610ee257600080fd5b505afa158015610ef6573d6000803e3d6000fd5b505050506040513d601f19601f82011682018060405250810190610f1a9190611931565b15610f285791506105b99050565b5080610f3381611c23565b915050610e2e565b610f43611714565b73ffffffffffffffffffffffffffffffffffffffff821660008181526004602090815260409182902080547fffffffffffffffffffffffffffffffffffffffffffffffffffffffffffffff001685151590811790915591513381529192917f11207664cc48b0fa81c8674795f1d8f642960f38d5d2d305ad813093bed85fab910160405180910390a35050565b60008181526001602090815260409182902080548351818402810184019094528084526060939283018282801561103d57602002820191906000526020600020905b815473ffffffffffffffffffffffffffffffffffffffff168152600190910190602001808311611012575b50505050509050919050565b611051611714565b73ffffffffffffffffffffffffffffffffffffffff81166110f9576040517f08c379a000000000000000000000000000000000000000000000000000000000815260206004820152602660248201527f4f776e61626c653a206e6577206f776e657220697320746865207a65726f206160448201527f646472657373000000000000000000000000000000000000000000000000000060648201526084015b60405180910390fd5b61110281611795565b50565b3373ffffffffffffffffffffffffffffffffffffffff8416148015906111fb57506040517fc161c93f00000000000000000000000000000000000000000000000000000000815233600482015273ffffffffffffffffffffffffffffffffffffffff848116602483015260448201849052606482018390527f0000000000000000000000000000000000000000000000000000000000000000169063c161c93f9060840160206040518083038186803b1580156111c157600080fd5b505afa1580156111d5573d6000803e3d6000fd5b505050506040513d601f19601f820116820180604052508101906111f99190611931565b155b80156112d757506040517fc161c93f00000000000000000000000000000000000000000000000000000000815233600482015273ffffffffffffffffffffffffffffffffffffffff848116602483015260006044830152606482018390527f0000000000000000000000000000000000000000000000000000000000000000169063c161c93f9060840160206040518083038186803b15801561129d57600080fd5b505afa1580156112b1573d6000803e3d6000fd5b505050506040513d601f19601f820116820180604052508101906112d59190611931565b155b1561130e576040517f075fd2b100000000000000000000000000000000000000000000000000000000815260040160405180910390fd5b505050565b61131d828261051c565b15611326575050565b6040517f43a266c2000000000000000000000000000000000000000000000000000000008152600481018390526000907f000000000000000000000000000000000000000000000000000000000000000073ffffffffffffffffffffffffffffffffffffffff16906343a266c2906024016101206040518083038186803b1580156113b057600080fd5b505afa1580156113c4573d6000803e3d6000fd5b505050506040513d601f19601f820116820180604052508101906113e8919061194e565b60008481526003602052604090205490915073ffffffffffffffffffffffffffffffffffffffff16331480159061142b575061010081015160081c600190811614155b15611462576040517febfde6be00000000000000000000000000000000000000000000000000000000815260040160405180910390fd5b60008381526001602081815260408084208054938401815584529281902090910180547fffffffffffffffffffffffff00000000000000000000000000000000000000001673ffffffffffffffffffffffffffffffffffffffff8616908117909155915133815285917f409bccc07b7cf7807930526a24318212d614c59f2dde05a017a41efee144e7c8910160405180910390a3505050565b8015801561151f57503373ffffffffffffffffffffffffffffffffffffffff851614155b80156115fb57506040517fc161c93f00000000000000000000000000000000000000000000000000000000815233600482015273ffffffffffffffffffffffffffffffffffffffff858116602483015260448201859052606482018490527f0000000000000000000000000000000000000000000000000000000000000000169063c161c93f9060840160206040518083038186803b1580156115c157600080fd5b505afa1580156115d5573d6000803e3d6000fd5b505050506040513d601f19601f820116820180604052508101906115f99190611931565b155b80156116d757506040517fc161c93f00000000000000000000000000000000000000000000000000000000815233600482015273ffffffffffffffffffffffffffffffffffffffff858116602483015260006044830152606482018490527f0000000000000000000000000000000000000000000000000000000000000000169063c161c93f9060840160206040518083038186803b15801561169d57600080fd5b505afa1580156116b1573d6000803e3d6000fd5b505050506040513d601f19601f820116820180604052508101906116d59190611931565b155b1561170e576040517f075fd2b100000000000000000000000000000000000000000000000000000000815260040160405180910390fd5b50505050565b60005473ffffffffffffffffffffffffffffffffffffffff1633146109de576040517f08c379a000000000000000000000000000000000000000000000000000000000815260206004820181905260248201527f4f776e61626c653a2063616c6c6572206973206e6f7420746865206f776e657260448201526064016110f0565b6000805473ffffffffffffffffffffffffffffffffffffffff8381167fffffffffffffffffffffffff0000000000000000000000000000000000000000831681178455604051919092169283917f8be0079c531659141344cd1fd0a4f28419497f9722a3daafe3b4186f6b6457e09190a35050565b828054828255906000526020600020908101928215611882579160200282015b828111156118825781547fffffffffffffffffffffffff00000000000000000000000000000000000000001673ffffffffffffffffffffffffffffffffffffffff84351617825560209092019160019091019061182a565b5061188e929150611892565b5090565b5b8082111561188e5760008155600101611893565b80516118b281611cba565b919050565b6000602082840312156118c957600080fd5b81356118d481611cba565b9392505050565b6000602082840312156118ed57600080fd5b81516118d481611cba565b6000806040838503121561190b57600080fd5b823561191681611cba565b9150602083013561192681611cdc565b809150509250929050565b60006020828403121561194357600080fd5b81516118d481611cdc565b6000610120828403121561196157600080fd5b611969611bba565b825181526020830151602082015260408301516040820152606083015160608201526080830151608082015260a083015160a082015260c083015160c08201526119b560e084016118a7565b60e0820152610100928301519281019290925250919050565b6000602082840312156119e057600080fd5b5035919050565b6000602082840312156119f957600080fd5b5051919050565b60008060408385031215611a1357600080fd5b82359150602083013561192681611cba565b600080600060608486031215611a3a57600080fd5b833592506020840135611a4c81611cba565b91506040840135611a5c81611cba565b809150509250925092565b600080600060408486031215611a7c57600080fd5b83359250602084013567ffffffffffffffff80821115611a9b57600080fd5b818601915086601f830112611aaf57600080fd5b813581811115611abe57600080fd5b8760208260051b8501011115611ad357600080fd5b6020830194508093505050509250925092565b6040808252810183905260008460608301825b86811015611b36578235611b0c81611cba565b73ffffffffffffffffffffffffffffffffffffffff16825260209283019290910190600101611af9565b50809250505073ffffffffffffffffffffffffffffffffffffffff83166020830152949350505050565b6020808252825182820181905260009190848201906040850190845b81811015611bae57835173ffffffffffffffffffffffffffffffffffffffff1683529284019291840191600101611b7c565b50909695505050505050565b604051610120810167ffffffffffffffff81118282101715611c05577f4e487b7100000000000000000000000000000000000000000000000000000000600052604160045260246000fd5b60405290565b60008219821115611c1e57611c1e611c5c565b500190565b60007fffffffffffffffffffffffffffffffffffffffffffffffffffffffffffffffff821415611c5557611c55611c5c565b5060010190565b7f4e487b7100000000000000000000000000000000000000000000000000000000600052601160045260246000fd5b7f4e487b7100000000000000000000000000000000000000000000000000000000600052603260045260246000fd5b73ffffffffffffffffffffffffffffffffffffffff8116811461110257600080fd5b801515811461110257600080fdfea26469706673582212204f1798281cfde836ef4ca136493f1e3e2498586d409d81a5663a93e638ab6aba64736f6c63430008060033",
    "linkReferences": {}
  },
  "methodIdentifiers": {
    "controllerOf(uint256)": "5dd8f6aa",
    "fundingCycleStore()": "557e7155",
    "isAllowedToSetFirstController(address)": "c5664e21",
    "isTerminalOf(uint256,address)": "6e49181f",
    "operatorStore()": "ad007d63",
    "owner()": "8da5cb5b",
    "primaryTerminalOf(uint256,address)": "86202650",
    "projects()": "8b79543c",
    "renounceOwnership()": "715018a6",
    "setControllerOf(uint256,address)": "714e7f32",
    "setIsAllowedToSetFirstController(address,bool)": "a1ed3175",
    "setPrimaryTerminalOf(uint256,address,address)": "63d0850a",
    "setTerminalsOf(uint256,address[])": "821b9fd8",
    "terminalsOf(uint256)": "d1754153",
    "transferOwnership(address)": "f2fde38b"
  },
  "id": 49
}