{
  "abi": [
    {
      "inputs": [
        {
          "internalType": "uint256",
          "name": "_baseWeightCurrency",
          "type": "uint256"
        },
        {
          "internalType": "contract IJBOperatorStore",
          "name": "_operatorStore",
          "type": "address"
        },
        {
          "internalType": "contract IJBProjects",
          "name": "_projects",
          "type": "address"
        },
        {
          "internalType": "contract IJBDirectory",
          "name": "_directory",
          "type": "address"
        },
        {
          "internalType": "contract IJBSplitsStore",
          "name": "_splitsStore",
          "type": "address"
        },
        {
          "internalType": "contract IJBPrices",
          "name": "_prices",
          "type": "address"
        },
        {
          "internalType": "contract IJBSingleTokenPaymentTerminalStore",
          "name": "_store",
          "type": "address"
        },
        {
          "internalType": "address",
          "name": "_owner",
          "type": "address"
        }
      ],
      "stateMutability": "nonpayable",
      "type": "constructor"
    },
    {
      "inputs": [],
      "name": "FEE_TOO_HIGH",
      "type": "error"
    },
    {
      "inputs": [],
      "name": "INADEQUATE_DISTRIBUTION_AMOUNT",
      "type": "error"
    },
    {
      "inputs": [],
      "name": "INADEQUATE_RECLAIM_AMOUNT",
      "type": "error"
    },
    {
      "inputs": [],
      "name": "INADEQUATE_TOKEN_COUNT",
      "type": "error"
    },
    {
      "inputs": [],
      "name": "NO_MSG_VALUE_ALLOWED",
      "type": "error"
    },
    {
      "inputs": [],
      "name": "PAY_TO_ZERO_ADDRESS",
      "type": "error"
    },
    {
      "inputs": [
        {
          "internalType": "uint256",
          "name": "prod1",
          "type": "uint256"
        },
        {
          "internalType": "uint256",
          "name": "denominator",
          "type": "uint256"
        }
      ],
      "name": "PRBMath__MulDivOverflow",
      "type": "error"
    },
    {
      "inputs": [],
      "name": "PROJECT_TERMINAL_MISMATCH",
      "type": "error"
    },
    {
      "inputs": [],
      "name": "REDEEM_TO_ZERO_ADDRESS",
      "type": "error"
    },
    {
      "inputs": [],
      "name": "TERMINAL_IN_SPLIT_ZERO_ADDRESS",
      "type": "error"
    },
    {
      "inputs": [],
      "name": "TERMINAL_TOKENS_INCOMPATIBLE",
      "type": "error"
    },
    {
      "inputs": [],
      "name": "UNAUTHORIZED",
      "type": "error"
    },
    {
      "anonymous": false,
      "inputs": [
        {
          "indexed": true,
          "internalType": "uint256",
          "name": "projectId",
          "type": "uint256"
        },
        {
          "indexed": false,
          "internalType": "uint256",
          "name": "amount",
          "type": "uint256"
        },
        {
          "indexed": false,
          "internalType": "uint256",
          "name": "refundedFees",
          "type": "uint256"
        },
        {
          "indexed": false,
          "internalType": "string",
          "name": "memo",
          "type": "string"
        },
        {
          "indexed": false,
          "internalType": "bytes",
          "name": "metadata",
          "type": "bytes"
        },
        {
          "indexed": false,
          "internalType": "address",
          "name": "caller",
          "type": "address"
        }
      ],
      "name": "AddToBalance",
      "type": "event"
    },
    {
      "anonymous": false,
      "inputs": [
        {
          "indexed": true,
          "internalType": "contract IJBPayDelegate",
          "name": "delegate",
          "type": "address"
        },
        {
          "components": [
            {
              "internalType": "address",
              "name": "payer",
              "type": "address"
            },
            {
              "internalType": "uint256",
              "name": "projectId",
              "type": "uint256"
            },
            {
              "internalType": "uint256",
              "name": "currentFundingCycleConfiguration",
              "type": "uint256"
            },
            {
              "components": [
                {
                  "internalType": "address",
                  "name": "token",
                  "type": "address"
                },
                {
                  "internalType": "uint256",
                  "name": "value",
                  "type": "uint256"
                },
                {
                  "internalType": "uint256",
                  "name": "decimals",
                  "type": "uint256"
                },
                {
                  "internalType": "uint256",
                  "name": "currency",
                  "type": "uint256"
                }
              ],
              "internalType": "struct JBTokenAmount",
              "name": "amount",
              "type": "tuple"
            },
            {
              "internalType": "uint256",
              "name": "projectTokenCount",
              "type": "uint256"
            },
            {
              "internalType": "address",
              "name": "beneficiary",
              "type": "address"
            },
            {
              "internalType": "bool",
              "name": "preferClaimedTokens",
              "type": "bool"
            },
            {
              "internalType": "string",
              "name": "memo",
              "type": "string"
            },
            {
              "internalType": "bytes",
              "name": "metadata",
              "type": "bytes"
            }
          ],
          "indexed": false,
          "internalType": "struct JBDidPayData",
          "name": "data",
          "type": "tuple"
        },
        {
          "indexed": false,
          "internalType": "address",
          "name": "caller",
          "type": "address"
        }
      ],
      "name": "DelegateDidPay",
      "type": "event"
    },
    {
      "anonymous": false,
      "inputs": [
        {
          "indexed": true,
          "internalType": "contract IJBRedemptionDelegate",
          "name": "delegate",
          "type": "address"
        },
        {
          "components": [
            {
              "internalType": "address",
              "name": "holder",
              "type": "address"
            },
            {
              "internalType": "uint256",
              "name": "projectId",
              "type": "uint256"
            },
            {
              "internalType": "uint256",
              "name": "currentFundingCycleConfiguration",
              "type": "uint256"
            },
            {
              "internalType": "uint256",
              "name": "projectTokenCount",
              "type": "uint256"
            },
            {
              "components": [
                {
                  "internalType": "address",
                  "name": "token",
                  "type": "address"
                },
                {
                  "internalType": "uint256",
                  "name": "value",
                  "type": "uint256"
                },
                {
                  "internalType": "uint256",
                  "name": "decimals",
                  "type": "uint256"
                },
                {
                  "internalType": "uint256",
                  "name": "currency",
                  "type": "uint256"
                }
              ],
              "internalType": "struct JBTokenAmount",
              "name": "reclaimedAmount",
              "type": "tuple"
            },
            {
              "internalType": "address payable",
              "name": "beneficiary",
              "type": "address"
            },
            {
              "internalType": "string",
              "name": "memo",
              "type": "string"
            },
            {
              "internalType": "bytes",
              "name": "metadata",
              "type": "bytes"
            }
          ],
          "indexed": false,
          "internalType": "struct JBDidRedeemData",
          "name": "data",
          "type": "tuple"
        },
        {
          "indexed": false,
          "internalType": "address",
          "name": "caller",
          "type": "address"
        }
      ],
      "name": "DelegateDidRedeem",
      "type": "event"
    },
    {
      "anonymous": false,
      "inputs": [
        {
          "indexed": true,
          "internalType": "uint256",
          "name": "fundingCycleConfiguration",
          "type": "uint256"
        },
        {
          "indexed": true,
          "internalType": "uint256",
          "name": "fundingCycleNumber",
          "type": "uint256"
        },
        {
          "indexed": true,
          "internalType": "uint256",
          "name": "projectId",
          "type": "uint256"
        },
        {
          "indexed": false,
          "internalType": "address",
          "name": "beneficiary",
          "type": "address"
        },
        {
          "indexed": false,
          "internalType": "uint256",
          "name": "amount",
          "type": "uint256"
        },
        {
          "indexed": false,
          "internalType": "uint256",
          "name": "distributedAmount",
          "type": "uint256"
        },
        {
          "indexed": false,
          "internalType": "uint256",
          "name": "fee",
          "type": "uint256"
        },
        {
          "indexed": false,
          "internalType": "uint256",
          "name": "beneficiaryDistributionAmount",
          "type": "uint256"
        },
        {
          "indexed": false,
          "internalType": "string",
          "name": "memo",
          "type": "string"
        },
        {
          "indexed": false,
          "internalType": "address",
          "name": "caller",
          "type": "address"
        }
      ],
      "name": "DistributePayouts",
      "type": "event"
    },
    {
      "anonymous": false,
      "inputs": [
        {
          "indexed": true,
          "internalType": "uint256",
          "name": "projectId",
          "type": "uint256"
        },
        {
          "indexed": true,
          "internalType": "uint256",
          "name": "domain",
          "type": "uint256"
        },
        {
          "indexed": true,
          "internalType": "uint256",
          "name": "group",
          "type": "uint256"
        },
        {
          "components": [
            {
              "internalType": "bool",
              "name": "preferClaimed",
              "type": "bool"
            },
            {
              "internalType": "bool",
              "name": "preferAddToBalance",
              "type": "bool"
            },
            {
              "internalType": "uint256",
              "name": "percent",
              "type": "uint256"
            },
            {
              "internalType": "uint256",
              "name": "projectId",
              "type": "uint256"
            },
            {
              "internalType": "address payable",
              "name": "beneficiary",
              "type": "address"
            },
            {
              "internalType": "uint256",
              "name": "lockedUntil",
              "type": "uint256"
            },
            {
              "internalType": "contract IJBSplitAllocator",
              "name": "allocator",
              "type": "address"
            }
          ],
          "indexed": false,
          "internalType": "struct JBSplit",
          "name": "split",
          "type": "tuple"
        },
        {
          "indexed": false,
          "internalType": "uint256",
          "name": "amount",
          "type": "uint256"
        },
        {
          "indexed": false,
          "internalType": "address",
          "name": "caller",
          "type": "address"
        }
      ],
      "name": "DistributeToPayoutSplit",
      "type": "event"
    },
    {
      "anonymous": false,
      "inputs": [
        {
          "indexed": true,
          "internalType": "uint256",
          "name": "projectId",
          "type": "uint256"
        },
        {
          "indexed": true,
          "internalType": "uint256",
          "name": "amount",
          "type": "uint256"
        },
        {
          "indexed": true,
          "internalType": "uint256",
          "name": "fee",
          "type": "uint256"
        },
        {
          "indexed": false,
          "internalType": "uint256",
          "name": "feeDiscount",
          "type": "uint256"
        },
        {
          "indexed": false,
          "internalType": "address",
          "name": "beneficiary",
          "type": "address"
        },
        {
          "indexed": false,
          "internalType": "address",
          "name": "caller",
          "type": "address"
        }
      ],
      "name": "HoldFee",
      "type": "event"
    },
    {
      "anonymous": false,
      "inputs": [
        {
          "indexed": true,
          "internalType": "uint256",
          "name": "projectId",
          "type": "uint256"
        },
        {
          "indexed": true,
          "internalType": "contract IJBPaymentTerminal",
          "name": "to",
          "type": "address"
        },
        {
          "indexed": false,
          "internalType": "uint256",
          "name": "amount",
          "type": "uint256"
        },
        {
          "indexed": false,
          "internalType": "address",
          "name": "caller",
          "type": "address"
        }
      ],
      "name": "Migrate",
      "type": "event"
    },
    {
      "anonymous": false,
      "inputs": [
        {
          "indexed": true,
          "internalType": "address",
          "name": "previousOwner",
          "type": "address"
        },
        {
          "indexed": true,
          "internalType": "address",
          "name": "newOwner",
          "type": "address"
        }
      ],
      "name": "OwnershipTransferred",
      "type": "event"
    },
    {
      "anonymous": false,
      "inputs": [
        {
          "indexed": true,
          "internalType": "uint256",
          "name": "fundingCycleConfiguration",
          "type": "uint256"
        },
        {
          "indexed": true,
          "internalType": "uint256",
          "name": "fundingCycleNumber",
          "type": "uint256"
        },
        {
          "indexed": true,
          "internalType": "uint256",
          "name": "projectId",
          "type": "uint256"
        },
        {
          "indexed": false,
          "internalType": "address",
          "name": "payer",
          "type": "address"
        },
        {
          "indexed": false,
          "internalType": "address",
          "name": "beneficiary",
          "type": "address"
        },
        {
          "indexed": false,
          "internalType": "uint256",
          "name": "amount",
          "type": "uint256"
        },
        {
          "indexed": false,
          "internalType": "uint256",
          "name": "beneficiaryTokenCount",
          "type": "uint256"
        },
        {
          "indexed": false,
          "internalType": "string",
          "name": "memo",
          "type": "string"
        },
        {
          "indexed": false,
          "internalType": "bytes",
          "name": "metadata",
          "type": "bytes"
        },
        {
          "indexed": false,
          "internalType": "address",
          "name": "caller",
          "type": "address"
        }
      ],
      "name": "Pay",
      "type": "event"
    },
    {
      "anonymous": false,
      "inputs": [
        {
          "indexed": true,
          "internalType": "uint256",
          "name": "projectId",
          "type": "uint256"
        },
        {
          "indexed": true,
          "internalType": "uint256",
          "name": "amount",
          "type": "uint256"
        },
        {
          "indexed": true,
          "internalType": "bool",
          "name": "wasHeld",
          "type": "bool"
        },
        {
          "indexed": false,
          "internalType": "address",
          "name": "beneficiary",
          "type": "address"
        },
        {
          "indexed": false,
          "internalType": "address",
          "name": "caller",
          "type": "address"
        }
      ],
      "name": "ProcessFee",
      "type": "event"
    },
    {
      "anonymous": false,
      "inputs": [
        {
          "indexed": true,
          "internalType": "uint256",
          "name": "fundingCycleConfiguration",
          "type": "uint256"
        },
        {
          "indexed": true,
          "internalType": "uint256",
          "name": "fundingCycleNumber",
          "type": "uint256"
        },
        {
          "indexed": true,
          "internalType": "uint256",
          "name": "projectId",
          "type": "uint256"
        },
        {
          "indexed": false,
          "internalType": "address",
          "name": "holder",
          "type": "address"
        },
        {
          "indexed": false,
          "internalType": "address",
          "name": "beneficiary",
          "type": "address"
        },
        {
          "indexed": false,
          "internalType": "uint256",
          "name": "tokenCount",
          "type": "uint256"
        },
        {
          "indexed": false,
          "internalType": "uint256",
          "name": "reclaimedAmount",
          "type": "uint256"
        },
        {
          "indexed": false,
          "internalType": "string",
          "name": "memo",
          "type": "string"
        },
        {
          "indexed": false,
          "internalType": "bytes",
          "name": "metadata",
          "type": "bytes"
        },
        {
          "indexed": false,
          "internalType": "address",
          "name": "caller",
          "type": "address"
        }
      ],
      "name": "RedeemTokens",
      "type": "event"
    },
    {
      "anonymous": false,
      "inputs": [
        {
          "indexed": true,
          "internalType": "uint256",
          "name": "projectId",
          "type": "uint256"
        },
        {
          "indexed": true,
          "internalType": "uint256",
          "name": "amount",
          "type": "uint256"
        },
        {
          "indexed": true,
          "internalType": "uint256",
          "name": "refundedFees",
          "type": "uint256"
        },
        {
          "indexed": false,
          "internalType": "uint256",
          "name": "leftoverAmount",
          "type": "uint256"
        },
        {
          "indexed": false,
          "internalType": "address",
          "name": "caller",
          "type": "address"
        }
      ],
      "name": "RefundHeldFees",
      "type": "event"
    },
    {
      "anonymous": false,
      "inputs": [
        {
          "indexed": false,
          "internalType": "uint256",
          "name": "fee",
          "type": "uint256"
        },
        {
          "indexed": false,
          "internalType": "address",
          "name": "caller",
          "type": "address"
        }
      ],
      "name": "SetFee",
      "type": "event"
    },
    {
      "anonymous": false,
      "inputs": [
        {
          "indexed": true,
          "internalType": "contract IJBFeeGauge",
          "name": "feeGauge",
          "type": "address"
        },
        {
          "indexed": false,
          "internalType": "address",
          "name": "caller",
          "type": "address"
        }
      ],
      "name": "SetFeeGauge",
      "type": "event"
    },
    {
      "anonymous": false,
      "inputs": [
        {
          "indexed": true,
          "internalType": "address",
          "name": "addrs",
          "type": "address"
        },
        {
          "indexed": true,
          "internalType": "bool",
          "name": "flag",
          "type": "bool"
        },
        {
          "indexed": false,
          "internalType": "address",
          "name": "caller",
          "type": "address"
        }
      ],
      "name": "SetFeelessAddress",
      "type": "event"
    },
    {
      "anonymous": false,
      "inputs": [
        {
          "indexed": true,
          "internalType": "uint256",
          "name": "fundingCycleConfiguration",
          "type": "uint256"
        },
        {
          "indexed": true,
          "internalType": "uint256",
          "name": "fundingCycleNumber",
          "type": "uint256"
        },
        {
          "indexed": true,
          "internalType": "uint256",
          "name": "projectId",
          "type": "uint256"
        },
        {
          "indexed": false,
          "internalType": "address",
          "name": "beneficiary",
          "type": "address"
        },
        {
          "indexed": false,
          "internalType": "uint256",
          "name": "amount",
          "type": "uint256"
        },
        {
          "indexed": false,
          "internalType": "uint256",
          "name": "distributedAmount",
          "type": "uint256"
        },
        {
          "indexed": false,
          "internalType": "uint256",
          "name": "netDistributedamount",
          "type": "uint256"
        },
        {
          "indexed": false,
          "internalType": "string",
          "name": "memo",
          "type": "string"
        },
        {
          "indexed": false,
          "internalType": "address",
          "name": "caller",
          "type": "address"
        }
      ],
      "name": "UseAllowance",
      "type": "event"
    },
    {
      "inputs": [
        {
          "internalType": "address",
          "name": "_token",
          "type": "address"
        },
        {
          "internalType": "uint256",
          "name": "_projectId",
          "type": "uint256"
        }
      ],
      "name": "acceptsToken",
      "outputs": [
        {
          "internalType": "bool",
          "name": "",
          "type": "bool"
        }
      ],
      "stateMutability": "view",
      "type": "function"
    },
    {
      "inputs": [
        {
          "internalType": "uint256",
          "name": "_projectId",
          "type": "uint256"
        },
        {
          "internalType": "uint256",
          "name": "_amount",
          "type": "uint256"
        },
        {
          "internalType": "address",
          "name": "_token",
          "type": "address"
        },
        {
          "internalType": "string",
          "name": "_memo",
          "type": "string"
        },
        {
          "internalType": "bytes",
          "name": "_metadata",
          "type": "bytes"
        }
      ],
      "name": "addToBalanceOf",
      "outputs": [],
      "stateMutability": "payable",
      "type": "function"
    },
    {
      "inputs": [],
      "name": "baseWeightCurrency",
      "outputs": [
        {
          "internalType": "uint256",
          "name": "",
          "type": "uint256"
        }
      ],
      "stateMutability": "view",
      "type": "function"
    },
    {
      "inputs": [],
      "name": "currency",
      "outputs": [
        {
          "internalType": "uint256",
          "name": "",
          "type": "uint256"
        }
      ],
      "stateMutability": "view",
      "type": "function"
    },
    {
      "inputs": [
        {
          "internalType": "address",
          "name": "_token",
          "type": "address"
        }
      ],
      "name": "currencyForToken",
      "outputs": [
        {
          "internalType": "uint256",
          "name": "",
          "type": "uint256"
        }
      ],
      "stateMutability": "view",
      "type": "function"
    },
    {
      "inputs": [
        {
          "internalType": "uint256",
          "name": "_projectId",
          "type": "uint256"
        }
      ],
      "name": "currentEthOverflowOf",
      "outputs": [
        {
          "internalType": "uint256",
          "name": "",
          "type": "uint256"
        }
      ],
      "stateMutability": "view",
      "type": "function"
    },
    {
      "inputs": [],
      "name": "decimals",
      "outputs": [
        {
          "internalType": "uint256",
          "name": "",
          "type": "uint256"
        }
      ],
      "stateMutability": "view",
      "type": "function"
    },
    {
      "inputs": [
        {
          "internalType": "address",
          "name": "_token",
          "type": "address"
        }
      ],
      "name": "decimalsForToken",
      "outputs": [
        {
          "internalType": "uint256",
          "name": "",
          "type": "uint256"
        }
      ],
      "stateMutability": "view",
      "type": "function"
    },
    {
      "inputs": [],
      "name": "directory",
      "outputs": [
        {
          "internalType": "contract IJBDirectory",
          "name": "",
          "type": "address"
        }
      ],
      "stateMutability": "view",
      "type": "function"
    },
    {
      "inputs": [
        {
          "internalType": "uint256",
          "name": "_projectId",
          "type": "uint256"
        },
        {
          "internalType": "uint256",
          "name": "_amount",
          "type": "uint256"
        },
        {
          "internalType": "uint256",
          "name": "_currency",
          "type": "uint256"
        },
        {
          "internalType": "address",
          "name": "_token",
          "type": "address"
        },
        {
          "internalType": "uint256",
          "name": "_minReturnedTokens",
          "type": "uint256"
        },
        {
          "internalType": "string",
          "name": "_memo",
          "type": "string"
        }
      ],
      "name": "distributePayoutsOf",
      "outputs": [
        {
          "internalType": "uint256",
          "name": "netLeftoverDistributionAmount",
          "type": "uint256"
        }
      ],
      "stateMutability": "nonpayable",
      "type": "function"
    },
    {
      "inputs": [],
      "name": "fee",
      "outputs": [
        {
          "internalType": "uint256",
          "name": "",
          "type": "uint256"
        }
      ],
      "stateMutability": "view",
      "type": "function"
    },
    {
      "inputs": [],
      "name": "feeGauge",
      "outputs": [
        {
          "internalType": "contract IJBFeeGauge",
          "name": "",
          "type": "address"
        }
      ],
      "stateMutability": "view",
      "type": "function"
    },
    {
      "inputs": [
        {
          "internalType": "uint256",
          "name": "_projectId",
          "type": "uint256"
        }
      ],
      "name": "heldFeesOf",
      "outputs": [
        {
          "components": [
            {
              "internalType": "uint256",
              "name": "amount",
              "type": "uint256"
            },
            {
              "internalType": "uint32",
              "name": "fee",
              "type": "uint32"
            },
            {
              "internalType": "uint32",
              "name": "feeDiscount",
              "type": "uint32"
            },
            {
              "internalType": "address",
              "name": "beneficiary",
              "type": "address"
            }
          ],
          "internalType": "struct JBFee[]",
          "name": "",
          "type": "tuple[]"
        }
      ],
      "stateMutability": "view",
      "type": "function"
    },
    {
      "inputs": [
        {
          "internalType": "address",
          "name": "",
          "type": "address"
        }
      ],
      "name": "isFeelessAddress",
      "outputs": [
        {
          "internalType": "bool",
          "name": "",
          "type": "bool"
        }
      ],
      "stateMutability": "view",
      "type": "function"
    },
    {
      "inputs": [
        {
          "internalType": "uint256",
          "name": "_projectId",
          "type": "uint256"
        },
        {
          "internalType": "contract IJBPaymentTerminal",
          "name": "_to",
          "type": "address"
        }
      ],
      "name": "migrate",
      "outputs": [
        {
          "internalType": "uint256",
          "name": "balance",
          "type": "uint256"
        }
      ],
      "stateMutability": "nonpayable",
      "type": "function"
    },
    {
      "inputs": [],
      "name": "operatorStore",
      "outputs": [
        {
          "internalType": "contract IJBOperatorStore",
          "name": "",
          "type": "address"
        }
      ],
      "stateMutability": "view",
      "type": "function"
    },
    {
      "inputs": [],
      "name": "owner",
      "outputs": [
        {
          "internalType": "address",
          "name": "",
          "type": "address"
        }
      ],
      "stateMutability": "view",
      "type": "function"
    },
    {
      "inputs": [
        {
          "internalType": "uint256",
          "name": "_projectId",
          "type": "uint256"
        },
        {
          "internalType": "uint256",
          "name": "_amount",
          "type": "uint256"
        },
        {
          "internalType": "address",
          "name": "_token",
          "type": "address"
        },
        {
          "internalType": "address",
          "name": "_beneficiary",
          "type": "address"
        },
        {
          "internalType": "uint256",
          "name": "_minReturnedTokens",
          "type": "uint256"
        },
        {
          "internalType": "bool",
          "name": "_preferClaimedTokens",
          "type": "bool"
        },
        {
          "internalType": "string",
          "name": "_memo",
          "type": "string"
        },
        {
          "internalType": "bytes",
          "name": "_metadata",
          "type": "bytes"
        }
      ],
      "name": "pay",
      "outputs": [
        {
          "internalType": "uint256",
          "name": "",
          "type": "uint256"
        }
      ],
      "stateMutability": "payable",
      "type": "function"
    },
    {
      "inputs": [],
      "name": "payoutSplitsGroup",
      "outputs": [
        {
          "internalType": "uint256",
          "name": "",
          "type": "uint256"
        }
      ],
      "stateMutability": "view",
      "type": "function"
    },
    {
      "inputs": [],
      "name": "prices",
      "outputs": [
        {
          "internalType": "contract IJBPrices",
          "name": "",
          "type": "address"
        }
      ],
      "stateMutability": "view",
      "type": "function"
    },
    {
      "inputs": [
        {
          "internalType": "uint256",
          "name": "_projectId",
          "type": "uint256"
        }
      ],
      "name": "processFees",
      "outputs": [],
      "stateMutability": "nonpayable",
      "type": "function"
    },
    {
      "inputs": [],
      "name": "projects",
      "outputs": [
        {
          "internalType": "contract IJBProjects",
          "name": "",
          "type": "address"
        }
      ],
      "stateMutability": "view",
      "type": "function"
    },
    {
      "inputs": [
        {
          "internalType": "address",
          "name": "_holder",
          "type": "address"
        },
        {
          "internalType": "uint256",
          "name": "_projectId",
          "type": "uint256"
        },
        {
          "internalType": "uint256",
          "name": "_tokenCount",
          "type": "uint256"
        },
        {
          "internalType": "address",
          "name": "_token",
          "type": "address"
        },
        {
          "internalType": "uint256",
          "name": "_minReturnedTokens",
          "type": "uint256"
        },
        {
          "internalType": "address payable",
          "name": "_beneficiary",
          "type": "address"
        },
        {
          "internalType": "string",
          "name": "_memo",
          "type": "string"
        },
        {
          "internalType": "bytes",
          "name": "_metadata",
          "type": "bytes"
        }
      ],
      "name": "redeemTokensOf",
      "outputs": [
        {
          "internalType": "uint256",
          "name": "reclaimAmount",
          "type": "uint256"
        }
      ],
      "stateMutability": "nonpayable",
      "type": "function"
    },
    {
      "inputs": [],
      "name": "renounceOwnership",
      "outputs": [],
      "stateMutability": "nonpayable",
      "type": "function"
    },
    {
      "inputs": [
        {
          "internalType": "uint256",
          "name": "_fee",
          "type": "uint256"
        }
      ],
      "name": "setFee",
      "outputs": [],
      "stateMutability": "nonpayable",
      "type": "function"
    },
    {
      "inputs": [
        {
          "internalType": "contract IJBFeeGauge",
          "name": "_feeGauge",
          "type": "address"
        }
      ],
      "name": "setFeeGauge",
      "outputs": [],
      "stateMutability": "nonpayable",
      "type": "function"
    },
    {
      "inputs": [
        {
          "internalType": "address",
          "name": "_address",
          "type": "address"
        },
        {
          "internalType": "bool",
          "name": "_flag",
          "type": "bool"
        }
      ],
      "name": "setFeelessAddress",
      "outputs": [],
      "stateMutability": "nonpayable",
      "type": "function"
    },
    {
      "inputs": [],
      "name": "splitsStore",
      "outputs": [
        {
          "internalType": "contract IJBSplitsStore",
          "name": "",
          "type": "address"
        }
      ],
      "stateMutability": "view",
      "type": "function"
    },
    {
      "inputs": [],
      "name": "store",
      "outputs": [
        {
          "internalType": "contract IJBSingleTokenPaymentTerminalStore",
          "name": "",
          "type": "address"
        }
      ],
      "stateMutability": "view",
      "type": "function"
    },
    {
      "inputs": [
        {
          "internalType": "bytes4",
          "name": "_interfaceId",
          "type": "bytes4"
        }
      ],
      "name": "supportsInterface",
      "outputs": [
        {
          "internalType": "bool",
          "name": "",
          "type": "bool"
        }
      ],
      "stateMutability": "view",
      "type": "function"
    },
    {
      "inputs": [],
      "name": "token",
      "outputs": [
        {
          "internalType": "address",
          "name": "",
          "type": "address"
        }
      ],
      "stateMutability": "view",
      "type": "function"
    },
    {
      "inputs": [
        {
          "internalType": "address",
          "name": "newOwner",
          "type": "address"
        }
      ],
      "name": "transferOwnership",
      "outputs": [],
      "stateMutability": "nonpayable",
      "type": "function"
    },
    {
      "inputs": [
        {
          "internalType": "uint256",
          "name": "_projectId",
          "type": "uint256"
        },
        {
          "internalType": "uint256",
          "name": "_amount",
          "type": "uint256"
        },
        {
          "internalType": "uint256",
          "name": "_currency",
          "type": "uint256"
        },
        {
          "internalType": "address",
          "name": "_token",
          "type": "address"
        },
        {
          "internalType": "uint256",
          "name": "_minReturnedTokens",
          "type": "uint256"
        },
        {
          "internalType": "address payable",
          "name": "_beneficiary",
          "type": "address"
        },
        {
          "internalType": "string",
          "name": "_memo",
          "type": "string"
        }
      ],
      "name": "useAllowanceOf",
      "outputs": [
        {
          "internalType": "uint256",
          "name": "netDistributedAmount",
          "type": "uint256"
        }
      ],
      "stateMutability": "nonpayable",
      "type": "function"
    }
  ],
  "bytecode": {
    "object": "0x6101e060405263017d78406003553480156200001a57600080fd5b506040516200635e3803806200635e8339810160408190526200003d9162000225565b6deeee000000000000000000000000608052601260a0819052600160c0819052606089901b6001600160601b03191660e05261eeee91908a818b8b8b8b8b8b8b6200008833620000f4565b600180556101a08990526101c08890526001600160601b0319606087811b82166101005286811b82166101205285811b82166101405284811b82166101605283901b1661018052620000da8162000144565b5050505050505050505050505050505050505050620002f0565b600080546001600160a01b038381166001600160a01b0319831681178455604051919092169283917f8be0079c531659141344cd1fd0a4f28419497f9722a3daafe3b4186f6b6457e09190a35050565b6200014e620001c7565b6001600160a01b038116620001b95760405162461bcd60e51b815260206004820152602660248201527f4f776e61626c653a206e6577206f776e657220697320746865207a65726f206160448201526564647265737360d01b60648201526084015b60405180910390fd5b620001c481620000f4565b50565b6000546001600160a01b03163314620002235760405162461bcd60e51b815260206004820181905260248201527f4f776e61626c653a2063616c6c6572206973206e6f7420746865206f776e65726044820152606401620001b0565b565b600080600080600080600080610100898b0312156200024357600080fd5b8851975060208901516200025781620002da565b60408a01519097506200026a81620002da565b60608a01519096506200027d81620002da565b60808a01519095506200029081620002da565b60a08a0151909450620002a381620002da565b60c08a0151909350620002b681620002da565b60e08a0151909250620002c981620002da565b809150509295985092959890939650565b6001600160a01b0381168114620001c457600080fd5b60805160601c60a05160c05160e05160601c6101005160601c6101205160601c6101405160601c6101605160601c6101805160601c6101a0516101c051615e3c62000522600039600081816103e101526125890152600081816103390152611f2901526000818161051601528181610fac0152818161177501528181611cb001528181611eea015281816123c001528181612ff8015261333c01526000818161066201526119220152600081816102e00152613ff801526000818161062e0152818161098d01528181610bc10152818161202001528181612c3e0152818161346601528181613e1401526143af0152600081816104b701528181610de401528181611385015281816119f7015281816124ad01526130fc01526000818161056a015281816126eb015281816127c7015281816129f40152612ad001526000818161026b0152818161073401528181611854015281816118cf01528181611ec4015261366d01526000818161036d015281816105da015281816117f50152818161182101528181611881015281816118fc01528181611e9e01528181613647015261421a0152600081816106e50152818161078801528181610a5401528181610c7301528181610ebe01528181611049015281816110ef01528181611e5c01528181612c1301528181612d0e01528181612db60152818161360501528181613de701528181614181015281816141d8015281816143dc015281816146360152818161472201526147a80152615e3c6000f3fe6080604052600436106101fe5760003560e01c80638b79543c1161011d578063c41c2f24116100b0578063df21a7dd1161007f578063f2fde38b11610064578063f2fde38b14610756578063fc0c546a14610776578063fe663f0f146107aa57600080fd5b8063df21a7dd146106c7578063e5a6b10f1461072257600080fd5b8063c41c2f241461061c578063d3419bf314610650578063d6dacc5314610684578063ddca3f43146106b157600080fd5b8063ad007d63116100ec578063ad007d6314610558578063b631b5001461058c578063b7bad1b1146105bc578063bc8926e9146105fc57600080fd5b80638b79543c146104a55780638da5cb5b146104d9578063975057e714610504578063a32e1e961461053857600080fd5b8063405b84fa11610195578063715018a611610164578063715018a6146104235780637258002c1461043857806389701db5146104585780638af560941461047857600080fd5b8063405b84fa1461038f578063637913ac146103af57806366248b86146103cf57806369fe0e2d1461040357600080fd5b80632b267b4e116101d15780632b267b4e146102ae5780632bdfe004146102ce5780632d1a590314610327578063313ce5671461035b57600080fd5b806301ffc9a7146102035780630cf8e858146102385780631982d6791461024d5780631ebc263f1461029b575b600080fd5b34801561020f57600080fd5b5061022361021e366004614fba565b6107ca565b60405190151581526020015b60405180910390f35b61024b6102463660046151ba565b610956565b005b34801561025957600080fd5b5061028d610268366004614d1f565b507f000000000000000000000000000000000000000000000000000000000000000090565b60405190815260200161022f565b61028d6102a93660046150f2565b610b72565b3480156102ba57600080fd5b5061028d6102c93660046152d9565b610d96565b3480156102da57600080fd5b506103027f000000000000000000000000000000000000000000000000000000000000000081565b60405173ffffffffffffffffffffffffffffffffffffffff909116815260200161022f565b34801561033357600080fd5b5061028d7f000000000000000000000000000000000000000000000000000000000000000081565b34801561036757600080fd5b5061028d7f000000000000000000000000000000000000000000000000000000000000000081565b34801561039b57600080fd5b5061028d6103aa3660046150cd565b610db2565b3480156103bb57600080fd5b5061024b6103ca366004614d1f565b6111a6565b3480156103db57600080fd5b5061028d7f000000000000000000000000000000000000000000000000000000000000000081565b34801561040f57600080fd5b5061024b61041e36600461509b565b611227565b34801561042f57600080fd5b5061024b6112ad565b34801561044457600080fd5b5061024b610453366004614d59565b6112c1565b34801561046457600080fd5b5061024b61047336600461509b565b611356565b34801561048457600080fd5b5061049861049336600461509b565b611667565b60405161022f91906157a0565b3480156104b157600080fd5b506103027f000000000000000000000000000000000000000000000000000000000000000081565b3480156104e557600080fd5b5060005473ffffffffffffffffffffffffffffffffffffffff16610302565b34801561051057600080fd5b506103027f000000000000000000000000000000000000000000000000000000000000000081565b34801561054457600080fd5b5061028d61055336600461509b565b611726565b34801561056457600080fd5b506103027f000000000000000000000000000000000000000000000000000000000000000081565b34801561059857600080fd5b506102236105a7366004614d1f565b60056020526000908152604090205460ff1681565b3480156105c857600080fd5b5061028d6105d7366004614d1f565b507f000000000000000000000000000000000000000000000000000000000000000090565b34801561060857600080fd5b5061028d610617366004615250565b6119c5565b34801561062857600080fd5b506103027f000000000000000000000000000000000000000000000000000000000000000081565b34801561065c57600080fd5b506103027f000000000000000000000000000000000000000000000000000000000000000081565b34801561069057600080fd5b506004546103029073ffffffffffffffffffffffffffffffffffffffff1681565b3480156106bd57600080fd5b5061028d60035481565b3480156106d357600080fd5b506102236106e2366004614d92565b507f000000000000000000000000000000000000000000000000000000000000000073ffffffffffffffffffffffffffffffffffffffff90811691161490565b34801561072e57600080fd5b5061028d7f000000000000000000000000000000000000000000000000000000000000000081565b34801561076257600080fd5b5061024b610771366004614d1f565b611ab1565b34801561078257600080fd5b506103027f000000000000000000000000000000000000000000000000000000000000000081565b3480156107b657600080fd5b5061028d6107c5366004614dbe565b611b6d565b60007fffffffff0000000000000000000000000000000000000000000000000000000082167fedb527eb00000000000000000000000000000000000000000000000000000000148061085d57507fffffffff0000000000000000000000000000000000000000000000000000000082167f2b267b4e00000000000000000000000000000000000000000000000000000000145b806108a957507fffffffff0000000000000000000000000000000000000000000000000000000082167fbc8926e900000000000000000000000000000000000000000000000000000000145b806108f557507fffffffff0000000000000000000000000000000000000000000000000000000082167ffe663f0f00000000000000000000000000000000000000000000000000000000145b8061094157507fffffffff0000000000000000000000000000000000000000000000000000000082167fad007d6300000000000000000000000000000000000000000000000000000000145b80610950575061095082611b8d565b92915050565b6040517f6e49181f0000000000000000000000000000000000000000000000000000000081526004810188905230602482015287907f000000000000000000000000000000000000000000000000000000000000000073ffffffffffffffffffffffffffffffffffffffff1690636e49181f9060440160206040518083038186803b1580156109e457600080fd5b505afa1580156109f8573d6000803e3d6000fd5b505050506040513d601f19601f82011682018060405250810190610a1c9190614f9d565b610a52576040517fd8ead2c800000000000000000000000000000000000000000000000000000000815260040160405180910390fd5b7f000000000000000000000000000000000000000000000000000000000000000073ffffffffffffffffffffffffffffffffffffffff1661eeee14610ad9573415610ac9576040517fbcfd35be00000000000000000000000000000000000000000000000000000000815260040160405180910390fd5b610ad4333089611c70565b610add565b3496505b33600090815260056020908152604091829020548251601f8801839004830281018301909352868352610b68928b928b9260ff161591908a908a908190840183828082843760009201919091525050604080516020601f8c018190048102820181019092528a815292508a9150899081908401838280828437600092019190915250611c7f92505050565b5050505050505050565b6040517f6e49181f000000000000000000000000000000000000000000000000000000008152600481018b90523060248201526000908b9073ffffffffffffffffffffffffffffffffffffffff7f00000000000000000000000000000000000000000000000000000000000000001690636e49181f9060440160206040518083038186803b158015610c0357600080fd5b505afa158015610c17573d6000803e3d6000fd5b505050506040513d601f19601f82011682018060405250810190610c3b9190614f9d565b610c71576040517fd8ead2c800000000000000000000000000000000000000000000000000000000815260040160405180910390fd5b7f000000000000000000000000000000000000000000000000000000000000000073ffffffffffffffffffffffffffffffffffffffff1661eeee14610cf8573415610ce8576040517fbcfd35be00000000000000000000000000000000000000000000000000000000815260040160405180910390fd5b610cf333308d611c70565b610cfc565b349a505b610d868b338e8c8c8c8c8c8080601f016020809104026020016040519081016040528093929190818152602001838380828437600081840152601f19601f820116905080830192505050505050508b8b8080601f016020809104026020016040519081016040528093929190818152602001838380828437600092019190915250611d9692505050565b9c9b505050505050505050505050565b6000610da6888888878787612367565b98975050505050505050565b6040517f6352211e000000000000000000000000000000000000000000000000000000008152600481018390526000907f000000000000000000000000000000000000000000000000000000000000000073ffffffffffffffffffffffffffffffffffffffff1690636352211e9060240160206040518083038186803b158015610e3b57600080fd5b505afa158015610e4f573d6000803e3d6000fd5b505050506040513d601f19601f82011682018060405250810190610e739190614d3c565b836004610e81838383612671565b6040517fdf21a7dd00000000000000000000000000000000000000000000000000000000815273ffffffffffffffffffffffffffffffffffffffff7f0000000000000000000000000000000000000000000000000000000000000000811660048301526024820188905286169063df21a7dd9060440160206040518083038186803b158015610f0f57600080fd5b505afa158015610f23573d6000803e3d6000fd5b505050506040513d601f19601f82011682018060405250810190610f479190614f9d565b610f7d576040517f581010ed00000000000000000000000000000000000000000000000000000000815260040160405180910390fd5b6040517f6bb6a5ad000000000000000000000000000000000000000000000000000000008152600481018790527f000000000000000000000000000000000000000000000000000000000000000073ffffffffffffffffffffffffffffffffffffffff1690636bb6a5ad90602401602060405180830381600087803b15801561100557600080fd5b505af1158015611019573d6000803e3d6000fd5b505050506040513d601f19601f8201168201806040525081019061103d91906150b4565b9350831561114b5760007f000000000000000000000000000000000000000000000000000000000000000073ffffffffffffffffffffffffffffffffffffffff1661eeee1461108d57600061108f565b845b604080516020810182526000815290517f0cf8e85800000000000000000000000000000000000000000000000000000000815291925073ffffffffffffffffffffffffffffffffffffffff881691630cf8e858918491611117918c918b917f000000000000000000000000000000000000000000000000000000000000000091600401615991565b6000604051808303818588803b15801561113057600080fd5b505af1158015611144573d6000803e3d6000fd5b5050505050505b6040805185815233602082015273ffffffffffffffffffffffffffffffffffffffff87169188917fa7519e5f94697b7f53e97c5eb46a0c730a296ab686ab8fd333835c5f735784eb910160405180910390a350505092915050565b6111ae61287a565b600480547fffffffffffffffffffffffff00000000000000000000000000000000000000001673ffffffffffffffffffffffffffffffffffffffff83169081179091556040513381527f0a9a80fe9716605b3e52abb3d792d6a4e7816d6afc02a5a4ef023081feaf9f609060200160405180910390a250565b61122f61287a565b6302faf08081111561126d576040517f45fbd9c100000000000000000000000000000000000000000000000000000000815260040160405180910390fd5b6003819055604080518281523360208201527fd7414e590e1cb532989ab2a34c8f4c2c17f7ab6f006efeeaef2e87cd5008c202910160405180910390a150565b6112b561287a565b6112bf60006128fb565b565b6112c961287a565b73ffffffffffffffffffffffffffffffffffffffff821660008181526005602090815260409182902080547fffffffffffffffffffffffffffffffffffffffffffffffffffffffffffffff001685151590811790915591513381529192917fa2653e25a502c023a5830d0de847ef6f458387865b1f4f575d7594f9f2c0d71e910160405180910390a35050565b6040517f6352211e000000000000000000000000000000000000000000000000000000008152600481018290527f000000000000000000000000000000000000000000000000000000000000000073ffffffffffffffffffffffffffffffffffffffff1690636352211e9060240160206040518083038186803b1580156113dc57600080fd5b505afa1580156113f0573d6000803e3d6000fd5b505050506040513d601f19601f820116820180604052508101906114149190614d3c565b81600561143660005473ffffffffffffffffffffffffffffffffffffffff1690565b73ffffffffffffffffffffffffffffffffffffffff163373ffffffffffffffffffffffffffffffffffffffff161461147084848484612970565b600085815260026020908152604080832080548251818502810185019093528083529192909190849084015b8282101561151b57600084815260209081902060408051608081018252600286029092018054835260019081015463ffffffff80821685870152640100000000820416928401929092526801000000000000000090910473ffffffffffffffffffffffffffffffffffffffff166060830152908352909201910161149c565b505050600088815260026020526040812092935061153a929150614b51565b805160005b81811015610b685760006115b784838151811061155e5761155e615d78565b60200260200101516000015185848151811061157c5761157c615d78565b60200260200101516020015163ffffffff168685815181106115a0576115a0615d78565b60200260200101516040015163ffffffff16612b89565b90506115e0818584815181106115cf576115cf615d78565b602002602001015160600151612bcf565b60011515818a7fcf0c92a2c6d7c42f488326b0cb900104b99984b6b218db81cd29371364a3525187868151811061161957611619615d78565b6020026020010151606001513360405161165692919073ffffffffffffffffffffffffffffffffffffffff92831681529116602082015260400190565b60405180910390a45060010161153f565b606060026000838152602001908152602001600020805480602002602001604051908101604052809291908181526020016000905b8282101561171b57600084815260209081902060408051608081018252600286029092018054835260019081015463ffffffff80821685870152640100000000820416928401929092526801000000000000000090910473ffffffffffffffffffffffffffffffffffffffff166060830152908352909201910161169c565b505050509050919050565b6040517fd49031c000000000000000000000000000000000000000000000000000000000815230600482015260248101829052600090819073ffffffffffffffffffffffffffffffffffffffff7f0000000000000000000000000000000000000000000000000000000000000000169063d49031c09060440160206040518083038186803b1580156117b757600080fd5b505afa1580156117cb573d6000803e3d6000fd5b505050506040513d601f19601f820116820180604052508101906117ef91906150b4565b905060007f000000000000000000000000000000000000000000000000000000000000000060121461184c57611847827f00000000000000000000000000000000000000000000000000000000000000006012612e3c565b61184e565b815b905060017f0000000000000000000000000000000000000000000000000000000000000000146119bb576119b6816118a77f0000000000000000000000000000000000000000000000000000000000000000600a615bd4565b6040517fa4d0caf20000000000000000000000000000000000000000000000000000000081527f00000000000000000000000000000000000000000000000000000000000000006004820152600160248201527f000000000000000000000000000000000000000000000000000000000000000060448201527f000000000000000000000000000000000000000000000000000000000000000073ffffffffffffffffffffffffffffffffffffffff169063a4d0caf29060640160206040518083038186803b15801561197957600080fd5b505afa15801561198d573d6000803e3d6000fd5b505050506040513d601f19601f820116820180604052508101906119b191906150b4565b612e9a565b6119bd565b805b949350505050565b6040517f6352211e000000000000000000000000000000000000000000000000000000008152600481018890526000907f000000000000000000000000000000000000000000000000000000000000000073ffffffffffffffffffffffffffffffffffffffff1690636352211e9060240160206040518083038186803b158015611a4e57600080fd5b505afa158015611a62573d6000803e3d6000fd5b505050506040513d601f19601f82011682018060405250810190611a869190614d3c565b886011611a94838383612671565b611aa28b8b8b8a8a8a612f9f565b9b9a5050505050505050505050565b611ab961287a565b73ffffffffffffffffffffffffffffffffffffffff8116611b61576040517f08c379a000000000000000000000000000000000000000000000000000000000815260206004820152602660248201527f4f776e61626c653a206e6577206f776e657220697320746865207a65726f206160448201527f646472657373000000000000000000000000000000000000000000000000000060648201526084015b60405180910390fd5b611b6a816128fb565b50565b600088886002611b7e838383612671565b610d868c8c8c8b8b8b8b613248565b60007fffffffff0000000000000000000000000000000000000000000000000000000082167fc07370e4000000000000000000000000000000000000000000000000000000001480611c2057507fffffffff0000000000000000000000000000000000000000000000000000000082167f2896000200000000000000000000000000000000000000000000000000000000145b8061095057507f01ffc9a7000000000000000000000000000000000000000000000000000000007fffffffff00000000000000000000000000000000000000000000000000000000831614610950565b611c7a82826137e5565b505050565b600083611c8d576000611c97565b611c97868661393f565b905073ffffffffffffffffffffffffffffffffffffffff7f00000000000000000000000000000000000000000000000000000000000000001663e7c8e3e387611ce08489615b20565b6040517fffffffff0000000000000000000000000000000000000000000000000000000060e085901b16815260048101929092526024820152604401600060405180830381600087803b158015611d3657600080fd5b505af1158015611d4a573d6000803e3d6000fd5b50505050857f9ecaf7fc3dfffd6867c175d6e684b1f1e3aef019398ba8db2c1ffab4a09db2538683868633604051611d869594939291906159e4565b60405180910390a2505050505050565b600073ffffffffffffffffffffffffffffffffffffffff8616611de5576040517fa762251300000000000000000000000000000000000000000000000000000000815260040160405180910390fd5b611e4a60405180610120016040528060008152602001600081526020016000815260200160008152602001600081526020016000815260200160008152602001600073ffffffffffffffffffffffffffffffffffffffff168152602001600081525090565b600080600060405180608001604052807f000000000000000000000000000000000000000000000000000000000000000073ffffffffffffffffffffffffffffffffffffffff1681526020018e81526020017f000000000000000000000000000000000000000000000000000000000000000081526020017f000000000000000000000000000000000000000000000000000000000000000081525090507f000000000000000000000000000000000000000000000000000000000000000073ffffffffffffffffffffffffffffffffffffffff16632fa1b3918d838e7f00000000000000000000000000000000000000000000000000000000000000008f8d8d6040518863ffffffff1660e01b8152600401611f6d97969594939291906156a5565b600060405180830381600087803b158015611f8757600080fd5b505af1158015611f9b573d6000803e3d6000fd5b505050506040513d6000823e601f3d9081017fffffffffffffffffffffffffffffffffffffffffffffffffffffffffffffffe0168201604052611fe1919081019061502b565b995091955090935091508115612180576040517f5dd8f6aa000000000000000000000000000000000000000000000000000000008152600481018c90527f000000000000000000000000000000000000000000000000000000000000000073ffffffffffffffffffffffffffffffffffffffff1690635dd8f6aa9060240160206040518083038186803b15801561207757600080fd5b505afa15801561208b573d6000803e3d6000fd5b505050506040513d601f19601f820116820180604052508101906120af9190614d3c565b6040517f8ae9c07b000000000000000000000000000000000000000000000000000000008152600481018d90526024810184905273ffffffffffffffffffffffffffffffffffffffff8c8116604483015260c06064830152600060c48301528a15156084830152600160a48301529190911690638ae9c07b9060e401602060405180830381600087803b15801561214557600080fd5b505af1158015612159573d6000803e3d6000fd5b505050506040513d601f19601f8201168201806040525081019061217d91906150b4565b94505b888510156121ba576040517f7b94612600000000000000000000000000000000000000000000000000000000815260040160405180910390fd5b73ffffffffffffffffffffffffffffffffffffffff8316156123095760006040518061012001604052808e73ffffffffffffffffffffffffffffffffffffffff1681526020018d8152602001866020015181526020018381526020018781526020018c73ffffffffffffffffffffffffffffffffffffffff1681526020018a151581526020018981526020018881525090508373ffffffffffffffffffffffffffffffffffffffff1663304b1eea826040518263ffffffff1660e01b81526004016122859190615823565b600060405180830381600087803b15801561229f57600080fd5b505af11580156122b3573d6000803e3d6000fd5b505050508373ffffffffffffffffffffffffffffffffffffffff167fdcbcf946bdc8fbe709377d507c6a207221aecd117c05690f674af73d923cdb5482336040516122ff929190615836565b60405180910390a2505b50505087816000015182602001517f133161f1c9161488f777ab9a26aae91d47c0d9a3fafb398960f138db02c737978c8b8f888b8b336040516123529796959493929190615637565b60405180910390a45098975050505050505050565b6040517fc66445970000000000000000000000000000000000000000000000000000000081526004810187905260248101869052604481018590526000908190819073ffffffffffffffffffffffffffffffffffffffff7f0000000000000000000000000000000000000000000000000000000000000000169063c66445979060640161014060405180830381600087803b15801561240557600080fd5b505af1158015612419573d6000803e3d6000fd5b505050506040513d601f19601f8201168201806040525081019061243d9190614ffc565b915091508581101561247b576040517fb01493c100000000000000000000000000000000000000000000000000000000815260040160405180910390fd5b6040517f6352211e000000000000000000000000000000000000000000000000000000008152600481018a90526000907f000000000000000000000000000000000000000000000000000000000000000073ffffffffffffffffffffffffffffffffffffffff1690636352211e9060240160206040518083038186803b15801561250457600080fd5b505afa158015612518573d6000803e3d6000fd5b505050506040513d601f19601f8201168201806040525081019061253c9190614d3c565b90506000806003546000148061256157503360009081526005602052604090205460ff165b6125735761256e8c613da3565b612579565b633b9aca005b90506000806125af8e88602001517f00000000000000000000000000000000000000000000000000000000000000008987613fb4565b810192509050633b9aca008314806125c5575081155b6125db576125d68e88848887614988565b6125de565b60005b935080156125fa576125f38160035485612b89565b81036125fd565b60005b975087156126105761261030868a611c70565b5050508a846000015185602001517f24352f49df447b14e0e08a323625c663d865ce20c343c4638af12e1dc48aa760858e88878c8f8f3360405161265b9897969594939291906155a8565b60405180910390a4505050509695505050505050565b3373ffffffffffffffffffffffffffffffffffffffff84161480159061276757506040517fc161c93f00000000000000000000000000000000000000000000000000000000815233600482015273ffffffffffffffffffffffffffffffffffffffff848116602483015260448201849052606482018390527f0000000000000000000000000000000000000000000000000000000000000000169063c161c93f9060840160206040518083038186803b15801561272d57600080fd5b505afa158015612741573d6000803e3d6000fd5b505050506040513d601f19601f820116820180604052508101906127659190614f9d565b155b801561284357506040517fc161c93f00000000000000000000000000000000000000000000000000000000815233600482015273ffffffffffffffffffffffffffffffffffffffff848116602483015260006044830152606482018390527f0000000000000000000000000000000000000000000000000000000000000000169063c161c93f9060840160206040518083038186803b15801561280957600080fd5b505afa15801561281d573d6000803e3d6000fd5b505050506040513d601f19601f820116820180604052508101906128419190614f9d565b155b15611c7a576040517f075fd2b100000000000000000000000000000000000000000000000000000000815260040160405180910390fd5b60005473ffffffffffffffffffffffffffffffffffffffff1633146112bf576040517f08c379a000000000000000000000000000000000000000000000000000000000815260206004820181905260248201527f4f776e61626c653a2063616c6c6572206973206e6f7420746865206f776e65726044820152606401611b58565b6000805473ffffffffffffffffffffffffffffffffffffffff8381167fffffffffffffffffffffffff0000000000000000000000000000000000000000831681178455604051919092169283917f8be0079c531659141344cd1fd0a4f28419497f9722a3daafe3b4186f6b6457e09190a35050565b8015801561299457503373ffffffffffffffffffffffffffffffffffffffff851614155b8015612a7057506040517fc161c93f00000000000000000000000000000000000000000000000000000000815233600482015273ffffffffffffffffffffffffffffffffffffffff858116602483015260448201859052606482018490527f0000000000000000000000000000000000000000000000000000000000000000169063c161c93f9060840160206040518083038186803b158015612a3657600080fd5b505afa158015612a4a573d6000803e3d6000fd5b505050506040513d601f19601f82011682018060405250810190612a6e9190614f9d565b155b8015612b4c57506040517fc161c93f00000000000000000000000000000000000000000000000000000000815233600482015273ffffffffffffffffffffffffffffffffffffffff858116602483015260006044830152606482018490527f0000000000000000000000000000000000000000000000000000000000000000169063c161c93f9060840160206040518083038186803b158015612b1257600080fd5b505afa158015612b26573d6000803e3d6000fd5b505050506040513d601f19601f82011682018060405250810190612b4a9190614f9d565b155b15612b83576040517f075fd2b100000000000000000000000000000000000000000000000000000000815260040160405180910390fd5b50505050565b600080612b9b8484633b9aca00612e9a565b612ba59085615cd7565b9050612bba85633b9aca006119b18185615b20565b612bc49086615cd7565b9150505b9392505050565b6040517f862026500000000000000000000000000000000000000000000000000000000081526001600482015273ffffffffffffffffffffffffffffffffffffffff7f0000000000000000000000000000000000000000000000000000000000000000811660248301526000917f00000000000000000000000000000000000000000000000000000000000000009091169063862026509060440160206040518083038186803b158015612c8257600080fd5b505afa158015612c96573d6000803e3d6000fd5b505050506040513d601f19601f82011682018060405250810190612cba9190614d3c565b905073ffffffffffffffffffffffffffffffffffffffff8116301415612d0a57612b8383306001856000806040518060200160405280600081525060405180602001604052806000815250611d96565b60007f000000000000000000000000000000000000000000000000000000000000000073ffffffffffffffffffffffffffffffffffffffff1661eeee14612d52576000612d54565b835b60408051602081018252600080825291517f1ebc263f00000000000000000000000000000000000000000000000000000000815292935073ffffffffffffffffffffffffffffffffffffffff851692631ebc263f928592612de3926001928b927f0000000000000000000000000000000000000000000000000000000000000000928c9291829160040161592d565b6020604051808303818588803b158015612dfc57600080fd5b505af1158015612e10573d6000803e3d6000fd5b50505050506040513d601f19601f82011682018060405250810190612e3591906150b4565b5050505050565b600082821415612e4d575082612bc8565b82821115612e7b57612e5f8383615cd7565b612e6a90600a615bd4565b612e749085615c9a565b9050612bc8565b612e858284615cd7565b612e9090600a615bd4565b612e749085615b38565b600080807fffffffffffffffffffffffffffffffffffffffffffffffffffffffffffffffff8587098587029250828110838203039150508060001415612ef357838281612ee957612ee9615d49565b0492505050612bc8565b838110612f36576040517f773cc18c0000000000000000000000000000000000000000000000000000000081526004810182905260248101859052604401611b58565b60008486880960026001871981018816978890046003810283188082028403028082028403028082028403028082028403028082028403029081029092039091026000889003889004909101858311909403939093029303949094049190911702949350505050565b6040517f253867150000000000000000000000000000000000000000000000000000000081526004810187905260248101869052604481018590526000908190819073ffffffffffffffffffffffffffffffffffffffff7f0000000000000000000000000000000000000000000000000000000000000000169063253867159060640161014060405180830381600087803b15801561303d57600080fd5b505af1158015613051573d6000803e3d6000fd5b505050506040513d601f19601f820116820180604052508101906130759190614ffc565b91509150858110156130b3576040517fb01493c100000000000000000000000000000000000000000000000000000000815260040160405180910390fd5b6040517f6352211e000000000000000000000000000000000000000000000000000000008152600481018a9052600090819073ffffffffffffffffffffffffffffffffffffffff7f00000000000000000000000000000000000000000000000000000000000000001690636352211e9060240160206040518083038186803b15801561313e57600080fd5b505afa158015613152573d6000803e3d6000fd5b505050506040513d601f19601f820116820180604052508101906131769190614d3c565b905060006003546000148061319a57503360009081526005602052604090205460ff165b6131ac576131a78c613da3565b6131b2565b633b9aca005b9050633b9aca0081146131d1576131cc8c86868585614988565b6131d4565b60005b808503965092508383146131ed576131ed308988611c70565b50505088826000015183602001517f8657a0c05a68a912c23c1bd00124afaa8c669063b046bd9bfd22b21d573c5e6d888c86898b3360405161323496959493929190615550565b60405180910390a450509695505050505050565b600073ffffffffffffffffffffffffffffffffffffffff8416613297576040517ff74a1b6600000000000000000000000000000000000000000000000000000000815260040160405180910390fd5b6132fc60405180610120016040528060008152602001600081526020016000815260200160008152602001600081526020016000815260200160008152602001600073ffffffffffffffffffffffffffffffffffffffff168152602001600081525090565b6040517fa2df1f9500000000000000000000000000000000000000000000000000000000815260009073ffffffffffffffffffffffffffffffffffffffff7f0000000000000000000000000000000000000000000000000000000000000000169063a2df1f9590613379908d908d908d908b908b90600401615753565b600060405180830381600087803b15801561339357600080fd5b505af11580156133a7573d6000803e3d6000fd5b505050506040513d6000823e601f3d9081017fffffffffffffffffffffffffffffffffffffffffffffffffffffffffffffffe01682016040526133ed919081019061502b565b9750909450909250905086831015613431576040517ff896960b00000000000000000000000000000000000000000000000000000000815260040160405180910390fd5b871561359c576040517f5dd8f6aa000000000000000000000000000000000000000000000000000000008152600481018a90527f000000000000000000000000000000000000000000000000000000000000000073ffffffffffffffffffffffffffffffffffffffff1690635dd8f6aa9060240160206040518083038186803b1580156134bd57600080fd5b505afa1580156134d1573d6000803e3d6000fd5b505050506040513d601f19601f820116820180604052508101906134f59190614d3c565b6040517f1665bc0f00000000000000000000000000000000000000000000000000000000815273ffffffffffffffffffffffffffffffffffffffff8c81166004830152602482018c9052604482018b905260a06064830152600060a4830181905260848301529190911690631665bc0f9060c401600060405180830381600087803b15801561358357600080fd5b505af1158015613597573d6000803e3d6000fd5b505050505b73ffffffffffffffffffffffffffffffffffffffff8116156137795760006040518061010001604052808c73ffffffffffffffffffffffffffffffffffffffff1681526020018b8152602001846020015181526020018a815260200160405180608001604052807f000000000000000000000000000000000000000000000000000000000000000073ffffffffffffffffffffffffffffffffffffffff1681526020018781526020017f000000000000000000000000000000000000000000000000000000000000000081526020017f000000000000000000000000000000000000000000000000000000000000000081525081526020018873ffffffffffffffffffffffffffffffffffffffff1681526020018781526020018681525090508173ffffffffffffffffffffffffffffffffffffffff16632400e8f7826040518263ffffffff1660e01b81526004016136f5919061586e565b600060405180830381600087803b15801561370f57600080fd5b505af1158015613723573d6000803e3d6000fd5b505050508173ffffffffffffffffffffffffffffffffffffffff167fb5f35105f7321aaa2c0eae1a660fb9bc9624fceaa75a04a3dd171a1fe303edae823360405161376f929190615881565b60405180910390a2505b50811561378b5761378b308684611c70565b87816000015182602001517f2be10f2a0203c77d0fcaa9fd6484a8a1d6904de31cd820587f60c1c8c338c8148c898c888b8b336040516137d19796959493929190615637565b60405180910390a450979650505050505050565b8047101561384f576040517f08c379a000000000000000000000000000000000000000000000000000000000815260206004820152601d60248201527f416464726573733a20696e73756666696369656e742062616c616e63650000006044820152606401611b58565b60008273ffffffffffffffffffffffffffffffffffffffff168260405160006040518083038185875af1925050503d80600081146138a9576040519150601f19603f3d011682016040523d82523d6000602084013e6138ae565b606091505b5050905080611c7a576040517f08c379a000000000000000000000000000000000000000000000000000000000815260206004820152603a60248201527f416464726573733a20756e61626c6520746f2073656e642076616c75652c207260448201527f6563697069656e74206d617920686176652072657665727465640000000000006064820152608401611b58565b600082815260026020908152604080832080548251818502810185019093528083528493849084015b828210156139e757600084815260209081902060408051608081018252600286029092018054835260019081015463ffffffff80821685870152640100000000820416928401929092526801000000000000000090910473ffffffffffffffffffffffffffffffffffffffff1660608301529083529092019101613968565b5050506000868152600260205260408120929350613a06929150614b51565b8051839060005b81811015613d5b5782613b075760008781526002602052604090208451859083908110613a3c57613a3c615d78565b602090810291909101810151825460018181018555600094855293839020825160029092020190815591810151919092018054604084015160609094015173ffffffffffffffffffffffffffffffffffffffff1668010000000000000000027fffffffff0000000000000000000000000000000000000000ffffffffffffffff63ffffffff958616640100000000027fffffffffffffffffffffffffffffffffffffffffffffffff000000000000000090931695909416949094171791909116919091179055613d53565b838181518110613b1957613b19615d78565b6020026020010151600001518310613bad57838181518110613b3d57613b3d615d78565b60200260200101516000015183039250613ba4848281518110613b6257613b62615d78565b602002602001015160000151858381518110613b8057613b80615d78565b60200260200101516020015163ffffffff168684815181106115a0576115a0615d78565b85019450613d53565b60026000888152602001908152602001600020604051806080016040528085878581518110613bde57613bde615d78565b602002602001015160000151613bf49190615cd7565b8152602001868481518110613c0b57613c0b615d78565b60200260200101516020015163ffffffff168152602001868481518110613c3457613c34615d78565b60200260200101516040015163ffffffff168152602001868481518110613c5d57613c5d615d78565b60209081029190910181015160609081015173ffffffffffffffffffffffffffffffffffffffff9081169093528454600181810187556000968752958390208551600290920201908155918401519190940180546040850151949095015190921668010000000000000000027fffffffff0000000000000000000000000000000000000000ffffffffffffffff63ffffffff948516640100000000027fffffffffffffffffffffffffffffffffffffffffffffffff0000000000000000909616949092169390931793909317929092161790558351613d4a908490869084908110613b8057613b80615d78565b85019450600092505b600101613a0d565b50604080518381523360208201528591879189917f59860d79d97c1fce2be7f987915c631471f4b08f671200463cc40a3380194ffb910160405180910390a450505092915050565b6040517f862026500000000000000000000000000000000000000000000000000000000081526001600482015273ffffffffffffffffffffffffffffffffffffffff7f00000000000000000000000000000000000000000000000000000000000000008116602483015260009182917f0000000000000000000000000000000000000000000000000000000000000000169063862026509060440160206040518083038186803b158015613e5657600080fd5b505afa158015613e6a573d6000803e3d6000fd5b505050506040513d601f19601f82011682018060405250810190613e8e9190614d3c565b73ffffffffffffffffffffffffffffffffffffffff161415613eb55750633b9aca00919050565b60045473ffffffffffffffffffffffffffffffffffffffff16613eda57506000613f9f565b600480546040517f7769589600000000000000000000000000000000000000000000000000000000815291820184905273ffffffffffffffffffffffffffffffffffffffff169063776958969060240160206040518083038186803b158015613f4257600080fd5b505afa925050508015613f90575060408051601f3d9081017fffffffffffffffffffffffffffffffffffffffffffffffffffffffffffffffe0168201909252613f8d918101906150b4565b60015b613f9c57506000613f9f565b90505b633b9aca00811115613faf575060005b919050565b6040517f69e11cc5000000000000000000000000000000000000000000000000000000008152600481018690526024810185905260448101849052829060009081907f000000000000000000000000000000000000000000000000000000000000000073ffffffffffffffffffffffffffffffffffffffff16906369e11cc59060640160006040518083038186803b15801561404f57600080fd5b505afa158015614063573d6000803e3d6000fd5b505050506040513d6000823e601f3d9081017fffffffffffffffffffffffffffffffffffffffffffffffffffffffffffffffe01682016040526140a99190810190614e77565b905060005b815181101561497c5760008282815181106140cb576140cb615d78565b6020026020010151905060006140ea888360400151633b9aca00612e9a565b9050600081156149305760c083015173ffffffffffffffffffffffffffffffffffffffff16156143605760c083015173ffffffffffffffffffffffffffffffffffffffff1660009081526005602052604090205460ff161561414d57508061417d565b633b9aca00881461416c57614165826003548a612b89565b820361416e565b815b905061417a8287615b20565b95505b60007f000000000000000000000000000000000000000000000000000000000000000073ffffffffffffffffffffffffffffffffffffffff1661eeee146141c55760006141c7565b815b905060006040518060c001604052807f000000000000000000000000000000000000000000000000000000000000000073ffffffffffffffffffffffffffffffffffffffff1681526020018481526020017f000000000000000000000000000000000000000000000000000000000000000081526020018f81526020018d81526020018681525090508460c0015173ffffffffffffffffffffffffffffffffffffffff16639d740bfa83836040518363ffffffff1660e01b81526004016143279190815173ffffffffffffffffffffffffffffffffffffffff90811682526020808401518184015260408085015181850152606080860151818601526080808701518187015260a096870151805115158888015293840151151560c0808801919091529284015160e08701529083015161010086015282015183166101208501529381015161014084015292909201519091166101608201526101800190565b6000604051808303818588803b15801561434057600080fd5b505af1158015614354573d6000803e3d6000fd5b5050505050505061492a565b6060830151156148ac5760608301516040517f8620265000000000000000000000000000000000000000000000000000000000815260009173ffffffffffffffffffffffffffffffffffffffff7f00000000000000000000000000000000000000000000000000000000000000001691638620265091614423917f00000000000000000000000000000000000000000000000000000000000000009060040191825273ffffffffffffffffffffffffffffffffffffffff16602082015260400190565b60206040518083038186803b15801561443b57600080fd5b505afa15801561444f573d6000803e3d6000fd5b505050506040513d601f19601f820116820180604052508101906144739190614d3c565b905073ffffffffffffffffffffffffffffffffffffffff81166144c2576040517f6921234300000000000000000000000000000000000000000000000000000000815260040160405180910390fd5b73ffffffffffffffffffffffffffffffffffffffff81163014156145cc576040805160208082528183019092528493506000916020820181803683370190505090508d60405160200161451791815260200190565b60405160208183030381529060405290508460200151156145585761455385606001518460006040518060200160405280600081525085611c7f565b6145c6565b6145c483308760600151600073ffffffffffffffffffffffffffffffffffffffff16896080015173ffffffffffffffffffffffffffffffffffffffff1614156145a157336145a7565b88608001515b60008a600001516040518060200160405280600081525088611d96565b505b506148a6565b73ffffffffffffffffffffffffffffffffffffffff811660009081526005602052604090205460ff161561460257829150614632565b633b9aca0089146146215761461a836003548b612b89565b8303614623565b825b915061462f8388615b20565b96505b60007f000000000000000000000000000000000000000000000000000000000000000073ffffffffffffffffffffffffffffffffffffffff1661eeee1461467a57600061467c565b825b604080516020808252818301909252919250600091906020820181803683370190505090508e6040516020016146b491815260200190565b60405160208183030381529060405290508560200151156147835760608601516040517f0cf8e85800000000000000000000000000000000000000000000000000000000815273ffffffffffffffffffffffffffffffffffffffff851691630cf8e85891859161474c9189907f0000000000000000000000000000000000000000000000000000000000000000908890600401615991565b6000604051808303818588803b15801561476557600080fd5b505af1158015614779573d6000803e3d6000fd5b50505050506148a3565b8273ffffffffffffffffffffffffffffffffffffffff16631ebc263f838860600151877f0000000000000000000000000000000000000000000000000000000000000000600073ffffffffffffffffffffffffffffffffffffffff168c6080015173ffffffffffffffffffffffffffffffffffffffff161415614806573361480c565b8b608001515b8c516040517fffffffff0000000000000000000000000000000000000000000000000000000060e089901b16815261484f95949392916000918b9060040161592d565b6020604051808303818588803b15801561486857600080fd5b505af115801561487c573d6000803e3d6000fd5b50505050506040513d601f19601f820116820180604052508101906148a191906150b4565b505b50505b5061492a565b633b9aca0088146148cb576148c4826003548a612b89565b82036148cd565b815b90506148d98287615b20565b955061492a30600073ffffffffffffffffffffffffffffffffffffffff16856080015173ffffffffffffffffffffffffffffffffffffffff16141561491e5733614924565b84608001515b83611c70565b81870396505b898b8d7f2a1f2df21da49f011c6165709ae4b279f8d6d7cffe9043c582352882d8c9698b86853360405161496693929190615894565b60405180910390a48360010193505050506140ae565b50509550959350505050565b60006149978460035484612b89565b61010086015190915060501c60019081161415614ae857600086815260026020818152604080842081516080810183528981526003805463ffffffff9081168387019081528a821684870190815273ffffffffffffffffffffffffffffffffffffffff8d81166060808801828152895460018082018c559a8f529d8c902098519d909c029097019b8c5592519a90960180549151995190961668010000000000000000027fffffffff0000000000000000000000000000000000000000ffffffffffffffff998416640100000000027fffffffffffffffffffffffffffffffffffffffffffffffff00000000000000009092169a9093169990991798909817969096169590951790915592548151878152928301949094523390820152869189917f77813be0661650ddc1a5193ff2837df4162b251cb432651e2c060c3fc39756be910160405180910390a4614b48565b614af28184612bcf565b6040805173ffffffffffffffffffffffffffffffffffffffff85168152336020820152600091839189917fcf0c92a2c6d7c42f488326b0cb900104b99984b6b218db81cd29371364a35251910160405180910390a45b95945050505050565b5080546000825560020290600052602060002090810190611b6a91905b80821115614bac57600081556001810180547fffffffff00000000000000000000000000000000000000000000000000000000169055600201614b6e565b5090565b60008083601f840112614bc257600080fd5b50813567ffffffffffffffff811115614bda57600080fd5b602083019150836020828501011115614bf257600080fd5b9250929050565b600082601f830112614c0a57600080fd5b8135614c1d614c1882615ada565b615a8b565b818152846020838601011115614c3257600080fd5b816020850160208301376000918101602001919091529392505050565b8051613faf81615dd6565b600082601f830112614c6b57600080fd5b8151614c79614c1882615ada565b818152846020838601011115614c8e57600080fd5b6119bd826020830160208701615cee565b60006101208284031215614cb257600080fd5b614cba615a3e565b9050815181526020820151602082015260408201516040820152606082015160608201526080820151608082015260a082015160a082015260c082015160c0820152614d0860e08301614c4f565b60e082015261010080830151818301525092915050565b600060208284031215614d3157600080fd5b8135612bc881615dd6565b600060208284031215614d4e57600080fd5b8151612bc881615dd6565b60008060408385031215614d6c57600080fd5b8235614d7781615dd6565b91506020830135614d8781615df8565b809150509250929050565b60008060408385031215614da557600080fd5b8235614db081615dd6565b946020939093013593505050565b600080600080600080600080610100898b031215614ddb57600080fd5b8835614de681615dd6565b975060208901359650604089013595506060890135614e0481615dd6565b94506080890135935060a0890135614e1b81615dd6565b925060c089013567ffffffffffffffff80821115614e3857600080fd5b614e448c838d01614bf9565b935060e08b0135915080821115614e5a57600080fd5b50614e678b828c01614bf9565b9150509295985092959890939650565b60006020808385031215614e8a57600080fd5b825167ffffffffffffffff80821115614ea257600080fd5b818501915085601f830112614eb657600080fd5b815181811115614ec857614ec8615da7565b614ed6848260051b01615a8b565b818152848101925083850160e0808402860187018a1015614ef657600080fd5b60009550855b84811015614f8e5781838c031215614f12578687fd5b614f1a615a68565b8351614f2581615df8565b815283890151614f3481615df8565b818a01526040848101519082015260608085015190820152608080850151614f5b81615dd6565b9082015260a0848101519082015260c080850151614f7881615dd6565b9082015286529487019491810191600101614efc565b50919998505050505050505050565b600060208284031215614faf57600080fd5b8151612bc881615df8565b600060208284031215614fcc57600080fd5b81357fffffffff0000000000000000000000000000000000000000000000000000000081168114612bc857600080fd5b600080610140838503121561501057600080fd5b61501a8484614c9f565b915061012083015190509250929050565b600080600080610180858703121561504257600080fd5b61504c8686614c9f565b9350610120850151925061014085015161506581615dd6565b61016086015190925067ffffffffffffffff81111561508357600080fd5b61508f87828801614c5a565b91505092959194509250565b6000602082840312156150ad57600080fd5b5035919050565b6000602082840312156150c657600080fd5b5051919050565b600080604083850312156150e057600080fd5b823591506020830135614d8781615dd6565b6000806000806000806000806000806101008b8d03121561511257600080fd5b8a35995060208b0135985060408b013561512b81615dd6565b975060608b013561513b81615dd6565b965060808b0135955060a08b013561515281615df8565b945060c08b013567ffffffffffffffff8082111561516f57600080fd5b61517b8e838f01614bb0565b909650945060e08d013591508082111561519457600080fd5b506151a18d828e01614bb0565b915080935050809150509295989b9194979a5092959850565b600080600080600080600060a0888a0312156151d557600080fd5b873596506020880135955060408801356151ee81615dd6565b9450606088013567ffffffffffffffff8082111561520b57600080fd5b6152178b838c01614bb0565b909650945060808a013591508082111561523057600080fd5b5061523d8a828b01614bb0565b989b979a50959850939692959293505050565b600080600080600080600060e0888a03121561526b57600080fd5b873596506020880135955060408801359450606088013561528b81615dd6565b93506080880135925060a08801356152a281615dd6565b915060c088013567ffffffffffffffff8111156152be57600080fd5b6152ca8a828b01614bf9565b91505092959891949750929550565b600080600080600080600060c0888a0312156152f457600080fd5b873596506020880135955060408801359450606088013561531481615dd6565b93506080880135925060a088013567ffffffffffffffff81111561533757600080fd5b61523d8a828b01614bb0565b6000815180845261535b816020860160208601615cee565b601f017fffffffffffffffffffffffffffffffffffffffffffffffffffffffffffffffe0169290920160200192915050565b805173ffffffffffffffffffffffffffffffffffffffff16825260006101806020838101518582015260408085015181870152606080860151805173ffffffffffffffffffffffffffffffffffffffff16828901529283015160808801529082015160a087015281015160c086015250608083015160e085015260a08301516101006154308187018373ffffffffffffffffffffffffffffffffffffffff169052565b60c0850151151561012087015260e08501516101408701849052915061545883870183615343565b925080850151915050848203610160860152614b488282615343565b600061016073ffffffffffffffffffffffffffffffffffffffff835116845260208301516020850152604083015160408501526060830151606085015260808301516154fa608086018273ffffffffffffffffffffffffffffffffffffffff81511682526020810151602083015260408101516040830152606081015160608301525050565b5060a083015173ffffffffffffffffffffffffffffffffffffffff1661010085015260c0830151610120850182905261553582860182615343565b91505060e0830151848203610140860152614b488282615343565b600073ffffffffffffffffffffffffffffffffffffffff808916835287602084015286604084015285606084015260c0608084015261559260c0840186615343565b915080841660a084015250979650505050505050565b600073ffffffffffffffffffffffffffffffffffffffff808b16835289602084015288604084015287606084015286608084015260e060a08401528460e08401526101008587828601376000848701820152931660c083015250601f9092017fffffffffffffffffffffffffffffffffffffffffffffffffffffffffffffffe016909101019695505050505050565b600073ffffffffffffffffffffffffffffffffffffffff808a168352808916602084015287604084015286606084015260e0608084015261567b60e0840187615343565b83810360a085015261568d8187615343565b92505080841660c08401525098975050505050505050565b600061014073ffffffffffffffffffffffffffffffffffffffff808b168452615708602085018b73ffffffffffffffffffffffffffffffffffffffff81511682526020810151602083015260408101516040830152606081015160608301525050565b8860a08501528760c085015280871660e0850152508061010084015261573081840186615343565b90508281036101208401526157458185615343565b9a9950505050505050505050565b73ffffffffffffffffffffffffffffffffffffffff8616815284602082015283604082015260a06060820152600061578e60a0830185615343565b8281036080840152610da68185615343565b602080825282518282018190526000919060409081850190868401855b82811015615816578151805185528681015163ffffffff9081168887015286820151168686015260609081015173ffffffffffffffffffffffffffffffffffffffff1690850152608090930192908501906001016157bd565b5091979650505050505050565b602081526000612bc8602083018461538d565b604081526000615849604083018561538d565b905073ffffffffffffffffffffffffffffffffffffffff831660208301529392505050565b602081526000612bc86020830184615474565b6040815260006158496040830185615474565b610120810161590282868051151582526020810151151560208301526040810151604083015260608101516060830152608081015173ffffffffffffffffffffffffffffffffffffffff808216608085015260a083015160a08501528060c08401511660c085015250505050565b8360e083015273ffffffffffffffffffffffffffffffffffffffff8316610100830152949350505050565b600061010089835288602084015273ffffffffffffffffffffffffffffffffffffffff808916604085015280881660608501525085608084015284151560a08401528060c0840152600081840152506101208060e084015261574581840185615343565b84815283602082015273ffffffffffffffffffffffffffffffffffffffff8316604082015260a06060820152600060a082015260c0608082015260006159da60c0830184615343565b9695505050505050565b85815284602082015260a060408201526000615a0360a0830186615343565b8281036060840152615a158186615343565b91505073ffffffffffffffffffffffffffffffffffffffff831660808301529695505050505050565b604051610120810167ffffffffffffffff81118282101715615a6257615a62615da7565b60405290565b60405160e0810167ffffffffffffffff81118282101715615a6257615a62615da7565b604051601f82017fffffffffffffffffffffffffffffffffffffffffffffffffffffffffffffffe016810167ffffffffffffffff81118282101715615ad257615ad2615da7565b604052919050565b600067ffffffffffffffff821115615af457615af4615da7565b50601f017fffffffffffffffffffffffffffffffffffffffffffffffffffffffffffffffe01660200190565b60008219821115615b3357615b33615d1a565b500190565b600082615b6e577f4e487b7100000000000000000000000000000000000000000000000000000000600052601260045260246000fd5b500490565b600181815b80851115615bcc57817fffffffffffffffffffffffffffffffffffffffffffffffffffffffffffffffff04821115615bb257615bb2615d1a565b80851615615bbf57918102915b93841c9390800290615b78565b509250929050565b6000612bc88383600082615bea57506001610950565b81615bf757506000610950565b8160018114615c0d5760028114615c1757615c33565b6001915050610950565b60ff841115615c2857615c28615d1a565b50506001821b610950565b5060208310610133831016604e8410600b8410161715615c56575081810a610950565b615c608383615b73565b807fffffffffffffffffffffffffffffffffffffffffffffffffffffffffffffffff04821115615c9257615c92615d1a565b029392505050565b6000817fffffffffffffffffffffffffffffffffffffffffffffffffffffffffffffffff0483118215151615615cd257615cd2615d1a565b500290565b600082821015615ce957615ce9615d1a565b500390565b60005b83811015615d09578181015183820152602001615cf1565b83811115612b835750506000910152565b7f4e487b7100000000000000000000000000000000000000000000000000000000600052601160045260246000fd5b7f4e487b7100000000000000000000000000000000000000000000000000000000600052601260045260246000fd5b7f4e487b7100000000000000000000000000000000000000000000000000000000600052603260045260246000fd5b7f4e487b7100000000000000000000000000000000000000000000000000000000600052604160045260246000fd5b73ffffffffffffffffffffffffffffffffffffffff81168114611b6a57600080fd5b8015158114611b6a57600080fdfea2646970667358221220685f0e99ad9cf5dd37557828955421cf6154be59059dc349a44a6d164182607064736f6c63430008060033",
    "linkReferences": {}
  },
  "methodIdentifiers": {
    "acceptsToken(address,uint256)": "df21a7dd",
    "addToBalanceOf(uint256,uint256,address,string,bytes)": "0cf8e858",
    "baseWeightCurrency()": "2d1a5903",
    "currency()": "e5a6b10f",
    "currencyForToken(address)": "1982d679",
    "currentEthOverflowOf(uint256)": "a32e1e96",
    "decimals()": "313ce567",
    "decimalsForToken(address)": "b7bad1b1",
    "directory()": "c41c2f24",
    "distributePayoutsOf(uint256,uint256,uint256,address,uint256,string)": "2b267b4e",
    "fee()": "ddca3f43",
    "feeGauge()": "d6dacc53",
    "heldFeesOf(uint256)": "8af56094",
    "isFeelessAddress(address)": "b631b500",
    "migrate(uint256,address)": "405b84fa",
    "operatorStore()": "ad007d63",
    "owner()": "8da5cb5b",
    "pay(uint256,uint256,address,address,uint256,bool,string,bytes)": "1ebc263f",
    "payoutSplitsGroup()": "66248b86",
    "prices()": "d3419bf3",
    "processFees(uint256)": "89701db5",
    "projects()": "8b79543c",
    "redeemTokensOf(address,uint256,uint256,address,uint256,address,string,bytes)": "fe663f0f",
    "renounceOwnership()": "715018a6",
    "setFee(uint256)": "69fe0e2d",
    "setFeeGauge(address)": "637913ac",
    "setFeelessAddress(address,bool)": "7258002c",
    "splitsStore()": "2bdfe004",
    "store()": "975057e7",
    "supportsInterface(bytes4)": "01ffc9a7",
    "token()": "fc0c546a",
    "transferOwnership(address)": "f2fde38b",
    "useAllowanceOf(uint256,uint256,uint256,address,uint256,address,string)": "bc8926e9"
  },
  "id": 46
}