{
  "abi": [
    {
      "inputs": [
        {
          "internalType": "contract IJBProjects",
          "name": "_projects",
          "type": "address"
        },
        {
          "internalType": "contract IJBDirectory",
          "name": "_directory",
          "type": "address"
        },
        {
          "internalType": "contract ITicketBooth",
          "name": "_ticketBooth",
          "type": "address"
        }
      ],
      "stateMutability": "nonpayable",
      "type": "constructor"
    },
    {
      "inputs": [],
      "name": "INSUFFICIENT_FUNDS",
      "type": "error"
    },
    {
      "inputs": [],
      "name": "INVALID_AMOUNT",
      "type": "error"
    },
    {
      "inputs": [],
      "name": "MIGRATION_TERMINATED",
      "type": "error"
    },
    {
      "inputs": [],
      "name": "NOT_ALLOWED",
      "type": "error"
    },
    {
      "inputs": [],
      "name": "NOT_SUPPORTED",
      "type": "error"
    },
    {
      "inputs": [],
      "name": "NO_MSG_VALUE_ALLOWED",
      "type": "error"
    },
    {
      "inputs": [],
      "name": "PROJECT_TERMINAL_MISMATCH",
      "type": "error"
    },
    {
      "inputs": [],
      "name": "UNEXPECTED_AMOUNT",
      "type": "error"
    },
    {
      "inputs": [],
      "name": "V1_PROJECT_NOT_SET",
      "type": "error"
    },
    {
      "anonymous": false,
      "inputs": [
        {
          "indexed": true,
          "internalType": "uint256",
          "name": "projectId",
          "type": "uint256"
        },
        {
          "indexed": false,
          "internalType": "address",
          "name": "payer",
          "type": "address"
        },
        {
          "indexed": false,
          "internalType": "address",
          "name": "beneficiary",
          "type": "address"
        },
        {
          "indexed": false,
          "internalType": "uint256",
          "name": "amount",
          "type": "uint256"
        },
        {
          "indexed": false,
          "internalType": "uint256",
          "name": "beneficiaryTokenCount",
          "type": "uint256"
        },
        {
          "indexed": false,
          "internalType": "string",
          "name": "memo",
          "type": "string"
        },
        {
          "indexed": false,
          "internalType": "address",
          "name": "caller",
          "type": "address"
        }
      ],
      "name": "Pay",
      "type": "event"
    },
    {
      "anonymous": false,
      "inputs": [
        {
          "indexed": true,
          "internalType": "uint256",
          "name": "projectId",
          "type": "uint256"
        },
        {
          "indexed": true,
          "internalType": "address",
          "name": "beneficiary",
          "type": "address"
        },
        {
          "indexed": false,
          "internalType": "uint256",
          "name": "unclaimedBalance",
          "type": "uint256"
        },
        {
          "indexed": false,
          "internalType": "uint256",
          "name": "claimedBalance",
          "type": "uint256"
        },
        {
          "indexed": false,
          "internalType": "address",
          "name": "caller",
          "type": "address"
        }
      ],
      "name": "ReleaseV1TokensOf",
      "type": "event"
    },
    {
      "anonymous": false,
      "inputs": [
        {
          "indexed": true,
          "internalType": "uint256",
          "name": "projectId",
          "type": "uint256"
        },
        {
          "indexed": true,
          "internalType": "uint256",
          "name": "v1ProjectId",
          "type": "uint256"
        },
        {
          "indexed": false,
          "internalType": "address",
          "name": "caller",
          "type": "address"
        }
      ],
      "name": "SetV1ProjectId",
      "type": "event"
    },
    {
      "inputs": [
        {
          "internalType": "address",
          "name": "_token",
          "type": "address"
        },
        {
          "internalType": "uint256",
          "name": "_projectId",
          "type": "uint256"
        }
      ],
      "name": "acceptsToken",
      "outputs": [
        {
          "internalType": "bool",
          "name": "",
          "type": "bool"
        }
      ],
      "stateMutability": "view",
      "type": "function"
    },
    {
      "inputs": [
        {
          "internalType": "uint256",
          "name": "_projectId",
          "type": "uint256"
        },
        {
          "internalType": "uint256",
          "name": "_amount",
          "type": "uint256"
        },
        {
          "internalType": "address",
          "name": "_token",
          "type": "address"
        },
        {
          "internalType": "string",
          "name": "_memo",
          "type": "string"
        },
        {
          "internalType": "bytes",
          "name": "_metadata",
          "type": "bytes"
        }
      ],
      "name": "addToBalanceOf",
      "outputs": [],
      "stateMutability": "payable",
      "type": "function"
    },
    {
      "inputs": [
        {
          "internalType": "address",
          "name": "_token",
          "type": "address"
        }
      ],
      "name": "currencyForToken",
      "outputs": [
        {
          "internalType": "uint256",
          "name": "",
          "type": "uint256"
        }
      ],
      "stateMutability": "pure",
      "type": "function"
    },
    {
      "inputs": [
        {
          "internalType": "uint256",
          "name": "_projectId",
          "type": "uint256"
        }
      ],
      "name": "currentEthOverflowOf",
      "outputs": [
        {
          "internalType": "uint256",
          "name": "",
          "type": "uint256"
        }
      ],
      "stateMutability": "pure",
      "type": "function"
    },
    {
      "inputs": [
        {
          "internalType": "address",
          "name": "_token",
          "type": "address"
        }
      ],
      "name": "decimalsForToken",
      "outputs": [
        {
          "internalType": "uint256",
          "name": "",
          "type": "uint256"
        }
      ],
      "stateMutability": "pure",
      "type": "function"
    },
    {
      "inputs": [],
      "name": "directory",
      "outputs": [
        {
          "internalType": "contract IJBDirectory",
          "name": "",
          "type": "address"
        }
      ],
      "stateMutability": "view",
      "type": "function"
    },
    {
      "inputs": [
        {
          "internalType": "uint256",
          "name": "",
          "type": "uint256"
        }
      ],
      "name": "finalized",
      "outputs": [
        {
          "internalType": "bool",
          "name": "",
          "type": "bool"
        }
      ],
      "stateMutability": "view",
      "type": "function"
    },
    {
      "inputs": [
        {
          "internalType": "uint256",
          "name": "_projectId",
          "type": "uint256"
        },
        {
          "internalType": "uint256",
          "name": "_amount",
          "type": "uint256"
        },
        {
          "internalType": "address",
          "name": "_token",
          "type": "address"
        },
        {
          "internalType": "address",
          "name": "_beneficiary",
          "type": "address"
        },
        {
          "internalType": "uint256",
          "name": "_minReturnedTokens",
          "type": "uint256"
        },
        {
          "internalType": "bool",
          "name": "_preferClaimedTokens",
          "type": "bool"
        },
        {
          "internalType": "string",
          "name": "_memo",
          "type": "string"
        },
        {
          "internalType": "bytes",
          "name": "_metadata",
          "type": "bytes"
        }
      ],
      "name": "pay",
      "outputs": [
        {
          "internalType": "uint256",
          "name": "beneficiaryTokenCount",
          "type": "uint256"
        }
      ],
      "stateMutability": "payable",
      "type": "function"
    },
    {
      "inputs": [],
      "name": "projects",
      "outputs": [
        {
          "internalType": "contract IJBProjects",
          "name": "",
          "type": "address"
        }
      ],
      "stateMutability": "view",
      "type": "function"
    },
    {
      "inputs": [
        {
          "internalType": "uint256",
          "name": "_v1ProjectId",
          "type": "uint256"
        },
        {
          "internalType": "address",
          "name": "_beneficiary",
          "type": "address"
        }
      ],
      "name": "releaseV1TokensOf",
      "outputs": [],
      "stateMutability": "nonpayable",
      "type": "function"
    },
    {
      "inputs": [
        {
          "internalType": "uint256",
          "name": "_projectId",
          "type": "uint256"
        },
        {
          "internalType": "uint256",
          "name": "_v1ProjectId",
          "type": "uint256"
        }
      ],
      "name": "setV1ProjectIdOf",
      "outputs": [],
      "stateMutability": "nonpayable",
      "type": "function"
    },
    {
      "inputs": [
        {
          "internalType": "bytes4",
          "name": "_interfaceId",
          "type": "bytes4"
        }
      ],
      "name": "supportsInterface",
      "outputs": [
        {
          "internalType": "bool",
          "name": "",
          "type": "bool"
        }
      ],
      "stateMutability": "view",
      "type": "function"
    },
    {
      "inputs": [],
      "name": "ticketBooth",
      "outputs": [
        {
          "internalType": "contract ITicketBooth",
          "name": "",
          "type": "address"
        }
      ],
      "stateMutability": "view",
      "type": "function"
    },
    {
      "inputs": [
        {
          "internalType": "uint256",
          "name": "",
          "type": "uint256"
        }
      ],
      "name": "v1ProjectIdOf",
      "outputs": [
        {
          "internalType": "uint256",
          "name": "",
          "type": "uint256"
        }
      ],
      "stateMutability": "view",
      "type": "function"
    }
  ],
  "bytecode": {
    "object": "0x60e06040523480156200001157600080fd5b5060405162001c8638038062001c8683398101604081905262000034916200005c565b6001600160601b0319606093841b811660805291831b821660a05290911b1660c052620000c9565b6000806000606084860312156200007257600080fd5b83516200007f81620000b0565b60208501519093506200009281620000b0565b6040850151909250620000a581620000b0565b809150509250925092565b6001600160a01b0381168114620000c657600080fd5b50565b60805160601c60a05160601c60c05160601c611b306200015660003960008181610256015281816106170152818161081c015281816108fb01528181610b8501528181610d3701528181610f660152818161109401528181611175015261144b0152600081816102e60152818161048e01526114ec0152600081816101fd0152610c710152611b306000f3fe6080604052600436106100dd5760003560e01c80638b79543c1161007f578063a32e1e9611610059578063a32e1e9614610298578063b7bad1b1146102b3578063c41c2f24146102d4578063df21a7dd1461030857600080fd5b80638b79543c146101eb5780639b602d6014610244578063a1188fe51461027857600080fd5b80631ebc263f116100bb5780631ebc263f1461015b5780633b7ae7fb1461016e5780634ddaced21461018e5780635e1434b0146101be57600080fd5b806301ffc9a7146100e25780630cf8e858146101175780631982d6791461012c575b600080fd5b3480156100ee57600080fd5b506101026100fd3660046117b6565b610328565b60405190151581526020015b60405180910390f35b61012a610125366004611944565b61040d565b005b34801561013857600080fd5b5061014d61014736600461172c565b50600090565b60405190815260200161010e565b61014d61016936600461187c565b61043f565b34801561017a57600080fd5b5061012a61018936600461182a565b610615565b34801561019a57600080fd5b506101026101a93660046117f8565b60016020526000908152604090205460ff1681565b3480156101ca57600080fd5b5061014d6101d93660046117f8565b60006020819052908152604090205481565b3480156101f757600080fd5b5061021f7f000000000000000000000000000000000000000000000000000000000000000081565b60405173ffffffffffffffffffffffffffffffffffffffff909116815260200161010e565b34801561025057600080fd5b5061021f7f000000000000000000000000000000000000000000000000000000000000000081565b34801561028457600080fd5b5061012a61029336600461185a565b610c42565b3480156102a457600080fd5b5061014d6101473660046117f8565b3480156102bf57600080fd5b5061014d6102ce36600461172c565b50601290565b3480156102e057600080fd5b5061021f7f000000000000000000000000000000000000000000000000000000000000000081565b34801561031457600080fd5b5061010261032336600461176d565b610f0f565b60007fffffffff0000000000000000000000000000000000000000000000000000000082167fc07370e40000000000000000000000000000000000000000000000000000000014806103bb57507fffffffff0000000000000000000000000000000000000000000000000000000082167f5da9c40400000000000000000000000000000000000000000000000000000000145b8061040757507f01ffc9a7000000000000000000000000000000000000000000000000000000007fffffffff000000000000000000000000000000000000000000000000000000008316145b92915050565b6040517ff1b06c8d00000000000000000000000000000000000000000000000000000000815260040160405180910390fd5b6040517f6e49181f000000000000000000000000000000000000000000000000000000008152600481018b90523060248201526000908b9073ffffffffffffffffffffffffffffffffffffffff7f00000000000000000000000000000000000000000000000000000000000000001690636e49181f9060440160206040518083038186803b1580156104d057600080fd5b505afa1580156104e4573d6000803e3d6000fd5b505050506040513d601f19601f820116820180604052508101906105089190611799565b61053e576040517fd8ead2c800000000000000000000000000000000000000000000000000000000815260040160405180910390fd5b60008c81526001602052604090205460ff1615610587576040517fa4c99d5500000000000000000000000000000000000000000000000000000000815260040160405180910390fd5b8a6105be576040517ffae8279100000000000000000000000000000000000000000000000000000000815260040160405180910390fd5b34156105f6576040517fbcfd35be00000000000000000000000000000000000000000000000000000000815260040160405180910390fd5b6106058c8c8b8b8b8b8b61101c565b9c9b505050505050505050505050565b7f000000000000000000000000000000000000000000000000000000000000000073ffffffffffffffffffffffffffffffffffffffff16638b79543c6040518163ffffffff1660e01b815260040160206040518083038186803b15801561067b57600080fd5b505afa15801561068f573d6000803e3d6000fd5b505050506040513d601f19601f820116820180604052508101906106b39190611750565b73ffffffffffffffffffffffffffffffffffffffff16636352211e836040518263ffffffff1660e01b81526004016106ed91815260200190565b60206040518083038186803b15801561070557600080fd5b505afa158015610719573d6000803e3d6000fd5b505050506040513d601f19601f8201168201806040525081019061073d9190611750565b73ffffffffffffffffffffffffffffffffffffffff163373ffffffffffffffffffffffffffffffffffffffff16146107a1576040517f95c31a5600000000000000000000000000000000000000000000000000000000815260040160405180910390fd5b60008281526001602052604090205460ff16156107ea576040517fa4c99d5500000000000000000000000000000000000000000000000000000000815260040160405180910390fd5b6040517f465909fc000000000000000000000000000000000000000000000000000000008152600481018390526000907f000000000000000000000000000000000000000000000000000000000000000073ffffffffffffffffffffffffffffffffffffffff169063465909fc9060240160206040518083038186803b15801561087357600080fd5b505afa158015610887573d6000803e3d6000fd5b505050506040513d601f19601f820116820180604052508101906108ab9190611750565b6040517fb656463b0000000000000000000000000000000000000000000000000000000081523060048201526024810185905290915060009073ffffffffffffffffffffffffffffffffffffffff7f0000000000000000000000000000000000000000000000000000000000000000169063b656463b9060440160206040518083038186803b15801561093d57600080fd5b505afa158015610951573d6000803e3d6000fd5b505050506040513d601f19601f820116820180604052508101906109759190611811565b9050600073ffffffffffffffffffffffffffffffffffffffff831615610a37576040517f70a0823100000000000000000000000000000000000000000000000000000000815230600482015273ffffffffffffffffffffffffffffffffffffffff8416906370a082319060240160206040518083038186803b1580156109fa57600080fd5b505afa158015610a0e573d6000803e3d6000fd5b505050506040513d601f19601f82011682018060405250810190610a329190611811565b610a3a565b60005b600086815260016020819052604090912080547fffffffffffffffffffffffffffffffffffffffffffffffffffffffffffffff0016909117905590508015610b26576040517fa9059cbb00000000000000000000000000000000000000000000000000000000815273ffffffffffffffffffffffffffffffffffffffff85811660048301526024820183905284169063a9059cbb90604401602060405180830381600087803b158015610aec57600080fd5b505af1158015610b00573d6000803e3d6000fd5b505050506040513d601f19601f82011682018060405250810190610b249190611799565b505b8115610be2576040517f33681fb1000000000000000000000000000000000000000000000000000000008152306004820152602481018690526044810183905273ffffffffffffffffffffffffffffffffffffffff85811660648301527f000000000000000000000000000000000000000000000000000000000000000016906333681fb190608401600060405180830381600087803b158015610bc957600080fd5b505af1158015610bdd573d6000803e3d6000fd5b505050505b60408051838152602081018390523381830152905173ffffffffffffffffffffffffffffffffffffffff86169187917f6fc535d8ff67d0f21cd17d2beb661edc004aac96022f96f830493c9afdc8b8c69181900360600190a35050505050565b6040517f6352211e000000000000000000000000000000000000000000000000000000008152600481018390527f000000000000000000000000000000000000000000000000000000000000000073ffffffffffffffffffffffffffffffffffffffff1690636352211e9060240160206040518083038186803b158015610cc857600080fd5b505afa158015610cdc573d6000803e3d6000fd5b505050506040513d601f19601f82011682018060405250810190610d009190611750565b73ffffffffffffffffffffffffffffffffffffffff163373ffffffffffffffffffffffffffffffffffffffff16141580610e8d57507f000000000000000000000000000000000000000000000000000000000000000073ffffffffffffffffffffffffffffffffffffffff16638b79543c6040518163ffffffff1660e01b815260040160206040518083038186803b158015610d9b57600080fd5b505afa158015610daf573d6000803e3d6000fd5b505050506040513d601f19601f82011682018060405250810190610dd39190611750565b73ffffffffffffffffffffffffffffffffffffffff16636352211e826040518263ffffffff1660e01b8152600401610e0d91815260200190565b60206040518083038186803b158015610e2557600080fd5b505afa158015610e39573d6000803e3d6000fd5b505050506040513d601f19601f82011682018060405250810190610e5d9190611750565b73ffffffffffffffffffffffffffffffffffffffff163373ffffffffffffffffffffffffffffffffffffffff1614155b15610ec4576040517f95c31a5600000000000000000000000000000000000000000000000000000000815260040160405180910390fd5b600082815260208181526040918290208390559051338152829184917f282ff6460fb07ccfaa514277992e90057285669702011c90f6faa2c38b4b3d45910160405180910390a35050565b6000818152602081905260408082205490517f465909fc0000000000000000000000000000000000000000000000000000000081526004810182905273ffffffffffffffffffffffffffffffffffffffff858116917f00000000000000000000000000000000000000000000000000000000000000009091169063465909fc9060240160206040518083038186803b158015610faa57600080fd5b505afa158015610fbe573d6000803e3d6000fd5b505050506040513d601f19601f82011682018060405250810190610fe29190611750565b73ffffffffffffffffffffffffffffffffffffffff16148015611014575060008181526001602052604090205460ff16155b949350505050565b60008781526020819052604081205480611062576040517f2bb4ee8900000000000000000000000000000000000000000000000000000000815260040160405180910390fd5b6040517f465909fc000000000000000000000000000000000000000000000000000000008152600481018290526000907f000000000000000000000000000000000000000000000000000000000000000073ffffffffffffffffffffffffffffffffffffffff169063465909fc9060240160206040518083038186803b1580156110eb57600080fd5b505afa1580156110ff573d6000803e3d6000fd5b505050506040513d601f19601f820116820180604052508101906111239190611750565b6040517fb656463b00000000000000000000000000000000000000000000000000000000815233600482015260248101849052909150600090819073ffffffffffffffffffffffffffffffffffffffff7f0000000000000000000000000000000000000000000000000000000000000000169063b656463b9060440160206040518083038186803b1580156111b757600080fd5b505afa1580156111cb573d6000803e3d6000fd5b505050506040513d601f19601f820116820180604052508101906111ef9190611811565b9050600073ffffffffffffffffffffffffffffffffffffffff8416156112b1576040517f70a0823100000000000000000000000000000000000000000000000000000000815233600482015273ffffffffffffffffffffffffffffffffffffffff8516906370a082319060240160206040518083038186803b15801561127457600080fd5b505afa158015611288573d6000803e3d6000fd5b505050506040513d601f19601f820116820180604052508101906112ac9190611811565b6112b4565b60005b90506112c08282611a69565b8c11156112f9576040517fe793143800000000000000000000000000000000000000000000000000000000815260040160405180910390fd5b80611307576000925061133e565b8815611323578b811061131a578b61131c565b805b925061133e565b8b821061133157600061133b565b61133b828d611a81565b92505b506000905061134d828c611a81565b90508115611403576040517f23b872dd0000000000000000000000000000000000000000000000000000000081523360048201523060248201526044810183905273ffffffffffffffffffffffffffffffffffffffff8416906323b872dd90606401602060405180830381600087803b1580156113c957600080fd5b505af11580156113dd573d6000803e3d6000fd5b505050506040513d601f19601f820116820180604052508101906114019190611799565b505b80156114bd576040517f33681fb100000000000000000000000000000000000000000000000000000000815233600482015260248101859052604481018290523060648201527f000000000000000000000000000000000000000000000000000000000000000073ffffffffffffffffffffffffffffffffffffffff16906333681fb190608401600060405180830381600087803b1580156114a457600080fd5b505af11580156114b8573d6000803e3d6000fd5b505050505b6040517f5dd8f6aa000000000000000000000000000000000000000000000000000000008152600481018d90527f000000000000000000000000000000000000000000000000000000000000000073ffffffffffffffffffffffffffffffffffffffff1690635dd8f6aa9060240160206040518083038186803b15801561154357600080fd5b505afa158015611557573d6000803e3d6000fd5b505050506040513d601f19601f8201168201806040525081019061157b9190611750565b6040517f8ae9c07b000000000000000000000000000000000000000000000000000000008152600481018e9052602481018d905273ffffffffffffffffffffffffffffffffffffffff8c8116604483015260c06064830152600060c483018190528b1515608484015260a48301529190911690638ae9c07b9060e401602060405180830381600087803b15801561161157600080fd5b505af1158015611625573d6000803e3d6000fd5b505050506040513d601f19601f820116820180604052508101906116499190611811565b94508a8514158061165957508885105b15611690576040517f69f961ac00000000000000000000000000000000000000000000000000000000815260040160405180910390fd5b8b7f10f8ea9875ad4a9ab46e591f03452855ffeb54b39d6e158d802442a529731eb2338c8e898c8c336040516116cc97969594939291906119da565b60405180910390a250505050979650505050505050565b60008083601f8401126116f557600080fd5b50813567ffffffffffffffff81111561170d57600080fd5b60208301915083602082850101111561172557600080fd5b9250929050565b60006020828403121561173e57600080fd5b813561174981611ac7565b9392505050565b60006020828403121561176257600080fd5b815161174981611ac7565b6000806040838503121561178057600080fd5b823561178b81611ac7565b946020939093013593505050565b6000602082840312156117ab57600080fd5b815161174981611aec565b6000602082840312156117c857600080fd5b81357fffffffff000000000000000000000000000000000000000000000000000000008116811461174957600080fd5b60006020828403121561180a57600080fd5b5035919050565b60006020828403121561182357600080fd5b5051919050565b6000806040838503121561183d57600080fd5b82359150602083013561184f81611ac7565b809150509250929050565b6000806040838503121561186d57600080fd5b50508035926020909101359150565b6000806000806000806000806000806101008b8d03121561189c57600080fd5b8a35995060208b0135985060408b01356118b581611ac7565b975060608b01356118c581611ac7565b965060808b0135955060a08b01356118dc81611aec565b945060c08b013567ffffffffffffffff808211156118f957600080fd5b6119058e838f016116e3565b909650945060e08d013591508082111561191e57600080fd5b5061192b8d828e016116e3565b915080935050809150509295989b9194979a5092959850565b600080600080600080600060a0888a03121561195f57600080fd5b8735965060208801359550604088013561197881611ac7565b9450606088013567ffffffffffffffff8082111561199557600080fd5b6119a18b838c016116e3565b909650945060808a01359150808211156119ba57600080fd5b506119c78a828b016116e3565b989b979a50959850939692959293505050565b600073ffffffffffffffffffffffffffffffffffffffff808a168352808916602084015287604084015286606084015260c060808401528460c0840152848660e0850137600060e0868501015260e07fffffffffffffffffffffffffffffffffffffffffffffffffffffffffffffffe0601f870116840101915080841660a08401525098975050505050505050565b60008219821115611a7c57611a7c611a98565b500190565b600082821015611a9357611a93611a98565b500390565b7f4e487b7100000000000000000000000000000000000000000000000000000000600052601160045260246000fd5b73ffffffffffffffffffffffffffffffffffffffff81168114611ae957600080fd5b50565b8015158114611ae957600080fdfea2646970667358221220b01ff3121a878f5f7823b670e183f5224e858a37b9d5a073b9762c367e81d65964736f6c63430008060033",
    "linkReferences": {}
  },
  "methodIdentifiers": {
    "acceptsToken(address,uint256)": "df21a7dd",
    "addToBalanceOf(uint256,uint256,address,string,bytes)": "0cf8e858",
    "currencyForToken(address)": "1982d679",
    "currentEthOverflowOf(uint256)": "a32e1e96",
    "decimalsForToken(address)": "b7bad1b1",
    "directory()": "c41c2f24",
    "finalized(uint256)": "4ddaced2",
    "pay(uint256,uint256,address,address,uint256,bool,string,bytes)": "1ebc263f",
    "projects()": "8b79543c",
    "releaseV1TokensOf(uint256,address)": "3b7ae7fb",
    "setV1ProjectIdOf(uint256,uint256)": "a1188fe5",
    "supportsInterface(bytes4)": "01ffc9a7",
    "ticketBooth()": "9b602d60",
    "v1ProjectIdOf(uint256)": "5e1434b0"
  },
  "id": 0
}