{
  "abi": [
    {
      "inputs": [
        {
          "internalType": "contract IERC20Metadata",
          "name": "_token",
          "type": "address"
        },
        {
          "internalType": "uint256",
          "name": "_currency",
          "type": "uint256"
        },
        {
          "internalType": "uint256",
          "name": "_baseWeightCurrency",
          "type": "uint256"
        },
        {
          "internalType": "uint256",
          "name": "_payoutSplitsGroup",
          "type": "uint256"
        },
        {
          "internalType": "contract IJBOperatorStore",
          "name": "_operatorStore",
          "type": "address"
        },
        {
          "internalType": "contract IJBProjects",
          "name": "_projects",
          "type": "address"
        },
        {
          "internalType": "contract IJBDirectory",
          "name": "_directory",
          "type": "address"
        },
        {
          "internalType": "contract IJBSplitsStore",
          "name": "_splitsStore",
          "type": "address"
        },
        {
          "internalType": "contract IJBPrices",
          "name": "_prices",
          "type": "address"
        },
        {
          "internalType": "contract IJBSingleTokenPaymentTerminalStore",
          "name": "_store",
          "type": "address"
        },
        {
          "internalType": "address",
          "name": "_owner",
          "type": "address"
        }
      ],
      "stateMutability": "nonpayable",
      "type": "constructor"
    },
    {
      "inputs": [],
      "name": "FEE_TOO_HIGH",
      "type": "error"
    },
    {
      "inputs": [],
      "name": "INADEQUATE_DISTRIBUTION_AMOUNT",
      "type": "error"
    },
    {
      "inputs": [],
      "name": "INADEQUATE_RECLAIM_AMOUNT",
      "type": "error"
    },
    {
      "inputs": [],
      "name": "INADEQUATE_TOKEN_COUNT",
      "type": "error"
    },
    {
      "inputs": [],
      "name": "NO_MSG_VALUE_ALLOWED",
      "type": "error"
    },
    {
      "inputs": [],
      "name": "PAY_TO_ZERO_ADDRESS",
      "type": "error"
    },
    {
      "inputs": [
        {
          "internalType": "uint256",
          "name": "prod1",
          "type": "uint256"
        },
        {
          "internalType": "uint256",
          "name": "denominator",
          "type": "uint256"
        }
      ],
      "name": "PRBMath__MulDivOverflow",
      "type": "error"
    },
    {
      "inputs": [],
      "name": "PROJECT_TERMINAL_MISMATCH",
      "type": "error"
    },
    {
      "inputs": [],
      "name": "REDEEM_TO_ZERO_ADDRESS",
      "type": "error"
    },
    {
      "inputs": [],
      "name": "TERMINAL_IN_SPLIT_ZERO_ADDRESS",
      "type": "error"
    },
    {
      "inputs": [],
      "name": "TERMINAL_TOKENS_INCOMPATIBLE",
      "type": "error"
    },
    {
      "inputs": [],
      "name": "UNAUTHORIZED",
      "type": "error"
    },
    {
      "anonymous": false,
      "inputs": [
        {
          "indexed": true,
          "internalType": "uint256",
          "name": "projectId",
          "type": "uint256"
        },
        {
          "indexed": false,
          "internalType": "uint256",
          "name": "amount",
          "type": "uint256"
        },
        {
          "indexed": false,
          "internalType": "uint256",
          "name": "refundedFees",
          "type": "uint256"
        },
        {
          "indexed": false,
          "internalType": "string",
          "name": "memo",
          "type": "string"
        },
        {
          "indexed": false,
          "internalType": "bytes",
          "name": "metadata",
          "type": "bytes"
        },
        {
          "indexed": false,
          "internalType": "address",
          "name": "caller",
          "type": "address"
        }
      ],
      "name": "AddToBalance",
      "type": "event"
    },
    {
      "anonymous": false,
      "inputs": [
        {
          "indexed": true,
          "internalType": "contract IJBPayDelegate",
          "name": "delegate",
          "type": "address"
        },
        {
          "components": [
            {
              "internalType": "address",
              "name": "payer",
              "type": "address"
            },
            {
              "internalType": "uint256",
              "name": "projectId",
              "type": "uint256"
            },
            {
              "internalType": "uint256",
              "name": "currentFundingCycleConfiguration",
              "type": "uint256"
            },
            {
              "components": [
                {
                  "internalType": "address",
                  "name": "token",
                  "type": "address"
                },
                {
                  "internalType": "uint256",
                  "name": "value",
                  "type": "uint256"
                },
                {
                  "internalType": "uint256",
                  "name": "decimals",
                  "type": "uint256"
                },
                {
                  "internalType": "uint256",
                  "name": "currency",
                  "type": "uint256"
                }
              ],
              "internalType": "struct JBTokenAmount",
              "name": "amount",
              "type": "tuple"
            },
            {
              "internalType": "uint256",
              "name": "projectTokenCount",
              "type": "uint256"
            },
            {
              "internalType": "address",
              "name": "beneficiary",
              "type": "address"
            },
            {
              "internalType": "bool",
              "name": "preferClaimedTokens",
              "type": "bool"
            },
            {
              "internalType": "string",
              "name": "memo",
              "type": "string"
            },
            {
              "internalType": "bytes",
              "name": "metadata",
              "type": "bytes"
            }
          ],
          "indexed": false,
          "internalType": "struct JBDidPayData",
          "name": "data",
          "type": "tuple"
        },
        {
          "indexed": false,
          "internalType": "address",
          "name": "caller",
          "type": "address"
        }
      ],
      "name": "DelegateDidPay",
      "type": "event"
    },
    {
      "anonymous": false,
      "inputs": [
        {
          "indexed": true,
          "internalType": "contract IJBRedemptionDelegate",
          "name": "delegate",
          "type": "address"
        },
        {
          "components": [
            {
              "internalType": "address",
              "name": "holder",
              "type": "address"
            },
            {
              "internalType": "uint256",
              "name": "projectId",
              "type": "uint256"
            },
            {
              "internalType": "uint256",
              "name": "currentFundingCycleConfiguration",
              "type": "uint256"
            },
            {
              "internalType": "uint256",
              "name": "projectTokenCount",
              "type": "uint256"
            },
            {
              "components": [
                {
                  "internalType": "address",
                  "name": "token",
                  "type": "address"
                },
                {
                  "internalType": "uint256",
                  "name": "value",
                  "type": "uint256"
                },
                {
                  "internalType": "uint256",
                  "name": "decimals",
                  "type": "uint256"
                },
                {
                  "internalType": "uint256",
                  "name": "currency",
                  "type": "uint256"
                }
              ],
              "internalType": "struct JBTokenAmount",
              "name": "reclaimedAmount",
              "type": "tuple"
            },
            {
              "internalType": "address payable",
              "name": "beneficiary",
              "type": "address"
            },
            {
              "internalType": "string",
              "name": "memo",
              "type": "string"
            },
            {
              "internalType": "bytes",
              "name": "metadata",
              "type": "bytes"
            }
          ],
          "indexed": false,
          "internalType": "struct JBDidRedeemData",
          "name": "data",
          "type": "tuple"
        },
        {
          "indexed": false,
          "internalType": "address",
          "name": "caller",
          "type": "address"
        }
      ],
      "name": "DelegateDidRedeem",
      "type": "event"
    },
    {
      "anonymous": false,
      "inputs": [
        {
          "indexed": true,
          "internalType": "uint256",
          "name": "fundingCycleConfiguration",
          "type": "uint256"
        },
        {
          "indexed": true,
          "internalType": "uint256",
          "name": "fundingCycleNumber",
          "type": "uint256"
        },
        {
          "indexed": true,
          "internalType": "uint256",
          "name": "projectId",
          "type": "uint256"
        },
        {
          "indexed": false,
          "internalType": "address",
          "name": "beneficiary",
          "type": "address"
        },
        {
          "indexed": false,
          "internalType": "uint256",
          "name": "amount",
          "type": "uint256"
        },
        {
          "indexed": false,
          "internalType": "uint256",
          "name": "distributedAmount",
          "type": "uint256"
        },
        {
          "indexed": false,
          "internalType": "uint256",
          "name": "fee",
          "type": "uint256"
        },
        {
          "indexed": false,
          "internalType": "uint256",
          "name": "beneficiaryDistributionAmount",
          "type": "uint256"
        },
        {
          "indexed": false,
          "internalType": "string",
          "name": "memo",
          "type": "string"
        },
        {
          "indexed": false,
          "internalType": "address",
          "name": "caller",
          "type": "address"
        }
      ],
      "name": "DistributePayouts",
      "type": "event"
    },
    {
      "anonymous": false,
      "inputs": [
        {
          "indexed": true,
          "internalType": "uint256",
          "name": "projectId",
          "type": "uint256"
        },
        {
          "indexed": true,
          "internalType": "uint256",
          "name": "domain",
          "type": "uint256"
        },
        {
          "indexed": true,
          "internalType": "uint256",
          "name": "group",
          "type": "uint256"
        },
        {
          "components": [
            {
              "internalType": "bool",
              "name": "preferClaimed",
              "type": "bool"
            },
            {
              "internalType": "bool",
              "name": "preferAddToBalance",
              "type": "bool"
            },
            {
              "internalType": "uint256",
              "name": "percent",
              "type": "uint256"
            },
            {
              "internalType": "uint256",
              "name": "projectId",
              "type": "uint256"
            },
            {
              "internalType": "address payable",
              "name": "beneficiary",
              "type": "address"
            },
            {
              "internalType": "uint256",
              "name": "lockedUntil",
              "type": "uint256"
            },
            {
              "internalType": "contract IJBSplitAllocator",
              "name": "allocator",
              "type": "address"
            }
          ],
          "indexed": false,
          "internalType": "struct JBSplit",
          "name": "split",
          "type": "tuple"
        },
        {
          "indexed": false,
          "internalType": "uint256",
          "name": "amount",
          "type": "uint256"
        },
        {
          "indexed": false,
          "internalType": "address",
          "name": "caller",
          "type": "address"
        }
      ],
      "name": "DistributeToPayoutSplit",
      "type": "event"
    },
    {
      "anonymous": false,
      "inputs": [
        {
          "indexed": true,
          "internalType": "uint256",
          "name": "projectId",
          "type": "uint256"
        },
        {
          "indexed": true,
          "internalType": "uint256",
          "name": "amount",
          "type": "uint256"
        },
        {
          "indexed": true,
          "internalType": "uint256",
          "name": "fee",
          "type": "uint256"
        },
        {
          "indexed": false,
          "internalType": "uint256",
          "name": "feeDiscount",
          "type": "uint256"
        },
        {
          "indexed": false,
          "internalType": "address",
          "name": "beneficiary",
          "type": "address"
        },
        {
          "indexed": false,
          "internalType": "address",
          "name": "caller",
          "type": "address"
        }
      ],
      "name": "HoldFee",
      "type": "event"
    },
    {
      "anonymous": false,
      "inputs": [
        {
          "indexed": true,
          "internalType": "uint256",
          "name": "projectId",
          "type": "uint256"
        },
        {
          "indexed": true,
          "internalType": "contract IJBPaymentTerminal",
          "name": "to",
          "type": "address"
        },
        {
          "indexed": false,
          "internalType": "uint256",
          "name": "amount",
          "type": "uint256"
        },
        {
          "indexed": false,
          "internalType": "address",
          "name": "caller",
          "type": "address"
        }
      ],
      "name": "Migrate",
      "type": "event"
    },
    {
      "anonymous": false,
      "inputs": [
        {
          "indexed": true,
          "internalType": "address",
          "name": "previousOwner",
          "type": "address"
        },
        {
          "indexed": true,
          "internalType": "address",
          "name": "newOwner",
          "type": "address"
        }
      ],
      "name": "OwnershipTransferred",
      "type": "event"
    },
    {
      "anonymous": false,
      "inputs": [
        {
          "indexed": true,
          "internalType": "uint256",
          "name": "fundingCycleConfiguration",
          "type": "uint256"
        },
        {
          "indexed": true,
          "internalType": "uint256",
          "name": "fundingCycleNumber",
          "type": "uint256"
        },
        {
          "indexed": true,
          "internalType": "uint256",
          "name": "projectId",
          "type": "uint256"
        },
        {
          "indexed": false,
          "internalType": "address",
          "name": "payer",
          "type": "address"
        },
        {
          "indexed": false,
          "internalType": "address",
          "name": "beneficiary",
          "type": "address"
        },
        {
          "indexed": false,
          "internalType": "uint256",
          "name": "amount",
          "type": "uint256"
        },
        {
          "indexed": false,
          "internalType": "uint256",
          "name": "beneficiaryTokenCount",
          "type": "uint256"
        },
        {
          "indexed": false,
          "internalType": "string",
          "name": "memo",
          "type": "string"
        },
        {
          "indexed": false,
          "internalType": "bytes",
          "name": "metadata",
          "type": "bytes"
        },
        {
          "indexed": false,
          "internalType": "address",
          "name": "caller",
          "type": "address"
        }
      ],
      "name": "Pay",
      "type": "event"
    },
    {
      "anonymous": false,
      "inputs": [
        {
          "indexed": true,
          "internalType": "uint256",
          "name": "projectId",
          "type": "uint256"
        },
        {
          "indexed": true,
          "internalType": "uint256",
          "name": "amount",
          "type": "uint256"
        },
        {
          "indexed": true,
          "internalType": "bool",
          "name": "wasHeld",
          "type": "bool"
        },
        {
          "indexed": false,
          "internalType": "address",
          "name": "beneficiary",
          "type": "address"
        },
        {
          "indexed": false,
          "internalType": "address",
          "name": "caller",
          "type": "address"
        }
      ],
      "name": "ProcessFee",
      "type": "event"
    },
    {
      "anonymous": false,
      "inputs": [
        {
          "indexed": true,
          "internalType": "uint256",
          "name": "fundingCycleConfiguration",
          "type": "uint256"
        },
        {
          "indexed": true,
          "internalType": "uint256",
          "name": "fundingCycleNumber",
          "type": "uint256"
        },
        {
          "indexed": true,
          "internalType": "uint256",
          "name": "projectId",
          "type": "uint256"
        },
        {
          "indexed": false,
          "internalType": "address",
          "name": "holder",
          "type": "address"
        },
        {
          "indexed": false,
          "internalType": "address",
          "name": "beneficiary",
          "type": "address"
        },
        {
          "indexed": false,
          "internalType": "uint256",
          "name": "tokenCount",
          "type": "uint256"
        },
        {
          "indexed": false,
          "internalType": "uint256",
          "name": "reclaimedAmount",
          "type": "uint256"
        },
        {
          "indexed": false,
          "internalType": "string",
          "name": "memo",
          "type": "string"
        },
        {
          "indexed": false,
          "internalType": "bytes",
          "name": "metadata",
          "type": "bytes"
        },
        {
          "indexed": false,
          "internalType": "address",
          "name": "caller",
          "type": "address"
        }
      ],
      "name": "RedeemTokens",
      "type": "event"
    },
    {
      "anonymous": false,
      "inputs": [
        {
          "indexed": true,
          "internalType": "uint256",
          "name": "projectId",
          "type": "uint256"
        },
        {
          "indexed": true,
          "internalType": "uint256",
          "name": "amount",
          "type": "uint256"
        },
        {
          "indexed": true,
          "internalType": "uint256",
          "name": "refundedFees",
          "type": "uint256"
        },
        {
          "indexed": false,
          "internalType": "uint256",
          "name": "leftoverAmount",
          "type": "uint256"
        },
        {
          "indexed": false,
          "internalType": "address",
          "name": "caller",
          "type": "address"
        }
      ],
      "name": "RefundHeldFees",
      "type": "event"
    },
    {
      "anonymous": false,
      "inputs": [
        {
          "indexed": false,
          "internalType": "uint256",
          "name": "fee",
          "type": "uint256"
        },
        {
          "indexed": false,
          "internalType": "address",
          "name": "caller",
          "type": "address"
        }
      ],
      "name": "SetFee",
      "type": "event"
    },
    {
      "anonymous": false,
      "inputs": [
        {
          "indexed": true,
          "internalType": "contract IJBFeeGauge",
          "name": "feeGauge",
          "type": "address"
        },
        {
          "indexed": false,
          "internalType": "address",
          "name": "caller",
          "type": "address"
        }
      ],
      "name": "SetFeeGauge",
      "type": "event"
    },
    {
      "anonymous": false,
      "inputs": [
        {
          "indexed": true,
          "internalType": "address",
          "name": "addrs",
          "type": "address"
        },
        {
          "indexed": true,
          "internalType": "bool",
          "name": "flag",
          "type": "bool"
        },
        {
          "indexed": false,
          "internalType": "address",
          "name": "caller",
          "type": "address"
        }
      ],
      "name": "SetFeelessAddress",
      "type": "event"
    },
    {
      "anonymous": false,
      "inputs": [
        {
          "indexed": true,
          "internalType": "uint256",
          "name": "fundingCycleConfiguration",
          "type": "uint256"
        },
        {
          "indexed": true,
          "internalType": "uint256",
          "name": "fundingCycleNumber",
          "type": "uint256"
        },
        {
          "indexed": true,
          "internalType": "uint256",
          "name": "projectId",
          "type": "uint256"
        },
        {
          "indexed": false,
          "internalType": "address",
          "name": "beneficiary",
          "type": "address"
        },
        {
          "indexed": false,
          "internalType": "uint256",
          "name": "amount",
          "type": "uint256"
        },
        {
          "indexed": false,
          "internalType": "uint256",
          "name": "distributedAmount",
          "type": "uint256"
        },
        {
          "indexed": false,
          "internalType": "uint256",
          "name": "netDistributedamount",
          "type": "uint256"
        },
        {
          "indexed": false,
          "internalType": "string",
          "name": "memo",
          "type": "string"
        },
        {
          "indexed": false,
          "internalType": "address",
          "name": "caller",
          "type": "address"
        }
      ],
      "name": "UseAllowance",
      "type": "event"
    },
    {
      "inputs": [
        {
          "internalType": "address",
          "name": "_token",
          "type": "address"
        },
        {
          "internalType": "uint256",
          "name": "_projectId",
          "type": "uint256"
        }
      ],
      "name": "acceptsToken",
      "outputs": [
        {
          "internalType": "bool",
          "name": "",
          "type": "bool"
        }
      ],
      "stateMutability": "view",
      "type": "function"
    },
    {
      "inputs": [
        {
          "internalType": "uint256",
          "name": "_projectId",
          "type": "uint256"
        },
        {
          "internalType": "uint256",
          "name": "_amount",
          "type": "uint256"
        },
        {
          "internalType": "address",
          "name": "_token",
          "type": "address"
        },
        {
          "internalType": "string",
          "name": "_memo",
          "type": "string"
        },
        {
          "internalType": "bytes",
          "name": "_metadata",
          "type": "bytes"
        }
      ],
      "name": "addToBalanceOf",
      "outputs": [],
      "stateMutability": "payable",
      "type": "function"
    },
    {
      "inputs": [],
      "name": "baseWeightCurrency",
      "outputs": [
        {
          "internalType": "uint256",
          "name": "",
          "type": "uint256"
        }
      ],
      "stateMutability": "view",
      "type": "function"
    },
    {
      "inputs": [],
      "name": "currency",
      "outputs": [
        {
          "internalType": "uint256",
          "name": "",
          "type": "uint256"
        }
      ],
      "stateMutability": "view",
      "type": "function"
    },
    {
      "inputs": [
        {
          "internalType": "address",
          "name": "_token",
          "type": "address"
        }
      ],
      "name": "currencyForToken",
      "outputs": [
        {
          "internalType": "uint256",
          "name": "",
          "type": "uint256"
        }
      ],
      "stateMutability": "view",
      "type": "function"
    },
    {
      "inputs": [
        {
          "internalType": "uint256",
          "name": "_projectId",
          "type": "uint256"
        }
      ],
      "name": "currentEthOverflowOf",
      "outputs": [
        {
          "internalType": "uint256",
          "name": "",
          "type": "uint256"
        }
      ],
      "stateMutability": "view",
      "type": "function"
    },
    {
      "inputs": [],
      "name": "decimals",
      "outputs": [
        {
          "internalType": "uint256",
          "name": "",
          "type": "uint256"
        }
      ],
      "stateMutability": "view",
      "type": "function"
    },
    {
      "inputs": [
        {
          "internalType": "address",
          "name": "_token",
          "type": "address"
        }
      ],
      "name": "decimalsForToken",
      "outputs": [
        {
          "internalType": "uint256",
          "name": "",
          "type": "uint256"
        }
      ],
      "stateMutability": "view",
      "type": "function"
    },
    {
      "inputs": [],
      "name": "directory",
      "outputs": [
        {
          "internalType": "contract IJBDirectory",
          "name": "",
          "type": "address"
        }
      ],
      "stateMutability": "view",
      "type": "function"
    },
    {
      "inputs": [
        {
          "internalType": "uint256",
          "name": "_projectId",
          "type": "uint256"
        },
        {
          "internalType": "uint256",
          "name": "_amount",
          "type": "uint256"
        },
        {
          "internalType": "uint256",
          "name": "_currency",
          "type": "uint256"
        },
        {
          "internalType": "address",
          "name": "_token",
          "type": "address"
        },
        {
          "internalType": "uint256",
          "name": "_minReturnedTokens",
          "type": "uint256"
        },
        {
          "internalType": "string",
          "name": "_memo",
          "type": "string"
        }
      ],
      "name": "distributePayoutsOf",
      "outputs": [
        {
          "internalType": "uint256",
          "name": "netLeftoverDistributionAmount",
          "type": "uint256"
        }
      ],
      "stateMutability": "nonpayable",
      "type": "function"
    },
    {
      "inputs": [],
      "name": "fee",
      "outputs": [
        {
          "internalType": "uint256",
          "name": "",
          "type": "uint256"
        }
      ],
      "stateMutability": "view",
      "type": "function"
    },
    {
      "inputs": [],
      "name": "feeGauge",
      "outputs": [
        {
          "internalType": "contract IJBFeeGauge",
          "name": "",
          "type": "address"
        }
      ],
      "stateMutability": "view",
      "type": "function"
    },
    {
      "inputs": [
        {
          "internalType": "uint256",
          "name": "_projectId",
          "type": "uint256"
        }
      ],
      "name": "heldFeesOf",
      "outputs": [
        {
          "components": [
            {
              "internalType": "uint256",
              "name": "amount",
              "type": "uint256"
            },
            {
              "internalType": "uint32",
              "name": "fee",
              "type": "uint32"
            },
            {
              "internalType": "uint32",
              "name": "feeDiscount",
              "type": "uint32"
            },
            {
              "internalType": "address",
              "name": "beneficiary",
              "type": "address"
            }
          ],
          "internalType": "struct JBFee[]",
          "name": "",
          "type": "tuple[]"
        }
      ],
      "stateMutability": "view",
      "type": "function"
    },
    {
      "inputs": [
        {
          "internalType": "address",
          "name": "",
          "type": "address"
        }
      ],
      "name": "isFeelessAddress",
      "outputs": [
        {
          "internalType": "bool",
          "name": "",
          "type": "bool"
        }
      ],
      "stateMutability": "view",
      "type": "function"
    },
    {
      "inputs": [
        {
          "internalType": "uint256",
          "name": "_projectId",
          "type": "uint256"
        },
        {
          "internalType": "contract IJBPaymentTerminal",
          "name": "_to",
          "type": "address"
        }
      ],
      "name": "migrate",
      "outputs": [
        {
          "internalType": "uint256",
          "name": "balance",
          "type": "uint256"
        }
      ],
      "stateMutability": "nonpayable",
      "type": "function"
    },
    {
      "inputs": [],
      "name": "operatorStore",
      "outputs": [
        {
          "internalType": "contract IJBOperatorStore",
          "name": "",
          "type": "address"
        }
      ],
      "stateMutability": "view",
      "type": "function"
    },
    {
      "inputs": [],
      "name": "owner",
      "outputs": [
        {
          "internalType": "address",
          "name": "",
          "type": "address"
        }
      ],
      "stateMutability": "view",
      "type": "function"
    },
    {
      "inputs": [
        {
          "internalType": "uint256",
          "name": "_projectId",
          "type": "uint256"
        },
        {
          "internalType": "uint256",
          "name": "_amount",
          "type": "uint256"
        },
        {
          "internalType": "address",
          "name": "_token",
          "type": "address"
        },
        {
          "internalType": "address",
          "name": "_beneficiary",
          "type": "address"
        },
        {
          "internalType": "uint256",
          "name": "_minReturnedTokens",
          "type": "uint256"
        },
        {
          "internalType": "bool",
          "name": "_preferClaimedTokens",
          "type": "bool"
        },
        {
          "internalType": "string",
          "name": "_memo",
          "type": "string"
        },
        {
          "internalType": "bytes",
          "name": "_metadata",
          "type": "bytes"
        }
      ],
      "name": "pay",
      "outputs": [
        {
          "internalType": "uint256",
          "name": "",
          "type": "uint256"
        }
      ],
      "stateMutability": "payable",
      "type": "function"
    },
    {
      "inputs": [],
      "name": "payoutSplitsGroup",
      "outputs": [
        {
          "internalType": "uint256",
          "name": "",
          "type": "uint256"
        }
      ],
      "stateMutability": "view",
      "type": "function"
    },
    {
      "inputs": [],
      "name": "prices",
      "outputs": [
        {
          "internalType": "contract IJBPrices",
          "name": "",
          "type": "address"
        }
      ],
      "stateMutability": "view",
      "type": "function"
    },
    {
      "inputs": [
        {
          "internalType": "uint256",
          "name": "_projectId",
          "type": "uint256"
        }
      ],
      "name": "processFees",
      "outputs": [],
      "stateMutability": "nonpayable",
      "type": "function"
    },
    {
      "inputs": [],
      "name": "projects",
      "outputs": [
        {
          "internalType": "contract IJBProjects",
          "name": "",
          "type": "address"
        }
      ],
      "stateMutability": "view",
      "type": "function"
    },
    {
      "inputs": [
        {
          "internalType": "address",
          "name": "_holder",
          "type": "address"
        },
        {
          "internalType": "uint256",
          "name": "_projectId",
          "type": "uint256"
        },
        {
          "internalType": "uint256",
          "name": "_tokenCount",
          "type": "uint256"
        },
        {
          "internalType": "address",
          "name": "_token",
          "type": "address"
        },
        {
          "internalType": "uint256",
          "name": "_minReturnedTokens",
          "type": "uint256"
        },
        {
          "internalType": "address payable",
          "name": "_beneficiary",
          "type": "address"
        },
        {
          "internalType": "string",
          "name": "_memo",
          "type": "string"
        },
        {
          "internalType": "bytes",
          "name": "_metadata",
          "type": "bytes"
        }
      ],
      "name": "redeemTokensOf",
      "outputs": [
        {
          "internalType": "uint256",
          "name": "reclaimAmount",
          "type": "uint256"
        }
      ],
      "stateMutability": "nonpayable",
      "type": "function"
    },
    {
      "inputs": [],
      "name": "renounceOwnership",
      "outputs": [],
      "stateMutability": "nonpayable",
      "type": "function"
    },
    {
      "inputs": [
        {
          "internalType": "uint256",
          "name": "_fee",
          "type": "uint256"
        }
      ],
      "name": "setFee",
      "outputs": [],
      "stateMutability": "nonpayable",
      "type": "function"
    },
    {
      "inputs": [
        {
          "internalType": "contract IJBFeeGauge",
          "name": "_feeGauge",
          "type": "address"
        }
      ],
      "name": "setFeeGauge",
      "outputs": [],
      "stateMutability": "nonpayable",
      "type": "function"
    },
    {
      "inputs": [
        {
          "internalType": "address",
          "name": "_address",
          "type": "address"
        },
        {
          "internalType": "bool",
          "name": "_flag",
          "type": "bool"
        }
      ],
      "name": "setFeelessAddress",
      "outputs": [],
      "stateMutability": "nonpayable",
      "type": "function"
    },
    {
      "inputs": [],
      "name": "splitsStore",
      "outputs": [
        {
          "internalType": "contract IJBSplitsStore",
          "name": "",
          "type": "address"
        }
      ],
      "stateMutability": "view",
      "type": "function"
    },
    {
      "inputs": [],
      "name": "store",
      "outputs": [
        {
          "internalType": "contract IJBSingleTokenPaymentTerminalStore",
          "name": "",
          "type": "address"
        }
      ],
      "stateMutability": "view",
      "type": "function"
    },
    {
      "inputs": [
        {
          "internalType": "bytes4",
          "name": "_interfaceId",
          "type": "bytes4"
        }
      ],
      "name": "supportsInterface",
      "outputs": [
        {
          "internalType": "bool",
          "name": "",
          "type": "bool"
        }
      ],
      "stateMutability": "view",
      "type": "function"
    },
    {
      "inputs": [],
      "name": "token",
      "outputs": [
        {
          "internalType": "address",
          "name": "",
          "type": "address"
        }
      ],
      "stateMutability": "view",
      "type": "function"
    },
    {
      "inputs": [
        {
          "internalType": "address",
          "name": "newOwner",
          "type": "address"
        }
      ],
      "name": "transferOwnership",
      "outputs": [],
      "stateMutability": "nonpayable",
      "type": "function"
    },
    {
      "inputs": [
        {
          "internalType": "uint256",
          "name": "_projectId",
          "type": "uint256"
        },
        {
          "internalType": "uint256",
          "name": "_amount",
          "type": "uint256"
        },
        {
          "internalType": "uint256",
          "name": "_currency",
          "type": "uint256"
        },
        {
          "internalType": "address",
          "name": "_token",
          "type": "address"
        },
        {
          "internalType": "uint256",
          "name": "_minReturnedTokens",
          "type": "uint256"
        },
        {
          "internalType": "address payable",
          "name": "_beneficiary",
          "type": "address"
        },
        {
          "internalType": "string",
          "name": "_memo",
          "type": "string"
        }
      ],
      "name": "useAllowanceOf",
      "outputs": [
        {
          "internalType": "uint256",
          "name": "netDistributedAmount",
          "type": "uint256"
        }
      ],
      "stateMutability": "nonpayable",
      "type": "function"
    }
  ],
  "bytecode": {
    "object": "0x6101e060405263017d78406003553480156200001a57600080fd5b506040516200658b3803806200658b8339810160408190526200003d916200029a565b8a8b6001600160a01b031663313ce5676040518163ffffffff1660e01b815260040160206040518083038186803b1580156200007857600080fd5b505afa1580156200008d573d6000803e3d6000fd5b505050506040513d601f19601f82011682018060405250810190620000b391906200037c565b6001600160601b0319606083811b821660805260ff9290921660a081905260c08e9052918a901b1660e0528b8b8b8b8b8b8b8b8b8b620000fa620000f43390565b62000169565b600180556101a08990526101c08890526001600160601b0319606087811b82166101005286811b82166101205285811b82166101405284811b82166101605283901b16610180526200014c81620001b9565b5050505050505050505050505050505050505050505050620003be565b600080546001600160a01b038381166001600160a01b0319831681178455604051919092169283917f8be0079c531659141344cd1fd0a4f28419497f9722a3daafe3b4186f6b6457e09190a35050565b620001c36200023c565b6001600160a01b0381166200022e5760405162461bcd60e51b815260206004820152602660248201527f4f776e61626c653a206e6577206f776e657220697320746865207a65726f206160448201526564647265737360d01b60648201526084015b60405180910390fd5b620002398162000169565b50565b6000546001600160a01b03163314620002985760405162461bcd60e51b815260206004820181905260248201527f4f776e61626c653a2063616c6c6572206973206e6f7420746865206f776e6572604482015260640162000225565b565b60008060008060008060008060008060006101608c8e031215620002bd57600080fd5b8b51620002ca81620003a8565b809b505060208c0151995060408c0151985060608c0151975060808c0151620002f381620003a8565b60a08d01519097506200030681620003a8565b60c08d01519096506200031981620003a8565b60e08d01519095506200032c81620003a8565b6101008d01519094506200034081620003a8565b6101208d01519093506200035481620003a8565b6101408d01519092506200036881620003a8565b809150509295989b509295989b9093969950565b6000602082840312156200038f57600080fd5b815160ff81168114620003a157600080fd5b9392505050565b6001600160a01b03811681146200023957600080fd5b60805160601c60a05160c05160e05160601c6101005160601c6101205160601c6101405160601c6101605160601c6101805160601c6101a0516101c051615f8662000605600039600081816103e1015261274401526000818161033901526120e401526000818161051601528181610fac0152818161177f01528181611e6b015281816120a50152818161257b0152818161328401526135c8015260008181610662015261192c0152600081816102e0015261412a01526000818161062e0152818161098d01528181610bc1015281816121db01528181612ec0015281816136f201528181613f4601526144ef0152600081816104b701528181610de40152818161138f01528181611a0101528181612668015261338801526000818161056a015281816128a60152818161298201528181612c7c0152612d5801526000818161026b015281816107340152818161185e015281816118d90152818161207f01526138f901526000818161036d015281816105da015281816117ff0152818161182b0152818161188b0152818161190601528181612059015281816138d3015261435a0152600081816106e50152818161078801528181610a5401528181610c7301528181610ebe01528181611053015281816110f901528181611ceb01528181611db80152818161201701528181612a8601528181612e9501528181612f9a015281816130420152818161389101528181613f19015281816142c1015281816143180152818161451c015281816147800152818161486c01526148f20152615f866000f3fe6080604052600436106101fe5760003560e01c80638b79543c1161011d578063c41c2f24116100b0578063df21a7dd1161007f578063f2fde38b11610064578063f2fde38b14610756578063fc0c546a14610776578063fe663f0f146107aa57600080fd5b8063df21a7dd146106c7578063e5a6b10f1461072257600080fd5b8063c41c2f241461061c578063d3419bf314610650578063d6dacc5314610684578063ddca3f43146106b157600080fd5b8063ad007d63116100ec578063ad007d6314610558578063b631b5001461058c578063b7bad1b1146105bc578063bc8926e9146105fc57600080fd5b80638b79543c146104a55780638da5cb5b146104d9578063975057e714610504578063a32e1e961461053857600080fd5b8063405b84fa11610195578063715018a611610164578063715018a6146104235780637258002c1461043857806389701db5146104585780638af560941461047857600080fd5b8063405b84fa1461038f578063637913ac146103af57806366248b86146103cf57806369fe0e2d1461040357600080fd5b80632b267b4e116101d15780632b267b4e146102ae5780632bdfe004146102ce5780632d1a590314610327578063313ce5671461035b57600080fd5b806301ffc9a7146102035780630cf8e858146102385780631982d6791461024d5780631ebc263f1461029b575b600080fd5b34801561020f57600080fd5b5061022361021e366004615104565b6107ca565b60405190151581526020015b60405180910390f35b61024b610246366004615304565b610956565b005b34801561025957600080fd5b5061028d610268366004614e69565b507f000000000000000000000000000000000000000000000000000000000000000090565b60405190815260200161022f565b61028d6102a936600461523c565b610b72565b3480156102ba57600080fd5b5061028d6102c9366004615423565b610d96565b3480156102da57600080fd5b506103027f000000000000000000000000000000000000000000000000000000000000000081565b60405173ffffffffffffffffffffffffffffffffffffffff909116815260200161022f565b34801561033357600080fd5b5061028d7f000000000000000000000000000000000000000000000000000000000000000081565b34801561036757600080fd5b5061028d7f000000000000000000000000000000000000000000000000000000000000000081565b34801561039b57600080fd5b5061028d6103aa366004615217565b610db2565b3480156103bb57600080fd5b5061024b6103ca366004614e69565b6111b0565b3480156103db57600080fd5b5061028d7f000000000000000000000000000000000000000000000000000000000000000081565b34801561040f57600080fd5b5061024b61041e3660046151e5565b611231565b34801561042f57600080fd5b5061024b6112b7565b34801561044457600080fd5b5061024b610453366004614ea3565b6112cb565b34801561046457600080fd5b5061024b6104733660046151e5565b611360565b34801561048457600080fd5b506104986104933660046151e5565b611671565b60405161022f91906158ea565b3480156104b157600080fd5b506103027f000000000000000000000000000000000000000000000000000000000000000081565b3480156104e557600080fd5b5060005473ffffffffffffffffffffffffffffffffffffffff16610302565b34801561051057600080fd5b506103027f000000000000000000000000000000000000000000000000000000000000000081565b34801561054457600080fd5b5061028d6105533660046151e5565b611730565b34801561056457600080fd5b506103027f000000000000000000000000000000000000000000000000000000000000000081565b34801561059857600080fd5b506102236105a7366004614e69565b60056020526000908152604090205460ff1681565b3480156105c857600080fd5b5061028d6105d7366004614e69565b507f000000000000000000000000000000000000000000000000000000000000000090565b34801561060857600080fd5b5061028d61061736600461539a565b6119cf565b34801561062857600080fd5b506103027f000000000000000000000000000000000000000000000000000000000000000081565b34801561065c57600080fd5b506103027f000000000000000000000000000000000000000000000000000000000000000081565b34801561069057600080fd5b506004546103029073ffffffffffffffffffffffffffffffffffffffff1681565b3480156106bd57600080fd5b5061028d60035481565b3480156106d357600080fd5b506102236106e2366004614edc565b507f000000000000000000000000000000000000000000000000000000000000000073ffffffffffffffffffffffffffffffffffffffff90811691161490565b34801561072e57600080fd5b5061028d7f000000000000000000000000000000000000000000000000000000000000000081565b34801561076257600080fd5b5061024b610771366004614e69565b611abb565b34801561078257600080fd5b506103027f000000000000000000000000000000000000000000000000000000000000000081565b3480156107b657600080fd5b5061028d6107c5366004614f08565b611b77565b60007fffffffff0000000000000000000000000000000000000000000000000000000082167fedb527eb00000000000000000000000000000000000000000000000000000000148061085d57507fffffffff0000000000000000000000000000000000000000000000000000000082167f2b267b4e00000000000000000000000000000000000000000000000000000000145b806108a957507fffffffff0000000000000000000000000000000000000000000000000000000082167fbc8926e900000000000000000000000000000000000000000000000000000000145b806108f557507fffffffff0000000000000000000000000000000000000000000000000000000082167ffe663f0f00000000000000000000000000000000000000000000000000000000145b8061094157507fffffffff0000000000000000000000000000000000000000000000000000000082167fad007d6300000000000000000000000000000000000000000000000000000000145b80610950575061095082611b97565b92915050565b6040517f6e49181f0000000000000000000000000000000000000000000000000000000081526004810188905230602482015287907f000000000000000000000000000000000000000000000000000000000000000073ffffffffffffffffffffffffffffffffffffffff1690636e49181f9060440160206040518083038186803b1580156109e457600080fd5b505afa1580156109f8573d6000803e3d6000fd5b505050506040513d601f19601f82011682018060405250810190610a1c91906150e7565b610a52576040517fd8ead2c800000000000000000000000000000000000000000000000000000000815260040160405180910390fd5b7f000000000000000000000000000000000000000000000000000000000000000073ffffffffffffffffffffffffffffffffffffffff1661eeee14610ad9573415610ac9576040517fbcfd35be00000000000000000000000000000000000000000000000000000000815260040160405180910390fd5b610ad4333089611c7a565b610add565b3496505b33600090815260056020908152604091829020548251601f8801839004830281018301909352868352610b68928b928b9260ff161591908a908a908190840183828082843760009201919091525050604080516020601f8c018190048102820181019092528a815292508a9150899081908401838280828437600092019190915250611e3a92505050565b5050505050505050565b6040517f6e49181f000000000000000000000000000000000000000000000000000000008152600481018b90523060248201526000908b9073ffffffffffffffffffffffffffffffffffffffff7f00000000000000000000000000000000000000000000000000000000000000001690636e49181f9060440160206040518083038186803b158015610c0357600080fd5b505afa158015610c17573d6000803e3d6000fd5b505050506040513d601f19601f82011682018060405250810190610c3b91906150e7565b610c71576040517fd8ead2c800000000000000000000000000000000000000000000000000000000815260040160405180910390fd5b7f000000000000000000000000000000000000000000000000000000000000000073ffffffffffffffffffffffffffffffffffffffff1661eeee14610cf8573415610ce8576040517fbcfd35be00000000000000000000000000000000000000000000000000000000815260040160405180910390fd5b610cf333308d611c7a565b610cfc565b349a505b610d868b338e8c8c8c8c8c8080601f016020809104026020016040519081016040528093929190818152602001838380828437600081840152601f19601f820116905080830192505050505050508b8b8080601f016020809104026020016040519081016040528093929190818152602001838380828437600092019190915250611f5192505050565b9c9b505050505050505050505050565b6000610da6888888878787612522565b98975050505050505050565b6040517f6352211e000000000000000000000000000000000000000000000000000000008152600481018390526000907f000000000000000000000000000000000000000000000000000000000000000073ffffffffffffffffffffffffffffffffffffffff1690636352211e9060240160206040518083038186803b158015610e3b57600080fd5b505afa158015610e4f573d6000803e3d6000fd5b505050506040513d601f19601f82011682018060405250810190610e739190614e86565b836004610e8183838361282c565b6040517fdf21a7dd00000000000000000000000000000000000000000000000000000000815273ffffffffffffffffffffffffffffffffffffffff7f0000000000000000000000000000000000000000000000000000000000000000811660048301526024820188905286169063df21a7dd9060440160206040518083038186803b158015610f0f57600080fd5b505afa158015610f23573d6000803e3d6000fd5b505050506040513d601f19601f82011682018060405250810190610f4791906150e7565b610f7d576040517f581010ed00000000000000000000000000000000000000000000000000000000815260040160405180910390fd5b6040517f6bb6a5ad000000000000000000000000000000000000000000000000000000008152600481018790527f000000000000000000000000000000000000000000000000000000000000000073ffffffffffffffffffffffffffffffffffffffff1690636bb6a5ad90602401602060405180830381600087803b15801561100557600080fd5b505af1158015611019573d6000803e3d6000fd5b505050506040513d601f19601f8201168201806040525081019061103d91906151fe565b935083156111555761104f8585612a3a565b60007f000000000000000000000000000000000000000000000000000000000000000073ffffffffffffffffffffffffffffffffffffffff1661eeee14611097576000611099565b845b604080516020810182526000815290517f0cf8e85800000000000000000000000000000000000000000000000000000000815291925073ffffffffffffffffffffffffffffffffffffffff881691630cf8e858918491611121918c918b917f000000000000000000000000000000000000000000000000000000000000000091600401615adb565b6000604051808303818588803b15801561113a57600080fd5b505af115801561114e573d6000803e3d6000fd5b5050505050505b6040805185815233602082015273ffffffffffffffffffffffffffffffffffffffff87169188917fa7519e5f94697b7f53e97c5eb46a0c730a296ab686ab8fd333835c5f735784eb910160405180910390a350505092915050565b6111b8612b02565b600480547fffffffffffffffffffffffff00000000000000000000000000000000000000001673ffffffffffffffffffffffffffffffffffffffff83169081179091556040513381527f0a9a80fe9716605b3e52abb3d792d6a4e7816d6afc02a5a4ef023081feaf9f609060200160405180910390a250565b611239612b02565b6302faf080811115611277576040517f45fbd9c100000000000000000000000000000000000000000000000000000000815260040160405180910390fd5b6003819055604080518281523360208201527fd7414e590e1cb532989ab2a34c8f4c2c17f7ab6f006efeeaef2e87cd5008c202910160405180910390a150565b6112bf612b02565b6112c96000612b83565b565b6112d3612b02565b73ffffffffffffffffffffffffffffffffffffffff821660008181526005602090815260409182902080547fffffffffffffffffffffffffffffffffffffffffffffffffffffffffffffff001685151590811790915591513381529192917fa2653e25a502c023a5830d0de847ef6f458387865b1f4f575d7594f9f2c0d71e910160405180910390a35050565b6040517f6352211e000000000000000000000000000000000000000000000000000000008152600481018290527f000000000000000000000000000000000000000000000000000000000000000073ffffffffffffffffffffffffffffffffffffffff1690636352211e9060240160206040518083038186803b1580156113e657600080fd5b505afa1580156113fa573d6000803e3d6000fd5b505050506040513d601f19601f8201168201806040525081019061141e9190614e86565b81600561144060005473ffffffffffffffffffffffffffffffffffffffff1690565b73ffffffffffffffffffffffffffffffffffffffff163373ffffffffffffffffffffffffffffffffffffffff161461147a84848484612bf8565b600085815260026020908152604080832080548251818502810185019093528083529192909190849084015b8282101561152557600084815260209081902060408051608081018252600286029092018054835260019081015463ffffffff80821685870152640100000000820416928401929092526801000000000000000090910473ffffffffffffffffffffffffffffffffffffffff16606083015290835290920191016114a6565b5050506000888152600260205260408120929350611544929150614c9b565b805160005b81811015610b685760006115c184838151811061156857611568615ec2565b60200260200101516000015185848151811061158657611586615ec2565b60200260200101516020015163ffffffff168685815181106115aa576115aa615ec2565b60200260200101516040015163ffffffff16612e0b565b90506115ea818584815181106115d9576115d9615ec2565b602002602001015160600151612e51565b60011515818a7fcf0c92a2c6d7c42f488326b0cb900104b99984b6b218db81cd29371364a3525187868151811061162357611623615ec2565b6020026020010151606001513360405161166092919073ffffffffffffffffffffffffffffffffffffffff92831681529116602082015260400190565b60405180910390a450600101611549565b606060026000838152602001908152602001600020805480602002602001604051908101604052809291908181526020016000905b8282101561172557600084815260209081902060408051608081018252600286029092018054835260019081015463ffffffff80821685870152640100000000820416928401929092526801000000000000000090910473ffffffffffffffffffffffffffffffffffffffff16606083015290835290920191016116a6565b505050509050919050565b6040517fd49031c000000000000000000000000000000000000000000000000000000000815230600482015260248101829052600090819073ffffffffffffffffffffffffffffffffffffffff7f0000000000000000000000000000000000000000000000000000000000000000169063d49031c09060440160206040518083038186803b1580156117c157600080fd5b505afa1580156117d5573d6000803e3d6000fd5b505050506040513d601f19601f820116820180604052508101906117f991906151fe565b905060007f000000000000000000000000000000000000000000000000000000000000000060121461185657611851827f000000000000000000000000000000000000000000000000000000000000000060126130c8565b611858565b815b905060017f0000000000000000000000000000000000000000000000000000000000000000146119c5576119c0816118b17f0000000000000000000000000000000000000000000000000000000000000000600a615d1e565b6040517fa4d0caf20000000000000000000000000000000000000000000000000000000081527f00000000000000000000000000000000000000000000000000000000000000006004820152600160248201527f000000000000000000000000000000000000000000000000000000000000000060448201527f000000000000000000000000000000000000000000000000000000000000000073ffffffffffffffffffffffffffffffffffffffff169063a4d0caf29060640160206040518083038186803b15801561198357600080fd5b505afa158015611997573d6000803e3d6000fd5b505050506040513d601f19601f820116820180604052508101906119bb91906151fe565b613126565b6119c7565b805b949350505050565b6040517f6352211e000000000000000000000000000000000000000000000000000000008152600481018890526000907f000000000000000000000000000000000000000000000000000000000000000073ffffffffffffffffffffffffffffffffffffffff1690636352211e9060240160206040518083038186803b158015611a5857600080fd5b505afa158015611a6c573d6000803e3d6000fd5b505050506040513d601f19601f82011682018060405250810190611a909190614e86565b886011611a9e83838361282c565b611aac8b8b8b8a8a8a61322b565b9b9a5050505050505050505050565b611ac3612b02565b73ffffffffffffffffffffffffffffffffffffffff8116611b6b576040517f08c379a000000000000000000000000000000000000000000000000000000000815260206004820152602660248201527f4f776e61626c653a206e6577206f776e657220697320746865207a65726f206160448201527f646472657373000000000000000000000000000000000000000000000000000060648201526084015b60405180910390fd5b611b7481612b83565b50565b600088886002611b8883838361282c565b610d868c8c8c8b8b8b8b6134d4565b60007fffffffff0000000000000000000000000000000000000000000000000000000082167fc07370e4000000000000000000000000000000000000000000000000000000001480611c2a57507fffffffff0000000000000000000000000000000000000000000000000000000082167f2896000200000000000000000000000000000000000000000000000000000000145b8061095057507f01ffc9a7000000000000000000000000000000000000000000000000000000007fffffffff00000000000000000000000000000000000000000000000000000000831614610950565b73ffffffffffffffffffffffffffffffffffffffff83163014611d6c576040517f23b872dd00000000000000000000000000000000000000000000000000000000815273ffffffffffffffffffffffffffffffffffffffff84811660048301528381166024830152604482018390527f000000000000000000000000000000000000000000000000000000000000000016906323b872dd90606401602060405180830381600087803b158015611d2f57600080fd5b505af1158015611d43573d6000803e3d6000fd5b505050506040513d601f19601f82011682018060405250810190611d6791906150e7565b611e34565b6040517fa9059cbb00000000000000000000000000000000000000000000000000000000815273ffffffffffffffffffffffffffffffffffffffff8381166004830152602482018390527f0000000000000000000000000000000000000000000000000000000000000000169063a9059cbb90604401602060405180830381600087803b158015611dfc57600080fd5b505af1158015611e10573d6000803e3d6000fd5b505050506040513d601f19601f82011682018060405250810190611e3491906150e7565b50505050565b600083611e48576000611e52565b611e528686613a71565b905073ffffffffffffffffffffffffffffffffffffffff7f00000000000000000000000000000000000000000000000000000000000000001663e7c8e3e387611e9b8489615c6a565b6040517fffffffff0000000000000000000000000000000000000000000000000000000060e085901b16815260048101929092526024820152604401600060405180830381600087803b158015611ef157600080fd5b505af1158015611f05573d6000803e3d6000fd5b50505050857f9ecaf7fc3dfffd6867c175d6e684b1f1e3aef019398ba8db2c1ffab4a09db2538683868633604051611f41959493929190615b2e565b60405180910390a2505050505050565b600073ffffffffffffffffffffffffffffffffffffffff8616611fa0576040517fa762251300000000000000000000000000000000000000000000000000000000815260040160405180910390fd5b61200560405180610120016040528060008152602001600081526020016000815260200160008152602001600081526020016000815260200160008152602001600073ffffffffffffffffffffffffffffffffffffffff168152602001600081525090565b600080600060405180608001604052807f000000000000000000000000000000000000000000000000000000000000000073ffffffffffffffffffffffffffffffffffffffff1681526020018e81526020017f000000000000000000000000000000000000000000000000000000000000000081526020017f000000000000000000000000000000000000000000000000000000000000000081525090507f000000000000000000000000000000000000000000000000000000000000000073ffffffffffffffffffffffffffffffffffffffff16632fa1b3918d838e7f00000000000000000000000000000000000000000000000000000000000000008f8d8d6040518863ffffffff1660e01b815260040161212897969594939291906157ef565b600060405180830381600087803b15801561214257600080fd5b505af1158015612156573d6000803e3d6000fd5b505050506040513d6000823e601f3d9081017fffffffffffffffffffffffffffffffffffffffffffffffffffffffffffffffe016820160405261219c9190810190615175565b99509195509093509150811561233b576040517f5dd8f6aa000000000000000000000000000000000000000000000000000000008152600481018c90527f000000000000000000000000000000000000000000000000000000000000000073ffffffffffffffffffffffffffffffffffffffff1690635dd8f6aa9060240160206040518083038186803b15801561223257600080fd5b505afa158015612246573d6000803e3d6000fd5b505050506040513d601f19601f8201168201806040525081019061226a9190614e86565b6040517f8ae9c07b000000000000000000000000000000000000000000000000000000008152600481018d90526024810184905273ffffffffffffffffffffffffffffffffffffffff8c8116604483015260c06064830152600060c48301528a15156084830152600160a48301529190911690638ae9c07b9060e401602060405180830381600087803b15801561230057600080fd5b505af1158015612314573d6000803e3d6000fd5b505050506040513d601f19601f8201168201806040525081019061233891906151fe565b94505b88851015612375576040517f7b94612600000000000000000000000000000000000000000000000000000000815260040160405180910390fd5b73ffffffffffffffffffffffffffffffffffffffff8316156124c45760006040518061012001604052808e73ffffffffffffffffffffffffffffffffffffffff1681526020018d8152602001866020015181526020018381526020018781526020018c73ffffffffffffffffffffffffffffffffffffffff1681526020018a151581526020018981526020018881525090508373ffffffffffffffffffffffffffffffffffffffff1663304b1eea826040518263ffffffff1660e01b8152600401612440919061596d565b600060405180830381600087803b15801561245a57600080fd5b505af115801561246e573d6000803e3d6000fd5b505050508373ffffffffffffffffffffffffffffffffffffffff167fdcbcf946bdc8fbe709377d507c6a207221aecd117c05690f674af73d923cdb5482336040516124ba929190615980565b60405180910390a2505b50505087816000015182602001517f133161f1c9161488f777ab9a26aae91d47c0d9a3fafb398960f138db02c737978c8b8f888b8b3360405161250d9796959493929190615781565b60405180910390a45098975050505050505050565b6040517fc66445970000000000000000000000000000000000000000000000000000000081526004810187905260248101869052604481018590526000908190819073ffffffffffffffffffffffffffffffffffffffff7f0000000000000000000000000000000000000000000000000000000000000000169063c66445979060640161014060405180830381600087803b1580156125c057600080fd5b505af11580156125d4573d6000803e3d6000fd5b505050506040513d601f19601f820116820180604052508101906125f89190615146565b9150915085811015612636576040517fb01493c100000000000000000000000000000000000000000000000000000000815260040160405180910390fd5b6040517f6352211e000000000000000000000000000000000000000000000000000000008152600481018a90526000907f000000000000000000000000000000000000000000000000000000000000000073ffffffffffffffffffffffffffffffffffffffff1690636352211e9060240160206040518083038186803b1580156126bf57600080fd5b505afa1580156126d3573d6000803e3d6000fd5b505050506040513d601f19601f820116820180604052508101906126f79190614e86565b90506000806003546000148061271c57503360009081526005602052604090205460ff165b61272e576127298c613ed5565b612734565b633b9aca005b905060008061276a8e88602001517f000000000000000000000000000000000000000000000000000000000000000089876140e6565b810192509050633b9aca00831480612780575081155b612796576127918e88848887614ad2565b612799565b60005b935080156127b5576127ae8160035485612e0b565b81036127b8565b60005b975087156127cb576127cb30868a611c7a565b5050508a846000015185602001517f24352f49df447b14e0e08a323625c663d865ce20c343c4638af12e1dc48aa760858e88878c8f8f336040516128169897969594939291906156f2565b60405180910390a4505050509695505050505050565b3373ffffffffffffffffffffffffffffffffffffffff84161480159061292257506040517fc161c93f00000000000000000000000000000000000000000000000000000000815233600482015273ffffffffffffffffffffffffffffffffffffffff848116602483015260448201849052606482018390527f0000000000000000000000000000000000000000000000000000000000000000169063c161c93f9060840160206040518083038186803b1580156128e857600080fd5b505afa1580156128fc573d6000803e3d6000fd5b505050506040513d601f19601f8201168201806040525081019061292091906150e7565b155b80156129fe57506040517fc161c93f00000000000000000000000000000000000000000000000000000000815233600482015273ffffffffffffffffffffffffffffffffffffffff848116602483015260006044830152606482018390527f0000000000000000000000000000000000000000000000000000000000000000169063c161c93f9060840160206040518083038186803b1580156129c457600080fd5b505afa1580156129d8573d6000803e3d6000fd5b505050506040513d601f19601f820116820180604052508101906129fc91906150e7565b155b15612a35576040517f075fd2b100000000000000000000000000000000000000000000000000000000815260040160405180910390fd5b505050565b6040517f095ea7b300000000000000000000000000000000000000000000000000000000815273ffffffffffffffffffffffffffffffffffffffff8381166004830152602482018390527f0000000000000000000000000000000000000000000000000000000000000000169063095ea7b390604401602060405180830381600087803b158015612aca57600080fd5b505af1158015612ade573d6000803e3d6000fd5b505050506040513d601f19601f82011682018060405250810190612a3591906150e7565b60005473ffffffffffffffffffffffffffffffffffffffff1633146112c9576040517f08c379a000000000000000000000000000000000000000000000000000000000815260206004820181905260248201527f4f776e61626c653a2063616c6c6572206973206e6f7420746865206f776e65726044820152606401611b62565b6000805473ffffffffffffffffffffffffffffffffffffffff8381167fffffffffffffffffffffffff0000000000000000000000000000000000000000831681178455604051919092169283917f8be0079c531659141344cd1fd0a4f28419497f9722a3daafe3b4186f6b6457e09190a35050565b80158015612c1c57503373ffffffffffffffffffffffffffffffffffffffff851614155b8015612cf857506040517fc161c93f00000000000000000000000000000000000000000000000000000000815233600482015273ffffffffffffffffffffffffffffffffffffffff858116602483015260448201859052606482018490527f0000000000000000000000000000000000000000000000000000000000000000169063c161c93f9060840160206040518083038186803b158015612cbe57600080fd5b505afa158015612cd2573d6000803e3d6000fd5b505050506040513d601f19601f82011682018060405250810190612cf691906150e7565b155b8015612dd457506040517fc161c93f00000000000000000000000000000000000000000000000000000000815233600482015273ffffffffffffffffffffffffffffffffffffffff858116602483015260006044830152606482018490527f0000000000000000000000000000000000000000000000000000000000000000169063c161c93f9060840160206040518083038186803b158015612d9a57600080fd5b505afa158015612dae573d6000803e3d6000fd5b505050506040513d601f19601f82011682018060405250810190612dd291906150e7565b155b15611e34576040517f075fd2b100000000000000000000000000000000000000000000000000000000815260040160405180910390fd5b600080612e1d8484633b9aca00613126565b612e279085615e21565b9050612e3c85633b9aca006119bb8185615c6a565b612e469086615e21565b9150505b9392505050565b6040517f862026500000000000000000000000000000000000000000000000000000000081526001600482015273ffffffffffffffffffffffffffffffffffffffff7f0000000000000000000000000000000000000000000000000000000000000000811660248301526000917f00000000000000000000000000000000000000000000000000000000000000009091169063862026509060440160206040518083038186803b158015612f0457600080fd5b505afa158015612f18573d6000803e3d6000fd5b505050506040513d601f19601f82011682018060405250810190612f3c9190614e86565b905073ffffffffffffffffffffffffffffffffffffffff8116301415612f8c57611e3483306001856000806040518060200160405280600081525060405180602001604052806000815250611f51565b612f968184612a3a565b60007f000000000000000000000000000000000000000000000000000000000000000073ffffffffffffffffffffffffffffffffffffffff1661eeee14612fde576000612fe0565b835b60408051602081018252600080825291517f1ebc263f00000000000000000000000000000000000000000000000000000000815292935073ffffffffffffffffffffffffffffffffffffffff851692631ebc263f92859261306f926001928b927f0000000000000000000000000000000000000000000000000000000000000000928c92918291600401615a77565b6020604051808303818588803b15801561308857600080fd5b505af115801561309c573d6000803e3d6000fd5b50505050506040513d601f19601f820116820180604052508101906130c191906151fe565b5050505050565b6000828214156130d9575082612e4a565b82821115613107576130eb8383615e21565b6130f690600a615d1e565b6131009085615de4565b9050612e4a565b6131118284615e21565b61311c90600a615d1e565b6131009085615c82565b600080807fffffffffffffffffffffffffffffffffffffffffffffffffffffffffffffffff858709858702925082811083820303915050806000141561317f5783828161317557613175615e93565b0492505050612e4a565b8381106131c2576040517f773cc18c0000000000000000000000000000000000000000000000000000000081526004810182905260248101859052604401611b62565b60008486880960026001871981018816978890046003810283188082028403028082028403028082028403028082028403028082028403029081029092039091026000889003889004909101858311909403939093029303949094049190911702949350505050565b6040517f253867150000000000000000000000000000000000000000000000000000000081526004810187905260248101869052604481018590526000908190819073ffffffffffffffffffffffffffffffffffffffff7f0000000000000000000000000000000000000000000000000000000000000000169063253867159060640161014060405180830381600087803b1580156132c957600080fd5b505af11580156132dd573d6000803e3d6000fd5b505050506040513d601f19601f820116820180604052508101906133019190615146565b915091508581101561333f576040517fb01493c100000000000000000000000000000000000000000000000000000000815260040160405180910390fd5b6040517f6352211e000000000000000000000000000000000000000000000000000000008152600481018a9052600090819073ffffffffffffffffffffffffffffffffffffffff7f00000000000000000000000000000000000000000000000000000000000000001690636352211e9060240160206040518083038186803b1580156133ca57600080fd5b505afa1580156133de573d6000803e3d6000fd5b505050506040513d601f19601f820116820180604052508101906134029190614e86565b905060006003546000148061342657503360009081526005602052604090205460ff165b613438576134338c613ed5565b61343e565b633b9aca005b9050633b9aca00811461345d576134588c86868585614ad2565b613460565b60005b8085039650925083831461347957613479308988611c7a565b50505088826000015183602001517f8657a0c05a68a912c23c1bd00124afaa8c669063b046bd9bfd22b21d573c5e6d888c86898b336040516134c09695949392919061569a565b60405180910390a450509695505050505050565b600073ffffffffffffffffffffffffffffffffffffffff8416613523576040517ff74a1b6600000000000000000000000000000000000000000000000000000000815260040160405180910390fd5b61358860405180610120016040528060008152602001600081526020016000815260200160008152602001600081526020016000815260200160008152602001600073ffffffffffffffffffffffffffffffffffffffff168152602001600081525090565b6040517fa2df1f9500000000000000000000000000000000000000000000000000000000815260009073ffffffffffffffffffffffffffffffffffffffff7f0000000000000000000000000000000000000000000000000000000000000000169063a2df1f9590613605908d908d908d908b908b9060040161589d565b600060405180830381600087803b15801561361f57600080fd5b505af1158015613633573d6000803e3d6000fd5b505050506040513d6000823e601f3d9081017fffffffffffffffffffffffffffffffffffffffffffffffffffffffffffffffe01682016040526136799190810190615175565b97509094509092509050868310156136bd576040517ff896960b00000000000000000000000000000000000000000000000000000000815260040160405180910390fd5b8715613828576040517f5dd8f6aa000000000000000000000000000000000000000000000000000000008152600481018a90527f000000000000000000000000000000000000000000000000000000000000000073ffffffffffffffffffffffffffffffffffffffff1690635dd8f6aa9060240160206040518083038186803b15801561374957600080fd5b505afa15801561375d573d6000803e3d6000fd5b505050506040513d601f19601f820116820180604052508101906137819190614e86565b6040517f1665bc0f00000000000000000000000000000000000000000000000000000000815273ffffffffffffffffffffffffffffffffffffffff8c81166004830152602482018c9052604482018b905260a06064830152600060a4830181905260848301529190911690631665bc0f9060c401600060405180830381600087803b15801561380f57600080fd5b505af1158015613823573d6000803e3d6000fd5b505050505b73ffffffffffffffffffffffffffffffffffffffff811615613a055760006040518061010001604052808c73ffffffffffffffffffffffffffffffffffffffff1681526020018b8152602001846020015181526020018a815260200160405180608001604052807f000000000000000000000000000000000000000000000000000000000000000073ffffffffffffffffffffffffffffffffffffffff1681526020018781526020017f000000000000000000000000000000000000000000000000000000000000000081526020017f000000000000000000000000000000000000000000000000000000000000000081525081526020018873ffffffffffffffffffffffffffffffffffffffff1681526020018781526020018681525090508173ffffffffffffffffffffffffffffffffffffffff16632400e8f7826040518263ffffffff1660e01b815260040161398191906159b8565b600060405180830381600087803b15801561399b57600080fd5b505af11580156139af573d6000803e3d6000fd5b505050508173ffffffffffffffffffffffffffffffffffffffff167fb5f35105f7321aaa2c0eae1a660fb9bc9624fceaa75a04a3dd171a1fe303edae82336040516139fb9291906159cb565b60405180910390a2505b508115613a1757613a17308684611c7a565b87816000015182602001517f2be10f2a0203c77d0fcaa9fd6484a8a1d6904de31cd820587f60c1c8c338c8148c898c888b8b33604051613a5d9796959493929190615781565b60405180910390a450979650505050505050565b600082815260026020908152604080832080548251818502810185019093528083528493849084015b82821015613b1957600084815260209081902060408051608081018252600286029092018054835260019081015463ffffffff80821685870152640100000000820416928401929092526801000000000000000090910473ffffffffffffffffffffffffffffffffffffffff1660608301529083529092019101613a9a565b5050506000868152600260205260408120929350613b38929150614c9b565b8051839060005b81811015613e8d5782613c395760008781526002602052604090208451859083908110613b6e57613b6e615ec2565b602090810291909101810151825460018181018555600094855293839020825160029092020190815591810151919092018054604084015160609094015173ffffffffffffffffffffffffffffffffffffffff1668010000000000000000027fffffffff0000000000000000000000000000000000000000ffffffffffffffff63ffffffff958616640100000000027fffffffffffffffffffffffffffffffffffffffffffffffff000000000000000090931695909416949094171791909116919091179055613e85565b838181518110613c4b57613c4b615ec2565b6020026020010151600001518310613cdf57838181518110613c6f57613c6f615ec2565b60200260200101516000015183039250613cd6848281518110613c9457613c94615ec2565b602002602001015160000151858381518110613cb257613cb2615ec2565b60200260200101516020015163ffffffff168684815181106115aa576115aa615ec2565b85019450613e85565b60026000888152602001908152602001600020604051806080016040528085878581518110613d1057613d10615ec2565b602002602001015160000151613d269190615e21565b8152602001868481518110613d3d57613d3d615ec2565b60200260200101516020015163ffffffff168152602001868481518110613d6657613d66615ec2565b60200260200101516040015163ffffffff168152602001868481518110613d8f57613d8f615ec2565b60209081029190910181015160609081015173ffffffffffffffffffffffffffffffffffffffff9081169093528454600181810187556000968752958390208551600290920201908155918401519190940180546040850151949095015190921668010000000000000000027fffffffff0000000000000000000000000000000000000000ffffffffffffffff63ffffffff948516640100000000027fffffffffffffffffffffffffffffffffffffffffffffffff0000000000000000909616949092169390931793909317929092161790558351613e7c908490869084908110613cb257613cb2615ec2565b85019450600092505b600101613b3f565b50604080518381523360208201528591879189917f59860d79d97c1fce2be7f987915c631471f4b08f671200463cc40a3380194ffb910160405180910390a450505092915050565b6040517f862026500000000000000000000000000000000000000000000000000000000081526001600482015273ffffffffffffffffffffffffffffffffffffffff7f00000000000000000000000000000000000000000000000000000000000000008116602483015260009182917f0000000000000000000000000000000000000000000000000000000000000000169063862026509060440160206040518083038186803b158015613f8857600080fd5b505afa158015613f9c573d6000803e3d6000fd5b505050506040513d601f19601f82011682018060405250810190613fc09190614e86565b73ffffffffffffffffffffffffffffffffffffffff161415613fe75750633b9aca00919050565b60045473ffffffffffffffffffffffffffffffffffffffff1661400c575060006140d1565b600480546040517f7769589600000000000000000000000000000000000000000000000000000000815291820184905273ffffffffffffffffffffffffffffffffffffffff169063776958969060240160206040518083038186803b15801561407457600080fd5b505afa9250505080156140c2575060408051601f3d9081017fffffffffffffffffffffffffffffffffffffffffffffffffffffffffffffffe01682019092526140bf918101906151fe565b60015b6140ce575060006140d1565b90505b633b9aca008111156140e1575060005b919050565b6040517f69e11cc5000000000000000000000000000000000000000000000000000000008152600481018690526024810185905260448101849052829060009081907f000000000000000000000000000000000000000000000000000000000000000073ffffffffffffffffffffffffffffffffffffffff16906369e11cc59060640160006040518083038186803b15801561418157600080fd5b505afa158015614195573d6000803e3d6000fd5b505050506040513d6000823e601f3d9081017fffffffffffffffffffffffffffffffffffffffffffffffffffffffffffffffe01682016040526141db9190810190614fc1565b905060005b8151811015614ac65760008282815181106141fd576141fd615ec2565b60200260200101519050600061421c888360400151633b9aca00613126565b905060008115614a7a5760c083015173ffffffffffffffffffffffffffffffffffffffff16156144a05760c083015173ffffffffffffffffffffffffffffffffffffffff1660009081526005602052604090205460ff161561427f5750806142af565b633b9aca00881461429e57614297826003548a612e0b565b82036142a0565b815b90506142ac8287615c6a565b95505b6142bd8360c0015182612a3a565b60007f000000000000000000000000000000000000000000000000000000000000000073ffffffffffffffffffffffffffffffffffffffff1661eeee14614305576000614307565b815b905060006040518060c001604052807f000000000000000000000000000000000000000000000000000000000000000073ffffffffffffffffffffffffffffffffffffffff1681526020018481526020017f000000000000000000000000000000000000000000000000000000000000000081526020018f81526020018d81526020018681525090508460c0015173ffffffffffffffffffffffffffffffffffffffff16639d740bfa83836040518363ffffffff1660e01b81526004016144679190815173ffffffffffffffffffffffffffffffffffffffff90811682526020808401518184015260408085015181850152606080860151818601526080808701518187015260a096870151805115158888015293840151151560c0808801919091529284015160e08701529083015161010086015282015183166101208501529381015161014084015292909201519091166101608201526101800190565b6000604051808303818588803b15801561448057600080fd5b505af1158015614494573d6000803e3d6000fd5b50505050505050614a74565b6060830151156149f65760608301516040517f8620265000000000000000000000000000000000000000000000000000000000815260009173ffffffffffffffffffffffffffffffffffffffff7f00000000000000000000000000000000000000000000000000000000000000001691638620265091614563917f00000000000000000000000000000000000000000000000000000000000000009060040191825273ffffffffffffffffffffffffffffffffffffffff16602082015260400190565b60206040518083038186803b15801561457b57600080fd5b505afa15801561458f573d6000803e3d6000fd5b505050506040513d601f19601f820116820180604052508101906145b39190614e86565b905073ffffffffffffffffffffffffffffffffffffffff8116614602576040517f6921234300000000000000000000000000000000000000000000000000000000815260040160405180910390fd5b73ffffffffffffffffffffffffffffffffffffffff811630141561470c576040805160208082528183019092528493506000916020820181803683370190505090508d60405160200161465791815260200190565b60405160208183030381529060405290508460200151156146985761469385606001518460006040518060200160405280600081525085611e3a565b614706565b61470483308760600151600073ffffffffffffffffffffffffffffffffffffffff16896080015173ffffffffffffffffffffffffffffffffffffffff1614156146e157336146e7565b88608001515b60008a600001516040518060200160405280600081525088611f51565b505b506149f0565b73ffffffffffffffffffffffffffffffffffffffff811660009081526005602052604090205460ff161561474257829150614772565b633b9aca0089146147615761475a836003548b612e0b565b8303614763565b825b915061476f8388615c6a565b96505b61477c8183612a3a565b60007f000000000000000000000000000000000000000000000000000000000000000073ffffffffffffffffffffffffffffffffffffffff1661eeee146147c45760006147c6565b825b604080516020808252818301909252919250600091906020820181803683370190505090508e6040516020016147fe91815260200190565b60405160208183030381529060405290508560200151156148cd5760608601516040517f0cf8e85800000000000000000000000000000000000000000000000000000000815273ffffffffffffffffffffffffffffffffffffffff851691630cf8e8589185916148969189907f0000000000000000000000000000000000000000000000000000000000000000908890600401615adb565b6000604051808303818588803b1580156148af57600080fd5b505af11580156148c3573d6000803e3d6000fd5b50505050506149ed565b8273ffffffffffffffffffffffffffffffffffffffff16631ebc263f838860600151877f0000000000000000000000000000000000000000000000000000000000000000600073ffffffffffffffffffffffffffffffffffffffff168c6080015173ffffffffffffffffffffffffffffffffffffffff1614156149505733614956565b8b608001515b8c516040517fffffffff0000000000000000000000000000000000000000000000000000000060e089901b16815261499995949392916000918b90600401615a77565b6020604051808303818588803b1580156149b257600080fd5b505af11580156149c6573d6000803e3d6000fd5b50505050506040513d601f19601f820116820180604052508101906149eb91906151fe565b505b50505b50614a74565b633b9aca008814614a1557614a0e826003548a612e0b565b8203614a17565b815b9050614a238287615c6a565b9550614a7430600073ffffffffffffffffffffffffffffffffffffffff16856080015173ffffffffffffffffffffffffffffffffffffffff161415614a685733614a6e565b84608001515b83611c7a565b81870396505b898b8d7f2a1f2df21da49f011c6165709ae4b279f8d6d7cffe9043c582352882d8c9698b868533604051614ab0939291906159de565b60405180910390a48360010193505050506141e0565b50509550959350505050565b6000614ae18460035484612e0b565b61010086015190915060501c60019081161415614c3257600086815260026020818152604080842081516080810183528981526003805463ffffffff9081168387019081528a821684870190815273ffffffffffffffffffffffffffffffffffffffff8d81166060808801828152895460018082018c559a8f529d8c902098519d909c029097019b8c5592519a90960180549151995190961668010000000000000000027fffffffff0000000000000000000000000000000000000000ffffffffffffffff998416640100000000027fffffffffffffffffffffffffffffffffffffffffffffffff00000000000000009092169a9093169990991798909817969096169590951790915592548151878152928301949094523390820152869189917f77813be0661650ddc1a5193ff2837df4162b251cb432651e2c060c3fc39756be910160405180910390a4614c92565b614c3c8184612e51565b6040805173ffffffffffffffffffffffffffffffffffffffff85168152336020820152600091839189917fcf0c92a2c6d7c42f488326b0cb900104b99984b6b218db81cd29371364a35251910160405180910390a45b95945050505050565b5080546000825560020290600052602060002090810190611b7491905b80821115614cf657600081556001810180547fffffffff00000000000000000000000000000000000000000000000000000000169055600201614cb8565b5090565b60008083601f840112614d0c57600080fd5b50813567ffffffffffffffff811115614d2457600080fd5b602083019150836020828501011115614d3c57600080fd5b9250929050565b600082601f830112614d5457600080fd5b8135614d67614d6282615c24565b615bd5565b818152846020838601011115614d7c57600080fd5b816020850160208301376000918101602001919091529392505050565b80516140e181615f20565b600082601f830112614db557600080fd5b8151614dc3614d6282615c24565b818152846020838601011115614dd857600080fd5b6119c7826020830160208701615e38565b60006101208284031215614dfc57600080fd5b614e04615b88565b9050815181526020820151602082015260408201516040820152606082015160608201526080820151608082015260a082015160a082015260c082015160c0820152614e5260e08301614d99565b60e082015261010080830151818301525092915050565b600060208284031215614e7b57600080fd5b8135612e4a81615f20565b600060208284031215614e9857600080fd5b8151612e4a81615f20565b60008060408385031215614eb657600080fd5b8235614ec181615f20565b91506020830135614ed181615f42565b809150509250929050565b60008060408385031215614eef57600080fd5b8235614efa81615f20565b946020939093013593505050565b600080600080600080600080610100898b031215614f2557600080fd5b8835614f3081615f20565b975060208901359650604089013595506060890135614f4e81615f20565b94506080890135935060a0890135614f6581615f20565b925060c089013567ffffffffffffffff80821115614f8257600080fd5b614f8e8c838d01614d43565b935060e08b0135915080821115614fa457600080fd5b50614fb18b828c01614d43565b9150509295985092959890939650565b60006020808385031215614fd457600080fd5b825167ffffffffffffffff80821115614fec57600080fd5b818501915085601f83011261500057600080fd5b81518181111561501257615012615ef1565b615020848260051b01615bd5565b818152848101925083850160e0808402860187018a101561504057600080fd5b60009550855b848110156150d85781838c03121561505c578687fd5b615064615bb2565b835161506f81615f42565b81528389015161507e81615f42565b818a015260408481015190820152606080850151908201526080808501516150a581615f20565b9082015260a0848101519082015260c0808501516150c281615f20565b9082015286529487019491810191600101615046565b50919998505050505050505050565b6000602082840312156150f957600080fd5b8151612e4a81615f42565b60006020828403121561511657600080fd5b81357fffffffff0000000000000000000000000000000000000000000000000000000081168114612e4a57600080fd5b600080610140838503121561515a57600080fd5b6151648484614de9565b915061012083015190509250929050565b600080600080610180858703121561518c57600080fd5b6151968686614de9565b935061012085015192506101408501516151af81615f20565b61016086015190925067ffffffffffffffff8111156151cd57600080fd5b6151d987828801614da4565b91505092959194509250565b6000602082840312156151f757600080fd5b5035919050565b60006020828403121561521057600080fd5b5051919050565b6000806040838503121561522a57600080fd5b823591506020830135614ed181615f20565b6000806000806000806000806000806101008b8d03121561525c57600080fd5b8a35995060208b0135985060408b013561527581615f20565b975060608b013561528581615f20565b965060808b0135955060a08b013561529c81615f42565b945060c08b013567ffffffffffffffff808211156152b957600080fd5b6152c58e838f01614cfa565b909650945060e08d01359150808211156152de57600080fd5b506152eb8d828e01614cfa565b915080935050809150509295989b9194979a5092959850565b600080600080600080600060a0888a03121561531f57600080fd5b8735965060208801359550604088013561533881615f20565b9450606088013567ffffffffffffffff8082111561535557600080fd5b6153618b838c01614cfa565b909650945060808a013591508082111561537a57600080fd5b506153878a828b01614cfa565b989b979a50959850939692959293505050565b600080600080600080600060e0888a0312156153b557600080fd5b87359650602088013595506040880135945060608801356153d581615f20565b93506080880135925060a08801356153ec81615f20565b915060c088013567ffffffffffffffff81111561540857600080fd5b6154148a828b01614d43565b91505092959891949750929550565b600080600080600080600060c0888a03121561543e57600080fd5b873596506020880135955060408801359450606088013561545e81615f20565b93506080880135925060a088013567ffffffffffffffff81111561548157600080fd5b6153878a828b01614cfa565b600081518084526154a5816020860160208601615e38565b601f017fffffffffffffffffffffffffffffffffffffffffffffffffffffffffffffffe0169290920160200192915050565b805173ffffffffffffffffffffffffffffffffffffffff16825260006101806020838101518582015260408085015181870152606080860151805173ffffffffffffffffffffffffffffffffffffffff16828901529283015160808801529082015160a087015281015160c086015250608083015160e085015260a083015161010061557a8187018373ffffffffffffffffffffffffffffffffffffffff169052565b60c0850151151561012087015260e0850151610140870184905291506155a28387018361548d565b925080850151915050848203610160860152614c92828261548d565b600061016073ffffffffffffffffffffffffffffffffffffffff83511684526020830151602085015260408301516040850152606083015160608501526080830151615644608086018273ffffffffffffffffffffffffffffffffffffffff81511682526020810151602083015260408101516040830152606081015160608301525050565b5060a083015173ffffffffffffffffffffffffffffffffffffffff1661010085015260c0830151610120850182905261567f8286018261548d565b91505060e0830151848203610140860152614c92828261548d565b600073ffffffffffffffffffffffffffffffffffffffff808916835287602084015286604084015285606084015260c060808401526156dc60c084018661548d565b915080841660a084015250979650505050505050565b600073ffffffffffffffffffffffffffffffffffffffff808b16835289602084015288604084015287606084015286608084015260e060a08401528460e08401526101008587828601376000848701820152931660c083015250601f9092017fffffffffffffffffffffffffffffffffffffffffffffffffffffffffffffffe016909101019695505050505050565b600073ffffffffffffffffffffffffffffffffffffffff808a168352808916602084015287604084015286606084015260e060808401526157c560e084018761548d565b83810360a08501526157d7818761548d565b92505080841660c08401525098975050505050505050565b600061014073ffffffffffffffffffffffffffffffffffffffff808b168452615852602085018b73ffffffffffffffffffffffffffffffffffffffff81511682526020810151602083015260408101516040830152606081015160608301525050565b8860a08501528760c085015280871660e0850152508061010084015261587a8184018661548d565b905082810361012084015261588f818561548d565b9a9950505050505050505050565b73ffffffffffffffffffffffffffffffffffffffff8616815284602082015283604082015260a0606082015260006158d860a083018561548d565b8281036080840152610da6818561548d565b602080825282518282018190526000919060409081850190868401855b82811015615960578151805185528681015163ffffffff9081168887015286820151168686015260609081015173ffffffffffffffffffffffffffffffffffffffff169085015260809093019290850190600101615907565b5091979650505050505050565b602081526000612e4a60208301846154d7565b60408152600061599360408301856154d7565b905073ffffffffffffffffffffffffffffffffffffffff831660208301529392505050565b602081526000612e4a60208301846155be565b60408152600061599360408301856155be565b6101208101615a4c82868051151582526020810151151560208301526040810151604083015260608101516060830152608081015173ffffffffffffffffffffffffffffffffffffffff808216608085015260a083015160a08501528060c08401511660c085015250505050565b8360e083015273ffffffffffffffffffffffffffffffffffffffff8316610100830152949350505050565b600061010089835288602084015273ffffffffffffffffffffffffffffffffffffffff808916604085015280881660608501525085608084015284151560a08401528060c0840152600081840152506101208060e084015261588f8184018561548d565b84815283602082015273ffffffffffffffffffffffffffffffffffffffff8316604082015260a06060820152600060a082015260c060808201526000615b2460c083018461548d565b9695505050505050565b85815284602082015260a060408201526000615b4d60a083018661548d565b8281036060840152615b5f818661548d565b91505073ffffffffffffffffffffffffffffffffffffffff831660808301529695505050505050565b604051610120810167ffffffffffffffff81118282101715615bac57615bac615ef1565b60405290565b60405160e0810167ffffffffffffffff81118282101715615bac57615bac615ef1565b604051601f82017fffffffffffffffffffffffffffffffffffffffffffffffffffffffffffffffe016810167ffffffffffffffff81118282101715615c1c57615c1c615ef1565b604052919050565b600067ffffffffffffffff821115615c3e57615c3e615ef1565b50601f017fffffffffffffffffffffffffffffffffffffffffffffffffffffffffffffffe01660200190565b60008219821115615c7d57615c7d615e64565b500190565b600082615cb8577f4e487b7100000000000000000000000000000000000000000000000000000000600052601260045260246000fd5b500490565b600181815b80851115615d1657817fffffffffffffffffffffffffffffffffffffffffffffffffffffffffffffffff04821115615cfc57615cfc615e64565b80851615615d0957918102915b93841c9390800290615cc2565b509250929050565b6000612e4a8383600082615d3457506001610950565b81615d4157506000610950565b8160018114615d575760028114615d6157615d7d565b6001915050610950565b60ff841115615d7257615d72615e64565b50506001821b610950565b5060208310610133831016604e8410600b8410161715615da0575081810a610950565b615daa8383615cbd565b807fffffffffffffffffffffffffffffffffffffffffffffffffffffffffffffffff04821115615ddc57615ddc615e64565b029392505050565b6000817fffffffffffffffffffffffffffffffffffffffffffffffffffffffffffffffff0483118215151615615e1c57615e1c615e64565b500290565b600082821015615e3357615e33615e64565b500390565b60005b83811015615e53578181015183820152602001615e3b565b83811115611e345750506000910152565b7f4e487b7100000000000000000000000000000000000000000000000000000000600052601160045260246000fd5b7f4e487b7100000000000000000000000000000000000000000000000000000000600052601260045260246000fd5b7f4e487b7100000000000000000000000000000000000000000000000000000000600052603260045260246000fd5b7f4e487b7100000000000000000000000000000000000000000000000000000000600052604160045260246000fd5b73ffffffffffffffffffffffffffffffffffffffff81168114611b7457600080fd5b8015158114611b7457600080fdfea2646970667358221220b63985a9c9ffcce19e1576102955dedb6c7077e8437c60cf3c2efa08657bdddb64736f6c63430008060033",
    "linkReferences": {}
  },
  "methodIdentifiers": {
    "acceptsToken(address,uint256)": "df21a7dd",
    "addToBalanceOf(uint256,uint256,address,string,bytes)": "0cf8e858",
    "baseWeightCurrency()": "2d1a5903",
    "currency()": "e5a6b10f",
    "currencyForToken(address)": "1982d679",
    "currentEthOverflowOf(uint256)": "a32e1e96",
    "decimals()": "313ce567",
    "decimalsForToken(address)": "b7bad1b1",
    "directory()": "c41c2f24",
    "distributePayoutsOf(uint256,uint256,uint256,address,uint256,string)": "2b267b4e",
    "fee()": "ddca3f43",
    "feeGauge()": "d6dacc53",
    "heldFeesOf(uint256)": "8af56094",
    "isFeelessAddress(address)": "b631b500",
    "migrate(uint256,address)": "405b84fa",
    "operatorStore()": "ad007d63",
    "owner()": "8da5cb5b",
    "pay(uint256,uint256,address,address,uint256,bool,string,bytes)": "1ebc263f",
    "payoutSplitsGroup()": "66248b86",
    "prices()": "d3419bf3",
    "processFees(uint256)": "89701db5",
    "projects()": "8b79543c",
    "redeemTokensOf(address,uint256,uint256,address,uint256,address,string,bytes)": "fe663f0f",
    "renounceOwnership()": "715018a6",
    "setFee(uint256)": "69fe0e2d",
    "setFeeGauge(address)": "637913ac",
    "setFeelessAddress(address,bool)": "7258002c",
    "splitsStore()": "2bdfe004",
    "store()": "975057e7",
    "supportsInterface(bytes4)": "01ffc9a7",
    "token()": "fc0c546a",
    "transferOwnership(address)": "f2fde38b",
    "useAllowanceOf(uint256,uint256,uint256,address,uint256,address,string)": "bc8926e9"
  },
  "id": 45
}