{
  "abi": [
    {
      "inputs": [
        {
          "internalType": "contract IProjects",
          "name": "_projects",
          "type": "address"
        },
        {
          "internalType": "contract IFundingCycles",
          "name": "_fundingCycles",
          "type": "address"
        },
        {
          "internalType": "contract ITicketBooth",
          "name": "_ticketBooth",
          "type": "address"
        },
        {
          "internalType": "contract IOperatorStore",
          "name": "_operatorStore",
          "type": "address"
        },
        {
          "internalType": "contract IModStore",
          "name": "_modStore",
          "type": "address"
        },
        {
          "internalType": "contract IPrices",
          "name": "_prices",
          "type": "address"
        },
        {
          "internalType": "contract ITerminalDirectory",
          "name": "_terminalDirectory",
          "type": "address"
        },
        {
          "internalType": "address",
          "name": "_owner",
          "type": "address"
        }
      ],
      "stateMutability": "nonpayable",
      "type": "constructor"
    },
    {
      "inputs": [
        {
          "internalType": "uint256",
          "name": "prod1",
          "type": "uint256"
        }
      ],
      "name": "PRBMath__MulDivFixedPointOverflow",
      "type": "error"
    },
    {
      "inputs": [
        {
          "internalType": "uint256",
          "name": "prod1",
          "type": "uint256"
        },
        {
          "internalType": "uint256",
          "name": "denominator",
          "type": "uint256"
        }
      ],
      "name": "PRBMath__MulDivOverflow",
      "type": "error"
    },
    {
      "anonymous": false,
      "inputs": [
        {
          "indexed": true,
          "internalType": "uint256",
          "name": "projectId",
          "type": "uint256"
        },
        {
          "indexed": false,
          "internalType": "uint256",
          "name": "value",
          "type": "uint256"
        },
        {
          "indexed": false,
          "internalType": "address",
          "name": "caller",
          "type": "address"
        }
      ],
      "name": "AddToBalance",
      "type": "event"
    },
    {
      "anonymous": false,
      "inputs": [
        {
          "indexed": false,
          "internalType": "contract ITerminal",
          "name": "allowed",
          "type": "address"
        }
      ],
      "name": "AllowMigration",
      "type": "event"
    },
    {
      "anonymous": false,
      "inputs": [
        {
          "indexed": true,
          "internalType": "uint256",
          "name": "fundingCycleId",
          "type": "uint256"
        },
        {
          "indexed": true,
          "internalType": "uint256",
          "name": "projectId",
          "type": "uint256"
        },
        {
          "indexed": false,
          "internalType": "address",
          "name": "caller",
          "type": "address"
        }
      ],
      "name": "Configure",
      "type": "event"
    },
    {
      "anonymous": false,
      "inputs": [
        {
          "indexed": false,
          "internalType": "uint256",
          "name": "amount",
          "type": "uint256"
        }
      ],
      "name": "Deposit",
      "type": "event"
    },
    {
      "anonymous": false,
      "inputs": [
        {
          "indexed": true,
          "internalType": "uint256",
          "name": "fundingCycleId",
          "type": "uint256"
        },
        {
          "indexed": true,
          "internalType": "uint256",
          "name": "projectId",
          "type": "uint256"
        },
        {
          "components": [
            {
              "internalType": "bool",
              "name": "preferUnstaked",
              "type": "bool"
            },
            {
              "internalType": "uint16",
              "name": "percent",
              "type": "uint16"
            },
            {
              "internalType": "uint48",
              "name": "lockedUntil",
              "type": "uint48"
            },
            {
              "internalType": "address payable",
              "name": "beneficiary",
              "type": "address"
            },
            {
              "internalType": "contract IModAllocator",
              "name": "allocator",
              "type": "address"
            },
            {
              "internalType": "uint56",
              "name": "projectId",
              "type": "uint56"
            }
          ],
          "indexed": false,
          "internalType": "struct PayoutMod",
          "name": "mod",
          "type": "tuple"
        },
        {
          "indexed": false,
          "internalType": "uint256",
          "name": "modCut",
          "type": "uint256"
        },
        {
          "indexed": false,
          "internalType": "address",
          "name": "caller",
          "type": "address"
        }
      ],
      "name": "DistributeToPayoutMod",
      "type": "event"
    },
    {
      "anonymous": false,
      "inputs": [
        {
          "indexed": true,
          "internalType": "uint256",
          "name": "fundingCycleId",
          "type": "uint256"
        },
        {
          "indexed": true,
          "internalType": "uint256",
          "name": "projectId",
          "type": "uint256"
        },
        {
          "components": [
            {
              "internalType": "bool",
              "name": "preferUnstaked",
              "type": "bool"
            },
            {
              "internalType": "uint16",
              "name": "percent",
              "type": "uint16"
            },
            {
              "internalType": "uint48",
              "name": "lockedUntil",
              "type": "uint48"
            },
            {
              "internalType": "address payable",
              "name": "beneficiary",
              "type": "address"
            }
          ],
          "indexed": false,
          "internalType": "struct TicketMod",
          "name": "mod",
          "type": "tuple"
        },
        {
          "indexed": false,
          "internalType": "uint256",
          "name": "modCut",
          "type": "uint256"
        },
        {
          "indexed": false,
          "internalType": "address",
          "name": "caller",
          "type": "address"
        }
      ],
      "name": "DistributeToTicketMod",
      "type": "event"
    },
    {
      "anonymous": false,
      "inputs": [
        {
          "indexed": false,
          "internalType": "uint256",
          "name": "target",
          "type": "uint256"
        }
      ],
      "name": "EnsureTargetLocalWei",
      "type": "event"
    },
    {
      "anonymous": false,
      "inputs": [
        {
          "indexed": true,
          "internalType": "uint256",
          "name": "projectId",
          "type": "uint256"
        },
        {
          "indexed": true,
          "internalType": "contract ITerminal",
          "name": "to",
          "type": "address"
        },
        {
          "indexed": false,
          "internalType": "uint256",
          "name": "_amount",
          "type": "uint256"
        },
        {
          "indexed": false,
          "internalType": "address",
          "name": "caller",
          "type": "address"
        }
      ],
      "name": "Migrate",
      "type": "event"
    },
    {
      "anonymous": false,
      "inputs": [
        {
          "indexed": true,
          "internalType": "address",
          "name": "previousOwner",
          "type": "address"
        },
        {
          "indexed": true,
          "internalType": "address",
          "name": "newOwner",
          "type": "address"
        }
      ],
      "name": "OwnershipTransferred",
      "type": "event"
    },
    {
      "anonymous": false,
      "inputs": [
        {
          "indexed": true,
          "internalType": "uint256",
          "name": "fundingCycleId",
          "type": "uint256"
        },
        {
          "indexed": true,
          "internalType": "uint256",
          "name": "projectId",
          "type": "uint256"
        },
        {
          "indexed": true,
          "internalType": "address",
          "name": "beneficiary",
          "type": "address"
        },
        {
          "indexed": false,
          "internalType": "uint256",
          "name": "amount",
          "type": "uint256"
        },
        {
          "indexed": false,
          "internalType": "uint256",
          "name": "beneficiaryTokens",
          "type": "uint256"
        },
        {
          "indexed": false,
          "internalType": "uint256",
          "name": "totalTokens",
          "type": "uint256"
        },
        {
          "indexed": false,
          "internalType": "string",
          "name": "note",
          "type": "string"
        },
        {
          "indexed": false,
          "internalType": "address",
          "name": "caller",
          "type": "address"
        }
      ],
      "name": "Pay",
      "type": "event"
    },
    {
      "anonymous": false,
      "inputs": [
        {
          "indexed": true,
          "internalType": "uint256",
          "name": "fundingCycleId",
          "type": "uint256"
        },
        {
          "indexed": true,
          "internalType": "uint256",
          "name": "projectId",
          "type": "uint256"
        },
        {
          "indexed": true,
          "internalType": "address",
          "name": "beneficiary",
          "type": "address"
        },
        {
          "indexed": false,
          "internalType": "uint256",
          "name": "count",
          "type": "uint256"
        },
        {
          "indexed": false,
          "internalType": "uint256",
          "name": "beneficiaryTicketAmount",
          "type": "uint256"
        },
        {
          "indexed": false,
          "internalType": "address",
          "name": "caller",
          "type": "address"
        }
      ],
      "name": "PrintReserveTickets",
      "type": "event"
    },
    {
      "anonymous": false,
      "inputs": [
        {
          "indexed": true,
          "internalType": "uint256",
          "name": "projectId",
          "type": "uint256"
        },
        {
          "indexed": true,
          "internalType": "address",
          "name": "beneficiary",
          "type": "address"
        },
        {
          "indexed": false,
          "internalType": "uint256",
          "name": "amount",
          "type": "uint256"
        },
        {
          "indexed": false,
          "internalType": "string",
          "name": "memo",
          "type": "string"
        },
        {
          "indexed": false,
          "internalType": "address",
          "name": "caller",
          "type": "address"
        }
      ],
      "name": "PrintTickets",
      "type": "event"
    },
    {
      "anonymous": false,
      "inputs": [
        {
          "indexed": true,
          "internalType": "address",
          "name": "holder",
          "type": "address"
        },
        {
          "indexed": true,
          "internalType": "address",
          "name": "beneficiary",
          "type": "address"
        },
        {
          "indexed": true,
          "internalType": "uint256",
          "name": "_projectId",
          "type": "uint256"
        },
        {
          "indexed": false,
          "internalType": "uint256",
          "name": "amount",
          "type": "uint256"
        },
        {
          "indexed": false,
          "internalType": "uint256",
          "name": "returnAmount",
          "type": "uint256"
        },
        {
          "indexed": false,
          "internalType": "address",
          "name": "caller",
          "type": "address"
        }
      ],
      "name": "Redeem",
      "type": "event"
    },
    {
      "anonymous": false,
      "inputs": [
        {
          "indexed": false,
          "internalType": "uint256",
          "name": "_amount",
          "type": "uint256"
        }
      ],
      "name": "SetFee",
      "type": "event"
    },
    {
      "anonymous": false,
      "inputs": [
        {
          "indexed": false,
          "internalType": "uint256",
          "name": "amount",
          "type": "uint256"
        }
      ],
      "name": "SetTargetLocalWei",
      "type": "event"
    },
    {
      "anonymous": false,
      "inputs": [
        {
          "indexed": false,
          "internalType": "contract IYielder",
          "name": "newYielder",
          "type": "address"
        }
      ],
      "name": "SetYielder",
      "type": "event"
    },
    {
      "anonymous": false,
      "inputs": [
        {
          "indexed": true,
          "internalType": "uint256",
          "name": "fundingCycleId",
          "type": "uint256"
        },
        {
          "indexed": true,
          "internalType": "uint256",
          "name": "projectId",
          "type": "uint256"
        },
        {
          "indexed": true,
          "internalType": "address",
          "name": "beneficiary",
          "type": "address"
        },
        {
          "indexed": false,
          "internalType": "uint256",
          "name": "amount",
          "type": "uint256"
        },
        {
          "indexed": false,
          "internalType": "uint256",
          "name": "currency",
          "type": "uint256"
        },
        {
          "indexed": false,
          "internalType": "uint256",
          "name": "netTransferAmount",
          "type": "uint256"
        },
        {
          "indexed": false,
          "internalType": "uint256",
          "name": "beneficiaryTransferAmount",
          "type": "uint256"
        },
        {
          "indexed": false,
          "internalType": "uint256",
          "name": "govFeeAmount",
          "type": "uint256"
        },
        {
          "indexed": false,
          "internalType": "address",
          "name": "caller",
          "type": "address"
        }
      ],
      "name": "Tap",
      "type": "event"
    },
    {
      "inputs": [
        {
          "internalType": "uint256",
          "name": "_projectId",
          "type": "uint256"
        }
      ],
      "name": "addToBalance",
      "outputs": [],
      "stateMutability": "payable",
      "type": "function"
    },
    {
      "inputs": [
        {
          "internalType": "contract ITerminal",
          "name": "_contract",
          "type": "address"
        }
      ],
      "name": "allowMigration",
      "outputs": [],
      "stateMutability": "nonpayable",
      "type": "function"
    },
    {
      "inputs": [
        {
          "internalType": "uint256",
          "name": "",
          "type": "uint256"
        }
      ],
      "name": "balanceOf",
      "outputs": [
        {
          "internalType": "uint256",
          "name": "",
          "type": "uint256"
        }
      ],
      "stateMutability": "view",
      "type": "function"
    },
    {
      "inputs": [
        {
          "internalType": "uint256",
          "name": "_projectId",
          "type": "uint256"
        }
      ],
      "name": "burnFromDeadAddress",
      "outputs": [],
      "stateMutability": "nonpayable",
      "type": "function"
    },
    {
      "inputs": [
        {
          "internalType": "address",
          "name": "_account",
          "type": "address"
        },
        {
          "internalType": "uint256",
          "name": "_projectId",
          "type": "uint256"
        },
        {
          "internalType": "uint256",
          "name": "_count",
          "type": "uint256"
        }
      ],
      "name": "claimableOverflowOf",
      "outputs": [
        {
          "internalType": "uint256",
          "name": "_claimableOverflow",
          "type": "uint256"
        }
      ],
      "stateMutability": "view",
      "type": "function"
    },
    {
      "inputs": [
        {
          "internalType": "uint256",
          "name": "_projectId",
          "type": "uint256"
        },
        {
          "components": [
            {
              "internalType": "uint256",
              "name": "target",
              "type": "uint256"
            },
            {
              "internalType": "uint256",
              "name": "currency",
              "type": "uint256"
            },
            {
              "internalType": "uint256",
              "name": "duration",
              "type": "uint256"
            },
            {
              "internalType": "uint256",
              "name": "cycleLimit",
              "type": "uint256"
            },
            {
              "internalType": "uint256",
              "name": "discountRate",
              "type": "uint256"
            },
            {
              "internalType": "contract IFundingCycleBallot",
              "name": "ballot",
              "type": "address"
            }
          ],
          "internalType": "struct FundingCycleProperties",
          "name": "_properties",
          "type": "tuple"
        },
        {
          "components": [
            {
              "internalType": "uint256",
              "name": "reservedRate",
              "type": "uint256"
            },
            {
              "internalType": "uint256",
              "name": "bondingCurveRate",
              "type": "uint256"
            },
            {
              "internalType": "uint256",
              "name": "reconfigurationBondingCurveRate",
              "type": "uint256"
            },
            {
              "internalType": "bool",
              "name": "payIsPaused",
              "type": "bool"
            },
            {
              "internalType": "bool",
              "name": "ticketPrintingIsAllowed",
              "type": "bool"
            },
            {
              "internalType": "contract ITreasuryExtension",
              "name": "treasuryExtension",
              "type": "address"
            }
          ],
          "internalType": "struct FundingCycleMetadata2",
          "name": "_metadata",
          "type": "tuple"
        },
        {
          "components": [
            {
              "internalType": "bool",
              "name": "preferUnstaked",
              "type": "bool"
            },
            {
              "internalType": "uint16",
              "name": "percent",
              "type": "uint16"
            },
            {
              "internalType": "uint48",
              "name": "lockedUntil",
              "type": "uint48"
            },
            {
              "internalType": "address payable",
              "name": "beneficiary",
              "type": "address"
            },
            {
              "internalType": "contract IModAllocator",
              "name": "allocator",
              "type": "address"
            },
            {
              "internalType": "uint56",
              "name": "projectId",
              "type": "uint56"
            }
          ],
          "internalType": "struct PayoutMod[]",
          "name": "_payoutMods",
          "type": "tuple[]"
        },
        {
          "components": [
            {
              "internalType": "bool",
              "name": "preferUnstaked",
              "type": "bool"
            },
            {
              "internalType": "uint16",
              "name": "percent",
              "type": "uint16"
            },
            {
              "internalType": "uint48",
              "name": "lockedUntil",
              "type": "uint48"
            },
            {
              "internalType": "address payable",
              "name": "beneficiary",
              "type": "address"
            }
          ],
          "internalType": "struct TicketMod[]",
          "name": "_ticketMods",
          "type": "tuple[]"
        }
      ],
      "name": "configure",
      "outputs": [
        {
          "internalType": "uint256",
          "name": "",
          "type": "uint256"
        }
      ],
      "stateMutability": "nonpayable",
      "type": "function"
    },
    {
      "inputs": [
        {
          "internalType": "uint256",
          "name": "_projectId",
          "type": "uint256"
        }
      ],
      "name": "currentOverflowOf",
      "outputs": [
        {
          "internalType": "uint256",
          "name": "overflow",
          "type": "uint256"
        }
      ],
      "stateMutability": "view",
      "type": "function"
    },
    {
      "inputs": [
        {
          "internalType": "address",
          "name": "_owner",
          "type": "address"
        },
        {
          "internalType": "bytes32",
          "name": "_handle",
          "type": "bytes32"
        },
        {
          "internalType": "string",
          "name": "_uri",
          "type": "string"
        },
        {
          "components": [
            {
              "internalType": "uint256",
              "name": "target",
              "type": "uint256"
            },
            {
              "internalType": "uint256",
              "name": "currency",
              "type": "uint256"
            },
            {
              "internalType": "uint256",
              "name": "duration",
              "type": "uint256"
            },
            {
              "internalType": "uint256",
              "name": "cycleLimit",
              "type": "uint256"
            },
            {
              "internalType": "uint256",
              "name": "discountRate",
              "type": "uint256"
            },
            {
              "internalType": "contract IFundingCycleBallot",
              "name": "ballot",
              "type": "address"
            }
          ],
          "internalType": "struct FundingCycleProperties",
          "name": "_properties",
          "type": "tuple"
        },
        {
          "components": [
            {
              "internalType": "uint256",
              "name": "reservedRate",
              "type": "uint256"
            },
            {
              "internalType": "uint256",
              "name": "bondingCurveRate",
              "type": "uint256"
            },
            {
              "internalType": "uint256",
              "name": "reconfigurationBondingCurveRate",
              "type": "uint256"
            },
            {
              "internalType": "bool",
              "name": "payIsPaused",
              "type": "bool"
            },
            {
              "internalType": "bool",
              "name": "ticketPrintingIsAllowed",
              "type": "bool"
            },
            {
              "internalType": "contract ITreasuryExtension",
              "name": "treasuryExtension",
              "type": "address"
            }
          ],
          "internalType": "struct FundingCycleMetadata2",
          "name": "_metadata",
          "type": "tuple"
        },
        {
          "components": [
            {
              "internalType": "bool",
              "name": "preferUnstaked",
              "type": "bool"
            },
            {
              "internalType": "uint16",
              "name": "percent",
              "type": "uint16"
            },
            {
              "internalType": "uint48",
              "name": "lockedUntil",
              "type": "uint48"
            },
            {
              "internalType": "address payable",
              "name": "beneficiary",
              "type": "address"
            },
            {
              "internalType": "contract IModAllocator",
              "name": "allocator",
              "type": "address"
            },
            {
              "internalType": "uint56",
              "name": "projectId",
              "type": "uint56"
            }
          ],
          "internalType": "struct PayoutMod[]",
          "name": "_payoutMods",
          "type": "tuple[]"
        },
        {
          "components": [
            {
              "internalType": "bool",
              "name": "preferUnstaked",
              "type": "bool"
            },
            {
              "internalType": "uint16",
              "name": "percent",
              "type": "uint16"
            },
            {
              "internalType": "uint48",
              "name": "lockedUntil",
              "type": "uint48"
            },
            {
              "internalType": "address payable",
              "name": "beneficiary",
              "type": "address"
            }
          ],
          "internalType": "struct TicketMod[]",
          "name": "_ticketMods",
          "type": "tuple[]"
        }
      ],
      "name": "deploy",
      "outputs": [],
      "stateMutability": "nonpayable",
      "type": "function"
    },
    {
      "inputs": [],
      "name": "fee",
      "outputs": [
        {
          "internalType": "uint256",
          "name": "",
          "type": "uint256"
        }
      ],
      "stateMutability": "view",
      "type": "function"
    },
    {
      "inputs": [],
      "name": "fundingCycles",
      "outputs": [
        {
          "internalType": "contract IFundingCycles",
          "name": "",
          "type": "address"
        }
      ],
      "stateMutability": "view",
      "type": "function"
    },
    {
      "inputs": [
        {
          "internalType": "uint256",
          "name": "_projectId",
          "type": "uint256"
        },
        {
          "internalType": "contract ITerminal",
          "name": "_to",
          "type": "address"
        }
      ],
      "name": "migrate",
      "outputs": [],
      "stateMutability": "nonpayable",
      "type": "function"
    },
    {
      "inputs": [
        {
          "internalType": "contract ITerminal",
          "name": "",
          "type": "address"
        }
      ],
      "name": "migrationIsAllowed",
      "outputs": [
        {
          "internalType": "bool",
          "name": "",
          "type": "bool"
        }
      ],
      "stateMutability": "view",
      "type": "function"
    },
    {
      "inputs": [],
      "name": "modStore",
      "outputs": [
        {
          "internalType": "contract IModStore",
          "name": "",
          "type": "address"
        }
      ],
      "stateMutability": "view",
      "type": "function"
    },
    {
      "inputs": [],
      "name": "operatorStore",
      "outputs": [
        {
          "internalType": "contract IOperatorStore",
          "name": "",
          "type": "address"
        }
      ],
      "stateMutability": "view",
      "type": "function"
    },
    {
      "inputs": [],
      "name": "owner",
      "outputs": [
        {
          "internalType": "address",
          "name": "",
          "type": "address"
        }
      ],
      "stateMutability": "view",
      "type": "function"
    },
    {
      "inputs": [
        {
          "internalType": "uint256",
          "name": "_projectId",
          "type": "uint256"
        },
        {
          "internalType": "address",
          "name": "_beneficiary",
          "type": "address"
        },
        {
          "internalType": "string",
          "name": "_memo",
          "type": "string"
        },
        {
          "internalType": "bool",
          "name": "_preferUnstakedTickets",
          "type": "bool"
        }
      ],
      "name": "pay",
      "outputs": [
        {
          "internalType": "uint256",
          "name": "",
          "type": "uint256"
        }
      ],
      "stateMutability": "payable",
      "type": "function"
    },
    {
      "inputs": [],
      "name": "prices",
      "outputs": [
        {
          "internalType": "contract IPrices",
          "name": "",
          "type": "address"
        }
      ],
      "stateMutability": "view",
      "type": "function"
    },
    {
      "inputs": [
        {
          "internalType": "uint256",
          "name": "_projectId",
          "type": "uint256"
        }
      ],
      "name": "printReservedTickets",
      "outputs": [
        {
          "internalType": "uint256",
          "name": "amount",
          "type": "uint256"
        }
      ],
      "stateMutability": "nonpayable",
      "type": "function"
    },
    {
      "inputs": [
        {
          "internalType": "uint256",
          "name": "_projectId",
          "type": "uint256"
        },
        {
          "internalType": "uint256",
          "name": "_amount",
          "type": "uint256"
        },
        {
          "internalType": "address",
          "name": "_beneficiary",
          "type": "address"
        },
        {
          "internalType": "string",
          "name": "_memo",
          "type": "string"
        },
        {
          "internalType": "bool",
          "name": "_preferUnstakedTickets",
          "type": "bool"
        }
      ],
      "name": "printTickets",
      "outputs": [],
      "stateMutability": "nonpayable",
      "type": "function"
    },
    {
      "inputs": [],
      "name": "projects",
      "outputs": [
        {
          "internalType": "contract IProjects",
          "name": "",
          "type": "address"
        }
      ],
      "stateMutability": "view",
      "type": "function"
    },
    {
      "inputs": [
        {
          "internalType": "address",
          "name": "_account",
          "type": "address"
        },
        {
          "internalType": "uint256",
          "name": "_projectId",
          "type": "uint256"
        },
        {
          "internalType": "uint256",
          "name": "_count",
          "type": "uint256"
        },
        {
          "internalType": "uint256",
          "name": "_minReturnedWei",
          "type": "uint256"
        },
        {
          "internalType": "address payable",
          "name": "_beneficiary",
          "type": "address"
        },
        {
          "internalType": "bool",
          "name": "_preferUnstaked",
          "type": "bool"
        }
      ],
      "name": "redeem",
      "outputs": [
        {
          "internalType": "uint256",
          "name": "amount",
          "type": "uint256"
        }
      ],
      "stateMutability": "nonpayable",
      "type": "function"
    },
    {
      "inputs": [],
      "name": "renounceOwnership",
      "outputs": [],
      "stateMutability": "nonpayable",
      "type": "function"
    },
    {
      "inputs": [
        {
          "internalType": "uint256",
          "name": "_projectId",
          "type": "uint256"
        },
        {
          "internalType": "uint256",
          "name": "_reservedRate",
          "type": "uint256"
        }
      ],
      "name": "reservedTicketBalanceOf",
      "outputs": [
        {
          "internalType": "uint256",
          "name": "",
          "type": "uint256"
        }
      ],
      "stateMutability": "view",
      "type": "function"
    },
    {
      "inputs": [
        {
          "internalType": "uint256",
          "name": "_fee",
          "type": "uint256"
        }
      ],
      "name": "setFee",
      "outputs": [],
      "stateMutability": "nonpayable",
      "type": "function"
    },
    {
      "inputs": [
        {
          "internalType": "uint256",
          "name": "_projectId",
          "type": "uint256"
        },
        {
          "internalType": "uint256",
          "name": "_amount",
          "type": "uint256"
        },
        {
          "internalType": "uint256",
          "name": "_currency",
          "type": "uint256"
        },
        {
          "internalType": "uint256",
          "name": "_minReturnedWei",
          "type": "uint256"
        }
      ],
      "name": "tap",
      "outputs": [
        {
          "internalType": "uint256",
          "name": "",
          "type": "uint256"
        }
      ],
      "stateMutability": "nonpayable",
      "type": "function"
    },
    {
      "inputs": [],
      "name": "terminalDirectory",
      "outputs": [
        {
          "internalType": "contract ITerminalDirectory",
          "name": "",
          "type": "address"
        }
      ],
      "stateMutability": "view",
      "type": "function"
    },
    {
      "inputs": [],
      "name": "ticketBooth",
      "outputs": [
        {
          "internalType": "contract ITicketBooth",
          "name": "",
          "type": "address"
        }
      ],
      "stateMutability": "view",
      "type": "function"
    },
    {
      "inputs": [
        {
          "internalType": "address",
          "name": "newOwner",
          "type": "address"
        }
      ],
      "name": "transferOwnership",
      "outputs": [],
      "stateMutability": "nonpayable",
      "type": "function"
    }
  ],
  "bytecode": {
    "object": "0x610160604052600a6004553480156200001757600080fd5b5060405162006cfc38038062006cfc8339810160408190526200003a91620002bd565b606085901b6001600160601b03191660805260016000556200005c336200018e565b6001600160a01b038816158015906200007d57506001600160a01b03871615155b80156200009257506001600160a01b03861615155b8015620000a757506001600160a01b03841615155b8015620000bc57506001600160a01b03831615155b8015620000d157506001600160a01b03821615155b8015620000e657506001600160a01b03811615155b620001385760405162461bcd60e51b815260206004820152601860248201527f5465726d696e616c56313a205a45524f5f41444452455353000000000000000060448201526064015b60405180910390fd5b6001600160601b0319606089811b821660a05288811b821660c05287811b821660e05285811b82166101005284811b82166101205283901b16610140526200018081620001e0565b505050505050505062000394565b600180546001600160a01b038381166001600160a01b0319831681179093556040519116919082907f8be0079c531659141344cd1fd0a4f28419497f9722a3daafe3b4186f6b6457e090600090a35050565b620001ea6200025f565b6001600160a01b038116620002515760405162461bcd60e51b815260206004820152602660248201527f4f776e61626c653a206e6577206f776e657220697320746865207a65726f206160448201526564647265737360d01b60648201526084016200012f565b6200025c816200018e565b50565b6001546001600160a01b03163314620002bb5760405162461bcd60e51b815260206004820181905260248201527f4f776e61626c653a2063616c6c6572206973206e6f7420746865206f776e657260448201526064016200012f565b565b600080600080600080600080610100898b031215620002db57600080fd5b8851620002e8816200037e565b60208a0151909850620002fb816200037e565b60408a01519097506200030e816200037e565b60608a015190965062000321816200037e565b60808a015190955062000334816200037e565b60a08a015190945062000347816200037e565b60c08a01519093506200035a816200037e565b60e08a01519092506200036d816200037e565b809150509295985092959890939650565b6001600160a01b03811681146200025c57600080fd5b60805160601c60a05160601c60c05160601c60e05160601c6101005160601c6101205160601c6101405160601c6167a16200055b600039600081816102d6015281816121110152818161245c01528181612682015281816141f2015281816142cf01526147340152600081816105730152818161094b0152614b240152600081816104ab01528181611d1601528181611dc9015281816139e901528181613a9c01528181614500015261517801526000818161042a01528181610e3901528181611136015281816118ac015281816122c6015281816127460152818161289701528181612ea101528181612f94015281816130d3015281816132500152818161352001528181613f7f01526152db015260008181610344015281816107f201528181610f720152818161126c01528181611c1501528181612c22015281816131910152818161362c015281816138e801528181613c150152613d2201526000818161038b01528181610b1d01528181610bf601528181611b5e01528181611e6f015281816129630152818161344401526136e40152600081816104df0152818161149c0152818161157501528181611f7901528181612a6d01526137ee01526167a16000f3fe6080604052600436106101b75760003560e01c806392ad35f3116100ec578063af82d3be1161008a578063ddca3f4311610064578063ddca3f4314610595578063ddfd414a146105ab578063e0f793db146105cb578063f2fde38b146105eb57600080fd5b8063af82d3be14610501578063b9f1109114610521578063d3419bf31461056157600080fd5b80639c0eee02116100c65780639c0eee021461044c5780639cc7f7081461046c578063a7c3cca114610499578063ad007d63146104cd57600080fd5b806392ad35f3146103d85780639713eea6146103f85780639b602d601461041857600080fd5b806369fe0e2d11610159578063882af66711610133578063882af667146103325780638a19e355146103665780638b79543c146103795780638da5cb5b146103ad57600080fd5b806369fe0e2d146102a45780636abcf8e3146102c4578063715018a61461031d57600080fd5b80633015a5b5116101955780633015a5b514610222578063308a20ad146102425780633cc83ca614610264578063405b84fa1461028457600080fd5b806302c8986f146101bc57806308014ddc146101e25780632e9d3b8f14610202575b600080fd5b6101cf6101ca366004615cc7565b61060b565b6040519081526020015b60405180910390f35b3480156101ee57600080fd5b506101cf6101fd366004615f0b565b610746565b34801561020e57600080fd5b506101cf61021d366004615851565b610de9565b34801561022e57600080fd5b506101cf61023d366004615886565b6113ac565b34801561024e57600080fd5b5061026261025d366004615743565b61198e565b005b34801561027057600080fd5b5061026261027f36600461577d565b611b3f565b34801561029057600080fd5b5061026261029f366004615d3b565b611e40565b3480156102b057600080fd5b506102626102bf366004615cae565b612517565b3480156102d057600080fd5b506102f87f000000000000000000000000000000000000000000000000000000000000000081565b60405173ffffffffffffffffffffffffffffffffffffffff90911681526020016101d9565b34801561032957600080fd5b506102626125be565b34801561033e57600080fd5b506102f87f000000000000000000000000000000000000000000000000000000000000000081565b610262610374366004615cae565b6125d2565b34801561038557600080fd5b506102f87f000000000000000000000000000000000000000000000000000000000000000081565b3480156103b957600080fd5b5060015473ffffffffffffffffffffffffffffffffffffffff166102f8565b3480156103e457600080fd5b506101cf6103f3366004615dff565b612852565b34801561040457600080fd5b50610262610413366004615e21565b612934565b34801561042457600080fd5b506102f87f000000000000000000000000000000000000000000000000000000000000000081565b34801561045857600080fd5b50610262610467366004615cae565b612f5b565b34801561047857600080fd5b506101cf610487366004615cae565b60036020526000908152604090205481565b3480156104a557600080fd5b506102f87f000000000000000000000000000000000000000000000000000000000000000081565b3480156104d957600080fd5b506102f87f000000000000000000000000000000000000000000000000000000000000000081565b34801561050d57600080fd5b506101cf61051c366004615cae565b613148565b34801561052d57600080fd5b5061055161053c366004615743565b60056020526000908152604090205460ff1681565b60405190151581526020016101d9565b34801561056d57600080fd5b506102f87f000000000000000000000000000000000000000000000000000000000000000081565b3480156105a157600080fd5b506101cf60045481565b3480156105b757600080fd5b506101cf6105c6366004615cae565b6135e3565b3480156105d757600080fd5b506101cf6105e6366004615d6b565b6136b2565b3480156105f757600080fd5b50610262610606366004615743565b613b15565b600080341161067b576040517f08c379a000000000000000000000000000000000000000000000000000000000815260206004820152601660248201527f5456315f313a3a7061793a204241445f414d4f554e540000000000000000000060448201526064015b60405180910390fd5b73ffffffffffffffffffffffffffffffffffffffff85166106f8576040517f08c379a000000000000000000000000000000000000000000000000000000000815260206004820152601860248201527f5456315f313a3a7061793a205a45524f5f4144445245535300000000000000006044820152606401610672565b61073c86348787878080601f016020809104026020016040519081016040528093929190818152602001838380828437600092019190915250899250613bcc915050565b9695505050505050565b6000600260005414156107b5576040517f08c379a000000000000000000000000000000000000000000000000000000000815260206004820152601f60248201527f5265656e7472616e637947756172643a207265656e7472616e742063616c6c006044820152606401610672565b600260009081556040517f1ee2c9bf00000000000000000000000000000000000000000000000000000000815260048101879052602481018690527f000000000000000000000000000000000000000000000000000000000000000073ffffffffffffffffffffffffffffffffffffffff1690631ee2c9bf9060440161020060405180830381600087803b15801561084c57600080fd5b505af1158015610860573d6000803e3d6000fd5b505050506040513d601f19601f820116820180604052508101906108849190615be1565b8051909150610897576000915050610ddc565b8061016001518414610905576040517f08c379a000000000000000000000000000000000000000000000000000000000815260206004820152601f60248201527f5456315f313a3a7461703a20554e45585045435445445f43555252454e4359006044820152606401610672565b6101608101516040517f9fa9372300000000000000000000000000000000000000000000000000000000815260009173ffffffffffffffffffffffffffffffffffffffff7f00000000000000000000000000000000000000000000000000000000000000001691639fa93723916109829160040190815260200190565b60206040518083038186803b15801561099a57600080fd5b505afa1580156109ae573d6000803e3d6000fd5b505050506040513d601f19601f820116820180604052508101906109d29190615b15565b905060006109e08783614167565b905080851115610a4c576040517f08c379a000000000000000000000000000000000000000000000000000000000815260206004820152601660248201527f5456315f313a3a7461703a20494e4144455155415445000000000000000000006044820152606401610672565b60208084015160009081526003909152604090205480821115610acb576040517f08c379a000000000000000000000000000000000000000000000000000000000815260206004820152601e60248201527f5456315f313a3a7461703a20494e53554646494349454e545f46554e445300006044820152606401610672565b610ad5828261658e565b60008a81526003602090815260408083209390935586015191517f6352211e0000000000000000000000000000000000000000000000000000000081526004810192909252907f000000000000000000000000000000000000000000000000000000000000000073ffffffffffffffffffffffffffffffffffffffff1690636352211e9060240160206040518083038186803b158015610b7457600080fd5b505afa158015610b88573d6000803e3d6000fd5b505050506040513d601f19601f82011682018060405250810190610bac9190615760565b6040517f49491987000000000000000000000000000000000000000000000000000000008152600481018c905290915060009073ffffffffffffffffffffffffffffffffffffffff7f00000000000000000000000000000000000000000000000000000000000000001690634949198790602401602060405180830381600087803b158015610c3a57600080fd5b505af1158015610c4e573d6000803e3d6000fd5b505050506040513d601f19601f82011682018060405250810190610c729190615b15565b905060008087610180015111610c89576000610cde565b6101808701516040517f4665652066726f6d2040000000000000000000000000000000000000000000006020820152602a8101849052610cde9187918690604a0160405160208183030381529060405261417c565b90506000610d3788610cf0848961658e565b6040517f5061796f75742066726f6d2040000000000000000000000000000000000000006020820152602d8101879052604d016040516020818303038152906040526144bc565b90508015610d4957610d4984826149c0565b8373ffffffffffffffffffffffffffffffffffffffff16886020015189600001517fe7f36a5ce6404ca99aa79e20649f15a86eed188b6362c51d0302ba182b7af3b88f8c6101600151878c610d9e919061658e565b6040805193845260208401929092529082015260608101869052608081018790523360a082015260c00160405180910390a450509451955050505050505b6001600055949350505050565b6040517efdd58e00000000000000000000000000000000000000000000000000000000815273ffffffffffffffffffffffffffffffffffffffff84811660048301526024820184905260009183917f0000000000000000000000000000000000000000000000000000000000000000169062fdd58e9060440160206040518083038186803b158015610e7a57600080fd5b505afa158015610e8e573d6000803e3d6000fd5b505050506040513d601f19601f82011682018060405250810190610eb29190615b15565b1015610f40576040517f08c379a000000000000000000000000000000000000000000000000000000000815260206004820152602e60248201527f5456315f313a3a636c61696d61626c654f766572666c6f773a20494e5355464660448201527f494349454e545f5449434b4554530000000000000000000000000000000000006064820152608401610672565b6040517f43a266c2000000000000000000000000000000000000000000000000000000008152600481018490526000907f000000000000000000000000000000000000000000000000000000000000000073ffffffffffffffffffffffffffffffffffffffff16906343a266c2906024016102006040518083038186803b158015610fca57600080fd5b505afa158015610fde573d6000803e3d6000fd5b505050506040513d601f19601f820116820180604052508101906110029190615be1565b905080604001516000141561101b5760009150506113a5565b600061102682614b1f565b905080925060006022836101e00151901c73ffffffffffffffffffffffffffffffffffffffff1611156110f4576022826101e00151901c73ffffffffffffffffffffffffffffffffffffffff1663b37961da866040518263ffffffff1660e01b815260040161109791815260200190565b60206040518083038186803b1580156110af57600080fd5b505afa1580156110c3573d6000803e3d6000fd5b505050506040513d601f19601f820116820180604052508101906110e79190615b15565b6110f19084616502565b92505b82611104576000925050506113a5565b6040517f75b0d9cd000000000000000000000000000000000000000000000000000000008152600481018690526000907f000000000000000000000000000000000000000000000000000000000000000073ffffffffffffffffffffffffffffffffffffffff16906375b0d9cd9060240160206040518083038186803b15801561118d57600080fd5b505afa1580156111a1573d6000803e3d6000fd5b505050506040513d601f19601f820116820180604052508101906111c59190615b15565b905060006111f360026000898152602001908152602001600020546008866101e00151901c60ff1684614c42565b90508015611208576112058183616502565b91505b8186141561122a5782851161121d578461121f565b825b9450505050506113a5565b6000611237868885614cb5565b9050600060016040517fc55f571c000000000000000000000000000000000000000000000000000000008152600481018b90527f000000000000000000000000000000000000000000000000000000000000000073ffffffffffffffffffffffffffffffffffffffff169063c55f571c9060240160206040518083038186803b1580156112c357600080fd5b505afa1580156112d7573d6000803e3d6000fd5b505050506040513d601f19601f820116820180604052508101906112fb9190615b2e565b600381111561130c5761130c616675565b14611323576010866101e00151901c60ff16611331565b6018866101e00151901c60ff165b90508060c8141561134457819650611388565b8061135b57611354828986614cb5565b9650611388565b611385826113748a61136e8560c861658e565b88614cb5565b61137e9084616502565b60c8614cb5565b96505b8487111561139e578496505050505050506113a5565b5050505050505b9392505050565b60006002600054141561141b576040517f08c379a000000000000000000000000000000000000000000000000000000000815260206004820152601f60248201527f5265656e7472616e637947756172643a207265656e7472616e742063616c6c006044820152606401610672565b6002600055868660033373ffffffffffffffffffffffffffffffffffffffff8416148061151657506040517fc161c93f00000000000000000000000000000000000000000000000000000000815233600482015273ffffffffffffffffffffffffffffffffffffffff848116602483015260448201849052606482018390527f0000000000000000000000000000000000000000000000000000000000000000169063c161c93f9060840160206040518083038186803b1580156114de57600080fd5b505afa1580156114f2573d6000803e3d6000fd5b505050506040513d601f19601f820116820180604052508101906115169190615af8565b806115ef57506040517fc161c93f00000000000000000000000000000000000000000000000000000000815233600482015273ffffffffffffffffffffffffffffffffffffffff848116602483015260006044830152606482018390527f0000000000000000000000000000000000000000000000000000000000000000169063c161c93f9060840160206040518083038186803b1580156115b757600080fd5b505afa1580156115cb573d6000803e3d6000fd5b505050506040513d601f19601f820116820180604052508101906115ef9190615af8565b611655576040517f08c379a000000000000000000000000000000000000000000000000000000000815260206004820152601860248201527f4f706572617461626c653a20554e415554484f52495a454400000000000000006044820152606401610672565b600088116116bf576040517f08c379a000000000000000000000000000000000000000000000000000000000815260206004820152601460248201527f5456315f313a3a72656465656d3a204e4f5f4f500000000000000000000000006044820152606401610672565b73ffffffffffffffffffffffffffffffffffffffff861661173c576040517f08c379a000000000000000000000000000000000000000000000000000000000815260206004820152601b60248201527f5456315f313a3a72656465656d3a205a45524f5f4144445245535300000000006044820152606401610672565b6117478a8a8a610de9565b9350868410156117b3576040517f08c379a000000000000000000000000000000000000000000000000000000000815260206004820152601960248201527f5456315f313a3a72656465656d3a20494e4144455155415445000000000000006044820152606401610672565b83156117e3576000898152600360205260409020546117d390859061658e565b60008a8152600360205260409020555b6000898152600260205260408120549081126118225788811261180f5761180a898261651a565b61183f565b611819818a61651a565b61180a906165de565b8861182c826165de565b6118369190616502565b61183f906165de565b60008b8152600260205260409081902091909155517f65e0d73100000000000000000000000000000000000000000000000000000000815273ffffffffffffffffffffffffffffffffffffffff8c81166004830152602482018c9052604482018b905287151560648301527f000000000000000000000000000000000000000000000000000000000000000016906365e0d73190608401600060405180830381600087803b1580156118f057600080fd5b505af1158015611904573d6000803e3d6000fd5b50505050600085111561191b5761191b87866149c0565b604080518a815260208101879052338183015290518b9173ffffffffffffffffffffffffffffffffffffffff8a811692908f16917f78ce282a3b64e54349642ee14253bf3ca2a4c69b6e479d57d196027f1d0a514e919081900360600190a4505060016000555090979650505050505050565b611996614dba565b73ffffffffffffffffffffffffffffffffffffffff8116611a39576040517f08c379a000000000000000000000000000000000000000000000000000000000815260206004820152602360248201527f5456315f313a3a616c6c6f774d6967726174696f6e3a205a45524f5f4144445260448201527f45535300000000000000000000000000000000000000000000000000000000006064820152608401610672565b73ffffffffffffffffffffffffffffffffffffffff8116301415611ab9576040517f08c379a000000000000000000000000000000000000000000000000000000000815260206004820152601c60248201527f5456315f313a3a616c6c6f774d6967726174696f6e3a204e4f5f4f50000000006044820152606401610672565b73ffffffffffffffffffffffffffffffffffffffff811660008181526005602090815260409182902080547fffffffffffffffffffffffffffffffffffffffffffffffffffffffffffffff0016600117905590519182527fdbee026e3c3dc50322e5f718d6bf90a96cefdc9e2bfa693436d0e1ddf600d1cc91015b60405180910390a150565b6000611b58611b5336869003860186615b4f565b614e3b565b905060007f000000000000000000000000000000000000000000000000000000000000000073ffffffffffffffffffffffffffffffffffffffff166317753c468b8b8b8b306040518663ffffffff1660e01b8152600401611bbd959493929190615fa8565b602060405180830381600087803b158015611bd757600080fd5b505af1158015611beb573d6000803e3d6000fd5b505050506040513d601f19601f82011682018060405250810190611c0f9190615b15565b905060007f000000000000000000000000000000000000000000000000000000000000000073ffffffffffffffffffffffffffffffffffffffff16638a1b0eb483898660045460016040518663ffffffff1660e01b8152600401611c7795949392919061614f565b61020060405180830381600087803b158015611c9257600080fd5b505af1158015611ca6573d6000803e3d6000fd5b505050506040513d601f19601f82011682018060405250810190611cca9190615be1565b855190915015611d805760808101516040517fa67e210a00000000000000000000000000000000000000000000000000000000815273ffffffffffffffffffffffffffffffffffffffff7f0000000000000000000000000000000000000000000000000000000000000000169163a67e210a91611d4d9186918a906004016161d3565b600060405180830381600087803b158015611d6757600080fd5b505af1158015611d7b573d6000803e3d6000fd5b505050505b835115611e335760808101516040517febe352a400000000000000000000000000000000000000000000000000000000815273ffffffffffffffffffffffffffffffffffffffff7f0000000000000000000000000000000000000000000000000000000000000000169163ebe352a491611e00918691899060040161628c565b600060405180830381600087803b158015611e1a57600080fd5b505af1158015611e2e573d6000803e3d6000fd5b505050505b5050505050505050505050565b6040517f6352211e000000000000000000000000000000000000000000000000000000008152600481018390527f000000000000000000000000000000000000000000000000000000000000000073ffffffffffffffffffffffffffffffffffffffff1690636352211e9060240160206040518083038186803b158015611ec657600080fd5b505afa158015611eda573d6000803e3d6000fd5b505050506040513d601f19601f82011682018060405250810190611efe9190615760565b8260043373ffffffffffffffffffffffffffffffffffffffff84161480611ff357506040517fc161c93f00000000000000000000000000000000000000000000000000000000815233600482015273ffffffffffffffffffffffffffffffffffffffff848116602483015260448201849052606482018390527f0000000000000000000000000000000000000000000000000000000000000000169063c161c93f9060840160206040518083038186803b158015611fbb57600080fd5b505afa158015611fcf573d6000803e3d6000fd5b505050506040513d601f19601f82011682018060405250810190611ff39190615af8565b612059576040517f08c379a000000000000000000000000000000000000000000000000000000000815260206004820152601860248201527f4f706572617461626c653a20554e415554484f52495a454400000000000000006044820152606401610672565b600260005414156120c6576040517f08c379a000000000000000000000000000000000000000000000000000000000815260206004820152601f60248201527f5265656e7472616e637947756172643a207265656e7472616e742063616c6c006044820152606401610672565b60026000556040517f4fe0eced00000000000000000000000000000000000000000000000000000000815260048101869052309073ffffffffffffffffffffffffffffffffffffffff7f00000000000000000000000000000000000000000000000000000000000000001690634fe0eced9060240160206040518083038186803b15801561215357600080fd5b505afa158015612167573d6000803e3d6000fd5b505050506040513d601f19601f8201168201806040525081019061218b9190615760565b73ffffffffffffffffffffffffffffffffffffffff1614612208576040517f08c379a000000000000000000000000000000000000000000000000000000000815260206004820152601c60248201527f5456315f313a3a6d6967726174653a20554e415554484f52495a4544000000006044820152606401610672565b73ffffffffffffffffffffffffffffffffffffffff841660009081526005602052604090205460ff16612297576040517f08c379a000000000000000000000000000000000000000000000000000000000815260206004820152601b60248201527f5456315f313a3a6d6967726174653a204e4f545f414c4c4f57454400000000006044820152606401610672565b6040517f75b0d9cd000000000000000000000000000000000000000000000000000000008152600481018690527f000000000000000000000000000000000000000000000000000000000000000073ffffffffffffffffffffffffffffffffffffffff16906375b0d9cd9060240160206040518083038186803b15801561231d57600080fd5b505afa158015612331573d6000803e3d6000fd5b505050506040513d601f19601f820116820180604052508101906123559190615b15565b600086815260026020526040902054146123745761237285613148565b505b600085815260036020526040812080549190558015612410576040517f8a19e3550000000000000000000000000000000000000000000000000000000081526004810187905273ffffffffffffffffffffffffffffffffffffffff861690638a19e3559083906024016000604051808303818588803b1580156123f657600080fd5b505af115801561240a573d6000803e3d6000fd5b50505050505b6040517f9fc9ea470000000000000000000000000000000000000000000000000000000081526004810187905273ffffffffffffffffffffffffffffffffffffffff86811660248301527f00000000000000000000000000000000000000000000000000000000000000001690639fc9ea4790604401600060405180830381600087803b1580156124a057600080fd5b505af11580156124b4573d6000803e3d6000fd5b50506040805184815233602082015273ffffffffffffffffffffffffffffffffffffffff891693508992507fa7519e5f94697b7f53e97c5eb46a0c730a296ab686ab8fd333835c5f735784eb910160405180910390a35050600160005550505050565b61251f614dba565b600a81111561258a576040517f08c379a000000000000000000000000000000000000000000000000000000000815260206004820152601660248201527f5456315f313a3a7365744665653a204241445f464545000000000000000000006044820152606401610672565b60048190556040518181527e172ddfc5ae88d08b3de01a5a187667c37a5a53989e8c175055cb6c993792a790602001611b34565b6125c6614dba565b6125d060006150bd565b565b6000341161263c576040517f08c379a000000000000000000000000000000000000000000000000000000000815260206004820152601f60248201527f5456315f313a3a616464546f42616c616e63653a204241445f414d4f554e54006044820152606401610672565b6040517f4fe0eced00000000000000000000000000000000000000000000000000000000815260048101829052309073ffffffffffffffffffffffffffffffffffffffff7f00000000000000000000000000000000000000000000000000000000000000001690634fe0eced9060240160206040518083038186803b1580156126c457600080fd5b505afa1580156126d8573d6000803e3d6000fd5b505050506040513d601f19601f820116820180604052508101906126fc9190615760565b73ffffffffffffffffffffffffffffffffffffffff16146127e5576040517f75b0d9cd000000000000000000000000000000000000000000000000000000008152600481018290527f000000000000000000000000000000000000000000000000000000000000000073ffffffffffffffffffffffffffffffffffffffff16906375b0d9cd9060240160206040518083038186803b15801561279d57600080fd5b505afa1580156127b1573d6000803e3d6000fd5b505050506040513d601f19601f820116820180604052508101906127d59190615b15565b6000828152600260205260409020555b6000818152600360205260409020546127ff903490616502565b600082815260036020908152604091829020929092558051348152339281019290925282917f08534c4f6026a713959f9286d994e8430e6d0fd11045360abf782bacaa288d43910160405180910390a250565b6000828152600260205260408082205490517f75b0d9cd0000000000000000000000000000000000000000000000000000000081526004810185905261292b919084907f000000000000000000000000000000000000000000000000000000000000000073ffffffffffffffffffffffffffffffffffffffff16906375b0d9cd9060240160206040518083038186803b1580156128ee57600080fd5b505afa158015612902573d6000803e3d6000fd5b505050506040513d601f19601f820116820180604052508101906129269190615b15565b614c42565b90505b92915050565b6040517f6352211e000000000000000000000000000000000000000000000000000000008152600481018690527f000000000000000000000000000000000000000000000000000000000000000073ffffffffffffffffffffffffffffffffffffffff1690636352211e9060240160206040518083038186803b1580156129ba57600080fd5b505afa1580156129ce573d6000803e3d6000fd5b505050506040513d601f19601f820116820180604052508101906129f29190615760565b8560113373ffffffffffffffffffffffffffffffffffffffff84161480612ae757506040517fc161c93f00000000000000000000000000000000000000000000000000000000815233600482015273ffffffffffffffffffffffffffffffffffffffff848116602483015260448201849052606482018390527f0000000000000000000000000000000000000000000000000000000000000000169063c161c93f9060840160206040518083038186803b158015612aaf57600080fd5b505afa158015612ac3573d6000803e3d6000fd5b505050506040513d601f19601f82011682018060405250810190612ae79190615af8565b612b4d576040517f08c379a000000000000000000000000000000000000000000000000000000000815260206004820152601860248201527f4f706572617461626c653a20554e415554484f52495a454400000000000000006044820152606401610672565b73ffffffffffffffffffffffffffffffffffffffff8616612bf0576040517f08c379a000000000000000000000000000000000000000000000000000000000815260206004820152602160248201527f5456315f313a3a7072696e745469636b6574733a205a45524f5f41444452455360448201527f53000000000000000000000000000000000000000000000000000000000000006064820152608401610672565b6040517f43a266c2000000000000000000000000000000000000000000000000000000008152600481018990526000907f000000000000000000000000000000000000000000000000000000000000000073ffffffffffffffffffffffffffffffffffffffff16906343a266c2906024016102006040518083038186803b158015612c7a57600080fd5b505afa158015612c8e573d6000803e3d6000fd5b505050506040513d601f19601f82011682018060405250810190612cb29190615be1565b9050806040015160001480612cd357506021816101e00151901c6001166001145b612d39576040517f08c379a000000000000000000000000000000000000000000000000000000000815260206004820181905260248201527f5456315f313a3a7072696e745469636b6574733a204e4f545f414c4c4f5745446044820152606401610672565b6000898152600260205260408120541280612d8e57506000898152600260205260409020547f7fffffffffffffffffffffffffffffffffffffffffffffffffffffffffffffff90612d8b908a90616502565b11155b612e1a576040517f08c379a000000000000000000000000000000000000000000000000000000000815260206004820152602660248201527f5456315f313a3a7072696e745469636b6574733a20494e545f4c494d49545f5260448201527f45414348454400000000000000000000000000000000000000000000000000006064820152608401610672565b600089815260026020526040902054612e3490899061648e565b60008a8152600260205260409081902091909155517fe0826c8900000000000000000000000000000000000000000000000000000000815273ffffffffffffffffffffffffffffffffffffffff8881166004830152602482018b9052604482018a905286151560648301527f0000000000000000000000000000000000000000000000000000000000000000169063e0826c8990608401600060405180830381600087803b158015612ee557600080fd5b505af1158015612ef9573d6000803e3d6000fd5b505050508673ffffffffffffffffffffffffffffffffffffffff16897fb745c0ba548003047e8dc09b0dbf5eaed8ae262b5fe0221b4439af8cc40199058a8933604051612f4893929190616110565b60405180910390a3505050505050505050565b6040517efdd58e00000000000000000000000000000000000000000000000000000000815261dead6004820152602481018290526000907f000000000000000000000000000000000000000000000000000000000000000073ffffffffffffffffffffffffffffffffffffffff169062fdd58e9060440160206040518083038186803b158015612fea57600080fd5b505afa158015612ffe573d6000803e3d6000fd5b505050506040513d601f19601f820116820180604052508101906130229190615b15565b90506000811161308e576040517f08c379a000000000000000000000000000000000000000000000000000000000815260206004820152601460248201527f30783030204e4f5448494e475f544f5f4255524e0000000000000000000000006044820152606401610672565b6040517f65e0d73100000000000000000000000000000000000000000000000000000000815261dead60048201526024810183905260448101829052600160648201527f000000000000000000000000000000000000000000000000000000000000000073ffffffffffffffffffffffffffffffffffffffff16906365e0d73190608401600060405180830381600087803b15801561312c57600080fd5b505af1158015613140573d6000803e3d6000fd5b505050505050565b6040517f43a266c200000000000000000000000000000000000000000000000000000000815260048101829052600090819073ffffffffffffffffffffffffffffffffffffffff7f000000000000000000000000000000000000000000000000000000000000000016906343a266c2906024016102006040518083038186803b1580156131d457600080fd5b505afa1580156131e8573d6000803e3d6000fd5b505050506040513d601f19601f8201168201806040525081019061320c9190615be1565b805190915061321e5750600092915050565b6040517f75b0d9cd000000000000000000000000000000000000000000000000000000008152600481018490526000907f000000000000000000000000000000000000000000000000000000000000000073ffffffffffffffffffffffffffffffffffffffff16906375b0d9cd9060240160206040518083038186803b1580156132a757600080fd5b505afa1580156132bb573d6000803e3d6000fd5b505050506040513d601f19601f820116820180604052508101906132df9190615b15565b905061330b60026000868152602001908152602001600020546008846101e00151901c60ff1683614c42565b92507f7fffffffffffffffffffffffffffffffffffffffffffffffffffffffffffffff6133388483616502565b11156133c6576040517f08c379a000000000000000000000000000000000000000000000000000000000815260206004820152602e60248201527f5456315f313a3a7072696e7452657365727665645469636b6574733a20494e5460448201527f5f4c494d49545f524541434845440000000000000000000000000000000000006064820152608401610672565b6133d08382616502565b60008581526002602052604081209190915583156133f7576133f28385615134565b6133fa565b60005b6040517f6352211e0000000000000000000000000000000000000000000000000000000081526004810187905290915060009073ffffffffffffffffffffffffffffffffffffffff7f00000000000000000000000000000000000000000000000000000000000000001690636352211e9060240160206040518083038186803b15801561348657600080fd5b505afa15801561349a573d6000803e3d6000fd5b505050506040513d601f19601f820116820180604052508101906134be9190615760565b9050811561357d576040517fe0826c8900000000000000000000000000000000000000000000000000000000815273ffffffffffffffffffffffffffffffffffffffff82811660048301526024820188905260448201849052600060648301527f0000000000000000000000000000000000000000000000000000000000000000169063e0826c8990608401600060405180830381600087803b15801561356457600080fd5b505af1158015613578573d6000803e3d6000fd5b505050505b835160408051878152602081018590523381830152905173ffffffffffffffffffffffffffffffffffffffff841692899290917f54ad84f37b2d6ff349b859f99f05bceaba2ee199cde3b63ae47c38f5d6116c0d9181900360600190a450505050919050565b6040517f43a266c200000000000000000000000000000000000000000000000000000000815260048101829052600090819073ffffffffffffffffffffffffffffffffffffffff7f000000000000000000000000000000000000000000000000000000000000000016906343a266c2906024016102006040518083038186803b15801561366f57600080fd5b505afa158015613683573d6000803e3d6000fd5b505050506040513d601f19601f820116820180604052508101906136a79190615be1565b90506113a581614b1f565b6040517f6352211e000000000000000000000000000000000000000000000000000000008152600481018690526000907f000000000000000000000000000000000000000000000000000000000000000073ffffffffffffffffffffffffffffffffffffffff1690636352211e9060240160206040518083038186803b15801561373b57600080fd5b505afa15801561374f573d6000803e3d6000fd5b505050506040513d601f19601f820116820180604052508101906137739190615760565b8660013373ffffffffffffffffffffffffffffffffffffffff8416148061386857506040517fc161c93f00000000000000000000000000000000000000000000000000000000815233600482015273ffffffffffffffffffffffffffffffffffffffff848116602483015260448201849052606482018390527f0000000000000000000000000000000000000000000000000000000000000000169063c161c93f9060840160206040518083038186803b15801561383057600080fd5b505afa158015613844573d6000803e3d6000fd5b505050506040513d601f19601f820116820180604052508101906138689190615af8565b6138ce576040517f08c379a000000000000000000000000000000000000000000000000000000000815260206004820152601860248201527f4f706572617461626c653a20554e415554484f52495a454400000000000000006044820152606401610672565b60006138e2611b53368a90038a018a615b4f565b905060007f000000000000000000000000000000000000000000000000000000000000000073ffffffffffffffffffffffffffffffffffffffff16638a1b0eb48c8c8560045460006040518663ffffffff1660e01b815260040161394a95949392919061614f565b61020060405180830381600087803b15801561396557600080fd5b505af1158015613979573d6000803e3d6000fd5b505050506040513d601f19601f8201168201806040525081019061399d9190615be1565b885190915015613a535760808101516040517fa67e210a00000000000000000000000000000000000000000000000000000000815273ffffffffffffffffffffffffffffffffffffffff7f0000000000000000000000000000000000000000000000000000000000000000169163a67e210a91613a20918f918d906004016161d3565b600060405180830381600087803b158015613a3a57600080fd5b505af1158015613a4e573d6000803e3d6000fd5b505050505b865115613b065760808101516040517febe352a400000000000000000000000000000000000000000000000000000000815273ffffffffffffffffffffffffffffffffffffffff7f0000000000000000000000000000000000000000000000000000000000000000169163ebe352a491613ad3918f918c9060040161628c565b600060405180830381600087803b158015613aed57600080fd5b505af1158015613b01573d6000803e3d6000fd5b505050505b519a9950505050505050505050565b613b1d614dba565b73ffffffffffffffffffffffffffffffffffffffff8116613bc0576040517f08c379a000000000000000000000000000000000000000000000000000000000815260206004820152602660248201527f4f776e61626c653a206e6577206f776e657220697320746865207a65726f206160448201527f64647265737300000000000000000000000000000000000000000000000000006064820152608401610672565b613bc9816150bd565b50565b6040517f43a266c200000000000000000000000000000000000000000000000000000000815260048101869052600090819073ffffffffffffffffffffffffffffffffffffffff7f000000000000000000000000000000000000000000000000000000000000000016906343a266c2906024016102006040518083038186803b158015613c5857600080fd5b505afa158015613c6c573d6000803e3d6000fd5b505050506040513d601f19601f82011682018060405250810190613c909190615be1565b90506020816101e00151901c600116600014613d08576040517f08c379a000000000000000000000000000000000000000000000000000000000815260206004820152601260248201527f5456315f313a3a7061793a2050415553454400000000000000000000000000006044820152606401610672565b60008160400151600014613d20578160c00151613dbe565b7f000000000000000000000000000000000000000000000000000000000000000073ffffffffffffffffffffffffffffffffffffffff1663e16fd0ec6040518163ffffffff1660e01b815260040160206040518083038186803b158015613d8657600080fd5b505afa158015613d9a573d6000803e3d6000fd5b505050506040513d601f19601f82011682018060405250810190613dbe9190615b15565b90506000613dcc88836153f1565b905060008360400151600014613dee576008846101e00151901c60ff16613df1565b60005b90506000613e048361137e8460c861658e565b60008c815260036020526040902054909150613e21908b90616502565b60008c8152600360205260409020558015613fe0576040850151613f245760008b8152600260205260408120541280613e94575060008b8152600260205260409020547f7fffffffffffffffffffffffffffffffffffffffffffffffffffffffffffffff90613e91908590616502565b11155b613efa576040517f08c379a000000000000000000000000000000000000000000000000000000000815260206004820152601c60248201527f5456315f313a3a70617920494e545f4c494d49545f52454143484544000000006044820152606401610672565b60008b815260026020526040902054613f1490829061648e565b60008c8152600260205260409020555b6040517fe0826c8900000000000000000000000000000000000000000000000000000000815273ffffffffffffffffffffffffffffffffffffffff8a81166004830152602482018d90526044820183905288151560648301527f0000000000000000000000000000000000000000000000000000000000000000169063e0826c8990608401600060405180830381600087803b158015613fc357600080fd5b505af1158015613fd7573d6000803e3d6000fd5b505050506140fb565b82156140fb5760008b8152600260205260408120541380614045575060008b8152600260205260409020547f7fffffffffffffffffffffffffffffffffffffffffffffffffffffffffffffff908490614038906165de565b6140429190616502565b11155b6140d1576040517f08c379a000000000000000000000000000000000000000000000000000000000815260206004820152602660248201527f5456315f313a3a7072696e745469636b6574733a20494e545f4c494d49545f5260448201527f45414348454400000000000000000000000000000000000000000000000000006064820152608401610672565b60008b8152600260205260409020546140eb90849061651a565b60008c8152600260205260409020555b8873ffffffffffffffffffffffffffffffffffffffff168b86600001517fd595184f93e5de76e6c92bf66d279d827d0be8fad5cec3a420d86716e1a665328d85888e3360405161414f959493929190616320565b60405180910390a45050915198975050505050505050565b600061292b83670de0b6b3a764000084614cb5565b60006141938560c861418e8782616502565b614cb5565b61419d908661658e565b9050806141ac575060006144b4565b6040517f4fe0eced00000000000000000000000000000000000000000000000000000000815260016004820152309073ffffffffffffffffffffffffffffffffffffffff7f00000000000000000000000000000000000000000000000000000000000000001690634fe0eced9060240160206040518083038186803b15801561423457600080fd5b505afa158015614248573d6000803e3d6000fd5b505050506040513d601f19601f8201168201806040525081019061426c9190615760565b73ffffffffffffffffffffffffffffffffffffffff16141561429d5761429760018285856000613bcc565b506144b4565b6040517f4fe0eced000000000000000000000000000000000000000000000000000000008152600160048201526000907f000000000000000000000000000000000000000000000000000000000000000073ffffffffffffffffffffffffffffffffffffffff1690634fe0eced9060240160206040518083038186803b15801561432657600080fd5b505afa15801561433a573d6000803e3d6000fd5b505050506040513d601f19601f8201168201806040525081019061435e9190615760565b905073ffffffffffffffffffffffffffffffffffffffff8116614403576040517f08c379a000000000000000000000000000000000000000000000000000000000815260206004820152602360248201527f5456315f313a3a5f74616b654665653a205445524d494e414c5f4e4f545f464f60448201527f554e4400000000000000000000000000000000000000000000000000000000006064820152608401610672565b6040517f02c8986f00000000000000000000000000000000000000000000000000000000815273ffffffffffffffffffffffffffffffffffffffff8216906302c8986f90849061445f9060019089908990600090600401616027565b6020604051808303818588803b15801561447857600080fd5b505af115801561448c573d6000803e3d6000fd5b50505050506040513d601f19601f820116820180604052508101906144b19190615b15565b50505b949350505050565b602083015160808401516040517f7559aaaa0000000000000000000000000000000000000000000000000000000081526004810192909252602482015282906000907f000000000000000000000000000000000000000000000000000000000000000073ffffffffffffffffffffffffffffffffffffffff1690637559aaaa9060440160006040518083038186803b15801561455757600080fd5b505afa15801561456b573d6000803e3d6000fd5b505050506040513d6000823e601f3d9081017fffffffffffffffffffffffffffffffffffffffffffffffffffffffffffffffe01682016040526145b191908101906158ed565b90508051600014156145c357506113a5565b60005b81518110156149b75760008282815181106145e3576145e36166a4565b60200260200101519050600061460487836020015161ffff16612710614cb5565b9050801561495157608082015173ffffffffffffffffffffffffffffffffffffffff16156146e1576080820151602089015160a084015160608501516040517fec695ef7000000000000000000000000000000000000000000000000000000008152600481019390935266ffffffffffffff909116602483015273ffffffffffffffffffffffffffffffffffffffff90811660448301529091169063ec695ef79083906064016000604051808303818588803b1580156146c357600080fd5b505af11580156146d7573d6000803e3d6000fd5b5050505050614951565b60a082015166ffffffffffffff16156149435760a08201516040517f4fe0eced00000000000000000000000000000000000000000000000000000000815266ffffffffffffff90911660048201526000907f000000000000000000000000000000000000000000000000000000000000000073ffffffffffffffffffffffffffffffffffffffff1690634fe0eced9060240160206040518083038186803b15801561478b57600080fd5b505afa15801561479f573d6000803e3d6000fd5b505050506040513d601f19601f820116820180604052508101906147c39190615760565b905073ffffffffffffffffffffffffffffffffffffffff8116614842576040517f08c379a000000000000000000000000000000000000000000000000000000000815260206004820152601360248201527f5456315f313a3a7461703a204241445f4d4f44000000000000000000000000006044820152606401610672565b73ffffffffffffffffffffffffffffffffffffffff8116301415614888576148828360a0015166ffffffffffffff168385606001518a8760000151613bcc565b5061493d565b60a0830151606084015184516040517f02c8986f00000000000000000000000000000000000000000000000000000000815273ffffffffffffffffffffffffffffffffffffffff8516936302c8986f9387936148e9938e919060040161636d565b6020604051808303818588803b15801561490257600080fd5b505af1158015614916573d6000803e3d6000fd5b50505050506040513d601f19601f8201168201806040525081019061493b9190615b15565b505b50614951565b6149518260600151826149c0565b61495b818661658e565b9450876020015188600001517fd37e528ac0cd9d9eeaa32903a436be474cce5651f7d3313a580ceacdae5cb34584843360405161499a9392919061606f565b60405180910390a3505080806149af906165a5565b9150506145c6565b50509392505050565b80471015614a2a576040517f08c379a000000000000000000000000000000000000000000000000000000000815260206004820152601d60248201527f416464726573733a20696e73756666696369656e742062616c616e63650000006044820152606401610672565b60008273ffffffffffffffffffffffffffffffffffffffff168260405160006040518083038185875af1925050503d8060008114614a84576040519150601f19603f3d011682016040523d82523d6000602084013e614a89565b606091505b5050905080614b1a576040517f08c379a000000000000000000000000000000000000000000000000000000000815260206004820152603a60248201527f416464726573733a20756e61626c6520746f2073656e642076616c75652c207260448201527f6563697069656e74206d617920686176652072657665727465640000000000006064820152608401610672565b505050565b6000807f000000000000000000000000000000000000000000000000000000000000000073ffffffffffffffffffffffffffffffffffffffff16639fa937238461016001516040518263ffffffff1660e01b8152600401614b8291815260200190565b60206040518083038186803b158015614b9a57600080fd5b505afa158015614bae573d6000803e3d6000fd5b505050506040513d601f19601f82011682018060405250810190614bd29190615b15565b90506000836101c00151846101400151614bec919061658e565b905060008115614c0557614c008284614167565b614c08565b60005b602080870151600090815260039091526040902054909150818110614c3657614c31828261658e565b61073c565b60009695505050505050565b6000806000851215614c6657614c57856165de565b614c619084616502565b614c70565b614c70858461658e565b905080614c815760009150506113a5565b8360c81415614c915790506113a5565b80614ca28160c861418e888261658e565b614cac919061658e565b95945050505050565b600080807fffffffffffffffffffffffffffffffffffffffffffffffffffffffffffffffff8587098587029250828110838203039150508060001415614d0e57838281614d0457614d04616646565b04925050506113a5565b838110614d51576040517f773cc18c0000000000000000000000000000000000000000000000000000000081526004810182905260248101859052604401610672565b60008486880960026001871981018816978890046003810283188082028403028082028403028082028403028082028403028082028403029081029092039091026000889003889004909101858311909403939093029303949094049190911702949350505050565b60015473ffffffffffffffffffffffffffffffffffffffff1633146125d0576040517f08c379a000000000000000000000000000000000000000000000000000000000815260206004820181905260248201527f4f776e61626c653a2063616c6c6572206973206e6f7420746865206f776e65726044820152606401610672565b600060c882600001511115614ed2576040517f08c379a000000000000000000000000000000000000000000000000000000000815260206004820152603e60248201527f5456315f313a3a5f76616c6964617465416e645061636b46756e64696e67437960448201527f636c654d657461646174613a204241445f52455345525645445f5241544500006064820152608401610672565b60c882602001511115614f8d576040517f08c379a000000000000000000000000000000000000000000000000000000000815260206004820152604360248201527f5456315f313a3a5f76616c6964617465416e645061636b46756e64696e67437960448201527f636c654d657461646174613a204241445f424f4e44494e475f43555256455f5260648201527f4154450000000000000000000000000000000000000000000000000000000000608482015260a401610672565b60c882604001511115615048576040517f08c379a000000000000000000000000000000000000000000000000000000000815260206004820152605360248201527f5456315f313a3a5f76616c6964617465416e645061636b46756e64696e67437960448201527f636c654d657461646174613a204241445f5245434f4e46494755524154494f4e60648201527f5f424f4e44494e475f43555256455f5241544500000000000000000000000000608482015260a401610672565b50805160208201516040830151606084015160189190911b60109290921b60089390931b9290921717600117901561508257640100000000175b81608001511561509457640200000000175b60a0919091015160221b7803fffffffffffffffffffffffffffffffffffffffc00000000161790565b6001805473ffffffffffffffffffffffffffffffffffffffff8381167fffffffffffffffffffffffff0000000000000000000000000000000000000000831681179093556040519116919082907f8be0079c531659141344cd1fd0a4f28419497f9722a3daafe3b4186f6b6457e090600090a35050565b602082015160808301516040517f4833b5120000000000000000000000000000000000000000000000000000000081526004810192909252602482015281906000907f000000000000000000000000000000000000000000000000000000000000000073ffffffffffffffffffffffffffffffffffffffff1690634833b5129060440160006040518083038186803b1580156151cf57600080fd5b505afa1580156151e3573d6000803e3d6000fd5b505050506040513d6000823e601f3d9081017fffffffffffffffffffffffffffffffffffffffffffffffffffffffffffffffe01682016040526152299190810190615a04565b905060005b81518110156153e957600082828151811061524b5761524b6166a4565b60200260200101519050600061526c86836020015161ffff16612710614cb5565b9050801561533a576060820151602088015183516040517fe0826c8900000000000000000000000000000000000000000000000000000000815273ffffffffffffffffffffffffffffffffffffffff9384166004820152602481019290925260448201849052151560648201527f00000000000000000000000000000000000000000000000000000000000000009091169063e0826c8990608401600060405180830381600087803b15801561532157600080fd5b505af1158015615335573d6000803e3d6000fd5b505050505b615344818661658e565b6020808901518951604080518751151581528785015161ffff16948101949094528087015165ffffffffffff169084015260608087015173ffffffffffffffffffffffffffffffffffffffff1690840152608083018590523360a084015292975091907fe499491e3f5b7f35b5078102c27aa039bbde7ed027b91c996ac41e15d8f87d5c9060c00160405180910390a3505080806153e1906165a5565b91505061522e565b505092915050565b600061292b8383600080807fffffffffffffffffffffffffffffffffffffffffffffffffffffffffffffffff848609848602925082811083820303915050670de0b6b3a76400008110615473576040517fd31b340200000000000000000000000000000000000000000000000000000000815260048101829052602401610672565b600080670de0b6b3a76400008688099150506706f05b59d3b1ffff8111826154ad5780670de0b6b3a764000085040194505050505061292e565b6204000082850304939091119091037d40000000000000000000000000000000000000000000000000000000000002919091177faccb18165bd6fe31ae1cf318dc5b51eee0e1ba569b88cd74c1773b91fac106690201905092915050565b600082601f83011261551c57600080fd5b8135602061553161552c8361646a565b61641b565b8281528181019085830160c08086028801850189101561555057600080fd5b6000805b878110156155ee5782848c03121561556a578182fd5b6155726163ab565b843561557d81616724565b81528488013561558c81616732565b8189015260408581013561559f81616742565b908201526060858101356155b281616702565b908201526080858101356155c581616702565b9082015260a0858101356155d881616756565b9082015286529486019492820192600101615554565b50929998505050505050505050565b600082601f83011261560e57600080fd5b8135602061561e61552c8361646a565b80838252828201915082860187848660071b890101111561563e57600080fd5b6000805b868110156156b957608080848c03121561565a578283fd5b6156626163d4565b843561566d81616724565b81528488013561567c81616732565b8189015260408581013561568f81616742565b908201526060858101356156a281616702565b908201528652948601949290920191600101615642565b509198975050505050505050565b80356156d281616724565b919050565b80516156d281616702565b60008083601f8401126156f457600080fd5b50813567ffffffffffffffff81111561570c57600080fd5b60208301915083602082850101111561572457600080fd5b9250929050565b600060c0828403121561573d57600080fd5b50919050565b60006020828403121561575557600080fd5b81356113a581616702565b60006020828403121561577257600080fd5b81516113a581616702565b600080600080600080600080610220898b03121561579a57600080fd5b88356157a581616702565b975060208901359650604089013567ffffffffffffffff808211156157c957600080fd5b6157d58c838d016156e2565b90985096508691506157ea8c60608d0161572b565b95506157fa8c6101208d0161572b565b94506101e08b013591508082111561581157600080fd5b61581d8c838d0161550b565b93506102008b013591508082111561583457600080fd5b506158418b828c016155fd565b9150509295985092959890939650565b60008060006060848603121561586657600080fd5b833561587181616702565b95602085013595506040909401359392505050565b60008060008060008060c0878903121561589f57600080fd5b86356158aa81616702565b955060208701359450604087013593506060870135925060808701356158cf81616702565b915060a08701356158df81616724565b809150509295509295509295565b6000602080838503121561590057600080fd5b825167ffffffffffffffff81111561591757600080fd5b8301601f8101851361592857600080fd5b805161593661552c8261646a565b8181528381019083850160c0808502860187018a101561595557600080fd5b60009550855b858110156159f55781838c031215615971578687fd5b6159796163ab565b835161598481616724565b81528389015161599381616732565b818a01526040848101516159a681616742565b908201526060848101516159b981616702565b908201526080848101516159cc81616702565b9082015260a0848101516159df81616756565b908201528552938701939181019160010161595b565b50919998505050505050505050565b60006020808385031215615a1757600080fd5b825167ffffffffffffffff811115615a2e57600080fd5b8301601f81018513615a3f57600080fd5b8051615a4d61552c8261646a565b80828252848201915084840188868560071b8701011115615a6d57600080fd5b60009450845b84811015615aea57608080838c031215615a8b578687fd5b615a936163d4565b8351615a9e81616724565b815283890151615aad81616732565b818a0152604084810151615ac081616742565b90820152606084810151615ad381616702565b908201528552938701939190910190600101615a73565b509098975050505050505050565b600060208284031215615b0a57600080fd5b81516113a581616724565b600060208284031215615b2757600080fd5b5051919050565b600060208284031215615b4057600080fd5b8151600481106113a557600080fd5b600060c08284031215615b6157600080fd5b60405160c0810181811067ffffffffffffffff82111715615b8457615b846166d3565b80604052508235815260208301356020820152604083013560408201526060830135615baf81616724565b60608201526080830135615bc281616724565b608082015260a0830135615bd581616702565b60a08201529392505050565b60006102008284031215615bf457600080fd5b615bfc6163f7565b825181526020830151602082015260408301516040820152606083015160608201526080830151608082015260a083015160a082015260c083015160c0820152615c4860e084016156d7565b60e0820152610100838101519082015261012080840151908201526101408084015190820152610160808401519082015261018080840151908201526101a080840151908201526101c080840151908201526101e0928301519281019290925250919050565b600060208284031215615cc057600080fd5b5035919050565b600080600080600060808688031215615cdf57600080fd5b853594506020860135615cf181616702565b9350604086013567ffffffffffffffff811115615d0d57600080fd5b615d19888289016156e2565b9094509250506060860135615d2d81616724565b809150509295509295909350565b60008060408385031215615d4e57600080fd5b823591506020830135615d6081616702565b809150509250929050565b60008060008060006101e08688031215615d8457600080fd5b85359450615d95876020880161572b565b9350615da48760e0880161572b565b92506101a086013567ffffffffffffffff80821115615dc257600080fd5b615dce89838a0161550b565b93506101c0880135915080821115615de557600080fd5b50615df2888289016155fd565b9150509295509295909350565b60008060408385031215615e1257600080fd5b50508035926020909101359150565b600080600080600060a08688031215615e3957600080fd5b8535945060208087013594506040870135615e5381616702565b9350606087013567ffffffffffffffff80821115615e7057600080fd5b818901915089601f830112615e8457600080fd5b813581811115615e9657615e966166d3565b615ec6847fffffffffffffffffffffffffffffffffffffffffffffffffffffffffffffffe0601f8401160161641b565b91508082528a84828501011115615edc57600080fd5b8084840185840137600084828401015250809450505050615eff608087016156c7565b90509295509295909350565b60008060008060808587031215615f2157600080fd5b5050823594602084013594506040840135936060013592509050565b6000815180845260005b81811015615f6357602081850181015186830182015201615f47565b81811115615f75576000602083870101525b50601f017fffffffffffffffffffffffffffffffffffffffffffffffffffffffffffffffe0169290920160200192915050565b600073ffffffffffffffffffffffffffffffffffffffff808816835286602084015260806040840152846080840152848660a0850137600060a0868501015260a07fffffffffffffffffffffffffffffffffffffffffffffffffffffffffffffffe0601f87011684010191508084166060840152509695505050505050565b84815273ffffffffffffffffffffffffffffffffffffffff8416602082015260806040820152600061605c6080830185615f3d565b9050821515606083015295945050505050565b61010081016160e6828680511515825261ffff602082015116602083015265ffffffffffff6040820151166040830152606081015173ffffffffffffffffffffffffffffffffffffffff8082166060850152806080840151166080850152505066ffffffffffffff60a08201511660a08301525050565b8360c083015273ffffffffffffffffffffffffffffffffffffffff831660e0830152949350505050565b8381526060602082015260006161296060830185615f3d565b905073ffffffffffffffffffffffffffffffffffffffff83166040830152949350505050565b60006101408201905086825285356020830152602086013560408301526040860135606083015260608601356080830152608086013560a083015260a086013561619881616702565b73ffffffffffffffffffffffffffffffffffffffff1660c083015260e082019490945261010081019290925215156101209091015292915050565b6000606082018583526020858185015260606040850152818551808452608086019150828701935060005b81811015615aea5761627983865180511515825261ffff602082015116602083015265ffffffffffff6040820151166040830152606081015173ffffffffffffffffffffffffffffffffffffffff8082166060850152806080840151166080850152505066ffffffffffffff60a08201511660a08301525050565b9383019360c092909201916001016161fe565b600060608201858352602085818501526060604085015281855180845260809350838601915082870160005b828110156159f55761631084835180511515825261ffff602082015116602083015265ffffffffffff604082015116604083015273ffffffffffffffffffffffffffffffffffffffff60608201511660608301525050565b92850192908401906001016162b8565b85815284602082015283604082015260a06060820152600061634560a0830185615f3d565b905073ffffffffffffffffffffffffffffffffffffffff831660808301529695505050505050565b66ffffffffffffff8516815273ffffffffffffffffffffffffffffffffffffffff8416602082015260806040820152600061605c6080830185615f3d565b60405160c0810167ffffffffffffffff811182821017156163ce576163ce6166d3565b60405290565b6040516080810167ffffffffffffffff811182821017156163ce576163ce6166d3565b604051610200810167ffffffffffffffff811182821017156163ce576163ce6166d3565b604051601f82017fffffffffffffffffffffffffffffffffffffffffffffffffffffffffffffffe016810167ffffffffffffffff81118282101715616462576164626166d3565b604052919050565b600067ffffffffffffffff821115616484576164846166d3565b5060051b60200190565b6000808212827f7fffffffffffffffffffffffffffffffffffffffffffffffffffffffffffffff038413811516156164c8576164c8616617565b827f80000000000000000000000000000000000000000000000000000000000000000384128116156164fc576164fc616617565b50500190565b6000821982111561651557616515616617565b500190565b6000808312837f80000000000000000000000000000000000000000000000000000000000000000183128115161561655457616554616617565b837f7fffffffffffffffffffffffffffffffffffffffffffffffffffffffffffffff01831381161561658857616588616617565b50500390565b6000828210156165a0576165a0616617565b500390565b60007fffffffffffffffffffffffffffffffffffffffffffffffffffffffffffffffff8214156165d7576165d7616617565b5060010190565b60007f800000000000000000000000000000000000000000000000000000000000000082141561661057616610616617565b5060000390565b7f4e487b7100000000000000000000000000000000000000000000000000000000600052601160045260246000fd5b7f4e487b7100000000000000000000000000000000000000000000000000000000600052601260045260246000fd5b7f4e487b7100000000000000000000000000000000000000000000000000000000600052602160045260246000fd5b7f4e487b7100000000000000000000000000000000000000000000000000000000600052603260045260246000fd5b7f4e487b7100000000000000000000000000000000000000000000000000000000600052604160045260246000fd5b73ffffffffffffffffffffffffffffffffffffffff81168114613bc957600080fd5b8015158114613bc957600080fd5b61ffff81168114613bc957600080fd5b65ffffffffffff81168114613bc957600080fd5b66ffffffffffffff81168114613bc957600080fdfea264697066735822122073fcd91254c3324621c01f181ef51b6d646a69deec6dcfd8ae91f46bed7d5e4964736f6c63430008060033",
    "linkReferences": {}
  },
  "methodIdentifiers": {
    "addToBalance(uint256)": "8a19e355",
    "allowMigration(address)": "308a20ad",
    "balanceOf(uint256)": "9cc7f708",
    "burnFromDeadAddress(uint256)": "9c0eee02",
    "claimableOverflowOf(address,uint256,uint256)": "2e9d3b8f",
    "configure(uint256,(uint256,uint256,uint256,uint256,uint256,address),(uint256,uint256,uint256,bool,bool,address),(bool,uint16,uint48,address,address,uint56)[],(bool,uint16,uint48,address)[])": "e0f793db",
    "currentOverflowOf(uint256)": "ddfd414a",
    "deploy(address,bytes32,string,(uint256,uint256,uint256,uint256,uint256,address),(uint256,uint256,uint256,bool,bool,address),(bool,uint16,uint48,address,address,uint56)[],(bool,uint16,uint48,address)[])": "3cc83ca6",
    "fee()": "ddca3f43",
    "fundingCycles()": "882af667",
    "migrate(uint256,address)": "405b84fa",
    "migrationIsAllowed(address)": "b9f11091",
    "modStore()": "a7c3cca1",
    "operatorStore()": "ad007d63",
    "owner()": "8da5cb5b",
    "pay(uint256,address,string,bool)": "02c8986f",
    "prices()": "d3419bf3",
    "printReservedTickets(uint256)": "af82d3be",
    "printTickets(uint256,uint256,address,string,bool)": "9713eea6",
    "projects()": "8b79543c",
    "redeem(address,uint256,uint256,uint256,address,bool)": "3015a5b5",
    "renounceOwnership()": "715018a6",
    "reservedTicketBalanceOf(uint256,uint256)": "92ad35f3",
    "setFee(uint256)": "69fe0e2d",
    "tap(uint256,uint256,uint256,uint256)": "08014ddc",
    "terminalDirectory()": "6abcf8e3",
    "ticketBooth()": "9b602d60",
    "transferOwnership(address)": "f2fde38b"
  },
  "id": 23
}