{
  "abi": [
    {
      "inputs": [
        {
          "internalType": "contract IProjects",
          "name": "_projects",
          "type": "address"
        },
        {
          "internalType": "contract IOperatorStore",
          "name": "_operatorStore",
          "type": "address"
        },
        {
          "internalType": "contract ITerminalDirectory",
          "name": "_terminalDirectory",
          "type": "address"
        }
      ],
      "stateMutability": "nonpayable",
      "type": "constructor"
    },
    {
      "anonymous": false,
      "inputs": [
        {
          "indexed": true,
          "internalType": "uint256",
          "name": "projectId",
          "type": "uint256"
        },
        {
          "indexed": false,
          "internalType": "string",
          "name": "name",
          "type": "string"
        },
        {
          "indexed": false,
          "internalType": "string",
          "name": "symbol",
          "type": "string"
        },
        {
          "indexed": false,
          "internalType": "address",
          "name": "caller",
          "type": "address"
        }
      ],
      "name": "Issue",
      "type": "event"
    },
    {
      "anonymous": false,
      "inputs": [
        {
          "indexed": true,
          "internalType": "address",
          "name": "holder",
          "type": "address"
        },
        {
          "indexed": true,
          "internalType": "uint256",
          "name": "projectId",
          "type": "uint256"
        },
        {
          "indexed": false,
          "internalType": "uint256",
          "name": "amount",
          "type": "uint256"
        },
        {
          "indexed": false,
          "internalType": "address",
          "name": "caller",
          "type": "address"
        }
      ],
      "name": "Lock",
      "type": "event"
    },
    {
      "anonymous": false,
      "inputs": [
        {
          "indexed": true,
          "internalType": "address",
          "name": "holder",
          "type": "address"
        },
        {
          "indexed": true,
          "internalType": "uint256",
          "name": "projectId",
          "type": "uint256"
        },
        {
          "indexed": false,
          "internalType": "uint256",
          "name": "amount",
          "type": "uint256"
        },
        {
          "indexed": false,
          "internalType": "bool",
          "name": "convertedTickets",
          "type": "bool"
        },
        {
          "indexed": false,
          "internalType": "bool",
          "name": "preferUnstakedTickets",
          "type": "bool"
        },
        {
          "indexed": false,
          "internalType": "address",
          "name": "controller",
          "type": "address"
        }
      ],
      "name": "Print",
      "type": "event"
    },
    {
      "anonymous": false,
      "inputs": [
        {
          "indexed": true,
          "internalType": "address",
          "name": "holder",
          "type": "address"
        },
        {
          "indexed": true,
          "internalType": "uint256",
          "name": "projectId",
          "type": "uint256"
        },
        {
          "indexed": false,
          "internalType": "uint256",
          "name": "amount",
          "type": "uint256"
        },
        {
          "indexed": false,
          "internalType": "uint256",
          "name": "stakedTickets",
          "type": "uint256"
        },
        {
          "indexed": false,
          "internalType": "bool",
          "name": "preferUnstaked",
          "type": "bool"
        },
        {
          "indexed": false,
          "internalType": "address",
          "name": "controller",
          "type": "address"
        }
      ],
      "name": "Redeem",
      "type": "event"
    },
    {
      "anonymous": false,
      "inputs": [
        {
          "indexed": true,
          "internalType": "address",
          "name": "holder",
          "type": "address"
        },
        {
          "indexed": true,
          "internalType": "uint256",
          "name": "projectId",
          "type": "uint256"
        },
        {
          "indexed": false,
          "internalType": "uint256",
          "name": "amount",
          "type": "uint256"
        },
        {
          "indexed": false,
          "internalType": "address",
          "name": "caller",
          "type": "address"
        }
      ],
      "name": "Stake",
      "type": "event"
    },
    {
      "anonymous": false,
      "inputs": [
        {
          "indexed": true,
          "internalType": "address",
          "name": "holder",
          "type": "address"
        },
        {
          "indexed": true,
          "internalType": "uint256",
          "name": "projectId",
          "type": "uint256"
        },
        {
          "indexed": true,
          "internalType": "address",
          "name": "recipient",
          "type": "address"
        },
        {
          "indexed": false,
          "internalType": "uint256",
          "name": "amount",
          "type": "uint256"
        },
        {
          "indexed": false,
          "internalType": "address",
          "name": "caller",
          "type": "address"
        }
      ],
      "name": "Transfer",
      "type": "event"
    },
    {
      "anonymous": false,
      "inputs": [
        {
          "indexed": true,
          "internalType": "address",
          "name": "holder",
          "type": "address"
        },
        {
          "indexed": true,
          "internalType": "uint256",
          "name": "projectId",
          "type": "uint256"
        },
        {
          "indexed": false,
          "internalType": "uint256",
          "name": "amount",
          "type": "uint256"
        },
        {
          "indexed": false,
          "internalType": "address",
          "name": "caller",
          "type": "address"
        }
      ],
      "name": "Unlock",
      "type": "event"
    },
    {
      "anonymous": false,
      "inputs": [
        {
          "indexed": true,
          "internalType": "address",
          "name": "holder",
          "type": "address"
        },
        {
          "indexed": true,
          "internalType": "uint256",
          "name": "projectId",
          "type": "uint256"
        },
        {
          "indexed": false,
          "internalType": "uint256",
          "name": "amount",
          "type": "uint256"
        },
        {
          "indexed": false,
          "internalType": "address",
          "name": "caller",
          "type": "address"
        }
      ],
      "name": "Unstake",
      "type": "event"
    },
    {
      "inputs": [
        {
          "internalType": "address",
          "name": "_holder",
          "type": "address"
        },
        {
          "internalType": "uint256",
          "name": "_projectId",
          "type": "uint256"
        }
      ],
      "name": "balanceOf",
      "outputs": [
        {
          "internalType": "uint256",
          "name": "balance",
          "type": "uint256"
        }
      ],
      "stateMutability": "view",
      "type": "function"
    },
    {
      "inputs": [
        {
          "internalType": "uint256",
          "name": "_projectId",
          "type": "uint256"
        },
        {
          "internalType": "string",
          "name": "_name",
          "type": "string"
        },
        {
          "internalType": "string",
          "name": "_symbol",
          "type": "string"
        }
      ],
      "name": "issue",
      "outputs": [],
      "stateMutability": "nonpayable",
      "type": "function"
    },
    {
      "inputs": [
        {
          "internalType": "address",
          "name": "_holder",
          "type": "address"
        },
        {
          "internalType": "uint256",
          "name": "_projectId",
          "type": "uint256"
        },
        {
          "internalType": "uint256",
          "name": "_amount",
          "type": "uint256"
        }
      ],
      "name": "lock",
      "outputs": [],
      "stateMutability": "nonpayable",
      "type": "function"
    },
    {
      "inputs": [
        {
          "internalType": "address",
          "name": "",
          "type": "address"
        },
        {
          "internalType": "address",
          "name": "",
          "type": "address"
        },
        {
          "internalType": "uint256",
          "name": "",
          "type": "uint256"
        }
      ],
      "name": "lockedBalanceBy",
      "outputs": [
        {
          "internalType": "uint256",
          "name": "",
          "type": "uint256"
        }
      ],
      "stateMutability": "view",
      "type": "function"
    },
    {
      "inputs": [
        {
          "internalType": "address",
          "name": "",
          "type": "address"
        },
        {
          "internalType": "uint256",
          "name": "",
          "type": "uint256"
        }
      ],
      "name": "lockedBalanceOf",
      "outputs": [
        {
          "internalType": "uint256",
          "name": "",
          "type": "uint256"
        }
      ],
      "stateMutability": "view",
      "type": "function"
    },
    {
      "inputs": [],
      "name": "operatorStore",
      "outputs": [
        {
          "internalType": "contract IOperatorStore",
          "name": "",
          "type": "address"
        }
      ],
      "stateMutability": "view",
      "type": "function"
    },
    {
      "inputs": [
        {
          "internalType": "address",
          "name": "_holder",
          "type": "address"
        },
        {
          "internalType": "uint256",
          "name": "_projectId",
          "type": "uint256"
        },
        {
          "internalType": "uint256",
          "name": "_amount",
          "type": "uint256"
        },
        {
          "internalType": "bool",
          "name": "_preferUnstakedTickets",
          "type": "bool"
        }
      ],
      "name": "print",
      "outputs": [],
      "stateMutability": "nonpayable",
      "type": "function"
    },
    {
      "inputs": [],
      "name": "projects",
      "outputs": [
        {
          "internalType": "contract IProjects",
          "name": "",
          "type": "address"
        }
      ],
      "stateMutability": "view",
      "type": "function"
    },
    {
      "inputs": [
        {
          "internalType": "address",
          "name": "_holder",
          "type": "address"
        },
        {
          "internalType": "uint256",
          "name": "_projectId",
          "type": "uint256"
        },
        {
          "internalType": "uint256",
          "name": "_amount",
          "type": "uint256"
        },
        {
          "internalType": "bool",
          "name": "_preferUnstaked",
          "type": "bool"
        }
      ],
      "name": "redeem",
      "outputs": [],
      "stateMutability": "nonpayable",
      "type": "function"
    },
    {
      "inputs": [
        {
          "internalType": "address",
          "name": "_holder",
          "type": "address"
        },
        {
          "internalType": "uint256",
          "name": "_projectId",
          "type": "uint256"
        },
        {
          "internalType": "uint256",
          "name": "_amount",
          "type": "uint256"
        }
      ],
      "name": "stake",
      "outputs": [],
      "stateMutability": "nonpayable",
      "type": "function"
    },
    {
      "inputs": [
        {
          "internalType": "address",
          "name": "",
          "type": "address"
        },
        {
          "internalType": "uint256",
          "name": "",
          "type": "uint256"
        }
      ],
      "name": "stakedBalanceOf",
      "outputs": [
        {
          "internalType": "uint256",
          "name": "",
          "type": "uint256"
        }
      ],
      "stateMutability": "view",
      "type": "function"
    },
    {
      "inputs": [
        {
          "internalType": "uint256",
          "name": "",
          "type": "uint256"
        }
      ],
      "name": "stakedTotalSupplyOf",
      "outputs": [
        {
          "internalType": "uint256",
          "name": "",
          "type": "uint256"
        }
      ],
      "stateMutability": "view",
      "type": "function"
    },
    {
      "inputs": [],
      "name": "terminalDirectory",
      "outputs": [
        {
          "internalType": "contract ITerminalDirectory",
          "name": "",
          "type": "address"
        }
      ],
      "stateMutability": "view",
      "type": "function"
    },
    {
      "inputs": [
        {
          "internalType": "uint256",
          "name": "",
          "type": "uint256"
        }
      ],
      "name": "ticketsOf",
      "outputs": [
        {
          "internalType": "contract ITickets",
          "name": "",
          "type": "address"
        }
      ],
      "stateMutability": "view",
      "type": "function"
    },
    {
      "inputs": [
        {
          "internalType": "uint256",
          "name": "_projectId",
          "type": "uint256"
        }
      ],
      "name": "totalSupplyOf",
      "outputs": [
        {
          "internalType": "uint256",
          "name": "supply",
          "type": "uint256"
        }
      ],
      "stateMutability": "view",
      "type": "function"
    },
    {
      "inputs": [
        {
          "internalType": "address",
          "name": "_holder",
          "type": "address"
        },
        {
          "internalType": "uint256",
          "name": "_projectId",
          "type": "uint256"
        },
        {
          "internalType": "uint256",
          "name": "_amount",
          "type": "uint256"
        },
        {
          "internalType": "address",
          "name": "_recipient",
          "type": "address"
        }
      ],
      "name": "transfer",
      "outputs": [],
      "stateMutability": "nonpayable",
      "type": "function"
    },
    {
      "inputs": [
        {
          "internalType": "address",
          "name": "_holder",
          "type": "address"
        },
        {
          "internalType": "uint256",
          "name": "_projectId",
          "type": "uint256"
        },
        {
          "internalType": "uint256",
          "name": "_amount",
          "type": "uint256"
        }
      ],
      "name": "unlock",
      "outputs": [],
      "stateMutability": "nonpayable",
      "type": "function"
    },
    {
      "inputs": [
        {
          "internalType": "address",
          "name": "_holder",
          "type": "address"
        },
        {
          "internalType": "uint256",
          "name": "_projectId",
          "type": "uint256"
        },
        {
          "internalType": "uint256",
          "name": "_amount",
          "type": "uint256"
        }
      ],
      "name": "unstake",
      "outputs": [],
      "stateMutability": "nonpayable",
      "type": "function"
    }
  ],
  "bytecode": {
    "object": "0x60e06040523480156200001157600080fd5b5060405162004dc738038062004dc783398101604081905262000034916200005d565b6001600160601b0319606091821b811660805291811b821660a0529190911b1660c052620000ca565b6000806000606084860312156200007357600080fd5b83516200008081620000b1565b60208501519093506200009381620000b1565b6040850151909250620000a681620000b1565b809150509250925092565b6001600160a01b0381168114620000c757600080fd5b50565b60805160601c60a05160601c60c05160601c614c7062000157600039600081816102a201526115c701526000818161030f015281816105520152818161063001528181610ae201528181610bc0015281816116d601528181611b6c01528181611c4a0152818161267301526127510152600081816102630152818161108d01526122ab0152614c706000f3fe60806040523480156200001157600080fd5b50600436106200014e5760003560e01c80638b79543c11620000c0578063b5674c68116200008b578063b6f7fdb9116200006e578063b6f7fdb91462000376578063e0826c8914620003aa578063e2ab691d14620003c157600080fd5b8063b5674c681462000331578063b656463b146200034857600080fd5b80638b79543c146200029c5780638ef4c80714620002c4578063a2bc66be14620002f2578063ad007d63146200030957600080fd5b80635030724e116200011e5780636806ec5911620001015780636806ec5914620002465780636abcf8e3146200025d57806375b0d9cd146200028557600080fd5b80635030724e146200020c57806365e0d731146200022f57600080fd5b8062fdd58e14620001535780630c51b88f146200017d57806333681fb11462000196578063465909fc14620001ad575b600080fd5b6200016a6200016436600462002b67565b620003d8565b6040519081526020015b60405180910390f35b620001946200018e36600462002b96565b620004d5565b005b62000194620001a736600462002bce565b62000a65565b620001e6620001be36600462002c81565b60006020819052908152604090205473ffffffffffffffffffffffffffffffffffffffff1681565b60405173ffffffffffffffffffffffffffffffffffffffff909116815260200162000174565b6200016a6200021d36600462002c81565b60026020526000908152604090205481565b620001946200024036600462002c1d565b62001045565b620001946200025736600462002cb5565b62001598565b620001e67f000000000000000000000000000000000000000000000000000000000000000081565b6200016a6200029636600462002c81565b62001a21565b620001e67f000000000000000000000000000000000000000000000000000000000000000081565b6200016a620002d536600462002b67565b600360209081526000928352604080842090915290825290205481565b620001946200030336600462002b96565b62001aef565b620001e67f000000000000000000000000000000000000000000000000000000000000000081565b620001946200034236600462002b96565b62002014565b6200016a6200035936600462002b67565b600160209081526000928352604080842090915290825290205481565b6200016a6200038736600462002b21565b600460209081526000938452604080852082529284528284209052825290205481565b62000194620003bb36600462002c1d565b62002263565b62000194620003d236600462002b96565b620025f6565b73ffffffffffffffffffffffffffffffffffffffff808316600090815260016020908152604080832085845282528083205491839052909120549091168015620004ce576040517f70a0823100000000000000000000000000000000000000000000000000000000815273ffffffffffffffffffffffffffffffffffffffff85811660048301528216906370a082319060240160206040518083038186803b1580156200048457600080fd5b505afa15801562000499573d6000803e3d6000fd5b505050506040513d601f19601f82011682018060405250810190620004bf919062002c9b565b620004cb908362002e09565b91505b5092915050565b8282600a3373ffffffffffffffffffffffffffffffffffffffff84161480620005d057506040517fc161c93f00000000000000000000000000000000000000000000000000000000815233600482015273ffffffffffffffffffffffffffffffffffffffff848116602483015260448201849052606482018390527f0000000000000000000000000000000000000000000000000000000000000000169063c161c93f9060840160206040518083038186803b1580156200059557600080fd5b505afa158015620005aa573d6000803e3d6000fd5b505050506040513d601f19601f82011682018060405250810190620005d0919062002c61565b80620006ae57506040517fc161c93f00000000000000000000000000000000000000000000000000000000815233600482015273ffffffffffffffffffffffffffffffffffffffff848116602483015260006044830152606482018390527f0000000000000000000000000000000000000000000000000000000000000000169063c161c93f9060840160206040518083038186803b1580156200067357600080fd5b505afa15801562000688573d6000803e3d6000fd5b505050506040513d601f19601f82011682018060405250810190620006ae919062002c61565b6200071a576040517f08c379a000000000000000000000000000000000000000000000000000000000815260206004820152601860248201527f4f706572617461626c653a20554e415554484f52495a4544000000000000000060448201526064015b60405180910390fd5b60008581526020819052604090205473ffffffffffffffffffffffffffffffffffffffff1680620007a8576040517f08c379a000000000000000000000000000000000000000000000000000000000815260206004820152601d60248201527f5469636b6574426f6f74683a3a7374616b653a204e4f545f464f554e44000000604482015260640162000711565b6040517f70a0823100000000000000000000000000000000000000000000000000000000815273ffffffffffffffffffffffffffffffffffffffff8881166004830152600091908316906370a082319060240160206040518083038186803b1580156200081457600080fd5b505afa15801562000829573d6000803e3d6000fd5b505050506040513d601f19601f820116820180604052508101906200084f919062002c9b565b905085811015620008e3576040517f08c379a000000000000000000000000000000000000000000000000000000000815260206004820152602660248201527f5469636b6574426f6f74683a3a7374616b653a20494e53554646494349454e5460448201527f5f46554e44530000000000000000000000000000000000000000000000000000606482015260840162000711565b6040517f1e9a695000000000000000000000000000000000000000000000000000000000815273ffffffffffffffffffffffffffffffffffffffff898116600483015260248201889052831690631e9a695090604401600060405180830381600087803b1580156200095457600080fd5b505af115801562000969573d6000803e3d6000fd5b50505073ffffffffffffffffffffffffffffffffffffffff891660009081526001602090815260408083208b8452909152902054620009ab9150879062002e09565b73ffffffffffffffffffffffffffffffffffffffff891660009081526001602090815260408083208b8452825280832093909355600290522054620009f290879062002e09565b6000888152600260209081526040918290209290925580518881523392810192909252889173ffffffffffffffffffffffffffffffffffffffff8b16917feb43904edee62537f8f003e791630611e9d7d8b7e0f0c038639ebe7c970dd63091015b60405180910390a35050505050505050565b8383600c3373ffffffffffffffffffffffffffffffffffffffff8416148062000b6057506040517fc161c93f00000000000000000000000000000000000000000000000000000000815233600482015273ffffffffffffffffffffffffffffffffffffffff848116602483015260448201849052606482018390527f0000000000000000000000000000000000000000000000000000000000000000169063c161c93f9060840160206040518083038186803b15801562000b2557600080fd5b505afa15801562000b3a573d6000803e3d6000fd5b505050506040513d601f19601f8201168201806040525081019062000b60919062002c61565b8062000c3e57506040517fc161c93f00000000000000000000000000000000000000000000000000000000815233600482015273ffffffffffffffffffffffffffffffffffffffff848116602483015260006044830152606482018390527f0000000000000000000000000000000000000000000000000000000000000000169063c161c93f9060840160206040518083038186803b15801562000c0357600080fd5b505afa15801562000c18573d6000803e3d6000fd5b505050506040513d601f19601f8201168201806040525081019062000c3e919062002c61565b62000ca6576040517f08c379a000000000000000000000000000000000000000000000000000000000815260206004820152601860248201527f4f706572617461626c653a20554e415554484f52495a45440000000000000000604482015260640162000711565b73ffffffffffffffffffffffffffffffffffffffff841662000d4b576040517f08c379a000000000000000000000000000000000000000000000000000000000815260206004820152602360248201527f5469636b6574426f6f74683a3a7472616e736665723a205a45524f5f4144445260448201527f4553530000000000000000000000000000000000000000000000000000000000606482015260840162000711565b8373ffffffffffffffffffffffffffffffffffffffff168773ffffffffffffffffffffffffffffffffffffffff16141562000de3576040517f08c379a000000000000000000000000000000000000000000000000000000000815260206004820152601f60248201527f5469636b6574426f6f74683a3a7472616e736665723a204944454e5449545900604482015260640162000711565b6000851162000e4f576040517f08c379a000000000000000000000000000000000000000000000000000000000815260206004820152601c60248201527f5469636b6574426f6f74683a3a7472616e736665723a204e4f5f4f5000000000604482015260640162000711565b73ffffffffffffffffffffffffffffffffffffffff871660008181526003602090815260408083208a8452825280832054938352600182528083208a8452909152812054909162000ea09162002e24565b90508086111562000f34576040517f08c379a000000000000000000000000000000000000000000000000000000000815260206004820152602960248201527f5469636b6574426f6f74683a3a7472616e736665723a20494e5355464649434960448201527f454e545f46554e44530000000000000000000000000000000000000000000000606482015260840162000711565b73ffffffffffffffffffffffffffffffffffffffff881660009081526001602090815260408083208a845290915290205462000f7290879062002e24565b73ffffffffffffffffffffffffffffffffffffffff808a1660009081526001602081815260408084208d8552825280842095909555928916825282528281208a8252909152205462000fc690879062002e09565b73ffffffffffffffffffffffffffffffffffffffff86811660008181526001602090815260408083208d84528252918290209490945580518a8152339481019490945290928a928c16917fae47e55abe3902569528abe4272b889079230a248aec0659a2939a90354982c6910160405180910390a45050505050505050565b6040517f4fe0eced000000000000000000000000000000000000000000000000000000008152600481018490528390339073ffffffffffffffffffffffffffffffffffffffff7f00000000000000000000000000000000000000000000000000000000000000001690634fe0eced9060240160206040518083038186803b158015620010d057600080fd5b505afa158015620010e5573d6000803e3d6000fd5b505050506040513d601f19601f820116820180604052508101906200110b919062002afa565b73ffffffffffffffffffffffffffffffffffffffff16146200118a576040517f08c379a000000000000000000000000000000000000000000000000000000000815260206004820152601d60248201527f5465726d696e616c5574696c6974793a20554e415554484f52495a4544000000604482015260640162000711565b6000848152602081815260408083205473ffffffffffffffffffffffffffffffffffffffff898116808652600385528386208a8752855283862054908652600185528386208a87529094529184205491169291620011e89162002e24565b9050600073ffffffffffffffffffffffffffffffffffffffff831615620012b2576040517f70a0823100000000000000000000000000000000000000000000000000000000815273ffffffffffffffffffffffffffffffffffffffff89811660048301528416906370a082319060240160206040518083038186803b1580156200127157600080fd5b505afa15801562001286573d6000803e3d6000fd5b505050506040513d601f19601f82011682018060405250810190620012ac919062002c9b565b620012b5565b60005b90508086108015620012c657508186105b80620012e95750808610158015620012e95750620012e5818762002e24565b8210155b806200130c57508186101580156200130c575062001308828762002e24565b8110155b6200139a576040517f08c379a000000000000000000000000000000000000000000000000000000000815260206004820152602760248201527f5469636b6574426f6f74683a3a72656465656d3a20494e53554646494349454e60448201527f545f46554e445300000000000000000000000000000000000000000000000000606482015260840162000711565b600081620013ab57506000620013ed565b8515620013cc5786821015620013c25781620013c4565b865b9050620013ed565b86831015620013e757620013e1838862002e24565b620013ea565b60005b90505b6000620013fb828962002e24565b905081156200148f576040517f1e9a695000000000000000000000000000000000000000000000000000000000815273ffffffffffffffffffffffffffffffffffffffff8b8116600483015260248201849052861690631e9a695090604401600060405180830381600087803b1580156200147557600080fd5b505af11580156200148a573d6000803e3d6000fd5b505050505b80156200152b5773ffffffffffffffffffffffffffffffffffffffff8a1660009081526001602090815260408083208c8452909152902054620014d490829062002e24565b73ffffffffffffffffffffffffffffffffffffffff8b1660009081526001602090815260408083208d84528252808320939093556002905220546200151b90829062002e24565b60008a8152600260205260409020555b60408051898152602081018690528815158183015233606082015290518a9173ffffffffffffffffffffffffffffffffffffffff8d16917f8c2b9ccc192ca181c0f26a420bbc623e6222ce29c08f6e81b68df4f076f123439181900360800190a350505050505050505050565b6040517f6352211e000000000000000000000000000000000000000000000000000000008152600481018690527f000000000000000000000000000000000000000000000000000000000000000073ffffffffffffffffffffffffffffffffffffffff1690636352211e9060240160206040518083038186803b1580156200161f57600080fd5b505afa15801562001634573d6000803e3d6000fd5b505050506040513d601f19601f820116820180604052508101906200165a919062002afa565b8560093373ffffffffffffffffffffffffffffffffffffffff841614806200175457506040517fc161c93f00000000000000000000000000000000000000000000000000000000815233600482015273ffffffffffffffffffffffffffffffffffffffff848116602483015260448201849052606482018390527f0000000000000000000000000000000000000000000000000000000000000000169063c161c93f9060840160206040518083038186803b1580156200171957600080fd5b505afa1580156200172e573d6000803e3d6000fd5b505050506040513d601f19601f8201168201806040525081019062001754919062002c61565b620017bc576040517f08c379a000000000000000000000000000000000000000000000000000000000815260206004820152601860248201527f4f706572617461626c653a20554e415554484f52495a45440000000000000000604482015260640162000711565b8562001825576040517f08c379a000000000000000000000000000000000000000000000000000000000815260206004820152601e60248201527f5469636b6574426f6f74683a3a69737375653a20454d5054595f4e414d450000604482015260640162000711565b836200188e576040517f08c379a000000000000000000000000000000000000000000000000000000000815260206004820181905260248201527f5469636b6574426f6f74683a3a69737375653a20454d5054595f53594d424f4c604482015260640162000711565b60008881526020819052604090205473ffffffffffffffffffffffffffffffffffffffff161562001942576040517f08c379a000000000000000000000000000000000000000000000000000000000815260206004820152602260248201527f5469636b6574426f6f74683a3a69737375653a20414c52454144595f4953535560448201527f4544000000000000000000000000000000000000000000000000000000000000606482015260840162000711565b86868686604051620019549062002aa0565b62001963949392919062002d7f565b604051809103906000f08015801562001980573d6000803e3d6000fd5b506000898152602081905260409081902080547fffffffffffffffffffffffff00000000000000000000000000000000000000001673ffffffffffffffffffffffffffffffffffffffff93909316929092179091555188907f05f79890a2d2c8e15c45a3a79a0ddc2c45db38d489e7f6948593f1fef566c8ec9062001a0f908a908a908a908a90339062002db5565b60405180910390a25050505050505050565b600081815260026020908152604080832054918390529091205473ffffffffffffffffffffffffffffffffffffffff16801562001ae9578073ffffffffffffffffffffffffffffffffffffffff166318160ddd6040518163ffffffff1660e01b815260040160206040518083038186803b15801562001a9f57600080fd5b505afa15801562001ab4573d6000803e3d6000fd5b505050506040513d601f19601f8201168201806040525081019062001ada919062002c9b565b62001ae6908362002e09565b91505b50919050565b8282600b3373ffffffffffffffffffffffffffffffffffffffff8416148062001bea57506040517fc161c93f00000000000000000000000000000000000000000000000000000000815233600482015273ffffffffffffffffffffffffffffffffffffffff848116602483015260448201849052606482018390527f0000000000000000000000000000000000000000000000000000000000000000169063c161c93f9060840160206040518083038186803b15801562001baf57600080fd5b505afa15801562001bc4573d6000803e3d6000fd5b505050506040513d601f19601f8201168201806040525081019062001bea919062002c61565b8062001cc857506040517fc161c93f00000000000000000000000000000000000000000000000000000000815233600482015273ffffffffffffffffffffffffffffffffffffffff848116602483015260006044830152606482018390527f0000000000000000000000000000000000000000000000000000000000000000169063c161c93f9060840160206040518083038186803b15801562001c8d57600080fd5b505afa15801562001ca2573d6000803e3d6000fd5b505050506040513d601f19601f8201168201806040525081019062001cc8919062002c61565b62001d30576040517f08c379a000000000000000000000000000000000000000000000000000000000815260206004820152601860248201527f4f706572617461626c653a20554e415554484f52495a45440000000000000000604482015260640162000711565b60008581526020819052604090205473ffffffffffffffffffffffffffffffffffffffff168062001dbe576040517f08c379a000000000000000000000000000000000000000000000000000000000815260206004820152601f60248201527f5469636b6574426f6f74683a3a756e7374616b653a204e4f545f464f554e4400604482015260640162000711565b73ffffffffffffffffffffffffffffffffffffffff871660008181526003602090815260408083208a8452825280832054938352600182528083208a8452909152812054909162001e0f9162002e24565b90508581101562001ea3576040517f08c379a000000000000000000000000000000000000000000000000000000000815260206004820152602860248201527f5469636b6574426f6f74683a3a756e7374616b653a20494e535546464943494560448201527f4e545f46554e4453000000000000000000000000000000000000000000000000606482015260840162000711565b73ffffffffffffffffffffffffffffffffffffffff881660009081526001602090815260408083208a845290915290205462001ee190879062002e24565b73ffffffffffffffffffffffffffffffffffffffff891660009081526001602090815260408083208b845282528083209390935560029052205462001f2890879062002e24565b6000888152600260205260409081902091909155517fac68553900000000000000000000000000000000000000000000000000000000815273ffffffffffffffffffffffffffffffffffffffff89811660048301526024820188905283169063ac68553990604401600060405180830381600087803b15801562001fab57600080fd5b505af115801562001fc0573d6000803e3d6000fd5b5050604080518981523360208201528a935073ffffffffffffffffffffffffffffffffffffffff8c1692507f8b264d23b1bf5d7d34440338fbbf8e868725712186df7862503c9620ea6e9589910162000a53565b6000811162002080576040517f08c379a000000000000000000000000000000000000000000000000000000000815260206004820152601a60248201527f5469636b6574426f6f74683a3a756e6c6f636b3a204e4f5f4f50000000000000604482015260640162000711565b33600090815260046020908152604080832073ffffffffffffffffffffffffffffffffffffffff8716845282528083208584529091529020548111156200214a576040517f08c379a000000000000000000000000000000000000000000000000000000000815260206004820152602760248201527f5469636b6574426f6f74683a3a756e6c6f636b3a20494e53554646494349454e60448201527f545f46554e445300000000000000000000000000000000000000000000000000606482015260840162000711565b73ffffffffffffffffffffffffffffffffffffffff831660009081526003602090815260408083208584529091529020546200218890829062002e24565b73ffffffffffffffffffffffffffffffffffffffff84166000818152600360209081526040808320878452825280832094909455338252600481528382209282529182528281208582529091522054620021e490829062002e24565b33600081815260046020908152604080832073ffffffffffffffffffffffffffffffffffffffff891680855290835281842088855283529281902094909455835185815290810192909252849290917f17a47c3640e01bce0ad23c20907bc651cab2af1b0abc543ae1da119b43de8cca910160405180910390a3505050565b6040517f4fe0eced000000000000000000000000000000000000000000000000000000008152600481018490528390339073ffffffffffffffffffffffffffffffffffffffff7f00000000000000000000000000000000000000000000000000000000000000001690634fe0eced9060240160206040518083038186803b158015620022ee57600080fd5b505afa15801562002303573d6000803e3d6000fd5b505050506040513d601f19601f8201168201806040525081019062002329919062002afa565b73ffffffffffffffffffffffffffffffffffffffff1614620023a8576040517f08c379a000000000000000000000000000000000000000000000000000000000815260206004820152601d60248201527f5465726d696e616c5574696c6974793a20554e415554484f52495a4544000000604482015260640162000711565b6000831162002414576040517f08c379a000000000000000000000000000000000000000000000000000000000815260206004820152601960248201527f5469636b6574426f6f74683a3a7072696e743a204e4f5f4f5000000000000000604482015260640162000711565b60008481526020819052604081205473ffffffffffffffffffffffffffffffffffffffff16908380156200245d575073ffffffffffffffffffffffffffffffffffffffff821615155b90508015620024f6576040517fac68553900000000000000000000000000000000000000000000000000000000815273ffffffffffffffffffffffffffffffffffffffff88811660048301526024820187905283169063ac68553990604401600060405180830381600087803b158015620024d757600080fd5b505af1158015620024ec573d6000803e3d6000fd5b505050506200258b565b73ffffffffffffffffffffffffffffffffffffffff871660009081526001602090815260408083208984529091529020546200253490869062002e09565b73ffffffffffffffffffffffffffffffffffffffff881660009081526001602090815260408083208a84528252808320939093556002905220546200257b90869062002e09565b6000878152600260205260409020555b604080518681528215156020820152851515818301523360608201529051879173ffffffffffffffffffffffffffffffffffffffff8a16917f1d52fee743b6ab8b9037ca51c77fba34120c1ccf69645da4defbb134728698789181900360800190a350505050505050565b8282600d3373ffffffffffffffffffffffffffffffffffffffff84161480620026f157506040517fc161c93f00000000000000000000000000000000000000000000000000000000815233600482015273ffffffffffffffffffffffffffffffffffffffff848116602483015260448201849052606482018390527f0000000000000000000000000000000000000000000000000000000000000000169063c161c93f9060840160206040518083038186803b158015620026b657600080fd5b505afa158015620026cb573d6000803e3d6000fd5b505050506040513d601f19601f82011682018060405250810190620026f1919062002c61565b80620027cf57506040517fc161c93f00000000000000000000000000000000000000000000000000000000815233600482015273ffffffffffffffffffffffffffffffffffffffff848116602483015260006044830152606482018390527f0000000000000000000000000000000000000000000000000000000000000000169063c161c93f9060840160206040518083038186803b1580156200279457600080fd5b505afa158015620027a9573d6000803e3d6000fd5b505050506040513d601f19601f82011682018060405250810190620027cf919062002c61565b62002837576040517f08c379a000000000000000000000000000000000000000000000000000000000815260206004820152601860248201527f4f706572617461626c653a20554e415554484f52495a45440000000000000000604482015260640162000711565b60008411620028a3576040517f08c379a000000000000000000000000000000000000000000000000000000000815260206004820152601860248201527f5469636b6574426f6f74683a3a6c6f636b3a204e4f5f4f500000000000000000604482015260640162000711565b73ffffffffffffffffffffffffffffffffffffffff86166000818152600360209081526040808320898452825280832054938352600182528083208984529091529020548591620028f49162002e24565b101562002984576040517f08c379a000000000000000000000000000000000000000000000000000000000815260206004820152602560248201527f5469636b6574426f6f74683a3a6c6f636b3a20494e53554646494349454e545f60448201527f46554e4453000000000000000000000000000000000000000000000000000000606482015260840162000711565b73ffffffffffffffffffffffffffffffffffffffff86166000908152600360209081526040808320888452909152902054620029c290859062002e09565b73ffffffffffffffffffffffffffffffffffffffff871660008181526003602090815260408083208a845282528083209490945533825260048152838220928252918252828120888252909152205462002a1e90859062002e09565b33600081815260046020908152604080832073ffffffffffffffffffffffffffffffffffffffff8c168085529083528184208b855283529281902094909455835188815290810192909252879290917f75784e97e4541f1b3d2c44d8c51b419e33fb6de615033cfc6e6810db54ffa4fe910160405180910390a3505050505050565b611d988062002ea383390190565b60008083601f84011262002ac157600080fd5b50813567ffffffffffffffff81111562002ada57600080fd5b60208301915083602082850101111562002af357600080fd5b9250929050565b60006020828403121562002b0d57600080fd5b815162002b1a8162002e6d565b9392505050565b60008060006060848603121562002b3757600080fd5b833562002b448162002e6d565b9250602084013562002b568162002e6d565b929592945050506040919091013590565b6000806040838503121562002b7b57600080fd5b823562002b888162002e6d565b946020939093013593505050565b60008060006060848603121562002bac57600080fd5b833562002bb98162002e6d565b95602085013595506040909401359392505050565b6000806000806080858703121562002be557600080fd5b843562002bf28162002e6d565b93506020850135925060408501359150606085013562002c128162002e6d565b939692955090935050565b6000806000806080858703121562002c3457600080fd5b843562002c418162002e6d565b93506020850135925060408501359150606085013562002c128162002e93565b60006020828403121562002c7457600080fd5b815162002b1a8162002e93565b60006020828403121562002c9457600080fd5b5035919050565b60006020828403121562002cae57600080fd5b5051919050565b60008060008060006060868803121562002cce57600080fd5b85359450602086013567ffffffffffffffff8082111562002cee57600080fd5b62002cfc89838a0162002aae565b9096509450604088013591508082111562002d1657600080fd5b5062002d258882890162002aae565b969995985093965092949392505050565b8183528181602085013750600060208284010152600060207fffffffffffffffffffffffffffffffffffffffffffffffffffffffffffffffe0601f840116840101905092915050565b60408152600062002d9560408301868862002d36565b828103602084015262002daa81858762002d36565b979650505050505050565b60608152600062002dcb60608301878962002d36565b828103602084015262002de081868862002d36565b91505073ffffffffffffffffffffffffffffffffffffffff831660408301529695505050505050565b6000821982111562002e1f5762002e1f62002e3e565b500190565b60008282101562002e395762002e3962002e3e565b500390565b7f4e487b7100000000000000000000000000000000000000000000000000000000600052601160045260246000fd5b73ffffffffffffffffffffffffffffffffffffffff8116811462002e9057600080fd5b50565b801515811462002e9057600080fdfe6101406040523480156200001257600080fd5b5060405162001d9838038062001d988339810160408190526200003591620002eb565b8180604051806040016040528060018152602001603160f81b815250848481600390805190602001906200006b9291906200018e565b508051620000819060049060208401906200018e565b5050825160208085019190912083518483012060e08290526101008190524660a0818152604080517f8b73c3c69bb8fe3d512ecc4cf759cc79239f7b179b0ffacaa9a75d522b39400f81880181905281830187905260608201869052608082019490945230818401528151808203909301835260c0019052805194019390932091935091906080523060601b60c05261012052506200013093506200012a925050620001389050565b6200013c565b5050620003a8565b3390565b600780546001600160a01b038381166001600160a01b0319831681179093556040519116919082907f8be0079c531659141344cd1fd0a4f28419497f9722a3daafe3b4186f6b6457e090600090a35050565b8280546200019c9062000355565b90600052602060002090601f016020900481019282620001c057600085556200020b565b82601f10620001db57805160ff19168380011785556200020b565b828001600101855582156200020b579182015b828111156200020b578251825591602001919060010190620001ee565b50620002199291506200021d565b5090565b5b808211156200021957600081556001016200021e565b600082601f8301126200024657600080fd5b81516001600160401b038082111562000263576200026362000392565b604051601f8301601f19908116603f011681019082821181831017156200028e576200028e62000392565b81604052838152602092508683858801011115620002ab57600080fd5b600091505b83821015620002cf5785820183015181830184015290820190620002b0565b83821115620002e15760008385830101525b9695505050505050565b60008060408385031215620002ff57600080fd5b82516001600160401b03808211156200031757600080fd5b620003258683870162000234565b935060208501519150808211156200033c57600080fd5b506200034b8582860162000234565b9150509250929050565b600181811c908216806200036a57607f821691505b602082108114156200038c57634e487b7160e01b600052602260045260246000fd5b50919050565b634e487b7160e01b600052604160045260246000fd5b60805160a05160c05160601c60e051610100516101205161199d620003fb6000396000611057015260006110a60152600061108101526000610fda015260006110040152600061102e015261199d6000f3fe608060405234801561001057600080fd5b50600436106101515760003560e01c8063715018a6116100cd578063a9059cbb11610081578063d505accf11610066578063d505accf146102b5578063dd62ed3e146102c8578063f2fde38b1461030e57600080fd5b8063a9059cbb1461028f578063ac685539146102a257600080fd5b80638da5cb5b116100b25780638da5cb5b1461024c57806395d89b4114610274578063a457c2d71461027c57600080fd5b8063715018a6146102315780637ecebe001461023957600080fd5b806323b872dd116101245780633644e515116101095780633644e515146101e057806339509351146101e857806370a08231146101fb57600080fd5b806323b872dd146101be578063313ce567146101d157600080fd5b806306fdde0314610156578063095ea7b31461017457806318160ddd146101975780631e9a6950146101a9575b600080fd5b61015e610321565b60405161016b9190611819565b60405180910390f35b6101876101823660046117ef565b6103b3565b604051901515815260200161016b565b6002545b60405190815260200161016b565b6101bc6101b73660046117ef565b6103cb565b005b6101876101cc366004611740565b6103e1565b6040516012815260200161016b565b61019b610405565b6101876101f63660046117ef565b610414565b61019b6102093660046116eb565b73ffffffffffffffffffffffffffffffffffffffff1660009081526020819052604090205490565b6101bc610460565b61019b6102473660046116eb565b610474565b60075460405173ffffffffffffffffffffffffffffffffffffffff909116815260200161016b565b61015e6104a1565b61018761028a3660046117ef565b6104b0565b61018761029d3660046117ef565b610586565b6101bc6102b03660046117ef565b610594565b6101bc6102c336600461177c565b6105a6565b61019b6102d636600461170d565b73ffffffffffffffffffffffffffffffffffffffff918216600090815260016020908152604080832093909416825291909152205490565b6101bc61031c3660046116eb565b610765565b606060038054610330906118bb565b80601f016020809104026020016040519081016040528092919081815260200182805461035c906118bb565b80156103a95780601f1061037e576101008083540402835291602001916103a9565b820191906000526020600020905b81548152906001019060200180831161038c57829003601f168201915b5050505050905090565b6000336103c181858561081c565b5060019392505050565b6103d36109d0565b6103dd8282610a51565b5050565b6000336103ef858285610c36565b6103fa858585610d0d565b506001949350505050565b600061040f610fc0565b905090565b33600081815260016020908152604080832073ffffffffffffffffffffffffffffffffffffffff871684529091528120549091906103c1908290869061045b90879061188c565b61081c565b6104686109d0565b61047260006110f4565b565b73ffffffffffffffffffffffffffffffffffffffff81166000908152600560205260408120545b92915050565b606060048054610330906118bb565b33600081815260016020908152604080832073ffffffffffffffffffffffffffffffffffffffff8716845290915281205490919083811015610579576040517f08c379a000000000000000000000000000000000000000000000000000000000815260206004820152602560248201527f45524332303a2064656372656173656420616c6c6f77616e63652062656c6f7760448201527f207a65726f00000000000000000000000000000000000000000000000000000060648201526084015b60405180910390fd5b6103fa828686840361081c565b6000336103c1818585610d0d565b61059c6109d0565b6103dd828261116b565b83421115610610576040517f08c379a000000000000000000000000000000000000000000000000000000000815260206004820152601d60248201527f45524332305065726d69743a206578706972656420646561646c696e650000006044820152606401610570565b60007f6e71edae12b1b97f4d1f60370fef10105fa2faae0126114a169c64845d6126c988888861063f8c61128b565b60408051602081019690965273ffffffffffffffffffffffffffffffffffffffff94851690860152929091166060840152608083015260a082015260c0810186905260e00160405160208183030381529060405280519060200120905060006106a7826112c0565b905060006106b782878787611329565b90508973ffffffffffffffffffffffffffffffffffffffff168173ffffffffffffffffffffffffffffffffffffffff161461074e576040517f08c379a000000000000000000000000000000000000000000000000000000000815260206004820152601e60248201527f45524332305065726d69743a20696e76616c6964207369676e617475726500006044820152606401610570565b6107598a8a8a61081c565b50505050505050505050565b61076d6109d0565b73ffffffffffffffffffffffffffffffffffffffff8116610810576040517f08c379a000000000000000000000000000000000000000000000000000000000815260206004820152602660248201527f4f776e61626c653a206e6577206f776e657220697320746865207a65726f206160448201527f64647265737300000000000000000000000000000000000000000000000000006064820152608401610570565b610819816110f4565b50565b73ffffffffffffffffffffffffffffffffffffffff83166108be576040517f08c379a0000000000000000000000000000000000000000000000000000000008152602060048201526024808201527f45524332303a20617070726f76652066726f6d20746865207a65726f2061646460448201527f72657373000000000000000000000000000000000000000000000000000000006064820152608401610570565b73ffffffffffffffffffffffffffffffffffffffff8216610961576040517f08c379a000000000000000000000000000000000000000000000000000000000815260206004820152602260248201527f45524332303a20617070726f766520746f20746865207a65726f20616464726560448201527f73730000000000000000000000000000000000000000000000000000000000006064820152608401610570565b73ffffffffffffffffffffffffffffffffffffffff83811660008181526001602090815260408083209487168084529482529182902085905590518481527f8c5be1e5ebec7d5bd14f71427d1e84f3dd0314c0f7b2291e5b200ac8c7c3b92591015b60405180910390a3505050565b60075473ffffffffffffffffffffffffffffffffffffffff163314610472576040517f08c379a000000000000000000000000000000000000000000000000000000000815260206004820181905260248201527f4f776e61626c653a2063616c6c6572206973206e6f7420746865206f776e65726044820152606401610570565b73ffffffffffffffffffffffffffffffffffffffff8216610af4576040517f08c379a000000000000000000000000000000000000000000000000000000000815260206004820152602160248201527f45524332303a206275726e2066726f6d20746865207a65726f2061646472657360448201527f73000000000000000000000000000000000000000000000000000000000000006064820152608401610570565b73ffffffffffffffffffffffffffffffffffffffff821660009081526020819052604090205481811015610baa576040517f08c379a000000000000000000000000000000000000000000000000000000000815260206004820152602260248201527f45524332303a206275726e20616d6f756e7420657863656564732062616c616e60448201527f63650000000000000000000000000000000000000000000000000000000000006064820152608401610570565b73ffffffffffffffffffffffffffffffffffffffff83166000908152602081905260408120838303905560028054849290610be69084906118a4565b909155505060405182815260009073ffffffffffffffffffffffffffffffffffffffff8516907fddf252ad1be2c89b69c2b068fc378daa952ba7f163c4a11628f55a4df523b3ef906020016109c3565b73ffffffffffffffffffffffffffffffffffffffff8381166000908152600160209081526040808320938616835292905220547fffffffffffffffffffffffffffffffffffffffffffffffffffffffffffffffff8114610d075781811015610cfa576040517f08c379a000000000000000000000000000000000000000000000000000000000815260206004820152601d60248201527f45524332303a20696e73756666696369656e7420616c6c6f77616e63650000006044820152606401610570565b610d07848484840361081c565b50505050565b73ffffffffffffffffffffffffffffffffffffffff8316610db0576040517f08c379a000000000000000000000000000000000000000000000000000000000815260206004820152602560248201527f45524332303a207472616e736665722066726f6d20746865207a65726f20616460448201527f64726573730000000000000000000000000000000000000000000000000000006064820152608401610570565b73ffffffffffffffffffffffffffffffffffffffff8216610e53576040517f08c379a000000000000000000000000000000000000000000000000000000000815260206004820152602360248201527f45524332303a207472616e7366657220746f20746865207a65726f206164647260448201527f65737300000000000000000000000000000000000000000000000000000000006064820152608401610570565b73ffffffffffffffffffffffffffffffffffffffff831660009081526020819052604090205481811015610f09576040517f08c379a000000000000000000000000000000000000000000000000000000000815260206004820152602660248201527f45524332303a207472616e7366657220616d6f756e742065786365656473206260448201527f616c616e636500000000000000000000000000000000000000000000000000006064820152608401610570565b73ffffffffffffffffffffffffffffffffffffffff808516600090815260208190526040808220858503905591851681529081208054849290610f4d90849061188c565b925050819055508273ffffffffffffffffffffffffffffffffffffffff168473ffffffffffffffffffffffffffffffffffffffff167fddf252ad1be2c89b69c2b068fc378daa952ba7f163c4a11628f55a4df523b3ef84604051610fb391815260200190565b60405180910390a3610d07565b60003073ffffffffffffffffffffffffffffffffffffffff7f00000000000000000000000000000000000000000000000000000000000000001614801561102657507f000000000000000000000000000000000000000000000000000000000000000046145b1561105057507f000000000000000000000000000000000000000000000000000000000000000090565b50604080517f00000000000000000000000000000000000000000000000000000000000000006020808301919091527f0000000000000000000000000000000000000000000000000000000000000000828401527f000000000000000000000000000000000000000000000000000000000000000060608301524660808301523060a0808401919091528351808403909101815260c0909201909252805191012090565b6007805473ffffffffffffffffffffffffffffffffffffffff8381167fffffffffffffffffffffffff0000000000000000000000000000000000000000831681179093556040519116919082907f8be0079c531659141344cd1fd0a4f28419497f9722a3daafe3b4186f6b6457e090600090a35050565b73ffffffffffffffffffffffffffffffffffffffff82166111e8576040517f08c379a000000000000000000000000000000000000000000000000000000000815260206004820152601f60248201527f45524332303a206d696e7420746f20746865207a65726f2061646472657373006044820152606401610570565b80600260008282546111fa919061188c565b909155505073ffffffffffffffffffffffffffffffffffffffff82166000908152602081905260408120805483929061123490849061188c565b909155505060405181815273ffffffffffffffffffffffffffffffffffffffff8316906000907fddf252ad1be2c89b69c2b068fc378daa952ba7f163c4a11628f55a4df523b3ef9060200160405180910390a35050565b73ffffffffffffffffffffffffffffffffffffffff811660009081526005602052604090208054600181018255905b50919050565b600061049b6112cd610fc0565b836040517f19010000000000000000000000000000000000000000000000000000000000006020820152602281018390526042810182905260009060620160405160208183030381529060405280519060200120905092915050565b600080600061133a87878787611351565b9150915061134781611469565b5095945050505050565b6000807f7fffffffffffffffffffffffffffffff5d576e7357a4501ddfe92f46681b20a08311156113885750600090506003611460565b8460ff16601b141580156113a057508460ff16601c14155b156113b15750600090506004611460565b6040805160008082526020820180845289905260ff881692820192909252606081018690526080810185905260019060a0016020604051602081039080840390855afa158015611405573d6000803e3d6000fd5b50506040517fffffffffffffffffffffffffffffffffffffffffffffffffffffffffffffffe0015191505073ffffffffffffffffffffffffffffffffffffffff811661145957600060019250925050611460565b9150600090505b94509492505050565b600081600481111561147d5761147d611938565b14156114865750565b600181600481111561149a5761149a611938565b1415611502576040517f08c379a000000000000000000000000000000000000000000000000000000000815260206004820152601860248201527f45434453413a20696e76616c6964207369676e617475726500000000000000006044820152606401610570565b600281600481111561151657611516611938565b141561157e576040517f08c379a000000000000000000000000000000000000000000000000000000000815260206004820152601f60248201527f45434453413a20696e76616c6964207369676e6174757265206c656e677468006044820152606401610570565b600381600481111561159257611592611938565b1415611620576040517f08c379a000000000000000000000000000000000000000000000000000000000815260206004820152602260248201527f45434453413a20696e76616c6964207369676e6174757265202773272076616c60448201527f75650000000000000000000000000000000000000000000000000000000000006064820152608401610570565b600481600481111561163457611634611938565b1415610819576040517f08c379a000000000000000000000000000000000000000000000000000000000815260206004820152602260248201527f45434453413a20696e76616c6964207369676e6174757265202776272076616c60448201527f75650000000000000000000000000000000000000000000000000000000000006064820152608401610570565b803573ffffffffffffffffffffffffffffffffffffffff811681146116e657600080fd5b919050565b6000602082840312156116fd57600080fd5b611706826116c2565b9392505050565b6000806040838503121561172057600080fd5b611729836116c2565b9150611737602084016116c2565b90509250929050565b60008060006060848603121561175557600080fd5b61175e846116c2565b925061176c602085016116c2565b9150604084013590509250925092565b600080600080600080600060e0888a03121561179757600080fd5b6117a0886116c2565b96506117ae602089016116c2565b95506040880135945060608801359350608088013560ff811681146117d257600080fd5b9699959850939692959460a0840135945060c09093013592915050565b6000806040838503121561180257600080fd5b61180b836116c2565b946020939093013593505050565b600060208083528351808285015260005b818110156118465785810183015185820160400152820161182a565b81811115611858576000604083870101525b50601f017fffffffffffffffffffffffffffffffffffffffffffffffffffffffffffffffe016929092016040019392505050565b6000821982111561189f5761189f611909565b500190565b6000828210156118b6576118b6611909565b500390565b600181811c908216806118cf57607f821691505b602082108114156112ba577f4e487b7100000000000000000000000000000000000000000000000000000000600052602260045260246000fd5b7f4e487b7100000000000000000000000000000000000000000000000000000000600052601160045260246000fd5b7f4e487b7100000000000000000000000000000000000000000000000000000000600052602160045260246000fdfea264697066735822122082d51b8a203cbb73b25a9d66e17657b031a8d4891ebc8e9471c4b701777b297464736f6c63430008060033a2646970667358221220415fe61815477456a91afe2724db4d01bb1d7d0b2108af635b9f9ca9a0680f8d64736f6c63430008060033",
    "linkReferences": {}
  },
  "methodIdentifiers": {
    "balanceOf(address,uint256)": "00fdd58e",
    "issue(uint256,string,string)": "6806ec59",
    "lock(address,uint256,uint256)": "e2ab691d",
    "lockedBalanceBy(address,address,uint256)": "b6f7fdb9",
    "lockedBalanceOf(address,uint256)": "8ef4c807",
    "operatorStore()": "ad007d63",
    "print(address,uint256,uint256,bool)": "e0826c89",
    "projects()": "8b79543c",
    "redeem(address,uint256,uint256,bool)": "65e0d731",
    "stake(address,uint256,uint256)": "0c51b88f",
    "stakedBalanceOf(address,uint256)": "b656463b",
    "stakedTotalSupplyOf(uint256)": "5030724e",
    "terminalDirectory()": "6abcf8e3",
    "ticketsOf(uint256)": "465909fc",
    "totalSupplyOf(uint256)": "75b0d9cd",
    "transfer(address,uint256,uint256,address)": "33681fb1",
    "unlock(address,uint256,uint256)": "b5674c68",
    "unstake(address,uint256,uint256)": "a2bc66be"
  },
  "id": 24
}