{
  "abi": [
    {
      "inputs": [
        {
          "internalType": "contract IOperatorStore",
          "name": "_operatorStore",
          "type": "address"
        }
      ],
      "stateMutability": "nonpayable",
      "type": "constructor"
    },
    {
      "anonymous": false,
      "inputs": [
        {
          "indexed": true,
          "internalType": "address",
          "name": "owner",
          "type": "address"
        },
        {
          "indexed": true,
          "internalType": "address",
          "name": "approved",
          "type": "address"
        },
        {
          "indexed": true,
          "internalType": "uint256",
          "name": "tokenId",
          "type": "uint256"
        }
      ],
      "name": "Approval",
      "type": "event"
    },
    {
      "anonymous": false,
      "inputs": [
        {
          "indexed": true,
          "internalType": "address",
          "name": "owner",
          "type": "address"
        },
        {
          "indexed": true,
          "internalType": "address",
          "name": "operator",
          "type": "address"
        },
        {
          "indexed": false,
          "internalType": "bool",
          "name": "approved",
          "type": "bool"
        }
      ],
      "name": "ApprovalForAll",
      "type": "event"
    },
    {
      "anonymous": false,
      "inputs": [
        {
          "indexed": true,
          "internalType": "bytes32",
          "name": "handle",
          "type": "bytes32"
        },
        {
          "indexed": false,
          "internalType": "uint256",
          "name": "challengeExpiry",
          "type": "uint256"
        },
        {
          "indexed": false,
          "internalType": "address",
          "name": "caller",
          "type": "address"
        }
      ],
      "name": "ChallengeHandle",
      "type": "event"
    },
    {
      "anonymous": false,
      "inputs": [
        {
          "indexed": true,
          "internalType": "address",
          "name": "account",
          "type": "address"
        },
        {
          "indexed": true,
          "internalType": "uint256",
          "name": "projectId",
          "type": "uint256"
        },
        {
          "indexed": true,
          "internalType": "bytes32",
          "name": "handle",
          "type": "bytes32"
        },
        {
          "indexed": false,
          "internalType": "address",
          "name": "caller",
          "type": "address"
        }
      ],
      "name": "ClaimHandle",
      "type": "event"
    },
    {
      "anonymous": false,
      "inputs": [
        {
          "indexed": true,
          "internalType": "uint256",
          "name": "projectId",
          "type": "uint256"
        },
        {
          "indexed": true,
          "internalType": "address",
          "name": "owner",
          "type": "address"
        },
        {
          "indexed": true,
          "internalType": "bytes32",
          "name": "handle",
          "type": "bytes32"
        },
        {
          "indexed": false,
          "internalType": "string",
          "name": "uri",
          "type": "string"
        },
        {
          "indexed": false,
          "internalType": "contract ITerminal",
          "name": "terminal",
          "type": "address"
        },
        {
          "indexed": false,
          "internalType": "address",
          "name": "caller",
          "type": "address"
        }
      ],
      "name": "Create",
      "type": "event"
    },
    {
      "anonymous": false,
      "inputs": [
        {
          "indexed": true,
          "internalType": "bytes32",
          "name": "handle",
          "type": "bytes32"
        },
        {
          "indexed": true,
          "internalType": "uint256",
          "name": "projectId",
          "type": "uint256"
        },
        {
          "indexed": false,
          "internalType": "address",
          "name": "caller",
          "type": "address"
        }
      ],
      "name": "RenewHandle",
      "type": "event"
    },
    {
      "anonymous": false,
      "inputs": [
        {
          "indexed": true,
          "internalType": "uint256",
          "name": "projectId",
          "type": "uint256"
        },
        {
          "indexed": true,
          "internalType": "bytes32",
          "name": "handle",
          "type": "bytes32"
        },
        {
          "indexed": false,
          "internalType": "address",
          "name": "caller",
          "type": "address"
        }
      ],
      "name": "SetHandle",
      "type": "event"
    },
    {
      "anonymous": false,
      "inputs": [
        {
          "indexed": true,
          "internalType": "uint256",
          "name": "projectId",
          "type": "uint256"
        },
        {
          "indexed": false,
          "internalType": "string",
          "name": "uri",
          "type": "string"
        },
        {
          "indexed": false,
          "internalType": "address",
          "name": "caller",
          "type": "address"
        }
      ],
      "name": "SetUri",
      "type": "event"
    },
    {
      "anonymous": false,
      "inputs": [
        {
          "indexed": true,
          "internalType": "address",
          "name": "from",
          "type": "address"
        },
        {
          "indexed": true,
          "internalType": "address",
          "name": "to",
          "type": "address"
        },
        {
          "indexed": true,
          "internalType": "uint256",
          "name": "tokenId",
          "type": "uint256"
        }
      ],
      "name": "Transfer",
      "type": "event"
    },
    {
      "anonymous": false,
      "inputs": [
        {
          "indexed": true,
          "internalType": "uint256",
          "name": "projectId",
          "type": "uint256"
        },
        {
          "indexed": true,
          "internalType": "address",
          "name": "to",
          "type": "address"
        },
        {
          "indexed": true,
          "internalType": "bytes32",
          "name": "handle",
          "type": "bytes32"
        },
        {
          "indexed": false,
          "internalType": "bytes32",
          "name": "newHandle",
          "type": "bytes32"
        },
        {
          "indexed": false,
          "internalType": "address",
          "name": "caller",
          "type": "address"
        }
      ],
      "name": "TransferHandle",
      "type": "event"
    },
    {
      "inputs": [
        {
          "internalType": "address",
          "name": "to",
          "type": "address"
        },
        {
          "internalType": "uint256",
          "name": "tokenId",
          "type": "uint256"
        }
      ],
      "name": "approve",
      "outputs": [],
      "stateMutability": "nonpayable",
      "type": "function"
    },
    {
      "inputs": [
        {
          "internalType": "address",
          "name": "owner",
          "type": "address"
        }
      ],
      "name": "balanceOf",
      "outputs": [
        {
          "internalType": "uint256",
          "name": "",
          "type": "uint256"
        }
      ],
      "stateMutability": "view",
      "type": "function"
    },
    {
      "inputs": [
        {
          "internalType": "bytes32",
          "name": "",
          "type": "bytes32"
        }
      ],
      "name": "challengeExpiryOf",
      "outputs": [
        {
          "internalType": "uint256",
          "name": "",
          "type": "uint256"
        }
      ],
      "stateMutability": "view",
      "type": "function"
    },
    {
      "inputs": [
        {
          "internalType": "bytes32",
          "name": "_handle",
          "type": "bytes32"
        }
      ],
      "name": "challengeHandle",
      "outputs": [],
      "stateMutability": "nonpayable",
      "type": "function"
    },
    {
      "inputs": [
        {
          "internalType": "bytes32",
          "name": "_handle",
          "type": "bytes32"
        },
        {
          "internalType": "address",
          "name": "_for",
          "type": "address"
        },
        {
          "internalType": "uint256",
          "name": "_projectId",
          "type": "uint256"
        }
      ],
      "name": "claimHandle",
      "outputs": [],
      "stateMutability": "nonpayable",
      "type": "function"
    },
    {
      "inputs": [],
      "name": "count",
      "outputs": [
        {
          "internalType": "uint256",
          "name": "",
          "type": "uint256"
        }
      ],
      "stateMutability": "view",
      "type": "function"
    },
    {
      "inputs": [
        {
          "internalType": "address",
          "name": "_owner",
          "type": "address"
        },
        {
          "internalType": "bytes32",
          "name": "_handle",
          "type": "bytes32"
        },
        {
          "internalType": "string",
          "name": "_uri",
          "type": "string"
        },
        {
          "internalType": "contract ITerminal",
          "name": "_terminal",
          "type": "address"
        }
      ],
      "name": "create",
      "outputs": [
        {
          "internalType": "uint256",
          "name": "",
          "type": "uint256"
        }
      ],
      "stateMutability": "nonpayable",
      "type": "function"
    },
    {
      "inputs": [
        {
          "internalType": "uint256",
          "name": "_projectId",
          "type": "uint256"
        }
      ],
      "name": "exists",
      "outputs": [
        {
          "internalType": "bool",
          "name": "",
          "type": "bool"
        }
      ],
      "stateMutability": "view",
      "type": "function"
    },
    {
      "inputs": [
        {
          "internalType": "uint256",
          "name": "tokenId",
          "type": "uint256"
        }
      ],
      "name": "getApproved",
      "outputs": [
        {
          "internalType": "address",
          "name": "",
          "type": "address"
        }
      ],
      "stateMutability": "view",
      "type": "function"
    },
    {
      "inputs": [
        {
          "internalType": "uint256",
          "name": "",
          "type": "uint256"
        }
      ],
      "name": "handleOf",
      "outputs": [
        {
          "internalType": "bytes32",
          "name": "",
          "type": "bytes32"
        }
      ],
      "stateMutability": "view",
      "type": "function"
    },
    {
      "inputs": [
        {
          "internalType": "address",
          "name": "owner",
          "type": "address"
        },
        {
          "internalType": "address",
          "name": "operator",
          "type": "address"
        }
      ],
      "name": "isApprovedForAll",
      "outputs": [
        {
          "internalType": "bool",
          "name": "",
          "type": "bool"
        }
      ],
      "stateMutability": "view",
      "type": "function"
    },
    {
      "inputs": [],
      "name": "name",
      "outputs": [
        {
          "internalType": "string",
          "name": "",
          "type": "string"
        }
      ],
      "stateMutability": "view",
      "type": "function"
    },
    {
      "inputs": [],
      "name": "operatorStore",
      "outputs": [
        {
          "internalType": "contract IOperatorStore",
          "name": "",
          "type": "address"
        }
      ],
      "stateMutability": "view",
      "type": "function"
    },
    {
      "inputs": [
        {
          "internalType": "uint256",
          "name": "tokenId",
          "type": "uint256"
        }
      ],
      "name": "ownerOf",
      "outputs": [
        {
          "internalType": "address",
          "name": "",
          "type": "address"
        }
      ],
      "stateMutability": "view",
      "type": "function"
    },
    {
      "inputs": [
        {
          "internalType": "bytes32",
          "name": "",
          "type": "bytes32"
        }
      ],
      "name": "projectFor",
      "outputs": [
        {
          "internalType": "uint256",
          "name": "",
          "type": "uint256"
        }
      ],
      "stateMutability": "view",
      "type": "function"
    },
    {
      "inputs": [
        {
          "internalType": "uint256",
          "name": "_projectId",
          "type": "uint256"
        }
      ],
      "name": "renewHandle",
      "outputs": [],
      "stateMutability": "nonpayable",
      "type": "function"
    },
    {
      "inputs": [
        {
          "internalType": "address",
          "name": "from",
          "type": "address"
        },
        {
          "internalType": "address",
          "name": "to",
          "type": "address"
        },
        {
          "internalType": "uint256",
          "name": "tokenId",
          "type": "uint256"
        }
      ],
      "name": "safeTransferFrom",
      "outputs": [],
      "stateMutability": "nonpayable",
      "type": "function"
    },
    {
      "inputs": [
        {
          "internalType": "address",
          "name": "from",
          "type": "address"
        },
        {
          "internalType": "address",
          "name": "to",
          "type": "address"
        },
        {
          "internalType": "uint256",
          "name": "tokenId",
          "type": "uint256"
        },
        {
          "internalType": "bytes",
          "name": "data",
          "type": "bytes"
        }
      ],
      "name": "safeTransferFrom",
      "outputs": [],
      "stateMutability": "nonpayable",
      "type": "function"
    },
    {
      "inputs": [
        {
          "internalType": "address",
          "name": "operator",
          "type": "address"
        },
        {
          "internalType": "bool",
          "name": "approved",
          "type": "bool"
        }
      ],
      "name": "setApprovalForAll",
      "outputs": [],
      "stateMutability": "nonpayable",
      "type": "function"
    },
    {
      "inputs": [
        {
          "internalType": "uint256",
          "name": "_projectId",
          "type": "uint256"
        },
        {
          "internalType": "bytes32",
          "name": "_handle",
          "type": "bytes32"
        }
      ],
      "name": "setHandle",
      "outputs": [],
      "stateMutability": "nonpayable",
      "type": "function"
    },
    {
      "inputs": [
        {
          "internalType": "uint256",
          "name": "_projectId",
          "type": "uint256"
        },
        {
          "internalType": "string",
          "name": "_uri",
          "type": "string"
        }
      ],
      "name": "setUri",
      "outputs": [],
      "stateMutability": "nonpayable",
      "type": "function"
    },
    {
      "inputs": [
        {
          "internalType": "bytes4",
          "name": "interfaceId",
          "type": "bytes4"
        }
      ],
      "name": "supportsInterface",
      "outputs": [
        {
          "internalType": "bool",
          "name": "",
          "type": "bool"
        }
      ],
      "stateMutability": "view",
      "type": "function"
    },
    {
      "inputs": [],
      "name": "symbol",
      "outputs": [
        {
          "internalType": "string",
          "name": "",
          "type": "string"
        }
      ],
      "stateMutability": "view",
      "type": "function"
    },
    {
      "inputs": [
        {
          "internalType": "uint256",
          "name": "tokenId",
          "type": "uint256"
        }
      ],
      "name": "tokenURI",
      "outputs": [
        {
          "internalType": "string",
          "name": "",
          "type": "string"
        }
      ],
      "stateMutability": "view",
      "type": "function"
    },
    {
      "inputs": [
        {
          "internalType": "bytes32",
          "name": "",
          "type": "bytes32"
        }
      ],
      "name": "transferAddressFor",
      "outputs": [
        {
          "internalType": "address",
          "name": "",
          "type": "address"
        }
      ],
      "stateMutability": "view",
      "type": "function"
    },
    {
      "inputs": [
        {
          "internalType": "address",
          "name": "from",
          "type": "address"
        },
        {
          "internalType": "address",
          "name": "to",
          "type": "address"
        },
        {
          "internalType": "uint256",
          "name": "tokenId",
          "type": "uint256"
        }
      ],
      "name": "transferFrom",
      "outputs": [],
      "stateMutability": "nonpayable",
      "type": "function"
    },
    {
      "inputs": [
        {
          "internalType": "uint256",
          "name": "_projectId",
          "type": "uint256"
        },
        {
          "internalType": "address",
          "name": "_to",
          "type": "address"
        },
        {
          "internalType": "bytes32",
          "name": "_newHandle",
          "type": "bytes32"
        }
      ],
      "name": "transferHandle",
      "outputs": [
        {
          "internalType": "bytes32",
          "name": "_handle",
          "type": "bytes32"
        }
      ],
      "stateMutability": "nonpayable",
      "type": "function"
    },
    {
      "inputs": [
        {
          "internalType": "uint256",
          "name": "",
          "type": "uint256"
        }
      ],
      "name": "uriOf",
      "outputs": [
        {
          "internalType": "string",
          "name": "",
          "type": "string"
        }
      ],
      "stateMutability": "view",
      "type": "function"
    }
  ],
  "bytecode": {
    "object": "0x60a060405260006006553480156200001657600080fd5b50604051620036833803806200368383398101604081905262000039916200017a565b806040518060400160405280601081526020016f129d5a58d9589bde081c1c9bda9958dd60821b8152506040518060400160405280601081526020016f12955250d15093d608141493d29150d560821b8152508160009080519060200190620000a4929190620000d4565b508051620000ba906001906020840190620000d4565b50505060601b6001600160601b03191660805250620001e9565b828054620000e290620001ac565b90600052602060002090601f01602090048101928262000106576000855562000151565b82601f106200012157805160ff191683800117855562000151565b8280016001018555821562000151579182015b828111156200015157825182559160200191906001019062000134565b506200015f92915062000163565b5090565b5b808211156200015f576000815560010162000164565b6000602082840312156200018d57600080fd5b81516001600160a01b0381168114620001a557600080fd5b9392505050565b600181811c90821680620001c157607f821691505b60208210811415620001e357634e487b7160e01b600052602260045260246000fd5b50919050565b60805160601c61344a62000239600039600081816103ae0152818161086901528181610f72015281816112f00152818161160d01528181611b3801528181611c110152611d75015261344a6000f3fe608060405234801561001057600080fd5b50600436106101c45760003560e01c806375549979116100f9578063ad007d6311610097578063c87b56dd11610071578063c87b56dd14610403578063d39afed914610416578063e985e9c51461044c578063fc1dd6de1461049557600080fd5b8063ad007d63146103a9578063b88d4fde146103d0578063ba8e8c1d146103e357600080fd5b806395402960116100d3578063954029601461035b57806395d89b411461037b578063a22cb46514610383578063a312889b1461039657600080fd5b80637554997914610322578063782f08ae146103355780637b0230141461034857600080fd5b806323b872dd116101665780634f558e79116101405780634f558e79146102d65780636352211e146102e957806370a08231146102fc57806370ea45f51461030f57600080fd5b806323b872dd1461029057806342842e0e146102a357806349491987146102b657600080fd5b8063081812fc116101a2578063081812fc1461021d578063095ea7b3146102555780630ddf6aee1461026a57806317753c461461027d57600080fd5b806301ffc9a7146101c957806306661abd146101f157806306fdde0314610208575b600080fd5b6101dc6101d7366004612f8b565b6104a8565b60405190151581526020015b60405180910390f35b6101fa60065481565b6040519081526020016101e8565b61021061058d565b6040516101e891906131d7565b61023061022b366004612f4b565b61061f565b60405173ffffffffffffffffffffffffffffffffffffffff90911681526020016101e8565b610268610263366004612f02565b610653565b005b610268610278366004612f4b565b6107e5565b6101fa61028b366004612e8e565b6109a4565b61026861029e366004612d21565b610caa565b6102686102b1366004612d21565b610d4b565b6101fa6102c4366004612f4b565b60086020526000908152604090205481565b6101dc6102e4366004612f4b565b610d66565b6102306102f7366004612f4b565b610d92565b6101fa61030a366004612ccb565b610e1e565b6101fa61031d366004612f64565b610eec565b610268610330366004612fe2565b61126c565b610268610343366004613004565b611589565b610268610356366004612f4b565b61174b565b6101fa610369366004612f4b565b60096020526000908152604090205481565b6102106118e8565b610268610391366004612e60565b6118f7565b6102106103a4366004612f4b565b611906565b6102307f000000000000000000000000000000000000000000000000000000000000000081565b6102686103de366004612d62565b6119a0565b6101fa6103f1366004612f4b565b600b6020526000908152604090205481565b610210610411366004612f4b565b611a48565b610230610424366004612f4b565b600a6020526000908152604090205473ffffffffffffffffffffffffffffffffffffffff1681565b6101dc61045a366004612ce8565b73ffffffffffffffffffffffffffffffffffffffff918216600090815260056020908152604080832093909416825291909152205460ff1690565b6102686104a3366004612f64565b611abc565b60007fffffffff0000000000000000000000000000000000000000000000000000000082167f80ac58cd00000000000000000000000000000000000000000000000000000000148061053b57507fffffffff0000000000000000000000000000000000000000000000000000000082167f5b5e139f00000000000000000000000000000000000000000000000000000000145b8061058757507f01ffc9a7000000000000000000000000000000000000000000000000000000007fffffffff000000000000000000000000000000000000000000000000000000008316145b92915050565b60606000805461059c90613259565b80601f01602080910402602001604051908101604052809291908181526020018280546105c890613259565b80156106155780601f106105ea57610100808354040283529160200191610615565b820191906000526020600020905b8154815290600101906020018083116105f857829003601f168201915b5050505050905090565b600061062a82611ff5565b5060009081526004602052604090205473ffffffffffffffffffffffffffffffffffffffff1690565b600061065e82610d92565b90508073ffffffffffffffffffffffffffffffffffffffff168373ffffffffffffffffffffffffffffffffffffffff161415610721576040517f08c379a000000000000000000000000000000000000000000000000000000000815260206004820152602160248201527f4552433732313a20617070726f76616c20746f2063757272656e74206f776e6560448201527f720000000000000000000000000000000000000000000000000000000000000060648201526084015b60405180910390fd5b3373ffffffffffffffffffffffffffffffffffffffff8216148061074a575061074a813361045a565b6107d6576040517f08c379a000000000000000000000000000000000000000000000000000000000815260206004820152603e60248201527f4552433732313a20617070726f76652063616c6c6572206973206e6f7420746f60448201527f6b656e206f776e6572206e6f7220617070726f76656420666f7220616c6c00006064820152608401610718565b6107e08383612083565b505050565b6107ee81610d92565b8160083373ffffffffffffffffffffffffffffffffffffffff841614806108e357506040517fc161c93f00000000000000000000000000000000000000000000000000000000815233600482015273ffffffffffffffffffffffffffffffffffffffff848116602483015260448201849052606482018390527f0000000000000000000000000000000000000000000000000000000000000000169063c161c93f9060840160206040518083038186803b1580156108ab57600080fd5b505afa1580156108bf573d6000803e3d6000fd5b505050506040513d601f19601f820116820180604052508101906108e39190612f2e565b610949576040517f08c379a000000000000000000000000000000000000000000000000000000000815260206004820152601860248201527f4f706572617461626c653a20554e415554484f52495a454400000000000000006044820152606401610718565b600084815260086020908152604080832054808452600b83528184209390935551338152869183917f6eec1e60946fbfd12ab0bde53c7c27478f3c07b42ffea7d25a719af24590eebf91015b60405180910390a35050505050565b600084610a0d576040517f08c379a000000000000000000000000000000000000000000000000000000000815260206004820152601e60248201527f50726f6a656374733a3a6372656174653a20454d5054595f48414e444c4500006044820152606401610718565b600085815260096020526040902054158015610a4b57506000858152600a602052604090205473ffffffffffffffffffffffffffffffffffffffff16155b610ab1576040517f08c379a000000000000000000000000000000000000000000000000000000000815260206004820152601e60248201527f50726f6a656374733a3a6372656174653a2048414e444c455f54414b454e00006044820152606401610718565b60068054906000610ac1836132ad565b9190505550610ad286600654612123565b60068054600090815260086020908152604080832089905592548883526009909152919020558215610b1c576006546000908152600760205260409020610b1a908585612bcb565b505b73ffffffffffffffffffffffffffffffffffffffff821615610c45578173ffffffffffffffffffffffffffffffffffffffff16636abcf8e36040518163ffffffff1660e01b815260040160206040518083038186803b158015610b7e57600080fd5b505afa158015610b92573d6000803e3d6000fd5b505050506040513d601f19601f82011682018060405250810190610bb69190612fc5565b6006546040517f9fc9ea47000000000000000000000000000000000000000000000000000000008152600481019190915273ffffffffffffffffffffffffffffffffffffffff84811660248301529190911690639fc9ea4790604401600060405180830381600087803b158015610c2c57600080fd5b505af1158015610c40573d6000803e3d6000fd5b505050505b848673ffffffffffffffffffffffffffffffffffffffff166006547f06e07e862bc5e6be67193c75556d1659653327c7846a45ee9921c917717395d887878733604051610c959493929190613195565b60405180910390a45060065495945050505050565b610cb4338261213d565b610d40576040517f08c379a000000000000000000000000000000000000000000000000000000000815260206004820152602e60248201527f4552433732313a2063616c6c6572206973206e6f7420746f6b656e206f776e6560448201527f72206e6f7220617070726f7665640000000000000000000000000000000000006064820152608401610718565b6107e08383836121fd565b6107e0838383604051806020016040528060008152506119a0565b60008181526002602052604081205473ffffffffffffffffffffffffffffffffffffffff161515610587565b60008181526002602052604081205473ffffffffffffffffffffffffffffffffffffffff1680610587576040517f08c379a000000000000000000000000000000000000000000000000000000000815260206004820152601860248201527f4552433732313a20696e76616c696420746f6b656e20494400000000000000006044820152606401610718565b600073ffffffffffffffffffffffffffffffffffffffff8216610ec3576040517f08c379a000000000000000000000000000000000000000000000000000000000815260206004820152602960248201527f4552433732313a2061646472657373207a65726f206973206e6f74206120766160448201527f6c6964206f776e657200000000000000000000000000000000000000000000006064820152608401610718565b5073ffffffffffffffffffffffffffffffffffffffff1660009081526003602052604090205490565b6000610ef784610d92565b8460053373ffffffffffffffffffffffffffffffffffffffff84161480610fec57506040517fc161c93f00000000000000000000000000000000000000000000000000000000815233600482015273ffffffffffffffffffffffffffffffffffffffff848116602483015260448201849052606482018390527f0000000000000000000000000000000000000000000000000000000000000000169063c161c93f9060840160206040518083038186803b158015610fb457600080fd5b505afa158015610fc8573d6000803e3d6000fd5b505050506040513d601f19601f82011682018060405250810190610fec9190612f2e565b611052576040517f08c379a000000000000000000000000000000000000000000000000000000000815260206004820152601860248201527f4f706572617461626c653a20554e415554484f52495a454400000000000000006044820152606401610718565b846110df576040517f08c379a000000000000000000000000000000000000000000000000000000000815260206004820152602660248201527f50726f6a656374733a3a7472616e7366657248616e646c653a20454d5054595f60448201527f48414e444c4500000000000000000000000000000000000000000000000000006064820152608401610718565b60008581526009602052604090205415801561111d57506000848152600a602052604090205473ffffffffffffffffffffffffffffffffffffffff16155b6111a9576040517f08c379a000000000000000000000000000000000000000000000000000000000815260206004820152602660248201527f50726f6a656374733a3a7472616e7366657248616e646c653a2048414e444c4560448201527f5f54414b454e00000000000000000000000000000000000000000000000000006064820152608401610718565b60008781526008602090815260408083208054808552600984528285208590558985528285208c905590899055808452600a83529281902080547fffffffffffffffffffffffff00000000000000000000000000000000000000001673ffffffffffffffffffffffffffffffffffffffff8b16908117909155815189815233938101939093529296508692918a917fd46a8ff77c59c98b930d834768ba8d0983b5a0b99ebbd12af00f2f182eeeeee1910160405180910390a45050509392505050565b61127582610d92565b8260053373ffffffffffffffffffffffffffffffffffffffff8416148061136a57506040517fc161c93f00000000000000000000000000000000000000000000000000000000815233600482015273ffffffffffffffffffffffffffffffffffffffff848116602483015260448201849052606482018390527f0000000000000000000000000000000000000000000000000000000000000000169063c161c93f9060840160206040518083038186803b15801561133257600080fd5b505afa158015611346573d6000803e3d6000fd5b505050506040513d601f19601f8201168201806040525081019061136a9190612f2e565b6113d0576040517f08c379a000000000000000000000000000000000000000000000000000000000815260206004820152601860248201527f4f706572617461626c653a20554e415554484f52495a454400000000000000006044820152606401610718565b8361145d576040517f08c379a000000000000000000000000000000000000000000000000000000000815260206004820152602160248201527f50726f6a656374733a3a73657448616e646c653a20454d5054595f48414e444c60448201527f45000000000000000000000000000000000000000000000000000000000000006064820152608401610718565b60008481526009602052604090205415801561149b57506000848152600a602052604090205473ffffffffffffffffffffffffffffffffffffffff16155b611527576040517f08c379a000000000000000000000000000000000000000000000000000000000815260206004820152602160248201527f50726f6a656374733a3a73657448616e646c653a2048414e444c455f54414b4560448201527f4e000000000000000000000000000000000000000000000000000000000000006064820152608401610718565b600085815260086020818152604080842080548552600983528185208590558885528185208a9055938990529181529186905551338152859187917e079d7af084def275bc880ac88a2e556cf9a2001231b27a71d0082607876ac59101610995565b61159283610d92565b8360063373ffffffffffffffffffffffffffffffffffffffff8416148061168757506040517fc161c93f00000000000000000000000000000000000000000000000000000000815233600482015273ffffffffffffffffffffffffffffffffffffffff848116602483015260448201849052606482018390527f0000000000000000000000000000000000000000000000000000000000000000169063c161c93f9060840160206040518083038186803b15801561164f57600080fd5b505afa158015611663573d6000803e3d6000fd5b505050506040513d601f19601f820116820180604052508101906116879190612f2e565b6116ed576040517f08c379a000000000000000000000000000000000000000000000000000000000815260206004820152601860248201527f4f706572617461626c653a20554e415554484f52495a454400000000000000006044820152606401610718565b6000868152600760205260409020611706908686612bcb565b50857f0f3d240fe5efaeda774d27bf0425f932ddd2098297b26de8070d6c8bef534b1686863360405161173b9392919061315b565b60405180910390a2505050505050565b6000818152600960205260409020546117e6576040517f08c379a000000000000000000000000000000000000000000000000000000000815260206004820152602560248201527f50726f6a656374733a3a6368616c6c656e67653a2048414e444c455f4e4f545f60448201527f54414b454e0000000000000000000000000000000000000000000000000000006064820152608401610718565b6000818152600b602052604090205415611882576040517f08c379a000000000000000000000000000000000000000000000000000000000815260206004820152603460248201527f50726f6a656374733a3a6368616c6c656e67653a2048414e444c455f414c524560448201527f4144595f4245494e475f4348414c4c454e4745440000000000000000000000006064820152608401610718565b60006118926301e13380426131ea565b6000838152600b60209081526040918290208390558151838152339181019190915291925083917faf2127fffe00ce10845b5f12864ad13e3dee324decf80640437b2414f095cba2910160405180910390a25050565b60606001805461059c90613259565b611902338383612464565b5050565b6007602052600090815260409020805461191f90613259565b80601f016020809104026020016040519081016040528092919081815260200182805461194b90613259565b80156119985780601f1061196d57610100808354040283529160200191611998565b820191906000526020600020905b81548152906001019060200180831161197b57829003601f168201915b505050505081565b6119aa338361213d565b611a36576040517f08c379a000000000000000000000000000000000000000000000000000000000815260206004820152602e60248201527f4552433732313a2063616c6c6572206973206e6f7420746f6b656e206f776e6560448201527f72206e6f7220617070726f7665640000000000000000000000000000000000006064820152608401610718565b611a4284848484612592565b50505050565b6060611a5382611ff5565b6000611a6a60408051602081019091526000815290565b90506000815111611a8a5760405180602001604052806000815250611ab5565b80611a9484612635565b604051602001611aa59291906130e3565b6040516020818303038152906040525b9392505050565b818160073373ffffffffffffffffffffffffffffffffffffffff84161480611bb257506040517fc161c93f00000000000000000000000000000000000000000000000000000000815233600482015273ffffffffffffffffffffffffffffffffffffffff848116602483015260448201849052606482018390527f0000000000000000000000000000000000000000000000000000000000000000169063c161c93f9060840160206040518083038186803b158015611b7a57600080fd5b505afa158015611b8e573d6000803e3d6000fd5b505050506040513d601f19601f82011682018060405250810190611bb29190612f2e565b80611c8b57506040517fc161c93f00000000000000000000000000000000000000000000000000000000815233600482015273ffffffffffffffffffffffffffffffffffffffff848116602483015260006044830152606482018390527f0000000000000000000000000000000000000000000000000000000000000000169063c161c93f9060840160206040518083038186803b158015611c5357600080fd5b505afa158015611c67573d6000803e3d6000fd5b505050506040513d601f19601f82011682018060405250810190611c8b9190612f2e565b611cf1576040517f08c379a000000000000000000000000000000000000000000000000000000000815260206004820152601860248201527f4f706572617461626c653a20554e415554484f52495a454400000000000000006044820152606401610718565b611cfa84610d92565b8460073373ffffffffffffffffffffffffffffffffffffffff84161480611def57506040517fc161c93f00000000000000000000000000000000000000000000000000000000815233600482015273ffffffffffffffffffffffffffffffffffffffff848116602483015260448201849052606482018390527f0000000000000000000000000000000000000000000000000000000000000000169063c161c93f9060840160206040518083038186803b158015611db757600080fd5b505afa158015611dcb573d6000803e3d6000fd5b505050506040513d601f19601f82011682018060405250810190611def9190612f2e565b611e55576040517f08c379a000000000000000000000000000000000000000000000000000000000815260206004820152601860248201527f4f706572617461626c653a20554e415554484f52495a454400000000000000006044820152606401610718565b6000898152600a602052604090205473ffffffffffffffffffffffffffffffffffffffff89811691161480611eaf57506000898152600b602052604090205415801590611eaf57506000898152600b602052604090205442115b611f3b576040517f08c379a000000000000000000000000000000000000000000000000000000000815260206004820152602360248201527f50726f6a656374733a3a636c61696d48616e646c653a20554e415554484f524960448201527f5a454400000000000000000000000000000000000000000000000000000000006064820152608401610718565b600087815260086020908152604080832080548452600983528184208490558c84528184208b90558c9055600a825280832080547fffffffffffffffffffffffff0000000000000000000000000000000000000000169055600b82528083209290925590513381528a91899173ffffffffffffffffffffffffffffffffffffffff8c16917f4279bc2ed0274fe67b68b23fa01625aeb258bd08c0b98aab7064f44a5666388b910160405180910390a4505050505050505050565b60008181526002602052604090205473ffffffffffffffffffffffffffffffffffffffff16612080576040517f08c379a000000000000000000000000000000000000000000000000000000000815260206004820152601860248201527f4552433732313a20696e76616c696420746f6b656e20494400000000000000006044820152606401610718565b50565b600081815260046020526040902080547fffffffffffffffffffffffff00000000000000000000000000000000000000001673ffffffffffffffffffffffffffffffffffffffff841690811790915581906120dd82610d92565b73ffffffffffffffffffffffffffffffffffffffff167f8c5be1e5ebec7d5bd14f71427d1e84f3dd0314c0f7b2291e5b200ac8c7c3b92560405160405180910390a45050565b611902828260405180602001604052806000815250612767565b60008061214983610d92565b90508073ffffffffffffffffffffffffffffffffffffffff168473ffffffffffffffffffffffffffffffffffffffff1614806121b7575073ffffffffffffffffffffffffffffffffffffffff80821660009081526005602090815260408083209388168352929052205460ff165b806121f557508373ffffffffffffffffffffffffffffffffffffffff166121dd8461061f565b73ffffffffffffffffffffffffffffffffffffffff16145b949350505050565b8273ffffffffffffffffffffffffffffffffffffffff1661221d82610d92565b73ffffffffffffffffffffffffffffffffffffffff16146122c0576040517f08c379a000000000000000000000000000000000000000000000000000000000815260206004820152602560248201527f4552433732313a207472616e736665722066726f6d20696e636f72726563742060448201527f6f776e65720000000000000000000000000000000000000000000000000000006064820152608401610718565b73ffffffffffffffffffffffffffffffffffffffff8216612362576040517f08c379a0000000000000000000000000000000000000000000000000000000008152602060048201526024808201527f4552433732313a207472616e7366657220746f20746865207a65726f2061646460448201527f72657373000000000000000000000000000000000000000000000000000000006064820152608401610718565b61236d600082612083565b73ffffffffffffffffffffffffffffffffffffffff831660009081526003602052604081208054600192906123a3908490613216565b909155505073ffffffffffffffffffffffffffffffffffffffff821660009081526003602052604081208054600192906123de9084906131ea565b909155505060008181526002602052604080822080547fffffffffffffffffffffffff00000000000000000000000000000000000000001673ffffffffffffffffffffffffffffffffffffffff86811691821790925591518493918716917fddf252ad1be2c89b69c2b068fc378daa952ba7f163c4a11628f55a4df523b3ef91a4505050565b8173ffffffffffffffffffffffffffffffffffffffff168373ffffffffffffffffffffffffffffffffffffffff1614156124fa576040517f08c379a000000000000000000000000000000000000000000000000000000000815260206004820152601960248201527f4552433732313a20617070726f766520746f2063616c6c6572000000000000006044820152606401610718565b73ffffffffffffffffffffffffffffffffffffffff83811660008181526005602090815260408083209487168084529482529182902080547fffffffffffffffffffffffffffffffffffffffffffffffffffffffffffffff001686151590811790915591519182527f17307eab39ab6107e8899845ad3d59bd9653f200f220920489ca2b5937696c31910160405180910390a3505050565b61259d8484846121fd565b6125a98484848461280a565b611a42576040517f08c379a000000000000000000000000000000000000000000000000000000000815260206004820152603260248201527f4552433732313a207472616e7366657220746f206e6f6e20455243373231526560448201527f63656976657220696d706c656d656e74657200000000000000000000000000006064820152608401610718565b60608161267557505060408051808201909152600181527f3000000000000000000000000000000000000000000000000000000000000000602082015290565b8160005b811561269f5780612689816132ad565b91506126989050600a83613202565b9150612679565b60008167ffffffffffffffff8111156126ba576126ba613387565b6040519080825280601f01601f1916602001820160405280156126e4576020820181803683370190505b5090505b84156121f5576126f9600183613216565b9150612706600a866132e6565b6127119060306131ea565b60f81b81838151811061272657612726613358565b60200101907effffffffffffffffffffffffffffffffffffffffffffffffffffffffffffff1916908160001a905350612760600a86613202565b94506126e8565b6127718383612a09565b61277e600084848461280a565b6107e0576040517f08c379a000000000000000000000000000000000000000000000000000000000815260206004820152603260248201527f4552433732313a207472616e7366657220746f206e6f6e20455243373231526560448201527f63656976657220696d706c656d656e74657200000000000000000000000000006064820152608401610718565b600073ffffffffffffffffffffffffffffffffffffffff84163b156129fe576040517f150b7a0200000000000000000000000000000000000000000000000000000000815273ffffffffffffffffffffffffffffffffffffffff85169063150b7a0290612881903390899088908890600401613112565b602060405180830381600087803b15801561289b57600080fd5b505af19250505080156128e9575060408051601f3d9081017fffffffffffffffffffffffffffffffffffffffffffffffffffffffffffffffe01682019092526128e691810190612fa8565b60015b6129b3573d808015612917576040519150601f19603f3d011682016040523d82523d6000602084013e61291c565b606091505b5080516129ab576040517f08c379a000000000000000000000000000000000000000000000000000000000815260206004820152603260248201527f4552433732313a207472616e7366657220746f206e6f6e20455243373231526560448201527f63656976657220696d706c656d656e74657200000000000000000000000000006064820152608401610718565b805181602001fd5b7fffffffff00000000000000000000000000000000000000000000000000000000167f150b7a02000000000000000000000000000000000000000000000000000000001490506121f5565b506001949350505050565b73ffffffffffffffffffffffffffffffffffffffff8216612a86576040517f08c379a000000000000000000000000000000000000000000000000000000000815260206004820181905260248201527f4552433732313a206d696e7420746f20746865207a65726f20616464726573736044820152606401610718565b60008181526002602052604090205473ffffffffffffffffffffffffffffffffffffffff1615612b12576040517f08c379a000000000000000000000000000000000000000000000000000000000815260206004820152601c60248201527f4552433732313a20746f6b656e20616c7265616479206d696e746564000000006044820152606401610718565b73ffffffffffffffffffffffffffffffffffffffff82166000908152600360205260408120805460019290612b489084906131ea565b909155505060008181526002602052604080822080547fffffffffffffffffffffffff00000000000000000000000000000000000000001673ffffffffffffffffffffffffffffffffffffffff861690811790915590518392907fddf252ad1be2c89b69c2b068fc378daa952ba7f163c4a11628f55a4df523b3ef908290a45050565b828054612bd790613259565b90600052602060002090601f016020900481019282612bf95760008555612c5d565b82601f10612c30578280017fffffffffffffffffffffffffffffffffffffffffffffffffffffffffffffff00823516178555612c5d565b82800160010185558215612c5d579182015b82811115612c5d578235825591602001919060010190612c42565b50612c69929150612c6d565b5090565b5b80821115612c695760008155600101612c6e565b60008083601f840112612c9457600080fd5b50813567ffffffffffffffff811115612cac57600080fd5b602083019150836020828501011115612cc457600080fd5b9250929050565b600060208284031215612cdd57600080fd5b8135611ab5816133b6565b60008060408385031215612cfb57600080fd5b8235612d06816133b6565b91506020830135612d16816133b6565b809150509250929050565b600080600060608486031215612d3657600080fd5b8335612d41816133b6565b92506020840135612d51816133b6565b929592945050506040919091013590565b60008060008060808587031215612d7857600080fd5b8435612d83816133b6565b93506020850135612d93816133b6565b925060408501359150606085013567ffffffffffffffff80821115612db757600080fd5b818701915087601f830112612dcb57600080fd5b813581811115612ddd57612ddd613387565b604051601f82017fffffffffffffffffffffffffffffffffffffffffffffffffffffffffffffffe0908116603f01168101908382118183101715612e2357612e23613387565b816040528281528a6020848701011115612e3c57600080fd5b82602086016020830137600060208483010152809550505050505092959194509250565b60008060408385031215612e7357600080fd5b8235612e7e816133b6565b91506020830135612d16816133d8565b600080600080600060808688031215612ea657600080fd5b8535612eb1816133b6565b945060208601359350604086013567ffffffffffffffff811115612ed457600080fd5b612ee088828901612c82565b9094509250506060860135612ef4816133b6565b809150509295509295909350565b60008060408385031215612f1557600080fd5b8235612f20816133b6565b946020939093013593505050565b600060208284031215612f4057600080fd5b8151611ab5816133d8565b600060208284031215612f5d57600080fd5b5035919050565b600080600060608486031215612f7957600080fd5b833592506020840135612d51816133b6565b600060208284031215612f9d57600080fd5b8135611ab5816133e6565b600060208284031215612fba57600080fd5b8151611ab5816133e6565b600060208284031215612fd757600080fd5b8151611ab5816133b6565b60008060408385031215612ff557600080fd5b50508035926020909101359150565b60008060006040848603121561301957600080fd5b83359250602084013567ffffffffffffffff81111561303757600080fd5b61304386828701612c82565b9497909650939450505050565b6000815180845261306881602086016020860161322d565b601f017fffffffffffffffffffffffffffffffffffffffffffffffffffffffffffffffe0169290920160200192915050565b8183528181602085013750600060208284010152600060207fffffffffffffffffffffffffffffffffffffffffffffffffffffffffffffffe0601f840116840101905092915050565b600083516130f581846020880161322d565b83519083019061310981836020880161322d565b01949350505050565b600073ffffffffffffffffffffffffffffffffffffffff8087168352808616602084015250836040830152608060608301526131516080830184613050565b9695505050505050565b60408152600061316f60408301858761309a565b905073ffffffffffffffffffffffffffffffffffffffff83166020830152949350505050565b6060815260006131a960608301868861309a565b73ffffffffffffffffffffffffffffffffffffffff9485166020840152929093166040909101529392505050565b602081526000611ab56020830184613050565b600082198211156131fd576131fd6132fa565b500190565b60008261321157613211613329565b500490565b600082821015613228576132286132fa565b500390565b60005b83811015613248578181015183820152602001613230565b83811115611a425750506000910152565b600181811c9082168061326d57607f821691505b602082108114156132a7577f4e487b7100000000000000000000000000000000000000000000000000000000600052602260045260246000fd5b50919050565b60007fffffffffffffffffffffffffffffffffffffffffffffffffffffffffffffffff8214156132df576132df6132fa565b5060010190565b6000826132f5576132f5613329565b500690565b7f4e487b7100000000000000000000000000000000000000000000000000000000600052601160045260246000fd5b7f4e487b7100000000000000000000000000000000000000000000000000000000600052601260045260246000fd5b7f4e487b7100000000000000000000000000000000000000000000000000000000600052603260045260246000fd5b7f4e487b7100000000000000000000000000000000000000000000000000000000600052604160045260246000fd5b73ffffffffffffffffffffffffffffffffffffffff8116811461208057600080fd5b801515811461208057600080fd5b7fffffffff000000000000000000000000000000000000000000000000000000008116811461208057600080fdfea264697066735822122007e4cbe7ae521bdc25bb49ead002c5b3e9bd0865c228f9a5a1d604a8dfae8ca964736f6c63430008060033",
    "linkReferences": {}
  },
  "methodIdentifiers": {
    "approve(address,uint256)": "095ea7b3",
    "balanceOf(address)": "70a08231",
    "challengeExpiryOf(bytes32)": "ba8e8c1d",
    "challengeHandle(bytes32)": "7b023014",
    "claimHandle(bytes32,address,uint256)": "fc1dd6de",
    "count()": "06661abd",
    "create(address,bytes32,string,address)": "17753c46",
    "exists(uint256)": "4f558e79",
    "getApproved(uint256)": "081812fc",
    "handleOf(uint256)": "49491987",
    "isApprovedForAll(address,address)": "e985e9c5",
    "name()": "06fdde03",
    "operatorStore()": "ad007d63",
    "ownerOf(uint256)": "6352211e",
    "projectFor(bytes32)": "95402960",
    "renewHandle(uint256)": "0ddf6aee",
    "safeTransferFrom(address,address,uint256)": "42842e0e",
    "safeTransferFrom(address,address,uint256,bytes)": "b88d4fde",
    "setApprovalForAll(address,bool)": "a22cb465",
    "setHandle(uint256,bytes32)": "75549979",
    "setUri(uint256,string)": "782f08ae",
    "supportsInterface(bytes4)": "01ffc9a7",
    "symbol()": "95d89b41",
    "tokenURI(uint256)": "c87b56dd",
    "transferAddressFor(bytes32)": "d39afed9",
    "transferFrom(address,address,uint256)": "23b872dd",
    "transferHandle(uint256,address,bytes32)": "70ea45f5",
    "uriOf(uint256)": "a312889b"
  },
  "id": 21
}